{"contracts/UserProfile.sol":{"UserProfile":{"abi":[{"anonymous":false,"inputs":[{"indexed":true,"internalType":"address","name":"previousOwner","type":"address"},{"indexed":true,"internalType":"address","name":"newOwner","type":"address"}],"name":"OwnershipTransferred","type":"event"},{"anonymous":false,"inputs":[{"indexed":false,"internalType":"address","name":"account","type":"address"}],"name":"Paused","type":"event"},{"anonymous":false,"inputs":[{"indexed":true,"internalType":"address","name":"user","type":"address"},{"indexed":false,"internalType":"string","name":"name","type":"string"},{"indexed":false,"internalType":"string","name":"avatarHash","type":"string"}],"name":"ProfileCreated","type":"event"},{"anonymous":false,"inputs":[{"indexed":true,"internalType":"address","name":"user","type":"address"}],"name":"ProfileDeactivated","type":"event"},{"anonymous":false,"inputs":[{"indexed":true,"internalType":"address","name":"user","type":"address"}],"name":"ProfileReactivated","type":"event"},{"anonymous":false,"inputs":[{"indexed":true,"internalType":"address","name":"user","type":"address"},{"indexed":false,"internalType":"string","name":"name","type":"string"},{"indexed":false,"internalType":"string","name":"avatarHash","type":"string"}],"name":"ProfileUpdated","type":"event"},{"anonymous":false,"inputs":[{"indexed":false,"internalType":"address","name":"account","type":"address"}],"name":"Unpaused","type":"event"},{"inputs":[{"internalType":"address","name":"user","type":"address"}],"name":"checkProfileExists","outputs":[{"internalType":"bool","name":"","type":"bool"}],"stateMutability":"view","type":"function"},{"inputs":[{"internalType":"string","name":"_name","type":"string"},{"internalType":"string","name":"_email","type":"string"},{"internalType":"string","name":"_bio","type":"string"},{"internalType":"string","name":"_avatarHash","type":"string"},{"internalType":"string","name":"_coverHash","type":"string"},{"internalType":"string[]","name":"_socialLinks","type":"string[]"},{"internalType":"string[]","name":"_skills","type":"string[]"},{"internalType":"uint256[]","name":"_skillScores","type":"uint256[]"},{"internalType":"string","name":"_location","type":"string"},{"internalType":"string","name":"_website","type":"string"},{"internalType":"string","name":"_github","type":"string"},{"internalType":"string","name":"_linkedin","type":"string"},{"internalType":"string","name":"_twitter","type":"string"}],"name":"createProfile","outputs":[],"stateMutability":"nonpayable","type":"function"},{"inputs":[],"name":"deactivateProfile","outputs":[],"stateMutability":"nonpayable","type":"function"},{"inputs":[{"internalType":"address","name":"user","type":"address"}],"name":"getProfile","outputs":[{"components":[{"internalType":"string","name":"name","type":"string"},{"internalType":"string","name":"email","type":"string"},{"internalType":"string","name":"bio","type":"string"},{"internalType":"string","name":"avatarHash","type":"string"},{"internalType":"string","name":"coverHash","type":"string"},{"internalType":"string[]","name":"socialLinks","type":"string[]"},{"internalType":"string[]","name":"skills","type":"string[]"},{"internalType":"uint256[]","name":"skillScores","type":"uint256[]"},{"internalType":"string","name":"location","type":"string"},{"internalType":"string","name":"website","type":"string"},{"internalType":"string","name":"github","type":"string"},{"internalType":"string","name":"linkedin","type":"string"},{"internalType":"string","name":"twitter","type":"string"},{"internalType":"uint256","name":"createdAt","type":"uint256"},{"internalType":"uint256","name":"updatedAt","type":"uint256"},{"internalType":"bool","name":"isActive","type":"bool"}],"internalType":"struct UserProfile.Profile","name":"","type":"tuple"}],"stateMutability":"view","type":"function"},{"inputs":[{"internalType":"uint256","name":"index","type":"uint256"}],"name":"getProfileAddress","outputs":[{"internalType":"address","name":"","type":"address"}],"stateMutability":"view","type":"function"},{"inputs":[{"internalType":"address","name":"user","type":"address"}],"name":"getProfileBasicInfo","outputs":[{"internalType":"string","name":"","type":"string"},{"internalType":"string","name":"","type":"string"},{"internalType":"string","name":"","type":"string"},{"internalType":"string","name":"","type":"string"},{"internalType":"string","name":"","type":"string"},{"internalType":"string","name":"","type":"string"},{"internalType":"string","name":"","type":"string"},{"internalType":"string","name":"","type":"string"},{"internalType":"string","name":"","type":"string"},{"internalType":"string","name":"","type":"string"},{"internalType":"uint256","name":"","type":"uint256"},{"internalType":"uint256","name":"","type":"uint256"},{"internalType":"bool","name":"","type":"bool"}],"stateMutability":"view","type":"function"},{"inputs":[],"name":"getTotalProfiles","outputs":[{"internalType":"uint256","name":"","type":"uint256"}],"stateMutability":"view","type":"function"},{"inputs":[{"internalType":"address","name":"user","type":"address"}],"name":"getUserSkills","outputs":[{"internalType":"string[]","name":"","type":"string[]"},{"internalType":"uint256[]","name":"","type":"uint256[]"}],"stateMutability":"view","type":"function"},{"inputs":[{"internalType":"address","name":"user","type":"address"}],"name":"getUserSocialLinks","outputs":[{"internalType":"string[]","name":"","type":"string[]"}],"stateMutability":"view","type":"function"},{"inputs":[{"internalType":"address","name":"","type":"address"}],"name":"hasProfile","outputs":[{"internalType":"bool","name":"","type":"bool"}],"stateMutability":"view","type":"function"},{"inputs":[],"name":"owner","outputs":[{"internalType":"address","name":"","type":"address"}],"stateMutability":"view","type":"function"},{"inputs":[],"name":"pause","outputs":[],"stateMutability":"nonpayable","type":"function"},{"inputs":[],"name":"paused","outputs":[{"internalType":"bool","name":"","type":"bool"}],"stateMutability":"view","type":"function"},{"inputs":[{"internalType":"uint256","name":"","type":"uint256"}],"name":"profileAddresses","outputs":[{"internalType":"address","name":"","type":"address"}],"stateMutability":"view","type":"function"},{"inputs":[{"internalType":"address","name":"","type":"address"}],"name":"profiles","outputs":[{"internalType":"string","name":"name","type":"string"},{"internalType":"string","name":"email","type":"string"},{"internalType":"string","name":"bio","type":"string"},{"internalType":"string","name":"avatarHash","type":"string"},{"internalType":"string","name":"coverHash","type":"string"},{"internalType":"string","name":"location","type":"string"},{"internalType":"string","name":"website","type":"string"},{"internalType":"string","name":"github","type":"string"},{"internalType":"string","name":"linkedin","type":"string"},{"internalType":"string","name":"twitter","type":"string"},{"internalType":"uint256","name":"createdAt","type":"uint256"},{"internalType":"uint256","name":"updatedAt","type":"uint256"},{"internalType":"bool","name":"isActive","type":"bool"}],"stateMutability":"view","type":"function"},{"inputs":[],"name":"reactivateProfile","outputs":[],"stateMutability":"nonpayable","type":"function"},{"inputs":[],"name":"renounceOwnership","outputs":[],"stateMutability":"nonpayable","type":"function"},{"inputs":[{"internalType":"address","name":"newOwner","type":"address"}],"name":"transferOwnership","outputs":[],"stateMutability":"nonpayable","type":"function"},{"inputs":[],"name":"unpause","outputs":[],"stateMutability":"nonpayable","type":"function"},{"inputs":[{"internalType":"string","name":"_avatarHash","type":"string"}],"name":"updateAvatar","outputs":[],"stateMutability":"nonpayable","type":"function"},{"inputs":[{"internalType":"string","name":"_coverHash","type":"string"}],"name":"updateCover","outputs":[],"stateMutability":"nonpayable","type":"function"},{"inputs":[{"internalType":"string","name":"_name","type":"string"},{"internalType":"string","name":"_email","type":"string"},{"internalType":"string","name":"_bio","type":"string"},{"internalType":"string","name":"_avatarHash","type":"string"},{"internalType":"string","name":"_coverHash","type":"string"},{"internalType":"string[]","name":"_socialLinks","type":"string[]"},{"internalType":"string[]","name":"_skills","type":"string[]"},{"internalType":"uint256[]","name":"_skillScores","type":"uint256[]"},{"internalType":"string","name":"_location","type":"string"},{"internalType":"string","name":"_website","type":"string"},{"internalType":"string","name":"_github","type":"string"},{"internalType":"string","name":"_linkedin","type":"string"},{"internalType":"string","name":"_twitter","type":"string"}],"name":"updateProfile","outputs":[],"stateMutability":"nonpayable","type":"function"}],"evm":{"bytecode":{"linkReferences":{},"object":"608080604052346100695760008054336001600160a01b0319821681178355916001600160a01b03909116907f8be0079c531659141344cd1fd0a4f28419497f9722a3daafe3b4186f6b6457e09080a36001805560ff1960025416600255611e56908161006f8239f35b600080fdfe6080604052600436101561001257600080fd5b60003560e01c80630f53a47014610fae57806320a17bca14610f33578063240b6d4914610e685780633f4ba83a14610dd4578063422bf49814610bfa5780635c3752f414610a005780635c975abb146109dd578063715018a61461098457806375db7721146109065780638456cb59146108ac5780638da5cb5b146108835780639fe958b9146107b3578063a12f30b914610770578063a787c80b14610770578063bab17ce914610752578063bbe1562714610616578063bc4cb225146103b2578063d190ce951461033f578063d2886ebc14610284578063db8ce08c14610220578063e58b0aa1146101de5763f2fde38b1461010e57600080fd5b346101d95760203660031901126101d9576004356001600160a01b03818116918290036101d95761013d611d72565b811561018557600054826bffffffffffffffffffffffff60a01b821617600055167f8be0079c531659141344cd1fd0a4f28419497f9722a3daafe3b4186f6b6457e0600080a3005b60405162461bcd60e51b815260206004820152602660248201527f4f776e61626c653a206e6577206f776e657220697320746865207a65726f206160448201526564647265737360d01b6064820152608490fd5b600080fd5b346101d95760203660031901126101d9576004356005548110156101d9576102076020916118e2565b905460405160039290921b1c6001600160a01b03168152f35b346101d95760203660031901126101d957600435600554811015610249576102076020916118e2565b60405162461bcd60e51b8152602060048201526013602482015272496e646578206f7574206f6620626f756e647360681b6044820152606490fd5b346101d9576020806003193601126101d9576004356001600160a01b038116908190036101d957908161030392600052600482526102c960ff60406000205416611947565b600052600381526040600020906102ee60076102e76006850161198c565b93016119f3565b90604051938493604085526040850190611885565b8381038285015281808451928381520193019160005b82811061032857505050500390f35b835185528695509381019392810192600101610319565b346101d95760203660031901126101d9576004356001600160a01b038116908190036101d95780600052600460205261037f60ff60406000205416611947565b60005260036020526103ae61039a600560406000200161198c565b604051918291602083526020830190611885565b0390f35b346101d9576103c036611544565b959a9897909496996103d3949294611d2e565b6103db611dca565b33600052600460205260ff604060002054166105d8578c9b9c51151561040090611b63565b8c5188511461040e90611ba6565b3360005260036020526040600020996104278d8c611a5d565b6104349060018c01611a5d565b6104419060028b01611a5d565b61044e8860038b01611a5d565b61045b9060048a01611a5d565b6104689060088901611a5d565b6104759060098801611a5d565b61048290600a8701611a5d565b61048f90600b8601611a5d565b61049c90600c8501611a5d565b42600d84015542600e840155600f83019260ff199384815416600117905560009660058201975b86518110156104e957806104e36104dc6001938a611c7d565b518b611c91565b016104c3565b50869493946000956007600685019401965b8351811015610535578061051b61051460019387611c7d565b5187611c91565b61052f6105288289611c7d565b518a611cd4565b016104fb565b50853360005260046020526001604060002091825416179055600554600160401b8110156105c2577f6b4494367229a908b0585b361e2871a21f8eb4cd852c02f55c9e06989f4bb2aa916105928260016105b994016005556118e2565b81549060031b9033821b9160018060a01b03901b1916179055604051918291339583611d09565b0390a260018055005b634e487b7160e01b600052604160045260246000fd5b60405162461bcd60e51b815260206004820152601660248201527550726f66696c6520616c72656164792065786973747360501b6044820152606490fd5b346101d95760203660031901126101d9576004356001600160a01b038116908190036101d957600052600360205260406000206040516106618161065a81856117ef565b0382611433565b6103ae604051926106808461067981600185016117ef565b0385611433565b6040519061069c8261069581600285016117ef565b0383611433565b6040516106b08161065a81600386016117ef565b6040516106c48161065a81600487016117ef565b6040516106d88161065a81600888016117ef565b6040516106ec8161065a81600989016117ef565b604051906107018261069581600a8a016117ef565b604051926107168461067981600b8b016117ef565b604051946107328661072b81600c8c016117ef565b0387611433565b600d8801549660ff600f600e8b01549a015416996040519d8e9d8e6116e0565b346101d95760003660031901126101d9576020600554604051908152f35b346101d95760203660031901126101d9576004356001600160a01b038116908190036101d9576000526004602052602060ff604060002054166040519015158152f35b346101d95760203660031901126101d95760043567ffffffffffffffff81116101d9576107e4903690600401611455565b6107ec611d2e565b33600052600460205261080660ff60406000205416611947565b336000526003602052610820816003604060002001611a5d565b3360005260036020527f6eb3a1c6a4675ba92d44e090515b1ceea358f26565d2854df0c99c3f5eaf985061086f604060002042600e82015561087e6040519283926040845260408401906117ef565b82810360208401523395611379565b0390a2005b346101d95760003660031901126101d9576000546040516001600160a01b039091168152602090f35b346101d95760003660031901126101d9576108c5611d72565b6108cd611d2e565b600160ff1960025416176002557f62e78cea01bee320cd4e420270b5ea74000d11b0c9f74754ebdbfc544b05a2586020604051338152a1005b346101d95760003660031901126101d95761091f611d2e565b33600052600460205261093960ff60406000205416611947565b3360005260036020526040600020600f8101600160ff19825416179055600e42910155337f2f8799ef4f000b97cdf991687848135ef7312e252e0ff97e8c595a91771a0523600080a2005b346101d95760003660031901126101d95761099d611d72565b600080546001600160a01b0319811682556001600160a01b03167f8be0079c531659141344cd1fd0a4f28419497f9722a3daafe3b4186f6b6457e08280a3005b346101d95760003660031901126101d957602060ff600254166040519015158152f35b346101d95760203660031901126101d9576004356001600160a01b038116908190036101d957806000526004602052610a4060ff60406000205416611947565b60005260036020526040600020604051610a5981611416565b604051610a6a8161065a81866117ef565b81526103ae60405191610a8b83610a8481600188016117ef565b0384611433565b602081019283526101c06101a061018060405196610ab788610ab081600285016117ef565b0389611433565b6040850197885260405190610ad38261069581600385016117ef565b60608601918252604051610aee8161065a81600486016117ef565b60808701908152610b016005830161198c565b60a0880152610b126006830161198c565b60c0880152610b23600783016119f3565b60e0880152604051610b3c8161065a81600887016117ef565b610100880190815260405190610b598261069581600988016117ef565b610120890191825260405192610b768461067981600a89016117ef565b6101408a0193845260ff600f60405196610b9788610ab081600b85016117ef565b6101608d019788528c6040519a8b91610bb783610a8481600c88016117ef565b01528c600d8201549b8c9101528c600e8201549c8d9101520154161515998a6101e0820152519b519c51955190519151925193519451956040519d8e9d8e6116e0565b346101d957610c0836611544565b959a9b989790949699610c1c949294611d2e565b610c24611dca565b33600052600460205260406000205460ff16610c3f90611947565b89511515610c4c90611b63565b8b51885114610c5a90611ba6565b33600052600360205260406000209c8d610c748c82611a5d565b60010190610c8191611a5d565b610c8e9060028e01611a5d565b610c9b8860038e01611a5d565b610ca89060048d01611a5d565b610cb59060088c01611a5d565b610cc29060098b01611a5d565b610ccf90600a8a01611a5d565b610cdc90600b8901611a5d565b610ce990600c8801611a5d565b42600e8701556005860195610cfd87611bfc565b60005b8551811015610d265780610d20610d1960019389611c7d565b518a611c91565b01610d00565b508560076006830192610d3884611bfc565b019485546000875580610db8575b5060005b8251811015610d845780610d6a610d6360019386611c7d565b5186611c91565b610d7e610d778288611c7d565b5189611cd4565b01610d4a565b507f6eb3a1c6a4675ba92d44e090515b1ceea358f26565d2854df0c99c3f5eaf98506105b986604051918291339583611d09565b610dce9087600052602060002090810190611a46565b86610d46565b346101d95760003660031901126101d957610ded611d72565b60025460ff811615610e2c5760ff19166002557f5db9ee0a495bf2e6ff9c91a7834c1ba4fdd244a5e8aa4e537bd38aeae4b073aa6020604051338152a1005b60405162461bcd60e51b815260206004820152601460248201527314185d5cd8589b194e881b9bdd081c185d5cd95960621b6044820152606490fd5b346101d95760203660031901126101d95760043567ffffffffffffffff81116101d957610e9c610ed4913690600401611455565b610ea4611d2e565b336000526004602052610ebe60ff60406000205416611947565b3360005260036020526004604060002001611a5d565b336000526003602052604060002042600e8201557f6eb3a1c6a4675ba92d44e090515b1ceea358f26565d2854df0c99c3f5eaf9850604051604081528061087e610f2160408301866117ef565b828103602084015260033396016117ef565b346101d95760003660031901126101d957610f4c611d2e565b336000526004602052610f6660ff60406000205416611947565b3360005260036020526040600020600f810160ff198154169055600e42910155337f54a43e4629a715b7e7723ff4f7400f2b5804224e3c8fcf6c96d0bbb46ae02c93600080a2005b346101d95760203660031901126101d9576004356001600160a01b03811681036101d957610fdc6080611416565b6060608081905260a081905260c081905260e08190526101008190526101208190526101408190526101608190526101808190526101a08190526101c08190526101e08190526102005260006102208190526102408190526102608190526001600160a01b03821681526004602052604090205461105c9060ff16611947565b60018060a01b03166000526003602052604060002060ff600f6040519261108284611416565b6040516110938161065a81856117ef565b84526040516110a98161065a81600186016117ef565b60208501526040516110c28161065a81600286016117ef565b60408501526040516110db8161065a81600386016117ef565b60608501526040516110f48161065a81600486016117ef565b60808501526111056005820161198c565b60a08501526111166006820161198c565b60c0850152611127600782016119f3565b60e08501526040516111408161065a81600886016117ef565b61010085015260405161115a8161065a81600986016117ef565b6101208501526040516111748161065a81600a86016117ef565b61014085015260405161118e8161065a81600b86016117ef565b6101608501526040516111a88161065a81600c86016117ef565b610180850152600d8101546101a0850152600e8101546101c085015201541615156101e08201526040516020815261128461126e61125861124261122c611216611200885161020060208a0152610220890190611379565b6020890151888203601f190160408a0152611379565b6040880151878203601f19016060890152611379565b6060870151868203601f19016080880152611379565b6080860151858203601f190160a0870152611379565b60a0850151848203601f190160c08601526113b9565b60c0840151838203601f190160e08501526113b9565b9160e081015192601f19838203016101008401526020808551928381520194019060005b818110611363575050506101e061133e61132661130e6112f66112de8798610100880151601f198a8303016101208b0152611379565b610120870151888203601f19016101408a0152611379565b610140860151878203601f1901610160890152611379565b610160850151868203601f1901610180880152611379565b610180840151858203601f19016101a0870152611379565b916101a08101516101c08501526101c081015182850152015115156102008301520390f35b82518652602095860195909201916001016112a8565b919082519283825260005b8481106113a5575050826000602080949584010152601f8019910116010190565b602081830181015184830182015201611384565b90808251908181526020809101926020808460051b8301019501936000915b8483106113e85750505050505090565b9091929394958480611406600193601f198682030187528a51611379565b98019301930191949392906113d8565b610200810190811067ffffffffffffffff8211176105c257604052565b90601f8019910116810190811067ffffffffffffffff8211176105c257604052565b81601f820112156101d95780359067ffffffffffffffff82116105c2576040519261148a601f8401601f191660200185611433565b828452602083830101116101d957816000926020809301838601378301015290565b67ffffffffffffffff81116105c25760051b60200190565b81601f820112156101d9578035916020916114de846114ac565b936114ec6040519586611433565b808552838086019160051b830101928084116101d957848301915b8483106115175750505050505090565b823567ffffffffffffffff81116101d957869161153984848094890101611455565b815201920191611507565b6101a06003198201126101d95760049067ffffffffffffffff82358181116101d95782611572918501611455565b936024358281116101d95783611589918601611455565b936044358381116101d957846115a0918301611455565b936064358481116101d957816115b7918401611455565b936084358181116101d957826115ce918501611455565b9360a4358281116101d957836115e59186016114c4565b9360c4358381116101d957846115fc9183016114c4565b9360e4358481116101d957816023820112156101d9578083013561161f816114ac565b9161162d6040519384611433565b8183526020916024602085019160051b830101918583116101d957602401905b8282106116d1575050505093610104358181116101d95782611670918501611455565b93610124358281116101d95783611688918601611455565b93610144358381116101d957846116a0918301611455565b93610164358481116101d957816116b8918401611455565b93610184359081116101d9576116ce9201611455565b90565b8135815290830190830161164d565b9b98948c6101809c9f9e9b9892976117596117679361174b6117839961173d6117a19f9a61172f6117929f9b6117216117759d6101a0808d528c0190611379565b908a820360208c0152611379565b9088820360408a0152611379565b908682036060880152611379565b908482036080860152611379565b9160a0818403910152611379565b8c810360c08e015290611379565b908a820360e08c0152611379565b908882036101008a0152611379565b90868203610120880152611379565b956101408501526101608401521515910152565b90600182811c921680156117e5575b60208310146117cf57565b634e487b7160e01b600052602260045260246000fd5b91607f16916117c4565b8054600093926117fe826117b5565b918282526020936001916001811690816000146118665750600114611825575b5050505050565b90939495506000929192528360002092846000945b8386106118525750505050010190388080808061181e565b80548587018301529401938590820161183a565b60ff19168685015250505090151560051b01019150388080808061181e565b90808251908181526020809101926020808460051b8301019501936000915b8483106118b45750505050505090565b90919293949584806118d2600193601f198682030187528a51611379565b98019301930191949392906118a4565b6005548110156119195760056000527f036b6384b5eca791c62761152d0c79bb0604c104a5fb6f4eb0703f3154bb3db00190600090565b634e487b7160e01b600052603260045260246000fd5b80548210156119195760005260206000200190600090565b1561194e57565b60405162461bcd60e51b8152602060048201526016602482015275141c9bd99a5b1948191bd95cc81b9bdd08195e1a5cdd60521b6044820152606490fd5b908154611998816114ac565b926040936119a96040519182611433565b82815280946020809201926000526020600020906000935b8585106119d057505050505050565b600184819284516119e58161065a818a6117ef565b8152019301940193916119c1565b90604051918281549182825260209260208301916000526020600020936000905b828210611a2c57505050611a2a92500383611433565b565b855484526001958601958895509381019390910190611a14565b818110611a51575050565b60008155600101611a46565b919091825167ffffffffffffffff81116105c257611a7b82546117b5565b601f8111611b26575b50602080601f8311600114611ac1575081929394600092611ab6575b50508160011b916000199060031b1c1916179055565b015190503880611aa0565b90601f19831695846000526020600020926000905b888210611b0e57505083600195969710611af5575b505050811b019055565b015160001960f88460031b161c19169055388080611aeb565b80600185968294968601518155019501930190611ad6565b611b5390836000526020600020601f840160051c81019160208510611b59575b601f0160051c0190611a46565b38611a84565b9091508190611b46565b15611b6a57565b60405162461bcd60e51b81526020600482015260146024820152734e616d652063616e6e6f7420626520656d70747960601b6044820152606490fd5b15611bad57565b60405162461bcd60e51b815260206004820152602160248201527f536b696c6c7320616e642073636f726573206c656e677468206d69736d6174636044820152600d60fb1b6064820152608490fd5b80549060009081815582611c0f57505050565b81526020808220928301925b838110611c285750505050565b8083611c36600193546117b5565b80611c44575b505001611c1b565b601f8082118514611c5b57505081555b8338611c3c565b611c7490848452868420920160051c8201858301611a46565b81835555611c54565b80518210156119195760209160051b010190565b8054600160401b8110156105c257611cae9160018201815561192f565b919091611cbe57611a2a91611a5d565b634e487b7160e01b600052600060045260246000fd5b8054600160401b8110156105c257611cf19160018201815561192f565b819291549060031b91821b91600019901b1916179055565b9091611d206116ce93604084526040840190611379565b916020818403910152611379565b60ff60025416611d3a57565b60405162461bcd60e51b815260206004820152601060248201526f14185d5cd8589b194e881c185d5cd95960821b6044820152606490fd5b6000546001600160a01b03163303611d8657565b606460405162461bcd60e51b815260206004820152602060248201527f4f776e61626c653a2063616c6c6572206973206e6f7420746865206f776e65726044820152fd5b600260015414611ddb576002600155565b60405162461bcd60e51b815260206004820152601f60248201527f5265656e7472616e637947756172643a207265656e7472616e742063616c6c006044820152606490fdfea264697066735822122035390b218cd9ab6f32ee755d7ce626e9a22277acae686061b90be62ed1b0421364736f6c63430008180033","opcodes":"PUSH1 0x80 DUP1 PUSH1 0x40 MSTORE CALLVALUE PUSH2 0x69 JUMPI PUSH1 0x0 DUP1 SLOAD CALLER PUSH1 0x1 PUSH1 0x1 PUSH1 0xA0 SHL SUB NOT DUP3 AND DUP2 OR DUP4 SSTORE SWAP2 PUSH1 0x1 PUSH1 0x1 PUSH1 0xA0 SHL SUB SWAP1 SWAP2 AND SWAP1 PUSH32 0x8BE0079C531659141344CD1FD0A4F28419497F9722A3DAAFE3B4186F6B6457E0 SWAP1 DUP1 LOG3 PUSH1 0x1 DUP1 SSTORE PUSH1 0xFF NOT PUSH1 0x2 SLOAD AND PUSH1 0x2 SSTORE PUSH2 0x1E56 SWAP1 DUP2 PUSH2 0x6F DUP3 CODECOPY RETURN JUMPDEST PUSH1 0x0 DUP1 REVERT INVALID PUSH1 0x80 PUSH1 0x40 MSTORE PUSH1 0x4 CALLDATASIZE LT ISZERO PUSH2 0x12 JUMPI PUSH1 0x0 DUP1 REVERT JUMPDEST PUSH1 0x0 CALLDATALOAD PUSH1 0xE0 SHR DUP1 PUSH4 0xF53A470 EQ PUSH2 0xFAE JUMPI DUP1 PUSH4 0x20A17BCA EQ PUSH2 0xF33 JUMPI DUP1 PUSH4 0x240B6D49 EQ PUSH2 0xE68 JUMPI DUP1 PUSH4 0x3F4BA83A EQ PUSH2 0xDD4 JUMPI DUP1 PUSH4 0x422BF498 EQ PUSH2 0xBFA JUMPI DUP1 PUSH4 0x5C3752F4 EQ PUSH2 0xA00 JUMPI DUP1 PUSH4 0x5C975ABB EQ PUSH2 0x9DD JUMPI DUP1 PUSH4 0x715018A6 EQ PUSH2 0x984 JUMPI DUP1 PUSH4 0x75DB7721 EQ PUSH2 0x906 JUMPI DUP1 PUSH4 0x8456CB59 EQ PUSH2 0x8AC JUMPI DUP1 PUSH4 0x8DA5CB5B EQ PUSH2 0x883 JUMPI DUP1 PUSH4 0x9FE958B9 EQ PUSH2 0x7B3 JUMPI DUP1 PUSH4 0xA12F30B9 EQ PUSH2 0x770 JUMPI DUP1 PUSH4 0xA787C80B EQ PUSH2 0x770 JUMPI DUP1 PUSH4 0xBAB17CE9 EQ PUSH2 0x752 JUMPI DUP1 PUSH4 0xBBE15627 EQ PUSH2 0x616 JUMPI DUP1 PUSH4 0xBC4CB225 EQ PUSH2 0x3B2 JUMPI DUP1 PUSH4 0xD190CE95 EQ PUSH2 0x33F JUMPI DUP1 PUSH4 0xD2886EBC EQ PUSH2 0x284 JUMPI DUP1 PUSH4 0xDB8CE08C EQ PUSH2 0x220 JUMPI DUP1 PUSH4 0xE58B0AA1 EQ PUSH2 0x1DE JUMPI PUSH4 0xF2FDE38B EQ PUSH2 0x10E JUMPI PUSH1 0x0 DUP1 REVERT JUMPDEST CALLVALUE PUSH2 0x1D9 JUMPI PUSH1 0x20 CALLDATASIZE PUSH1 0x3 NOT ADD SLT PUSH2 0x1D9 JUMPI PUSH1 0x4 CALLDATALOAD PUSH1 0x1 PUSH1 0x1 PUSH1 0xA0 SHL SUB DUP2 DUP2 AND SWAP2 DUP3 SWAP1 SUB PUSH2 0x1D9 JUMPI PUSH2 0x13D PUSH2 0x1D72 JUMP JUMPDEST DUP2 ISZERO PUSH2 0x185 JUMPI PUSH1 0x0 SLOAD DUP3 PUSH12 0xFFFFFFFFFFFFFFFFFFFFFFFF PUSH1 0xA0 SHL DUP3 AND OR PUSH1 0x0 SSTORE AND PUSH32 0x8BE0079C531659141344CD1FD0A4F28419497F9722A3DAAFE3B4186F6B6457E0 PUSH1 0x0 DUP1 LOG3 STOP JUMPDEST PUSH1 0x40 MLOAD PUSH3 0x461BCD PUSH1 0xE5 SHL DUP2 MSTORE PUSH1 0x20 PUSH1 0x4 DUP3 ADD MSTORE PUSH1 0x26 PUSH1 0x24 DUP3 ADD MSTORE PUSH32 0x4F776E61626C653A206E6577206F776E657220697320746865207A65726F2061 PUSH1 0x44 DUP3 ADD MSTORE PUSH6 0x646472657373 PUSH1 0xD0 SHL PUSH1 0x64 DUP3 ADD MSTORE PUSH1 0x84 SWAP1 REVERT JUMPDEST PUSH1 0x0 DUP1 REVERT JUMPDEST CALLVALUE PUSH2 0x1D9 JUMPI PUSH1 0x20 CALLDATASIZE PUSH1 0x3 NOT ADD SLT PUSH2 0x1D9 JUMPI PUSH1 0x4 CALLDATALOAD PUSH1 0x5 SLOAD DUP2 LT ISZERO PUSH2 0x1D9 JUMPI PUSH2 0x207 PUSH1 0x20 SWAP2 PUSH2 0x18E2 JUMP JUMPDEST SWAP1 SLOAD PUSH1 0x40 MLOAD PUSH1 0x3 SWAP3 SWAP1 SWAP3 SHL SHR PUSH1 0x1 PUSH1 0x1 PUSH1 0xA0 SHL SUB AND DUP2 MSTORE RETURN JUMPDEST CALLVALUE PUSH2 0x1D9 JUMPI PUSH1 0x20 CALLDATASIZE PUSH1 0x3 NOT ADD SLT PUSH2 0x1D9 JUMPI PUSH1 0x4 CALLDATALOAD PUSH1 0x5 SLOAD DUP2 LT ISZERO PUSH2 0x249 JUMPI PUSH2 0x207 PUSH1 0x20 SWAP2 PUSH2 0x18E2 JUMP JUMPDEST PUSH1 0x40 MLOAD PUSH3 0x461BCD PUSH1 0xE5 SHL DUP2 MSTORE PUSH1 0x20 PUSH1 0x4 DUP3 ADD MSTORE PUSH1 0x13 PUSH1 0x24 DUP3 ADD MSTORE PUSH19 0x496E646578206F7574206F6620626F756E6473 PUSH1 0x68 SHL PUSH1 0x44 DUP3 ADD MSTORE PUSH1 0x64 SWAP1 REVERT JUMPDEST CALLVALUE PUSH2 0x1D9 JUMPI PUSH1 0x20 DUP1 PUSH1 0x3 NOT CALLDATASIZE ADD SLT PUSH2 0x1D9 JUMPI PUSH1 0x4 CALLDATALOAD PUSH1 0x1 PUSH1 0x1 PUSH1 0xA0 SHL SUB DUP2 AND SWAP1 DUP2 SWAP1 SUB PUSH2 0x1D9 JUMPI SWAP1 DUP2 PUSH2 0x303 SWAP3 PUSH1 0x0 MSTORE PUSH1 0x4 DUP3 MSTORE PUSH2 0x2C9 PUSH1 0xFF PUSH1 0x40 PUSH1 0x0 KECCAK256 SLOAD AND PUSH2 0x1947 JUMP JUMPDEST PUSH1 0x0 MSTORE PUSH1 0x3 DUP2 MSTORE PUSH1 0x40 PUSH1 0x0 KECCAK256 SWAP1 PUSH2 0x2EE PUSH1 0x7 PUSH2 0x2E7 PUSH1 0x6 DUP6 ADD PUSH2 0x198C JUMP JUMPDEST SWAP4 ADD PUSH2 0x19F3 JUMP JUMPDEST SWAP1 PUSH1 0x40 MLOAD SWAP4 DUP5 SWAP4 PUSH1 0x40 DUP6 MSTORE PUSH1 0x40 DUP6 ADD SWAP1 PUSH2 0x1885 JUMP JUMPDEST DUP4 DUP2 SUB DUP3 DUP6 ADD MSTORE DUP2 DUP1 DUP5 MLOAD SWAP3 DUP4 DUP2 MSTORE ADD SWAP4 ADD SWAP2 PUSH1 0x0 JUMPDEST DUP3 DUP2 LT PUSH2 0x328 JUMPI POP POP POP POP SUB SWAP1 RETURN JUMPDEST DUP4 MLOAD DUP6 MSTORE DUP7 SWAP6 POP SWAP4 DUP2 ADD SWAP4 SWAP3 DUP2 ADD SWAP3 PUSH1 0x1 ADD PUSH2 0x319 JUMP JUMPDEST CALLVALUE PUSH2 0x1D9 JUMPI PUSH1 0x20 CALLDATASIZE PUSH1 0x3 NOT ADD SLT PUSH2 0x1D9 JUMPI PUSH1 0x4 CALLDATALOAD PUSH1 0x1 PUSH1 0x1 PUSH1 0xA0 SHL SUB DUP2 AND SWAP1 DUP2 SWAP1 SUB PUSH2 0x1D9 JUMPI DUP1 PUSH1 0x0 MSTORE PUSH1 0x4 PUSH1 0x20 MSTORE PUSH2 0x37F PUSH1 0xFF PUSH1 0x40 PUSH1 0x0 KECCAK256 SLOAD AND PUSH2 0x1947 JUMP JUMPDEST PUSH1 0x0 MSTORE PUSH1 0x3 PUSH1 0x20 MSTORE PUSH2 0x3AE PUSH2 0x39A PUSH1 0x5 PUSH1 0x40 PUSH1 0x0 KECCAK256 ADD PUSH2 0x198C JUMP JUMPDEST PUSH1 0x40 MLOAD SWAP2 DUP3 SWAP2 PUSH1 0x20 DUP4 MSTORE PUSH1 0x20 DUP4 ADD SWAP1 PUSH2 0x1885 JUMP JUMPDEST SUB SWAP1 RETURN JUMPDEST CALLVALUE PUSH2 0x1D9 JUMPI PUSH2 0x3C0 CALLDATASIZE PUSH2 0x1544 JUMP JUMPDEST SWAP6 SWAP11 SWAP9 SWAP8 SWAP1 SWAP5 SWAP7 SWAP10 PUSH2 0x3D3 SWAP5 SWAP3 SWAP5 PUSH2 0x1D2E JUMP JUMPDEST PUSH2 0x3DB PUSH2 0x1DCA JUMP JUMPDEST CALLER PUSH1 0x0 MSTORE PUSH1 0x4 PUSH1 0x20 MSTORE PUSH1 0xFF PUSH1 0x40 PUSH1 0x0 KECCAK256 SLOAD AND PUSH2 0x5D8 JUMPI DUP13 SWAP12 SWAP13 MLOAD ISZERO ISZERO PUSH2 0x400 SWAP1 PUSH2 0x1B63 JUMP JUMPDEST DUP13 MLOAD DUP9 MLOAD EQ PUSH2 0x40E SWAP1 PUSH2 0x1BA6 JUMP JUMPDEST CALLER PUSH1 0x0 MSTORE PUSH1 0x3 PUSH1 0x20 MSTORE PUSH1 0x40 PUSH1 0x0 KECCAK256 SWAP10 PUSH2 0x427 DUP14 DUP13 PUSH2 0x1A5D JUMP JUMPDEST PUSH2 0x434 SWAP1 PUSH1 0x1 DUP13 ADD PUSH2 0x1A5D JUMP JUMPDEST PUSH2 0x441 SWAP1 PUSH1 0x2 DUP12 ADD PUSH2 0x1A5D JUMP JUMPDEST PUSH2 0x44E DUP9 PUSH1 0x3 DUP12 ADD PUSH2 0x1A5D JUMP JUMPDEST PUSH2 0x45B SWAP1 PUSH1 0x4 DUP11 ADD PUSH2 0x1A5D JUMP JUMPDEST PUSH2 0x468 SWAP1 PUSH1 0x8 DUP10 ADD PUSH2 0x1A5D JUMP JUMPDEST PUSH2 0x475 SWAP1 PUSH1 0x9 DUP9 ADD PUSH2 0x1A5D JUMP JUMPDEST PUSH2 0x482 SWAP1 PUSH1 0xA DUP8 ADD PUSH2 0x1A5D JUMP JUMPDEST PUSH2 0x48F SWAP1 PUSH1 0xB DUP7 ADD PUSH2 0x1A5D JUMP JUMPDEST PUSH2 0x49C SWAP1 PUSH1 0xC DUP6 ADD PUSH2 0x1A5D JUMP JUMPDEST TIMESTAMP PUSH1 0xD DUP5 ADD SSTORE TIMESTAMP PUSH1 0xE DUP5 ADD SSTORE PUSH1 0xF DUP4 ADD SWAP3 PUSH1 0xFF NOT SWAP4 DUP5 DUP2 SLOAD AND PUSH1 0x1 OR SWAP1 SSTORE PUSH1 0x0 SWAP7 PUSH1 0x5 DUP3 ADD SWAP8 JUMPDEST DUP7 MLOAD DUP2 LT ISZERO PUSH2 0x4E9 JUMPI DUP1 PUSH2 0x4E3 PUSH2 0x4DC PUSH1 0x1 SWAP4 DUP11 PUSH2 0x1C7D JUMP JUMPDEST MLOAD DUP12 PUSH2 0x1C91 JUMP JUMPDEST ADD PUSH2 0x4C3 JUMP JUMPDEST POP DUP7 SWAP5 SWAP4 SWAP5 PUSH1 0x0 SWAP6 PUSH1 0x7 PUSH1 0x6 DUP6 ADD SWAP5 ADD SWAP7 JUMPDEST DUP4 MLOAD DUP2 LT ISZERO PUSH2 0x535 JUMPI DUP1 PUSH2 0x51B PUSH2 0x514 PUSH1 0x1 SWAP4 DUP8 PUSH2 0x1C7D JUMP JUMPDEST MLOAD DUP8 PUSH2 0x1C91 JUMP JUMPDEST PUSH2 0x52F PUSH2 0x528 DUP3 DUP10 PUSH2 0x1C7D JUMP JUMPDEST MLOAD DUP11 PUSH2 0x1CD4 JUMP JUMPDEST ADD PUSH2 0x4FB JUMP JUMPDEST POP DUP6 CALLER PUSH1 0x0 MSTORE PUSH1 0x4 PUSH1 0x20 MSTORE PUSH1 0x1 PUSH1 0x40 PUSH1 0x0 KECCAK256 SWAP2 DUP3 SLOAD AND OR SWAP1 SSTORE PUSH1 0x5 SLOAD PUSH1 0x1 PUSH1 0x40 SHL DUP2 LT ISZERO PUSH2 0x5C2 JUMPI PUSH32 0x6B4494367229A908B0585B361E2871A21F8EB4CD852C02F55C9E06989F4BB2AA SWAP2 PUSH2 0x592 DUP3 PUSH1 0x1 PUSH2 0x5B9 SWAP5 ADD PUSH1 0x5 SSTORE PUSH2 0x18E2 JUMP JUMPDEST DUP2 SLOAD SWAP1 PUSH1 0x3 SHL SWAP1 CALLER DUP3 SHL SWAP2 PUSH1 0x1 DUP1 PUSH1 0xA0 SHL SUB SWAP1 SHL NOT AND OR SWAP1 SSTORE PUSH1 0x40 MLOAD SWAP2 DUP3 SWAP2 CALLER SWAP6 DUP4 PUSH2 0x1D09 JUMP JUMPDEST SUB SWAP1 LOG2 PUSH1 0x1 DUP1 SSTORE STOP JUMPDEST PUSH4 0x4E487B71 PUSH1 0xE0 SHL PUSH1 0x0 MSTORE PUSH1 0x41 PUSH1 0x4 MSTORE PUSH1 0x24 PUSH1 0x0 REVERT JUMPDEST PUSH1 0x40 MLOAD PUSH3 0x461BCD PUSH1 0xE5 SHL DUP2 MSTORE PUSH1 0x20 PUSH1 0x4 DUP3 ADD MSTORE PUSH1 0x16 PUSH1 0x24 DUP3 ADD MSTORE PUSH22 0x50726F66696C6520616C726561647920657869737473 PUSH1 0x50 SHL PUSH1 0x44 DUP3 ADD MSTORE PUSH1 0x64 SWAP1 REVERT JUMPDEST CALLVALUE PUSH2 0x1D9 JUMPI PUSH1 0x20 CALLDATASIZE PUSH1 0x3 NOT ADD SLT PUSH2 0x1D9 JUMPI PUSH1 0x4 CALLDATALOAD PUSH1 0x1 PUSH1 0x1 PUSH1 0xA0 SHL SUB DUP2 AND SWAP1 DUP2 SWAP1 SUB PUSH2 0x1D9 JUMPI PUSH1 0x0 MSTORE PUSH1 0x3 PUSH1 0x20 MSTORE PUSH1 0x40 PUSH1 0x0 KECCAK256 PUSH1 0x40 MLOAD PUSH2 0x661 DUP2 PUSH2 0x65A DUP2 DUP6 PUSH2 0x17EF JUMP JUMPDEST SUB DUP3 PUSH2 0x1433 JUMP JUMPDEST PUSH2 0x3AE PUSH1 0x40 MLOAD SWAP3 PUSH2 0x680 DUP5 PUSH2 0x679 DUP2 PUSH1 0x1 DUP6 ADD PUSH2 0x17EF JUMP JUMPDEST SUB DUP6 PUSH2 0x1433 JUMP JUMPDEST PUSH1 0x40 MLOAD SWAP1 PUSH2 0x69C DUP3 PUSH2 0x695 DUP2 PUSH1 0x2 DUP6 ADD PUSH2 0x17EF JUMP JUMPDEST SUB DUP4 PUSH2 0x1433 JUMP JUMPDEST PUSH1 0x40 MLOAD PUSH2 0x6B0 DUP2 PUSH2 0x65A DUP2 PUSH1 0x3 DUP7 ADD PUSH2 0x17EF JUMP JUMPDEST PUSH1 0x40 MLOAD PUSH2 0x6C4 DUP2 PUSH2 0x65A DUP2 PUSH1 0x4 DUP8 ADD PUSH2 0x17EF JUMP JUMPDEST PUSH1 0x40 MLOAD PUSH2 0x6D8 DUP2 PUSH2 0x65A DUP2 PUSH1 0x8 DUP9 ADD PUSH2 0x17EF JUMP JUMPDEST PUSH1 0x40 MLOAD PUSH2 0x6EC DUP2 PUSH2 0x65A DUP2 PUSH1 0x9 DUP10 ADD PUSH2 0x17EF JUMP JUMPDEST PUSH1 0x40 MLOAD SWAP1 PUSH2 0x701 DUP3 PUSH2 0x695 DUP2 PUSH1 0xA DUP11 ADD PUSH2 0x17EF JUMP JUMPDEST PUSH1 0x40 MLOAD SWAP3 PUSH2 0x716 DUP5 PUSH2 0x679 DUP2 PUSH1 0xB DUP12 ADD PUSH2 0x17EF JUMP JUMPDEST PUSH1 0x40 MLOAD SWAP5 PUSH2 0x732 DUP7 PUSH2 0x72B DUP2 PUSH1 0xC DUP13 ADD PUSH2 0x17EF JUMP JUMPDEST SUB DUP8 PUSH2 0x1433 JUMP JUMPDEST PUSH1 0xD DUP9 ADD SLOAD SWAP7 PUSH1 0xFF PUSH1 0xF PUSH1 0xE DUP12 ADD SLOAD SWAP11 ADD SLOAD AND SWAP10 PUSH1 0x40 MLOAD SWAP14 DUP15 SWAP14 DUP15 PUSH2 0x16E0 JUMP JUMPDEST CALLVALUE PUSH2 0x1D9 JUMPI PUSH1 0x0 CALLDATASIZE PUSH1 0x3 NOT ADD SLT PUSH2 0x1D9 JUMPI PUSH1 0x20 PUSH1 0x5 SLOAD PUSH1 0x40 MLOAD SWAP1 DUP2 MSTORE RETURN JUMPDEST CALLVALUE PUSH2 0x1D9 JUMPI PUSH1 0x20 CALLDATASIZE PUSH1 0x3 NOT ADD SLT PUSH2 0x1D9 JUMPI PUSH1 0x4 CALLDATALOAD PUSH1 0x1 PUSH1 0x1 PUSH1 0xA0 SHL SUB DUP2 AND SWAP1 DUP2 SWAP1 SUB PUSH2 0x1D9 JUMPI PUSH1 0x0 MSTORE PUSH1 0x4 PUSH1 0x20 MSTORE PUSH1 0x20 PUSH1 0xFF PUSH1 0x40 PUSH1 0x0 KECCAK256 SLOAD AND PUSH1 0x40 MLOAD SWAP1 ISZERO ISZERO DUP2 MSTORE RETURN JUMPDEST CALLVALUE PUSH2 0x1D9 JUMPI PUSH1 0x20 CALLDATASIZE PUSH1 0x3 NOT ADD SLT PUSH2 0x1D9 JUMPI PUSH1 0x4 CALLDATALOAD PUSH8 0xFFFFFFFFFFFFFFFF DUP2 GT PUSH2 0x1D9 JUMPI PUSH2 0x7E4 SWAP1 CALLDATASIZE SWAP1 PUSH1 0x4 ADD PUSH2 0x1455 JUMP JUMPDEST PUSH2 0x7EC PUSH2 0x1D2E JUMP JUMPDEST CALLER PUSH1 0x0 MSTORE PUSH1 0x4 PUSH1 0x20 MSTORE PUSH2 0x806 PUSH1 0xFF PUSH1 0x40 PUSH1 0x0 KECCAK256 SLOAD AND PUSH2 0x1947 JUMP JUMPDEST CALLER PUSH1 0x0 MSTORE PUSH1 0x3 PUSH1 0x20 MSTORE PUSH2 0x820 DUP2 PUSH1 0x3 PUSH1 0x40 PUSH1 0x0 KECCAK256 ADD PUSH2 0x1A5D JUMP JUMPDEST CALLER PUSH1 0x0 MSTORE PUSH1 0x3 PUSH1 0x20 MSTORE PUSH32 0x6EB3A1C6A4675BA92D44E090515B1CEEA358F26565D2854DF0C99C3F5EAF9850 PUSH2 0x86F PUSH1 0x40 PUSH1 0x0 KECCAK256 TIMESTAMP PUSH1 0xE DUP3 ADD SSTORE PUSH2 0x87E PUSH1 0x40 MLOAD SWAP3 DUP4 SWAP3 PUSH1 0x40 DUP5 MSTORE PUSH1 0x40 DUP5 ADD SWAP1 PUSH2 0x17EF JUMP JUMPDEST DUP3 DUP2 SUB PUSH1 0x20 DUP5 ADD MSTORE CALLER SWAP6 PUSH2 0x1379 JUMP JUMPDEST SUB SWAP1 LOG2 STOP JUMPDEST CALLVALUE PUSH2 0x1D9 JUMPI PUSH1 0x0 CALLDATASIZE PUSH1 0x3 NOT ADD SLT PUSH2 0x1D9 JUMPI PUSH1 0x0 SLOAD PUSH1 0x40 MLOAD PUSH1 0x1 PUSH1 0x1 PUSH1 0xA0 SHL SUB SWAP1 SWAP2 AND DUP2 MSTORE PUSH1 0x20 SWAP1 RETURN JUMPDEST CALLVALUE PUSH2 0x1D9 JUMPI PUSH1 0x0 CALLDATASIZE PUSH1 0x3 NOT ADD SLT PUSH2 0x1D9 JUMPI PUSH2 0x8C5 PUSH2 0x1D72 JUMP JUMPDEST PUSH2 0x8CD PUSH2 0x1D2E JUMP JUMPDEST PUSH1 0x1 PUSH1 0xFF NOT PUSH1 0x2 SLOAD AND OR PUSH1 0x2 SSTORE PUSH32 0x62E78CEA01BEE320CD4E420270B5EA74000D11B0C9F74754EBDBFC544B05A258 PUSH1 0x20 PUSH1 0x40 MLOAD CALLER DUP2 MSTORE LOG1 STOP JUMPDEST CALLVALUE PUSH2 0x1D9 JUMPI PUSH1 0x0 CALLDATASIZE PUSH1 0x3 NOT ADD SLT PUSH2 0x1D9 JUMPI PUSH2 0x91F PUSH2 0x1D2E JUMP JUMPDEST CALLER PUSH1 0x0 MSTORE PUSH1 0x4 PUSH1 0x20 MSTORE PUSH2 0x939 PUSH1 0xFF PUSH1 0x40 PUSH1 0x0 KECCAK256 SLOAD AND PUSH2 0x1947 JUMP JUMPDEST CALLER PUSH1 0x0 MSTORE PUSH1 0x3 PUSH1 0x20 MSTORE PUSH1 0x40 PUSH1 0x0 KECCAK256 PUSH1 0xF DUP2 ADD PUSH1 0x1 PUSH1 0xFF NOT DUP3 SLOAD AND OR SWAP1 SSTORE PUSH1 0xE TIMESTAMP SWAP2 ADD SSTORE CALLER PUSH32 0x2F8799EF4F000B97CDF991687848135EF7312E252E0FF97E8C595A91771A0523 PUSH1 0x0 DUP1 LOG2 STOP JUMPDEST CALLVALUE PUSH2 0x1D9 JUMPI PUSH1 0x0 CALLDATASIZE PUSH1 0x3 NOT ADD SLT PUSH2 0x1D9 JUMPI PUSH2 0x99D PUSH2 0x1D72 JUMP JUMPDEST PUSH1 0x0 DUP1 SLOAD PUSH1 0x1 PUSH1 0x1 PUSH1 0xA0 SHL SUB NOT DUP2 AND DUP3 SSTORE PUSH1 0x1 PUSH1 0x1 PUSH1 0xA0 SHL SUB AND PUSH32 0x8BE0079C531659141344CD1FD0A4F28419497F9722A3DAAFE3B4186F6B6457E0 DUP3 DUP1 LOG3 STOP JUMPDEST CALLVALUE PUSH2 0x1D9 JUMPI PUSH1 0x0 CALLDATASIZE PUSH1 0x3 NOT ADD SLT PUSH2 0x1D9 JUMPI PUSH1 0x20 PUSH1 0xFF PUSH1 0x2 SLOAD AND PUSH1 0x40 MLOAD SWAP1 ISZERO ISZERO DUP2 MSTORE RETURN JUMPDEST CALLVALUE PUSH2 0x1D9 JUMPI PUSH1 0x20 CALLDATASIZE PUSH1 0x3 NOT ADD SLT PUSH2 0x1D9 JUMPI PUSH1 0x4 CALLDATALOAD PUSH1 0x1 PUSH1 0x1 PUSH1 0xA0 SHL SUB DUP2 AND SWAP1 DUP2 SWAP1 SUB PUSH2 0x1D9 JUMPI DUP1 PUSH1 0x0 MSTORE PUSH1 0x4 PUSH1 0x20 MSTORE PUSH2 0xA40 PUSH1 0xFF PUSH1 0x40 PUSH1 0x0 KECCAK256 SLOAD AND PUSH2 0x1947 JUMP JUMPDEST PUSH1 0x0 MSTORE PUSH1 0x3 PUSH1 0x20 MSTORE PUSH1 0x40 PUSH1 0x0 KECCAK256 PUSH1 0x40 MLOAD PUSH2 0xA59 DUP2 PUSH2 0x1416 JUMP JUMPDEST PUSH1 0x40 MLOAD PUSH2 0xA6A DUP2 PUSH2 0x65A DUP2 DUP7 PUSH2 0x17EF JUMP JUMPDEST DUP2 MSTORE PUSH2 0x3AE PUSH1 0x40 MLOAD SWAP2 PUSH2 0xA8B DUP4 PUSH2 0xA84 DUP2 PUSH1 0x1 DUP9 ADD PUSH2 0x17EF JUMP JUMPDEST SUB DUP5 PUSH2 0x1433 JUMP JUMPDEST PUSH1 0x20 DUP2 ADD SWAP3 DUP4 MSTORE PUSH2 0x1C0 PUSH2 0x1A0 PUSH2 0x180 PUSH1 0x40 MLOAD SWAP7 PUSH2 0xAB7 DUP9 PUSH2 0xAB0 DUP2 PUSH1 0x2 DUP6 ADD PUSH2 0x17EF JUMP JUMPDEST SUB DUP10 PUSH2 0x1433 JUMP JUMPDEST PUSH1 0x40 DUP6 ADD SWAP8 DUP9 MSTORE PUSH1 0x40 MLOAD SWAP1 PUSH2 0xAD3 DUP3 PUSH2 0x695 DUP2 PUSH1 0x3 DUP6 ADD PUSH2 0x17EF JUMP JUMPDEST PUSH1 0x60 DUP7 ADD SWAP2 DUP3 MSTORE PUSH1 0x40 MLOAD PUSH2 0xAEE DUP2 PUSH2 0x65A DUP2 PUSH1 0x4 DUP7 ADD PUSH2 0x17EF JUMP JUMPDEST PUSH1 0x80 DUP8 ADD SWAP1 DUP2 MSTORE PUSH2 0xB01 PUSH1 0x5 DUP4 ADD PUSH2 0x198C JUMP JUMPDEST PUSH1 0xA0 DUP9 ADD MSTORE PUSH2 0xB12 PUSH1 0x6 DUP4 ADD PUSH2 0x198C JUMP JUMPDEST PUSH1 0xC0 DUP9 ADD MSTORE PUSH2 0xB23 PUSH1 0x7 DUP4 ADD PUSH2 0x19F3 JUMP JUMPDEST PUSH1 0xE0 DUP9 ADD MSTORE PUSH1 0x40 MLOAD PUSH2 0xB3C DUP2 PUSH2 0x65A DUP2 PUSH1 0x8 DUP8 ADD PUSH2 0x17EF JUMP JUMPDEST PUSH2 0x100 DUP9 ADD SWAP1 DUP2 MSTORE PUSH1 0x40 MLOAD SWAP1 PUSH2 0xB59 DUP3 PUSH2 0x695 DUP2 PUSH1 0x9 DUP9 ADD PUSH2 0x17EF JUMP JUMPDEST PUSH2 0x120 DUP10 ADD SWAP2 DUP3 MSTORE PUSH1 0x40 MLOAD SWAP3 PUSH2 0xB76 DUP5 PUSH2 0x679 DUP2 PUSH1 0xA DUP10 ADD PUSH2 0x17EF JUMP JUMPDEST PUSH2 0x140 DUP11 ADD SWAP4 DUP5 MSTORE PUSH1 0xFF PUSH1 0xF PUSH1 0x40 MLOAD SWAP7 PUSH2 0xB97 DUP9 PUSH2 0xAB0 DUP2 PUSH1 0xB DUP6 ADD PUSH2 0x17EF JUMP JUMPDEST PUSH2 0x160 DUP14 ADD SWAP8 DUP9 MSTORE DUP13 PUSH1 0x40 MLOAD SWAP11 DUP12 SWAP2 PUSH2 0xBB7 DUP4 PUSH2 0xA84 DUP2 PUSH1 0xC DUP9 ADD PUSH2 0x17EF JUMP JUMPDEST ADD MSTORE DUP13 PUSH1 0xD DUP3 ADD SLOAD SWAP12 DUP13 SWAP2 ADD MSTORE DUP13 PUSH1 0xE DUP3 ADD SLOAD SWAP13 DUP14 SWAP2 ADD MSTORE ADD SLOAD AND ISZERO ISZERO SWAP10 DUP11 PUSH2 0x1E0 DUP3 ADD MSTORE MLOAD SWAP12 MLOAD SWAP13 MLOAD SWAP6 MLOAD SWAP1 MLOAD SWAP2 MLOAD SWAP3 MLOAD SWAP4 MLOAD SWAP5 MLOAD SWAP6 PUSH1 0x40 MLOAD SWAP14 DUP15 SWAP14 DUP15 PUSH2 0x16E0 JUMP JUMPDEST CALLVALUE PUSH2 0x1D9 JUMPI PUSH2 0xC08 CALLDATASIZE PUSH2 0x1544 JUMP JUMPDEST SWAP6 SWAP11 SWAP12 SWAP9 SWAP8 SWAP1 SWAP5 SWAP7 SWAP10 PUSH2 0xC1C SWAP5 SWAP3 SWAP5 PUSH2 0x1D2E JUMP JUMPDEST PUSH2 0xC24 PUSH2 0x1DCA JUMP JUMPDEST CALLER PUSH1 0x0 MSTORE PUSH1 0x4 PUSH1 0x20 MSTORE PUSH1 0x40 PUSH1 0x0 KECCAK256 SLOAD PUSH1 0xFF AND PUSH2 0xC3F SWAP1 PUSH2 0x1947 JUMP JUMPDEST DUP10 MLOAD ISZERO ISZERO PUSH2 0xC4C SWAP1 PUSH2 0x1B63 JUMP JUMPDEST DUP12 MLOAD DUP9 MLOAD EQ PUSH2 0xC5A SWAP1 PUSH2 0x1BA6 JUMP JUMPDEST CALLER PUSH1 0x0 MSTORE PUSH1 0x3 PUSH1 0x20 MSTORE PUSH1 0x40 PUSH1 0x0 KECCAK256 SWAP13 DUP14 PUSH2 0xC74 DUP13 DUP3 PUSH2 0x1A5D JUMP JUMPDEST PUSH1 0x1 ADD SWAP1 PUSH2 0xC81 SWAP2 PUSH2 0x1A5D JUMP JUMPDEST PUSH2 0xC8E SWAP1 PUSH1 0x2 DUP15 ADD PUSH2 0x1A5D JUMP JUMPDEST PUSH2 0xC9B DUP9 PUSH1 0x3 DUP15 ADD PUSH2 0x1A5D JUMP JUMPDEST PUSH2 0xCA8 SWAP1 PUSH1 0x4 DUP14 ADD PUSH2 0x1A5D JUMP JUMPDEST PUSH2 0xCB5 SWAP1 PUSH1 0x8 DUP13 ADD PUSH2 0x1A5D JUMP JUMPDEST PUSH2 0xCC2 SWAP1 PUSH1 0x9 DUP12 ADD PUSH2 0x1A5D JUMP JUMPDEST PUSH2 0xCCF SWAP1 PUSH1 0xA DUP11 ADD PUSH2 0x1A5D JUMP JUMPDEST PUSH2 0xCDC SWAP1 PUSH1 0xB DUP10 ADD PUSH2 0x1A5D JUMP JUMPDEST PUSH2 0xCE9 SWAP1 PUSH1 0xC DUP9 ADD PUSH2 0x1A5D JUMP JUMPDEST TIMESTAMP PUSH1 0xE DUP8 ADD SSTORE PUSH1 0x5 DUP7 ADD SWAP6 PUSH2 0xCFD DUP8 PUSH2 0x1BFC JUMP JUMPDEST PUSH1 0x0 JUMPDEST DUP6 MLOAD DUP2 LT ISZERO PUSH2 0xD26 JUMPI DUP1 PUSH2 0xD20 PUSH2 0xD19 PUSH1 0x1 SWAP4 DUP10 PUSH2 0x1C7D JUMP JUMPDEST MLOAD DUP11 PUSH2 0x1C91 JUMP JUMPDEST ADD PUSH2 0xD00 JUMP JUMPDEST POP DUP6 PUSH1 0x7 PUSH1 0x6 DUP4 ADD SWAP3 PUSH2 0xD38 DUP5 PUSH2 0x1BFC JUMP JUMPDEST ADD SWAP5 DUP6 SLOAD PUSH1 0x0 DUP8 SSTORE DUP1 PUSH2 0xDB8 JUMPI JUMPDEST POP PUSH1 0x0 JUMPDEST DUP3 MLOAD DUP2 LT ISZERO PUSH2 0xD84 JUMPI DUP1 PUSH2 0xD6A PUSH2 0xD63 PUSH1 0x1 SWAP4 DUP7 PUSH2 0x1C7D JUMP JUMPDEST MLOAD DUP7 PUSH2 0x1C91 JUMP JUMPDEST PUSH2 0xD7E PUSH2 0xD77 DUP3 DUP9 PUSH2 0x1C7D JUMP JUMPDEST MLOAD DUP10 PUSH2 0x1CD4 JUMP JUMPDEST ADD PUSH2 0xD4A JUMP JUMPDEST POP PUSH32 0x6EB3A1C6A4675BA92D44E090515B1CEEA358F26565D2854DF0C99C3F5EAF9850 PUSH2 0x5B9 DUP7 PUSH1 0x40 MLOAD SWAP2 DUP3 SWAP2 CALLER SWAP6 DUP4 PUSH2 0x1D09 JUMP JUMPDEST PUSH2 0xDCE SWAP1 DUP8 PUSH1 0x0 MSTORE PUSH1 0x20 PUSH1 0x0 KECCAK256 SWAP1 DUP2 ADD SWAP1 PUSH2 0x1A46 JUMP JUMPDEST DUP7 PUSH2 0xD46 JUMP JUMPDEST CALLVALUE PUSH2 0x1D9 JUMPI PUSH1 0x0 CALLDATASIZE PUSH1 0x3 NOT ADD SLT PUSH2 0x1D9 JUMPI PUSH2 0xDED PUSH2 0x1D72 JUMP JUMPDEST PUSH1 0x2 SLOAD PUSH1 0xFF DUP2 AND ISZERO PUSH2 0xE2C JUMPI PUSH1 0xFF NOT AND PUSH1 0x2 SSTORE PUSH32 0x5DB9EE0A495BF2E6FF9C91A7834C1BA4FDD244A5E8AA4E537BD38AEAE4B073AA PUSH1 0x20 PUSH1 0x40 MLOAD CALLER DUP2 MSTORE LOG1 STOP JUMPDEST PUSH1 0x40 MLOAD PUSH3 0x461BCD PUSH1 0xE5 SHL DUP2 MSTORE PUSH1 0x20 PUSH1 0x4 DUP3 ADD MSTORE PUSH1 0x14 PUSH1 0x24 DUP3 ADD MSTORE PUSH20 0x14185D5CD8589B194E881B9BDD081C185D5CD959 PUSH1 0x62 SHL PUSH1 0x44 DUP3 ADD MSTORE PUSH1 0x64 SWAP1 REVERT JUMPDEST CALLVALUE PUSH2 0x1D9 JUMPI PUSH1 0x20 CALLDATASIZE PUSH1 0x3 NOT ADD SLT PUSH2 0x1D9 JUMPI PUSH1 0x4 CALLDATALOAD PUSH8 0xFFFFFFFFFFFFFFFF DUP2 GT PUSH2 0x1D9 JUMPI PUSH2 0xE9C PUSH2 0xED4 SWAP2 CALLDATASIZE SWAP1 PUSH1 0x4 ADD PUSH2 0x1455 JUMP JUMPDEST PUSH2 0xEA4 PUSH2 0x1D2E JUMP JUMPDEST CALLER PUSH1 0x0 MSTORE PUSH1 0x4 PUSH1 0x20 MSTORE PUSH2 0xEBE PUSH1 0xFF PUSH1 0x40 PUSH1 0x0 KECCAK256 SLOAD AND PUSH2 0x1947 JUMP JUMPDEST CALLER PUSH1 0x0 MSTORE PUSH1 0x3 PUSH1 0x20 MSTORE PUSH1 0x4 PUSH1 0x40 PUSH1 0x0 KECCAK256 ADD PUSH2 0x1A5D JUMP JUMPDEST CALLER PUSH1 0x0 MSTORE PUSH1 0x3 PUSH1 0x20 MSTORE PUSH1 0x40 PUSH1 0x0 KECCAK256 TIMESTAMP PUSH1 0xE DUP3 ADD SSTORE PUSH32 0x6EB3A1C6A4675BA92D44E090515B1CEEA358F26565D2854DF0C99C3F5EAF9850 PUSH1 0x40 MLOAD PUSH1 0x40 DUP2 MSTORE DUP1 PUSH2 0x87E PUSH2 0xF21 PUSH1 0x40 DUP4 ADD DUP7 PUSH2 0x17EF JUMP JUMPDEST DUP3 DUP2 SUB PUSH1 0x20 DUP5 ADD MSTORE PUSH1 0x3 CALLER SWAP7 ADD PUSH2 0x17EF JUMP JUMPDEST CALLVALUE PUSH2 0x1D9 JUMPI PUSH1 0x0 CALLDATASIZE PUSH1 0x3 NOT ADD SLT PUSH2 0x1D9 JUMPI PUSH2 0xF4C PUSH2 0x1D2E JUMP JUMPDEST CALLER PUSH1 0x0 MSTORE PUSH1 0x4 PUSH1 0x20 MSTORE PUSH2 0xF66 PUSH1 0xFF PUSH1 0x40 PUSH1 0x0 KECCAK256 SLOAD AND PUSH2 0x1947 JUMP JUMPDEST CALLER PUSH1 0x0 MSTORE PUSH1 0x3 PUSH1 0x20 MSTORE PUSH1 0x40 PUSH1 0x0 KECCAK256 PUSH1 0xF DUP2 ADD PUSH1 0xFF NOT DUP2 SLOAD AND SWAP1 SSTORE PUSH1 0xE TIMESTAMP SWAP2 ADD SSTORE CALLER PUSH32 0x54A43E4629A715B7E7723FF4F7400F2B5804224E3C8FCF6C96D0BBB46AE02C93 PUSH1 0x0 DUP1 LOG2 STOP JUMPDEST CALLVALUE PUSH2 0x1D9 JUMPI PUSH1 0x20 CALLDATASIZE PUSH1 0x3 NOT ADD SLT PUSH2 0x1D9 JUMPI PUSH1 0x4 CALLDATALOAD PUSH1 0x1 PUSH1 0x1 PUSH1 0xA0 SHL SUB DUP2 AND DUP2 SUB PUSH2 0x1D9 JUMPI PUSH2 0xFDC PUSH1 0x80 PUSH2 0x1416 JUMP JUMPDEST PUSH1 0x60 PUSH1 0x80 DUP2 SWAP1 MSTORE PUSH1 0xA0 DUP2 SWAP1 MSTORE PUSH1 0xC0 DUP2 SWAP1 MSTORE PUSH1 0xE0 DUP2 SWAP1 MSTORE PUSH2 0x100 DUP2 SWAP1 MSTORE PUSH2 0x120 DUP2 SWAP1 MSTORE PUSH2 0x140 DUP2 SWAP1 MSTORE PUSH2 0x160 DUP2 SWAP1 MSTORE PUSH2 0x180 DUP2 SWAP1 MSTORE PUSH2 0x1A0 DUP2 SWAP1 MSTORE PUSH2 0x1C0 DUP2 SWAP1 MSTORE PUSH2 0x1E0 DUP2 SWAP1 MSTORE PUSH2 0x200 MSTORE PUSH1 0x0 PUSH2 0x220 DUP2 SWAP1 MSTORE PUSH2 0x240 DUP2 SWAP1 MSTORE PUSH2 0x260 DUP2 SWAP1 MSTORE PUSH1 0x1 PUSH1 0x1 PUSH1 0xA0 SHL SUB DUP3 AND DUP2 MSTORE PUSH1 0x4 PUSH1 0x20 MSTORE PUSH1 0x40 SWAP1 KECCAK256 SLOAD PUSH2 0x105C SWAP1 PUSH1 0xFF AND PUSH2 0x1947 JUMP JUMPDEST PUSH1 0x1 DUP1 PUSH1 0xA0 SHL SUB AND PUSH1 0x0 MSTORE PUSH1 0x3 PUSH1 0x20 MSTORE PUSH1 0x40 PUSH1 0x0 KECCAK256 PUSH1 0xFF PUSH1 0xF PUSH1 0x40 MLOAD SWAP3 PUSH2 0x1082 DUP5 PUSH2 0x1416 JUMP JUMPDEST PUSH1 0x40 MLOAD PUSH2 0x1093 DUP2 PUSH2 0x65A DUP2 DUP6 PUSH2 0x17EF JUMP JUMPDEST DUP5 MSTORE PUSH1 0x40 MLOAD PUSH2 0x10A9 DUP2 PUSH2 0x65A DUP2 PUSH1 0x1 DUP7 ADD PUSH2 0x17EF JUMP JUMPDEST PUSH1 0x20 DUP6 ADD MSTORE PUSH1 0x40 MLOAD PUSH2 0x10C2 DUP2 PUSH2 0x65A DUP2 PUSH1 0x2 DUP7 ADD PUSH2 0x17EF JUMP JUMPDEST PUSH1 0x40 DUP6 ADD MSTORE PUSH1 0x40 MLOAD PUSH2 0x10DB DUP2 PUSH2 0x65A DUP2 PUSH1 0x3 DUP7 ADD PUSH2 0x17EF JUMP JUMPDEST PUSH1 0x60 DUP6 ADD MSTORE PUSH1 0x40 MLOAD PUSH2 0x10F4 DUP2 PUSH2 0x65A DUP2 PUSH1 0x4 DUP7 ADD PUSH2 0x17EF JUMP JUMPDEST PUSH1 0x80 DUP6 ADD MSTORE PUSH2 0x1105 PUSH1 0x5 DUP3 ADD PUSH2 0x198C JUMP JUMPDEST PUSH1 0xA0 DUP6 ADD MSTORE PUSH2 0x1116 PUSH1 0x6 DUP3 ADD PUSH2 0x198C JUMP JUMPDEST PUSH1 0xC0 DUP6 ADD MSTORE PUSH2 0x1127 PUSH1 0x7 DUP3 ADD PUSH2 0x19F3 JUMP JUMPDEST PUSH1 0xE0 DUP6 ADD MSTORE PUSH1 0x40 MLOAD PUSH2 0x1140 DUP2 PUSH2 0x65A DUP2 PUSH1 0x8 DUP7 ADD PUSH2 0x17EF JUMP JUMPDEST PUSH2 0x100 DUP6 ADD MSTORE PUSH1 0x40 MLOAD PUSH2 0x115A DUP2 PUSH2 0x65A DUP2 PUSH1 0x9 DUP7 ADD PUSH2 0x17EF JUMP JUMPDEST PUSH2 0x120 DUP6 ADD MSTORE PUSH1 0x40 MLOAD PUSH2 0x1174 DUP2 PUSH2 0x65A DUP2 PUSH1 0xA DUP7 ADD PUSH2 0x17EF JUMP JUMPDEST PUSH2 0x140 DUP6 ADD MSTORE PUSH1 0x40 MLOAD PUSH2 0x118E DUP2 PUSH2 0x65A DUP2 PUSH1 0xB DUP7 ADD PUSH2 0x17EF JUMP JUMPDEST PUSH2 0x160 DUP6 ADD MSTORE PUSH1 0x40 MLOAD PUSH2 0x11A8 DUP2 PUSH2 0x65A DUP2 PUSH1 0xC DUP7 ADD PUSH2 0x17EF JUMP JUMPDEST PUSH2 0x180 DUP6 ADD MSTORE PUSH1 0xD DUP2 ADD SLOAD PUSH2 0x1A0 DUP6 ADD MSTORE PUSH1 0xE DUP2 ADD SLOAD PUSH2 0x1C0 DUP6 ADD MSTORE ADD SLOAD AND ISZERO ISZERO PUSH2 0x1E0 DUP3 ADD MSTORE PUSH1 0x40 MLOAD PUSH1 0x20 DUP2 MSTORE PUSH2 0x1284 PUSH2 0x126E PUSH2 0x1258 PUSH2 0x1242 PUSH2 0x122C PUSH2 0x1216 PUSH2 0x1200 DUP9 MLOAD PUSH2 0x200 PUSH1 0x20 DUP11 ADD MSTORE PUSH2 0x220 DUP10 ADD SWAP1 PUSH2 0x1379 JUMP JUMPDEST PUSH1 0x20 DUP10 ADD MLOAD DUP9 DUP3 SUB PUSH1 0x1F NOT ADD PUSH1 0x40 DUP11 ADD MSTORE PUSH2 0x1379 JUMP JUMPDEST PUSH1 0x40 DUP9 ADD MLOAD DUP8 DUP3 SUB PUSH1 0x1F NOT ADD PUSH1 0x60 DUP10 ADD MSTORE PUSH2 0x1379 JUMP JUMPDEST PUSH1 0x60 DUP8 ADD MLOAD DUP7 DUP3 SUB PUSH1 0x1F NOT ADD PUSH1 0x80 DUP9 ADD MSTORE PUSH2 0x1379 JUMP JUMPDEST PUSH1 0x80 DUP7 ADD MLOAD DUP6 DUP3 SUB PUSH1 0x1F NOT ADD PUSH1 0xA0 DUP8 ADD MSTORE PUSH2 0x1379 JUMP JUMPDEST PUSH1 0xA0 DUP6 ADD MLOAD DUP5 DUP3 SUB PUSH1 0x1F NOT ADD PUSH1 0xC0 DUP7 ADD MSTORE PUSH2 0x13B9 JUMP JUMPDEST PUSH1 0xC0 DUP5 ADD MLOAD DUP4 DUP3 SUB PUSH1 0x1F NOT ADD PUSH1 0xE0 DUP6 ADD MSTORE PUSH2 0x13B9 JUMP JUMPDEST SWAP2 PUSH1 0xE0 DUP2 ADD MLOAD SWAP3 PUSH1 0x1F NOT DUP4 DUP3 SUB ADD PUSH2 0x100 DUP5 ADD MSTORE PUSH1 0x20 DUP1 DUP6 MLOAD SWAP3 DUP4 DUP2 MSTORE ADD SWAP5 ADD SWAP1 PUSH1 0x0 JUMPDEST DUP2 DUP2 LT PUSH2 0x1363 JUMPI POP POP POP PUSH2 0x1E0 PUSH2 0x133E PUSH2 0x1326 PUSH2 0x130E PUSH2 0x12F6 PUSH2 0x12DE DUP8 SWAP9 PUSH2 0x100 DUP9 ADD MLOAD PUSH1 0x1F NOT DUP11 DUP4 SUB ADD PUSH2 0x120 DUP12 ADD MSTORE PUSH2 0x1379 JUMP JUMPDEST PUSH2 0x120 DUP8 ADD MLOAD DUP9 DUP3 SUB PUSH1 0x1F NOT ADD PUSH2 0x140 DUP11 ADD MSTORE PUSH2 0x1379 JUMP JUMPDEST PUSH2 0x140 DUP7 ADD MLOAD DUP8 DUP3 SUB PUSH1 0x1F NOT ADD PUSH2 0x160 DUP10 ADD MSTORE PUSH2 0x1379 JUMP JUMPDEST PUSH2 0x160 DUP6 ADD MLOAD DUP7 DUP3 SUB PUSH1 0x1F NOT ADD PUSH2 0x180 DUP9 ADD MSTORE PUSH2 0x1379 JUMP JUMPDEST PUSH2 0x180 DUP5 ADD MLOAD DUP6 DUP3 SUB PUSH1 0x1F NOT ADD PUSH2 0x1A0 DUP8 ADD MSTORE PUSH2 0x1379 JUMP JUMPDEST SWAP2 PUSH2 0x1A0 DUP2 ADD MLOAD PUSH2 0x1C0 DUP6 ADD MSTORE PUSH2 0x1C0 DUP2 ADD MLOAD DUP3 DUP6 ADD MSTORE ADD MLOAD ISZERO ISZERO PUSH2 0x200 DUP4 ADD MSTORE SUB SWAP1 RETURN JUMPDEST DUP3 MLOAD DUP7 MSTORE PUSH1 0x20 SWAP6 DUP7 ADD SWAP6 SWAP1 SWAP3 ADD SWAP2 PUSH1 0x1 ADD PUSH2 0x12A8 JUMP JUMPDEST SWAP2 SWAP1 DUP3 MLOAD SWAP3 DUP4 DUP3 MSTORE PUSH1 0x0 JUMPDEST DUP5 DUP2 LT PUSH2 0x13A5 JUMPI POP POP DUP3 PUSH1 0x0 PUSH1 0x20 DUP1 SWAP5 SWAP6 DUP5 ADD ADD MSTORE PUSH1 0x1F DUP1 NOT SWAP2 ADD AND ADD ADD SWAP1 JUMP JUMPDEST PUSH1 0x20 DUP2 DUP4 ADD DUP2 ADD MLOAD DUP5 DUP4 ADD DUP3 ADD MSTORE ADD PUSH2 0x1384 JUMP JUMPDEST SWAP1 DUP1 DUP3 MLOAD SWAP1 DUP2 DUP2 MSTORE PUSH1 0x20 DUP1 SWAP2 ADD SWAP3 PUSH1 0x20 DUP1 DUP5 PUSH1 0x5 SHL DUP4 ADD ADD SWAP6 ADD SWAP4 PUSH1 0x0 SWAP2 JUMPDEST DUP5 DUP4 LT PUSH2 0x13E8 JUMPI POP POP POP POP POP POP SWAP1 JUMP JUMPDEST SWAP1 SWAP2 SWAP3 SWAP4 SWAP5 SWAP6 DUP5 DUP1 PUSH2 0x1406 PUSH1 0x1 SWAP4 PUSH1 0x1F NOT DUP7 DUP3 SUB ADD DUP8 MSTORE DUP11 MLOAD PUSH2 0x1379 JUMP JUMPDEST SWAP9 ADD SWAP4 ADD SWAP4 ADD SWAP2 SWAP5 SWAP4 SWAP3 SWAP1 PUSH2 0x13D8 JUMP JUMPDEST PUSH2 0x200 DUP2 ADD SWAP1 DUP2 LT PUSH8 0xFFFFFFFFFFFFFFFF DUP3 GT OR PUSH2 0x5C2 JUMPI PUSH1 0x40 MSTORE JUMP JUMPDEST SWAP1 PUSH1 0x1F DUP1 NOT SWAP2 ADD AND DUP2 ADD SWAP1 DUP2 LT PUSH8 0xFFFFFFFFFFFFFFFF DUP3 GT OR PUSH2 0x5C2 JUMPI PUSH1 0x40 MSTORE JUMP JUMPDEST DUP2 PUSH1 0x1F DUP3 ADD SLT ISZERO PUSH2 0x1D9 JUMPI DUP1 CALLDATALOAD SWAP1 PUSH8 0xFFFFFFFFFFFFFFFF DUP3 GT PUSH2 0x5C2 JUMPI PUSH1 0x40 MLOAD SWAP3 PUSH2 0x148A PUSH1 0x1F DUP5 ADD PUSH1 0x1F NOT AND PUSH1 0x20 ADD DUP6 PUSH2 0x1433 JUMP JUMPDEST DUP3 DUP5 MSTORE PUSH1 0x20 DUP4 DUP4 ADD ADD GT PUSH2 0x1D9 JUMPI DUP2 PUSH1 0x0 SWAP3 PUSH1 0x20 DUP1 SWAP4 ADD DUP4 DUP7 ADD CALLDATACOPY DUP4 ADD ADD MSTORE SWAP1 JUMP JUMPDEST PUSH8 0xFFFFFFFFFFFFFFFF DUP2 GT PUSH2 0x5C2 JUMPI PUSH1 0x5 SHL PUSH1 0x20 ADD SWAP1 JUMP JUMPDEST DUP2 PUSH1 0x1F DUP3 ADD SLT ISZERO PUSH2 0x1D9 JUMPI DUP1 CALLDATALOAD SWAP2 PUSH1 0x20 SWAP2 PUSH2 0x14DE DUP5 PUSH2 0x14AC JUMP JUMPDEST SWAP4 PUSH2 0x14EC PUSH1 0x40 MLOAD SWAP6 DUP7 PUSH2 0x1433 JUMP JUMPDEST DUP1 DUP6 MSTORE DUP4 DUP1 DUP7 ADD SWAP2 PUSH1 0x5 SHL DUP4 ADD ADD SWAP3 DUP1 DUP5 GT PUSH2 0x1D9 JUMPI DUP5 DUP4 ADD SWAP2 JUMPDEST DUP5 DUP4 LT PUSH2 0x1517 JUMPI POP POP POP POP POP POP SWAP1 JUMP JUMPDEST DUP3 CALLDATALOAD PUSH8 0xFFFFFFFFFFFFFFFF DUP2 GT PUSH2 0x1D9 JUMPI DUP7 SWAP2 PUSH2 0x1539 DUP5 DUP5 DUP1 SWAP5 DUP10 ADD ADD PUSH2 0x1455 JUMP JUMPDEST DUP2 MSTORE ADD SWAP3 ADD SWAP2 PUSH2 0x1507 JUMP JUMPDEST PUSH2 0x1A0 PUSH1 0x3 NOT DUP3 ADD SLT PUSH2 0x1D9 JUMPI PUSH1 0x4 SWAP1 PUSH8 0xFFFFFFFFFFFFFFFF DUP3 CALLDATALOAD DUP2 DUP2 GT PUSH2 0x1D9 JUMPI DUP3 PUSH2 0x1572 SWAP2 DUP6 ADD PUSH2 0x1455 JUMP JUMPDEST SWAP4 PUSH1 0x24 CALLDATALOAD DUP3 DUP2 GT PUSH2 0x1D9 JUMPI DUP4 PUSH2 0x1589 SWAP2 DUP7 ADD PUSH2 0x1455 JUMP JUMPDEST SWAP4 PUSH1 0x44 CALLDATALOAD DUP4 DUP2 GT PUSH2 0x1D9 JUMPI DUP5 PUSH2 0x15A0 SWAP2 DUP4 ADD PUSH2 0x1455 JUMP JUMPDEST SWAP4 PUSH1 0x64 CALLDATALOAD DUP5 DUP2 GT PUSH2 0x1D9 JUMPI DUP2 PUSH2 0x15B7 SWAP2 DUP5 ADD PUSH2 0x1455 JUMP JUMPDEST SWAP4 PUSH1 0x84 CALLDATALOAD DUP2 DUP2 GT PUSH2 0x1D9 JUMPI DUP3 PUSH2 0x15CE SWAP2 DUP6 ADD PUSH2 0x1455 JUMP JUMPDEST SWAP4 PUSH1 0xA4 CALLDATALOAD DUP3 DUP2 GT PUSH2 0x1D9 JUMPI DUP4 PUSH2 0x15E5 SWAP2 DUP7 ADD PUSH2 0x14C4 JUMP JUMPDEST SWAP4 PUSH1 0xC4 CALLDATALOAD DUP4 DUP2 GT PUSH2 0x1D9 JUMPI DUP5 PUSH2 0x15FC SWAP2 DUP4 ADD PUSH2 0x14C4 JUMP JUMPDEST SWAP4 PUSH1 0xE4 CALLDATALOAD DUP5 DUP2 GT PUSH2 0x1D9 JUMPI DUP2 PUSH1 0x23 DUP3 ADD SLT ISZERO PUSH2 0x1D9 JUMPI DUP1 DUP4 ADD CALLDATALOAD PUSH2 0x161F DUP2 PUSH2 0x14AC JUMP JUMPDEST SWAP2 PUSH2 0x162D PUSH1 0x40 MLOAD SWAP4 DUP5 PUSH2 0x1433 JUMP JUMPDEST DUP2 DUP4 MSTORE PUSH1 0x20 SWAP2 PUSH1 0x24 PUSH1 0x20 DUP6 ADD SWAP2 PUSH1 0x5 SHL DUP4 ADD ADD SWAP2 DUP6 DUP4 GT PUSH2 0x1D9 JUMPI PUSH1 0x24 ADD SWAP1 JUMPDEST DUP3 DUP3 LT PUSH2 0x16D1 JUMPI POP POP POP POP SWAP4 PUSH2 0x104 CALLDATALOAD DUP2 DUP2 GT PUSH2 0x1D9 JUMPI DUP3 PUSH2 0x1670 SWAP2 DUP6 ADD PUSH2 0x1455 JUMP JUMPDEST SWAP4 PUSH2 0x124 CALLDATALOAD DUP3 DUP2 GT PUSH2 0x1D9 JUMPI DUP4 PUSH2 0x1688 SWAP2 DUP7 ADD PUSH2 0x1455 JUMP JUMPDEST SWAP4 PUSH2 0x144 CALLDATALOAD DUP4 DUP2 GT PUSH2 0x1D9 JUMPI DUP5 PUSH2 0x16A0 SWAP2 DUP4 ADD PUSH2 0x1455 JUMP JUMPDEST SWAP4 PUSH2 0x164 CALLDATALOAD DUP5 DUP2 GT PUSH2 0x1D9 JUMPI DUP2 PUSH2 0x16B8 SWAP2 DUP5 ADD PUSH2 0x1455 JUMP JUMPDEST SWAP4 PUSH2 0x184 CALLDATALOAD SWAP1 DUP2 GT PUSH2 0x1D9 JUMPI PUSH2 0x16CE SWAP3 ADD PUSH2 0x1455 JUMP JUMPDEST SWAP1 JUMP JUMPDEST DUP2 CALLDATALOAD DUP2 MSTORE SWAP1 DUP4 ADD SWAP1 DUP4 ADD PUSH2 0x164D JUMP JUMPDEST SWAP12 SWAP9 SWAP5 DUP13 PUSH2 0x180 SWAP13 SWAP16 SWAP15 SWAP12 SWAP9 SWAP3 SWAP8 PUSH2 0x1759 PUSH2 0x1767 SWAP4 PUSH2 0x174B PUSH2 0x1783 SWAP10 PUSH2 0x173D PUSH2 0x17A1 SWAP16 SWAP11 PUSH2 0x172F PUSH2 0x1792 SWAP16 SWAP12 PUSH2 0x1721 PUSH2 0x1775 SWAP14 PUSH2 0x1A0 DUP1 DUP14 MSTORE DUP13 ADD SWAP1 PUSH2 0x1379 JUMP JUMPDEST SWAP1 DUP11 DUP3 SUB PUSH1 0x20 DUP13 ADD MSTORE PUSH2 0x1379 JUMP JUMPDEST SWAP1 DUP9 DUP3 SUB PUSH1 0x40 DUP11 ADD MSTORE PUSH2 0x1379 JUMP JUMPDEST SWAP1 DUP7 DUP3 SUB PUSH1 0x60 DUP9 ADD MSTORE PUSH2 0x1379 JUMP JUMPDEST SWAP1 DUP5 DUP3 SUB PUSH1 0x80 DUP7 ADD MSTORE PUSH2 0x1379 JUMP JUMPDEST SWAP2 PUSH1 0xA0 DUP2 DUP5 SUB SWAP2 ADD MSTORE PUSH2 0x1379 JUMP JUMPDEST DUP13 DUP2 SUB PUSH1 0xC0 DUP15 ADD MSTORE SWAP1 PUSH2 0x1379 JUMP JUMPDEST SWAP1 DUP11 DUP3 SUB PUSH1 0xE0 DUP13 ADD MSTORE PUSH2 0x1379 JUMP JUMPDEST SWAP1 DUP9 DUP3 SUB PUSH2 0x100 DUP11 ADD MSTORE PUSH2 0x1379 JUMP JUMPDEST SWAP1 DUP7 DUP3 SUB PUSH2 0x120 DUP9 ADD MSTORE PUSH2 0x1379 JUMP JUMPDEST SWAP6 PUSH2 0x140 DUP6 ADD MSTORE PUSH2 0x160 DUP5 ADD MSTORE ISZERO ISZERO SWAP2 ADD MSTORE JUMP JUMPDEST SWAP1 PUSH1 0x1 DUP3 DUP2 SHR SWAP3 AND DUP1 ISZERO PUSH2 0x17E5 JUMPI JUMPDEST PUSH1 0x20 DUP4 LT EQ PUSH2 0x17CF JUMPI JUMP JUMPDEST PUSH4 0x4E487B71 PUSH1 0xE0 SHL PUSH1 0x0 MSTORE PUSH1 0x22 PUSH1 0x4 MSTORE PUSH1 0x24 PUSH1 0x0 REVERT JUMPDEST SWAP2 PUSH1 0x7F AND SWAP2 PUSH2 0x17C4 JUMP JUMPDEST DUP1 SLOAD PUSH1 0x0 SWAP4 SWAP3 PUSH2 0x17FE DUP3 PUSH2 0x17B5 JUMP JUMPDEST SWAP2 DUP3 DUP3 MSTORE PUSH1 0x20 SWAP4 PUSH1 0x1 SWAP2 PUSH1 0x1 DUP2 AND SWAP1 DUP2 PUSH1 0x0 EQ PUSH2 0x1866 JUMPI POP PUSH1 0x1 EQ PUSH2 0x1825 JUMPI JUMPDEST POP POP POP POP POP JUMP JUMPDEST SWAP1 SWAP4 SWAP5 SWAP6 POP PUSH1 0x0 SWAP3 SWAP2 SWAP3 MSTORE DUP4 PUSH1 0x0 KECCAK256 SWAP3 DUP5 PUSH1 0x0 SWAP5 JUMPDEST DUP4 DUP7 LT PUSH2 0x1852 JUMPI POP POP POP POP ADD ADD SWAP1 CODESIZE DUP1 DUP1 DUP1 DUP1 PUSH2 0x181E JUMP JUMPDEST DUP1 SLOAD DUP6 DUP8 ADD DUP4 ADD MSTORE SWAP5 ADD SWAP4 DUP6 SWAP1 DUP3 ADD PUSH2 0x183A JUMP JUMPDEST PUSH1 0xFF NOT AND DUP7 DUP6 ADD MSTORE POP POP POP SWAP1 ISZERO ISZERO PUSH1 0x5 SHL ADD ADD SWAP2 POP CODESIZE DUP1 DUP1 DUP1 DUP1 PUSH2 0x181E JUMP JUMPDEST SWAP1 DUP1 DUP3 MLOAD SWAP1 DUP2 DUP2 MSTORE PUSH1 0x20 DUP1 SWAP2 ADD SWAP3 PUSH1 0x20 DUP1 DUP5 PUSH1 0x5 SHL DUP4 ADD ADD SWAP6 ADD SWAP4 PUSH1 0x0 SWAP2 JUMPDEST DUP5 DUP4 LT PUSH2 0x18B4 JUMPI POP POP POP POP POP POP SWAP1 JUMP JUMPDEST SWAP1 SWAP2 SWAP3 SWAP4 SWAP5 SWAP6 DUP5 DUP1 PUSH2 0x18D2 PUSH1 0x1 SWAP4 PUSH1 0x1F NOT DUP7 DUP3 SUB ADD DUP8 MSTORE DUP11 MLOAD PUSH2 0x1379 JUMP JUMPDEST SWAP9 ADD SWAP4 ADD SWAP4 ADD SWAP2 SWAP5 SWAP4 SWAP3 SWAP1 PUSH2 0x18A4 JUMP JUMPDEST PUSH1 0x5 SLOAD DUP2 LT ISZERO PUSH2 0x1919 JUMPI PUSH1 0x5 PUSH1 0x0 MSTORE PUSH32 0x36B6384B5ECA791C62761152D0C79BB0604C104A5FB6F4EB0703F3154BB3DB0 ADD SWAP1 PUSH1 0x0 SWAP1 JUMP JUMPDEST PUSH4 0x4E487B71 PUSH1 0xE0 SHL PUSH1 0x0 MSTORE PUSH1 0x32 PUSH1 0x4 MSTORE PUSH1 0x24 PUSH1 0x0 REVERT JUMPDEST DUP1 SLOAD DUP3 LT ISZERO PUSH2 0x1919 JUMPI PUSH1 0x0 MSTORE PUSH1 0x20 PUSH1 0x0 KECCAK256 ADD SWAP1 PUSH1 0x0 SWAP1 JUMP JUMPDEST ISZERO PUSH2 0x194E JUMPI JUMP JUMPDEST PUSH1 0x40 MLOAD PUSH3 0x461BCD PUSH1 0xE5 SHL DUP2 MSTORE PUSH1 0x20 PUSH1 0x4 DUP3 ADD MSTORE PUSH1 0x16 PUSH1 0x24 DUP3 ADD MSTORE PUSH22 0x141C9BD99A5B1948191BD95CC81B9BDD08195E1A5CDD PUSH1 0x52 SHL PUSH1 0x44 DUP3 ADD MSTORE PUSH1 0x64 SWAP1 REVERT JUMPDEST SWAP1 DUP2 SLOAD PUSH2 0x1998 DUP2 PUSH2 0x14AC JUMP JUMPDEST SWAP3 PUSH1 0x40 SWAP4 PUSH2 0x19A9 PUSH1 0x40 MLOAD SWAP2 DUP3 PUSH2 0x1433 JUMP JUMPDEST DUP3 DUP2 MSTORE DUP1 SWAP5 PUSH1 0x20 DUP1 SWAP3 ADD SWAP3 PUSH1 0x0 MSTORE PUSH1 0x20 PUSH1 0x0 KECCAK256 SWAP1 PUSH1 0x0 SWAP4 JUMPDEST DUP6 DUP6 LT PUSH2 0x19D0 JUMPI POP POP POP POP POP POP JUMP JUMPDEST PUSH1 0x1 DUP5 DUP2 SWAP3 DUP5 MLOAD PUSH2 0x19E5 DUP2 PUSH2 0x65A DUP2 DUP11 PUSH2 0x17EF JUMP JUMPDEST DUP2 MSTORE ADD SWAP4 ADD SWAP5 ADD SWAP4 SWAP2 PUSH2 0x19C1 JUMP JUMPDEST SWAP1 PUSH1 0x40 MLOAD SWAP2 DUP3 DUP2 SLOAD SWAP2 DUP3 DUP3 MSTORE PUSH1 0x20 SWAP3 PUSH1 0x20 DUP4 ADD SWAP2 PUSH1 0x0 MSTORE PUSH1 0x20 PUSH1 0x0 KECCAK256 SWAP4 PUSH1 0x0 SWAP1 JUMPDEST DUP3 DUP3 LT PUSH2 0x1A2C JUMPI POP POP POP PUSH2 0x1A2A SWAP3 POP SUB DUP4 PUSH2 0x1433 JUMP JUMPDEST JUMP JUMPDEST DUP6 SLOAD DUP5 MSTORE PUSH1 0x1 SWAP6 DUP7 ADD SWAP6 DUP9 SWAP6 POP SWAP4 DUP2 ADD SWAP4 SWAP1 SWAP2 ADD SWAP1 PUSH2 0x1A14 JUMP JUMPDEST DUP2 DUP2 LT PUSH2 0x1A51 JUMPI POP POP JUMP JUMPDEST PUSH1 0x0 DUP2 SSTORE PUSH1 0x1 ADD PUSH2 0x1A46 JUMP JUMPDEST SWAP2 SWAP1 SWAP2 DUP3 MLOAD PUSH8 0xFFFFFFFFFFFFFFFF DUP2 GT PUSH2 0x5C2 JUMPI PUSH2 0x1A7B DUP3 SLOAD PUSH2 0x17B5 JUMP JUMPDEST PUSH1 0x1F DUP2 GT PUSH2 0x1B26 JUMPI JUMPDEST POP PUSH1 0x20 DUP1 PUSH1 0x1F DUP4 GT PUSH1 0x1 EQ PUSH2 0x1AC1 JUMPI POP DUP2 SWAP3 SWAP4 SWAP5 PUSH1 0x0 SWAP3 PUSH2 0x1AB6 JUMPI JUMPDEST POP POP DUP2 PUSH1 0x1 SHL SWAP2 PUSH1 0x0 NOT SWAP1 PUSH1 0x3 SHL SHR NOT AND OR SWAP1 SSTORE JUMP JUMPDEST ADD MLOAD SWAP1 POP CODESIZE DUP1 PUSH2 0x1AA0 JUMP JUMPDEST SWAP1 PUSH1 0x1F NOT DUP4 AND SWAP6 DUP5 PUSH1 0x0 MSTORE PUSH1 0x20 PUSH1 0x0 KECCAK256 SWAP3 PUSH1 0x0 SWAP1 JUMPDEST DUP9 DUP3 LT PUSH2 0x1B0E JUMPI POP POP DUP4 PUSH1 0x1 SWAP6 SWAP7 SWAP8 LT PUSH2 0x1AF5 JUMPI JUMPDEST POP POP POP DUP2 SHL ADD SWAP1 SSTORE JUMP JUMPDEST ADD MLOAD PUSH1 0x0 NOT PUSH1 0xF8 DUP5 PUSH1 0x3 SHL AND SHR NOT AND SWAP1 SSTORE CODESIZE DUP1 DUP1 PUSH2 0x1AEB JUMP JUMPDEST DUP1 PUSH1 0x1 DUP6 SWAP7 DUP3 SWAP5 SWAP7 DUP7 ADD MLOAD DUP2 SSTORE ADD SWAP6 ADD SWAP4 ADD SWAP1 PUSH2 0x1AD6 JUMP JUMPDEST PUSH2 0x1B53 SWAP1 DUP4 PUSH1 0x0 MSTORE PUSH1 0x20 PUSH1 0x0 KECCAK256 PUSH1 0x1F DUP5 ADD PUSH1 0x5 SHR DUP2 ADD SWAP2 PUSH1 0x20 DUP6 LT PUSH2 0x1B59 JUMPI JUMPDEST PUSH1 0x1F ADD PUSH1 0x5 SHR ADD SWAP1 PUSH2 0x1A46 JUMP JUMPDEST CODESIZE PUSH2 0x1A84 JUMP JUMPDEST SWAP1 SWAP2 POP DUP2 SWAP1 PUSH2 0x1B46 JUMP JUMPDEST ISZERO PUSH2 0x1B6A JUMPI JUMP JUMPDEST PUSH1 0x40 MLOAD PUSH3 0x461BCD PUSH1 0xE5 SHL DUP2 MSTORE PUSH1 0x20 PUSH1 0x4 DUP3 ADD MSTORE PUSH1 0x14 PUSH1 0x24 DUP3 ADD MSTORE PUSH20 0x4E616D652063616E6E6F7420626520656D707479 PUSH1 0x60 SHL PUSH1 0x44 DUP3 ADD MSTORE PUSH1 0x64 SWAP1 REVERT JUMPDEST ISZERO PUSH2 0x1BAD JUMPI JUMP JUMPDEST PUSH1 0x40 MLOAD PUSH3 0x461BCD PUSH1 0xE5 SHL DUP2 MSTORE PUSH1 0x20 PUSH1 0x4 DUP3 ADD MSTORE PUSH1 0x21 PUSH1 0x24 DUP3 ADD MSTORE PUSH32 0x536B696C6C7320616E642073636F726573206C656E677468206D69736D617463 PUSH1 0x44 DUP3 ADD MSTORE PUSH1 0xD PUSH1 0xFB SHL PUSH1 0x64 DUP3 ADD MSTORE PUSH1 0x84 SWAP1 REVERT JUMPDEST DUP1 SLOAD SWAP1 PUSH1 0x0 SWAP1 DUP2 DUP2 SSTORE DUP3 PUSH2 0x1C0F JUMPI POP POP POP JUMP JUMPDEST DUP2 MSTORE PUSH1 0x20 DUP1 DUP3 KECCAK256 SWAP3 DUP4 ADD SWAP3 JUMPDEST DUP4 DUP2 LT PUSH2 0x1C28 JUMPI POP POP POP POP JUMP JUMPDEST DUP1 DUP4 PUSH2 0x1C36 PUSH1 0x1 SWAP4 SLOAD PUSH2 0x17B5 JUMP JUMPDEST DUP1 PUSH2 0x1C44 JUMPI JUMPDEST POP POP ADD PUSH2 0x1C1B JUMP JUMPDEST PUSH1 0x1F DUP1 DUP3 GT DUP6 EQ PUSH2 0x1C5B JUMPI POP POP DUP2 SSTORE JUMPDEST DUP4 CODESIZE PUSH2 0x1C3C JUMP JUMPDEST PUSH2 0x1C74 SWAP1 DUP5 DUP5 MSTORE DUP7 DUP5 KECCAK256 SWAP3 ADD PUSH1 0x5 SHR DUP3 ADD DUP6 DUP4 ADD PUSH2 0x1A46 JUMP JUMPDEST DUP2 DUP4 SSTORE SSTORE PUSH2 0x1C54 JUMP JUMPDEST DUP1 MLOAD DUP3 LT ISZERO PUSH2 0x1919 JUMPI PUSH1 0x20 SWAP2 PUSH1 0x5 SHL ADD ADD SWAP1 JUMP JUMPDEST DUP1 SLOAD PUSH1 0x1 PUSH1 0x40 SHL DUP2 LT ISZERO PUSH2 0x5C2 JUMPI PUSH2 0x1CAE SWAP2 PUSH1 0x1 DUP3 ADD DUP2 SSTORE PUSH2 0x192F JUMP JUMPDEST SWAP2 SWAP1 SWAP2 PUSH2 0x1CBE JUMPI PUSH2 0x1A2A SWAP2 PUSH2 0x1A5D JUMP JUMPDEST PUSH4 0x4E487B71 PUSH1 0xE0 SHL PUSH1 0x0 MSTORE PUSH1 0x0 PUSH1 0x4 MSTORE PUSH1 0x24 PUSH1 0x0 REVERT JUMPDEST DUP1 SLOAD PUSH1 0x1 PUSH1 0x40 SHL DUP2 LT ISZERO PUSH2 0x5C2 JUMPI PUSH2 0x1CF1 SWAP2 PUSH1 0x1 DUP3 ADD DUP2 SSTORE PUSH2 0x192F JUMP JUMPDEST DUP2 SWAP3 SWAP2 SLOAD SWAP1 PUSH1 0x3 SHL SWAP2 DUP3 SHL SWAP2 PUSH1 0x0 NOT SWAP1 SHL NOT AND OR SWAP1 SSTORE JUMP JUMPDEST SWAP1 SWAP2 PUSH2 0x1D20 PUSH2 0x16CE SWAP4 PUSH1 0x40 DUP5 MSTORE PUSH1 0x40 DUP5 ADD SWAP1 PUSH2 0x1379 JUMP JUMPDEST SWAP2 PUSH1 0x20 DUP2 DUP5 SUB SWAP2 ADD MSTORE PUSH2 0x1379 JUMP JUMPDEST PUSH1 0xFF PUSH1 0x2 SLOAD AND PUSH2 0x1D3A JUMPI JUMP JUMPDEST PUSH1 0x40 MLOAD PUSH3 0x461BCD PUSH1 0xE5 SHL DUP2 MSTORE PUSH1 0x20 PUSH1 0x4 DUP3 ADD MSTORE PUSH1 0x10 PUSH1 0x24 DUP3 ADD MSTORE PUSH16 0x14185D5CD8589B194E881C185D5CD959 PUSH1 0x82 SHL PUSH1 0x44 DUP3 ADD MSTORE PUSH1 0x64 SWAP1 REVERT JUMPDEST PUSH1 0x0 SLOAD PUSH1 0x1 PUSH1 0x1 PUSH1 0xA0 SHL SUB AND CALLER SUB PUSH2 0x1D86 JUMPI JUMP JUMPDEST PUSH1 0x64 PUSH1 0x40 MLOAD PUSH3 0x461BCD PUSH1 0xE5 SHL DUP2 MSTORE PUSH1 0x20 PUSH1 0x4 DUP3 ADD MSTORE PUSH1 0x20 PUSH1 0x24 DUP3 ADD MSTORE PUSH32 0x4F776E61626C653A2063616C6C6572206973206E6F7420746865206F776E6572 PUSH1 0x44 DUP3 ADD MSTORE REVERT JUMPDEST PUSH1 0x2 PUSH1 0x1 SLOAD EQ PUSH2 0x1DDB JUMPI PUSH1 0x2 PUSH1 0x1 SSTORE JUMP JUMPDEST PUSH1 0x40 MLOAD PUSH3 0x461BCD PUSH1 0xE5 SHL DUP2 MSTORE PUSH1 0x20 PUSH1 0x4 DUP3 ADD MSTORE PUSH1 0x1F PUSH1 0x24 DUP3 ADD MSTORE PUSH32 0x5265656E7472616E637947756172643A207265656E7472616E742063616C6C00 PUSH1 0x44 DUP3 ADD MSTORE PUSH1 0x64 SWAP1 REVERT INVALID LOG2 PUSH5 0x6970667358 0x22 SLT KECCAK256 CALLDATALOAD CODECOPY SIGNEXTEND 0x21 DUP13 0xD9 0xAB PUSH16 0x32EE755D7CE626E9A22277ACAE686061 0xB9 SIGNEXTEND 0xE6 0x2E 0xD1 0xB0 TIMESTAMP SGT PUSH5 0x736F6C6343 STOP ADDMOD XOR STOP CALLER "},"methodIdentifiers":{"checkProfileExists(address)":"a12f30b9","createProfile(string,string,string,string,string,string[],string[],uint256[],string,string,string,string,string)":"bc4cb225","deactivateProfile()":"20a17bca","getProfile(address)":"0f53a470","getProfileAddress(uint256)":"db8ce08c","getProfileBasicInfo(address)":"5c3752f4","getTotalProfiles()":"bab17ce9","getUserSkills(address)":"d2886ebc","getUserSocialLinks(address)":"d190ce95","hasProfile(address)":"a787c80b","owner()":"8da5cb5b","pause()":"8456cb59","paused()":"5c975abb","profileAddresses(uint256)":"e58b0aa1","profiles(address)":"bbe15627","reactivateProfile()":"75db7721","renounceOwnership()":"715018a6","transferOwnership(address)":"f2fde38b","unpause()":"3f4ba83a","updateAvatar(string)":"9fe958b9","updateCover(string)":"240b6d49","updateProfile(string,string,string,string,string,string[],string[],uint256[],string,string,string,string,string)":"422bf498"}}}}}