{"contracts/FraudDetection.sol":{"FraudDetection":{"abi":[{"inputs":[],"stateMutability":"nonpayable","type":"constructor"},{"anonymous":false,"inputs":[{"indexed":true,"internalType":"address","name":"user","type":"address"},{"indexed":false,"internalType":"string","name":"activityType","type":"string"},{"indexed":false,"internalType":"uint256","name":"count","type":"uint256"}],"name":"ActivityDetected","type":"event"},{"anonymous":false,"inputs":[{"indexed":true,"internalType":"uint256","name":"reportId","type":"uint256"},{"indexed":false,"internalType":"bool","name":"isValid","type":"bool"},{"indexed":false,"internalType":"address","name":"resolvedBy","type":"address"}],"name":"FraudReportResolved","type":"event"},{"anonymous":false,"inputs":[{"indexed":true,"internalType":"uint256","name":"reportId","type":"uint256"},{"indexed":true,"internalType":"address","name":"reporter","type":"address"},{"indexed":true,"internalType":"address","name":"reportedUser","type":"address"},{"indexed":false,"internalType":"string","name":"reason","type":"string"}],"name":"FraudReported","type":"event"},{"anonymous":false,"inputs":[{"indexed":true,"internalType":"address","name":"previousOwner","type":"address"},{"indexed":true,"internalType":"address","name":"newOwner","type":"address"}],"name":"OwnershipTransferred","type":"event"},{"anonymous":false,"inputs":[{"indexed":true,"internalType":"address","name":"user","type":"address"},{"indexed":false,"internalType":"uint256","name":"newScore","type":"uint256"},{"indexed":false,"internalType":"uint256","name":"penalty","type":"uint256"}],"name":"ReputationUpdated","type":"event"},{"anonymous":false,"inputs":[{"indexed":true,"internalType":"address","name":"user","type":"address"},{"indexed":false,"internalType":"string","name":"reason","type":"string"}],"name":"UserBlacklisted","type":"event"},{"anonymous":false,"inputs":[{"indexed":true,"internalType":"address","name":"user","type":"address"}],"name":"UserUnblacklisted","type":"event"},{"inputs":[],"name":"AVERAGE_REPUTATION","outputs":[{"internalType":"uint256","name":"","type":"uint256"}],"stateMutability":"view","type":"function"},{"inputs":[],"name":"EXCELLENT_REPUTATION","outputs":[{"internalType":"uint256","name":"","type":"uint256"}],"stateMutability":"view","type":"function"},{"inputs":[],"name":"FRAUD_PENALTY_PERCENTAGE","outputs":[{"internalType":"uint256","name":"","type":"uint256"}],"stateMutability":"view","type":"function"},{"inputs":[],"name":"GOOD_REPUTATION","outputs":[{"internalType":"uint256","name":"","type":"uint256"}],"stateMutability":"view","type":"function"},{"inputs":[],"name":"MAX_APPLICATIONS_PER_DAY","outputs":[{"internalType":"uint256","name":"","type":"uint256"}],"stateMutability":"view","type":"function"},{"inputs":[],"name":"MAX_JOBS_PER_DAY","outputs":[{"internalType":"uint256","name":"","type":"uint256"}],"stateMutability":"view","type":"function"},{"inputs":[],"name":"MIN_REPUTATION_FOR_POSTING","outputs":[{"internalType":"uint256","name":"","type":"uint256"}],"stateMutability":"view","type":"function"},{"inputs":[],"name":"POOR_REPUTATION","outputs":[{"internalType":"uint256","name":"","type":"uint256"}],"stateMutability":"view","type":"function"},{"inputs":[{"internalType":"address","name":"_verifier","type":"address"}],"name":"addTrustedVerifier","outputs":[],"stateMutability":"nonpayable","type":"function"},{"inputs":[{"internalType":"address","name":"_user","type":"address"},{"internalType":"string","name":"_reason","type":"string"}],"name":"blacklistUser","outputs":[],"stateMutability":"nonpayable","type":"function"},{"inputs":[{"internalType":"address","name":"","type":"address"}],"name":"blacklistedUsers","outputs":[{"internalType":"bool","name":"","type":"bool"}],"stateMutability":"view","type":"function"},{"inputs":[{"internalType":"address","name":"_user","type":"address"}],"name":"calculateReputationScore","outputs":[{"internalType":"uint256","name":"","type":"uint256"}],"stateMutability":"view","type":"function"},{"inputs":[{"internalType":"uint256","name":"","type":"uint256"}],"name":"fraudReports","outputs":[{"internalType":"uint256","name":"reportId","type":"uint256"},{"internalType":"address","name":"reporter","type":"address"},{"internalType":"address","name":"reportedUser","type":"address"},{"internalType":"string","name":"reason","type":"string"},{"internalType":"uint256","name":"severity","type":"uint256"},{"internalType":"string","name":"evidence","type":"string"},{"internalType":"bool","name":"isResolved","type":"bool"},{"internalType":"bool","name":"isValid","type":"bool"},{"internalType":"uint256","name":"timestamp","type":"uint256"},{"internalType":"uint256","name":"resolvedAt","type":"uint256"},{"internalType":"address","name":"resolvedBy","type":"address"}],"stateMutability":"view","type":"function"},{"inputs":[{"internalType":"uint256","name":"_reportId","type":"uint256"}],"name":"getFraudReport","outputs":[{"internalType":"uint256","name":"reportId","type":"uint256"},{"internalType":"address","name":"reporter","type":"address"},{"internalType":"address","name":"reportedUser","type":"address"},{"internalType":"string","name":"reason","type":"string"},{"internalType":"uint256","name":"severity","type":"uint256"},{"internalType":"string","name":"evidence","type":"string"},{"internalType":"bool","name":"isResolved","type":"bool"},{"internalType":"bool","name":"isValid","type":"bool"},{"internalType":"uint256","name":"timestamp","type":"uint256"},{"internalType":"uint256","name":"resolvedAt","type":"uint256"},{"internalType":"address","name":"resolvedBy","type":"address"}],"stateMutability":"view","type":"function"},{"inputs":[{"internalType":"address","name":"_user","type":"address"}],"name":"getReputationScore","outputs":[{"internalType":"uint256","name":"baseScore","type":"uint256"},{"internalType":"uint256","name":"activityScore","type":"uint256"},{"internalType":"uint256","name":"qualityScore","type":"uint256"},{"internalType":"uint256","name":"fraudPenalty","type":"uint256"},{"internalType":"uint256","name":"totalScore","type":"uint256"},{"internalType":"uint256","name":"lastUpdated","type":"uint256"}],"stateMutability":"view","type":"function"},{"inputs":[],"name":"getTotalFraudReports","outputs":[{"internalType":"uint256","name":"","type":"uint256"},{"internalType":"uint256","name":"","type":"uint256"}],"stateMutability":"view","type":"function"},{"inputs":[{"internalType":"address","name":"_user","type":"address"}],"name":"getUserActivity","outputs":[{"internalType":"uint256","name":"dailyApplications","type":"uint256"},{"internalType":"uint256","name":"dailyJobPosts","type":"uint256"},{"internalType":"uint256","name":"totalApplications","type":"uint256"},{"internalType":"uint256","name":"totalJobPosts","type":"uint256"},{"internalType":"uint256","name":"fraudReportCount","type":"uint256"},{"internalType":"uint256","name":"successfulJobs","type":"uint256"},{"internalType":"uint256","name":"failedJobs","type":"uint256"}],"stateMutability":"view","type":"function"},{"inputs":[{"internalType":"address","name":"_user","type":"address"}],"name":"isUserBlacklisted","outputs":[{"internalType":"bool","name":"","type":"bool"}],"stateMutability":"view","type":"function"},{"inputs":[],"name":"owner","outputs":[{"internalType":"address","name":"","type":"address"}],"stateMutability":"view","type":"function"},{"inputs":[{"internalType":"address","name":"_user","type":"address"}],"name":"recordFailedJob","outputs":[],"stateMutability":"nonpayable","type":"function"},{"inputs":[{"internalType":"address","name":"_user","type":"address"}],"name":"recordSuccessfulJob","outputs":[],"stateMutability":"nonpayable","type":"function"},{"inputs":[{"internalType":"address","name":"_verifier","type":"address"}],"name":"removeTrustedVerifier","outputs":[],"stateMutability":"nonpayable","type":"function"},{"inputs":[],"name":"renounceOwnership","outputs":[],"stateMutability":"nonpayable","type":"function"},{"inputs":[{"internalType":"address","name":"_reportedUser","type":"address"},{"internalType":"string","name":"_reason","type":"string"},{"internalType":"uint256","name":"_severity","type":"uint256"},{"internalType":"string","name":"_evidence","type":"string"},{"internalType":"bytes","name":"_signature","type":"bytes"}],"name":"reportFraud","outputs":[],"stateMutability":"nonpayable","type":"function"},{"inputs":[{"internalType":"address","name":"","type":"address"}],"name":"reputationScores","outputs":[{"internalType":"uint256","name":"baseScore","type":"uint256"},{"internalType":"uint256","name":"activityScore","type":"uint256"},{"internalType":"uint256","name":"qualityScore","type":"uint256"},{"internalType":"uint256","name":"fraudPenalty","type":"uint256"},{"internalType":"uint256","name":"totalScore","type":"uint256"},{"internalType":"uint256","name":"lastUpdated","type":"uint256"}],"stateMutability":"view","type":"function"},{"inputs":[{"internalType":"uint256","name":"_reportId","type":"uint256"},{"internalType":"bool","name":"_isValid","type":"bool"}],"name":"resolveFraudReport","outputs":[],"stateMutability":"nonpayable","type":"function"},{"inputs":[],"name":"resolvedFraudReports","outputs":[{"internalType":"uint256","name":"","type":"uint256"}],"stateMutability":"view","type":"function"},{"inputs":[],"name":"totalFraudReports","outputs":[{"internalType":"uint256","name":"","type":"uint256"}],"stateMutability":"view","type":"function"},{"inputs":[{"internalType":"address","name":"_user","type":"address"},{"internalType":"string","name":"_activityType","type":"string"}],"name":"trackActivity","outputs":[],"stateMutability":"nonpayable","type":"function"},{"inputs":[{"internalType":"address","name":"newOwner","type":"address"}],"name":"transferOwnership","outputs":[],"stateMutability":"nonpayable","type":"function"},{"inputs":[{"internalType":"address","name":"","type":"address"}],"name":"trustedVerifiers","outputs":[{"internalType":"bool","name":"","type":"bool"}],"stateMutability":"view","type":"function"},{"inputs":[{"internalType":"address","name":"_user","type":"address"}],"name":"unblacklistUser","outputs":[],"stateMutability":"nonpayable","type":"function"},{"inputs":[{"internalType":"address","name":"_user","type":"address"}],"name":"updateReputationScore","outputs":[],"stateMutability":"nonpayable","type":"function"},{"inputs":[{"internalType":"address","name":"","type":"address"}],"name":"userActivities","outputs":[{"internalType":"uint256","name":"lastActivityTimestamp","type":"uint256"},{"internalType":"uint256","name":"dailyApplications","type":"uint256"},{"internalType":"uint256","name":"dailyJobPosts","type":"uint256"},{"internalType":"uint256","name":"totalApplications","type":"uint256"},{"internalType":"uint256","name":"totalJobPosts","type":"uint256"},{"internalType":"uint256","name":"fraudReports","type":"uint256"},{"internalType":"uint256","name":"successfulJobs","type":"uint256"},{"internalType":"uint256","name":"failedJobs","type":"uint256"}],"stateMutability":"view","type":"function"}],"evm":{"bytecode":{"linkReferences":{},"object":"608080604052346100735760008054336001600160a01b0319821681178355604092916001600160a01b03167f8be0079c531659141344cd1fd0a4f28419497f9722a3daafe3b4186f6b6457e08380a360018055338152600560205220600160ff19825416179055611df990816100798239f35b600080fdfe608080604052600436101561001357600080fd5b60003560e01c9081621590c8146116cb575080630a8fa825146116a0578063218bf91b1461168357806322c0aec71461154c578063263198331461164457806329d34301146116275780632a4fe4cd146116025780634d0970c61461158b578063503b8e811461154c57806350a053cd146115075780635162122c146114eb578063531e00d1146114cf57806358c83c6c146113d55780635bce545b14611393578063715018a61461133a57806375a67d5c146103c45780637ec733841461131e578063801d2cf1146112dc578063897fe5cc146112bf5780638aa96fac146112595780638da5cb5b14611230578063985cc061146111a95780639c51a2cd14610a39578063aaee2e3c14610a1b578063b47548501461098e578063b872706414610901578063b9f974b5146105f0578063c206daca146105d4578063dc564b3b14610589578063e0f3aa111461050b578063f2fde38b14610447578063fe0438b2146103c4578063ff46a234146103a65763ffc117751461019457600080fd5b346103a1576101a23661179e565b9060018060a01b03811691826000526020906002825260406000209182549262015180840180941161038b577f1d41fb4d153ff4122c040264dc66ebbd80e35e272a7fb3a52e5a48c66749ee319461027394421015610375575b83519083850191822061020d6119b8565b805190860120036102c257600a6001840161022881546119a9565b8091556003850161023981546119a9565b905511610285575b505b8351902061024f6119b8565b8051908401200361027c57600101545b6040519384936040855260408501906118e0565b918301520390a2005b6002015461025f565b6040516102bc91610295826116fb565b6016825275457863657373697665206170706c69636174696f6e7360501b86830152611b78565b38610241565b7fbbcd34453363da560051485ca17e5cbf89d760886eaf4ee3b17f898e50e53e2085518320671a9bd897dc1bdcdd60c21b86604051610300816116fb565b60088152015214610312575b50610243565b60056002840161032281546119a9565b8091556004850161033381546119a9565b9055111561030c5760405161036f9161034b826116fb565b6013825272457863657373697665206a6f6220706f73747360681b86830152611b78565b3861030c565b60006001830155600060028301554282556101fc565b634e487b7160e01b600052601160045260246000fd5b600080fd5b346103a15760003660031901126103a1576020600854604051908152f35b346103a15760203660031901126103a1576001600160a01b036103e56116e5565b1660005260046020526040600020805461044360018301549260028101549060038101546005600483015492015492604051968796879260a094919796959260c0850198855260208501526040840152606083015260808201520152565b0390f35b346103a15760203660031901126103a1576104606116e5565b610468611ad3565b6001600160a01b039081169081156104b757600054826001600160601b0360a01b821617600055167f8be0079c531659141344cd1fd0a4f28419497f9722a3daafe3b4186f6b6457e0600080a3005b60405162461bcd60e51b815260206004820152602660248201527f4f776e61626c653a206e6577206f776e657220697320746865207a65726f206160448201526564647265737360d01b6064820152608490fd5b346103a15760203660031901126103a1576001600160a01b0361052c6116e5565b16600052600260205260e06040600020600181015490600281015490600381015460048201546005830154916007600685015494015494604051968752602087015260408601526060850152608084015260a083015260c0820152f35b346103a15760203660031901126103a1576105d26105a56116e5565b6001600160a01b038116600090815260026020526040902060060180546105cb906119a9565b9055611b2b565b005b346103a15760003660031901126103a157602060405160c88152f35b346103a15760403660031901126103a15760043560248035801515918282036103a157336000526020916005835260ff60406000205416156108c457841515806108b8575b15610880578460005260038352604060002091600683019182549260ff841661083c5761ffff1990931681151560081b61ff00161760011790925560ff199142600885015560098401336001600160601b0360a01b82541617905561069b6008546119a9565b6008556106d6575b857ff860c9bd736ed88d6dea7355447d5d5cea3d006699fda5b1db5d1df2c6bf9f276040878782519182523390820152a2005b600460018060a01b03600285015416930154918360005260048552604060002092600484019283546019810290808204601914811517156108275783026019029281159184041417156108135750604095937ff860c9bd736ed88d6dea7355447d5d5cea3d006699fda5b1db5d1df2c6bf9f27979593600080516020611da483398151915293603260648a9504936003810161077386825461197c565b905561077e886119df565b90818555600542910155106107a3575b505490825191825285820152a29181936106a3565b856000526006875260018460002091825416179055847fcc1cf21b75158e751a071cc4770b92cde8bb2bc34f9187eedd0592b874a5566960608551898152601a8a8201527f52657075746174696f6e2062656c6f77207468726573686f6c6400000000000087820152a28a61078e565b634e487b7160e01b60009081526011600452fd5b82634e487b7160e01b60005260116004526000fd5b60405162461bcd60e51b8152600481018790526017818501527f5265706f727420616c7265616479207265736f6c7665640000000000000000006044820152606490fd5b60405162461bcd60e51b81526004810184905260118184015270125b9d985b1a59081c995c1bdc9d081251607a1b6044820152606490fd5b50600754851115610635565b60405162461bcd60e51b815260048101849052601681840152752737ba1030903a393ab9ba32b2103b32b934b334b2b960511b6044820152606490fd5b346103a15760203660031901126103a15760043560005260036020526040600020805461044360018060a01b03918260018501541692806002860154169460048101549260068201549060078301549260088101549460098201541695610976600561096f60038501611818565b9301611818565b916040519a8b9a60ff808860081c169716958c611905565b346103a15760203660031901126103a1576004356000526003602052604060002080549061044360018060a01b0392836001840154169284600282015416946109d960038301611818565b926004830154906109ec60058501611818565b6006850154926007860154946009600888015497015416966040519a8b9a60ff808860081c169716958c611905565b346103a15760003660031901126103a1576020600754604051908152f35b346103a15760a03660031901126103a157610a526116e5565b60243567ffffffffffffffff81116103a157610a72903690600401611780565b604480356064803567ffffffffffffffff81116103a157610a97903690600401611780565b9260843567ffffffffffffffff81116103a157366023820112156103a157610ac9903690602481600401359101611739565b33600052600660205260ff6040600020541661117157600184101580611166575b1561112b576001600160a01b038716156110f1576001600160a01b03871633146110b6578551156110825784511561104c5760405160208101906001600160601b03198960601b168252610b796054828a51610b4e818d60206034860191016118bd565b81018960348201528a5190610b6a828d602087850191016118bd565b01036034810184520182611717565b5190206040519160208301917f19457468657265756d205369676e6564204d6573736167653a0a3332000000008352603c840152603c8352606083019183831067ffffffffffffffff841117610f3157610be493610bdc93604052519020611bc2565b919091611bfa565b336001600160a01b0390911603611017575050610c026007546119a9565b918260075560405191610160830183811067ffffffffffffffff821117610f315760405283835233602084015260018060a01b0386166040840152846060840152608083015260a0820152600060c0820152600060e0820152426101008201526000610120820152600061014082015281600052600360205260406000208151815560018060a01b036020830151166001600160601b0360a01b6001830154161760018201556002810160018060a01b036040840151166001600160601b0360a01b825416179055606082015180519067ffffffffffffffff8211610f31578190610cf060038501546117de565b601f8111610fc4575b50602090601f8311600114610f5257600092610f47575b50508160011b916000199060031b1c19161760038201555b6080820151600482015560a082015180519067ffffffffffffffff8211610f3157610d5660058401546117de565b601f8111610eea575b50602090601f8311600114610e7757600993929160009183610e6c575b50508160011b916000199060031b1c19161760058201555b610dcc6006820160c0850151151560ff8019835416911617815560e0850151151561ff00825491151560081b169061ff001916179055565b6101008301516007820155610120830151600882015561014090920151910180546001600160a01b0319166001600160a01b03928316179055831660009081526002602052604090206005018054610e23906119a9565b90557febcd02f1ed8af4bdea0ef6a2698804d151870a540444b754f3a5f9627ed3f3a4604051936020855260018060a01b03169380610e67339560208301906118e0565b0390a4005b015190508880610d7c565b906005840160005260206000209160005b601f1985168110610ed2575091839160019360099695601f19811610610eb9575b505050811b016005820155610d94565b015160001960f88460031b161c19169055888080610ea9565b91926020600181928685015181550194019201610e88565b600584016000526020600020601f840160051c810160208510610f2a575b601f830160051c82018110610f1e575050610d5f565b60008155600101610f08565b5080610f08565b634e487b7160e01b600052604160045260246000fd5b015190508780610d10565b9250600384016000526020600020906000935b601f1984168510610fa9576001945083601f19811610610f90575b505050811b016003820155610d28565b015160001960f88460031b161c19169055878080610f80565b81810151835560209485019460019093019290910190610f65565b909150600384016000526020600020601f840160051c810160208510611010575b90849392915b601f830160051c82018110611001575050610cf9565b60008155859450600101610feb565b5080610fe5565b70496e76616c6964207369676e617475726560781b6040519162461bcd60e51b83526020600484015260116024840152820152fd5b5070115d9a59195b98d9481c995c5d5a5c9959607a1b6040519162461bcd60e51b83526020600484015260116024840152820152fd5b506e1499585cdbdb881c995c5d5a5c9959608a1b6040519162461bcd60e51b835260206004840152600f6024840152820152fd5b507521b0b73737ba103932b837b93a103cb7bab939b2b63360511b6040519162461bcd60e51b83526020600484015260166024840152820152fd5b507424b73b30b634b2103932b837b93a32b2103ab9b2b960591b6040519162461bcd60e51b83526020600484015260156024840152820152fd5b5075125b9d985b1a59081cd95d995c9a5d1e481b195d995b60521b6040519162461bcd60e51b83526020600484015260166024840152820152fd5b506005841115610aea565b5072155cd95c881a5cc8189b1858dadb1a5cdd1959606a1b6040519162461bcd60e51b83526020600484015260136024840152820152fd5b346103a15760203660031901126103a1576001600160a01b036111ca6116e5565b1660005260026020526101006040600020805490600181015490600281015460038201546004830154906005840154926007600686015495015495604051978852602088015260408701526060860152608085015260a084015260c083015260e0820152f35b346103a15760003660031901126103a1576000546040516001600160a01b039091168152602090f35b346103a15760203660031901126103a1576112726116e5565b61127a611ad3565b6001600160a01b03166000818152600660205260408120805460ff191690557f0e8627d8a3ba37f2a00b3ae4503c200e696f351225f168df1d3e84eed8009ff99080a2005b346103a15760003660031901126103a15760206040516102588152f35b346103a15760203660031901126103a1576112f56116e5565b6112fd611ad3565b6001600160a01b03166000908152600560205260409020805460ff19169055005b346103a15760003660031901126103a157602060405160198152f35b346103a15760003660031901126103a157611353611ad3565b600080546001600160a01b0319811682556001600160a01b03167f8be0079c531659141344cd1fd0a4f28419497f9722a3daafe3b4186f6b6457e08280a3005b346103a15760203660031901126103a1576105d26113af6116e5565b6001600160a01b038116600090815260026020526040902060070180546105cb906119a9565b346103a15760203660031901126103a1576113ee6116e5565b60018060a01b0381169081600052600460205260406000209060026020526040600020606483556006810190815490600a820291808304600a149015171561038b57611446916001860155600783549101549061197c565b6002840191600083558161148d575b85600080516020611da4833981519152604087611471886119df565b90816004820155600542910155815190815260006020820152a2005b939193549260648402938085046064149015171561038b57600080516020611da4833981519152946114c461147193604096611989565b905592829450611455565b346103a15760003660031901126103a1576020604051600a8152f35b346103a15760003660031901126103a157602060405160058152f35b346103a15760203660031901126103a1576115206116e5565b611528611ad3565b6001600160a01b03166000908152600560205260409020805460ff19166001179055005b346103a15760203660031901126103a1576001600160a01b0361156d6116e5565b166000526006602052602060ff604060002054166040519015158152f35b346103a1576115fd7fcc1cf21b75158e751a071cc4770b92cde8bb2bc34f9187eedd0592b874a556696115bd3661179e565b92906115c7611ad3565b60018060a01b0316928360005260066020526040600020600160ff198254161790556040519182916020835260208301906118e0565b0390a2005b346103a15760003660031901126103a157604060075460085482519182526020820152f35b346103a15760003660031901126103a15760206040516101908152f35b346103a15760203660031901126103a1576001600160a01b036116656116e5565b166000526005602052602060ff604060002054166040519015158152f35b346103a15760003660031901126103a15760206040516103208152f35b346103a15760203660031901126103a15760206116c36116be6116e5565b6119df565b604051908152f35b346103a15760003660031901126103a15780603260209252f35b600435906001600160a01b03821682036103a157565b6040810190811067ffffffffffffffff821117610f3157604052565b90601f8019910116810190811067ffffffffffffffff821117610f3157604052565b92919267ffffffffffffffff8211610f315760405191611763601f8201601f191660200184611717565b8294818452818301116103a1578281602093846000960137010152565b9080601f830112156103a15781602061179b93359101611739565b90565b9060406003198301126103a1576004356001600160a01b03811681036103a157916024359067ffffffffffffffff82116103a15761179b91600401611780565b90600182811c9216801561180e575b60208310146117f857565b634e487b7160e01b600052602260045260246000fd5b91607f16916117ed565b9060405191826000825461182b816117de565b9081845260209460019160018116908160001461189b575060011461185c575b50505061185a92500383611717565b565b600090815285812095935091905b81831061188357505061185a935082010138808061184b565b8554888401850152948501948794509183019161186a565b9250505061185a94925060ff191682840152151560051b82010138808061184b565b60005b8381106118d05750506000910152565b81810151838201526020016118c0565b906020916118f9815180928185528580860191016118bd565b601f01601f1916010190565b99959061195b9398946101409a969361194892999e9d9960608e610160938493825260018060a01b039e8f809216602084015216604082015201528c01906118e0565b9160808b015289820360a08b01526118e0565b98151560c0880152151560e087015261010086015261012085015216910152565b9190820180921161038b57565b8115611993570490565b634e487b7160e01b600052601260045260246000fd5b600019811461038b5760010190565b604051906119c5826116fb565b600b82526a30b8383634b1b0ba34b7b760a91b6020830152565b60009060018060a01b0316815260026020526040812090600460205260408120916006810154600a810290801592818304600a14841715611abf576007611a289101548261197c565b90849382611a83575b50505060640180606411611a6f57600391611a4b9161197c565b9201548203918211611a5b575090565b634e487b7160e01b81526011600452602490fd5b634e487b7160e01b83526011600452602483fd5b9091929350606482029182046064141715611aab5790611aa291611989565b90388080611a31565b634e487b7160e01b84526011600452602484fd5b634e487b7160e01b85526011600452602485fd5b6000546001600160a01b03163303611ae757565b606460405162461bcd60e51b815260206004820152602060248201527f4f776e61626c653a2063616c6c6572206973206e6f7420746865206f776e65726044820152fd5b600080516020611da4833981519152604060018060a01b03831692836000526004602052611b5c82600020916119df565b90816004820155600542910155815190815260006020820152a2565b9060007febcd02f1ed8af4bdea0ef6a2698804d151870a540444b754f3a5f9627ed3f3a4604051936020855260018060a01b03169380611bbd309560208301906118e0565b0390a4565b906041815114600014611bf057611bec916020820151906060604084015193015160001a90611d14565b9091565b5050600090600290565b6005811015611cfe5780611c0b5750565b60018103611c585760405162461bcd60e51b815260206004820152601860248201527f45434453413a20696e76616c6964207369676e617475726500000000000000006044820152606490fd5b60028103611ca55760405162461bcd60e51b815260206004820152601f60248201527f45434453413a20696e76616c6964207369676e6174757265206c656e677468006044820152606490fd5b600314611cae57565b60405162461bcd60e51b815260206004820152602260248201527f45434453413a20696e76616c6964207369676e6174757265202773272076616c604482015261756560f01b6064820152608490fd5b634e487b7160e01b600052602160045260246000fd5b9291907f7fffffffffffffffffffffffffffffff5d576e7357a4501ddfe92f46681b20a08311611d975791608094939160ff602094604051948552168484015260408301526060820152600093849182805260015afa15611d8a5781516001600160a01b03811615611d84579190565b50600190565b50604051903d90823e3d90fd5b5050505060009060039056fe5b88a2e3fc1a53234357ab78c104df11c33ccfa79886793654565ad70b8afb6ea26469706673582212200d7ed05087c116dd86ab4f71ebdcc4f133c2bfa4eea21f670c7b2eb7fdeb790164736f6c63430008180033","opcodes":"PUSH1 0x80 DUP1 PUSH1 0x40 MSTORE CALLVALUE PUSH2 0x73 JUMPI PUSH1 0x0 DUP1 SLOAD CALLER PUSH1 0x1 PUSH1 0x1 PUSH1 0xA0 SHL SUB NOT DUP3 AND DUP2 OR DUP4 SSTORE PUSH1 0x40 SWAP3 SWAP2 PUSH1 0x1 PUSH1 0x1 PUSH1 0xA0 SHL SUB AND PUSH32 0x8BE0079C531659141344CD1FD0A4F28419497F9722A3DAAFE3B4186F6B6457E0 DUP4 DUP1 LOG3 PUSH1 0x1 DUP1 SSTORE CALLER DUP2 MSTORE PUSH1 0x5 PUSH1 0x20 MSTORE KECCAK256 PUSH1 0x1 PUSH1 0xFF NOT DUP3 SLOAD AND OR SWAP1 SSTORE PUSH2 0x1DF9 SWAP1 DUP2 PUSH2 0x79 DUP3 CODECOPY RETURN JUMPDEST PUSH1 0x0 DUP1 REVERT INVALID PUSH1 0x80 DUP1 PUSH1 0x40 MSTORE PUSH1 0x4 CALLDATASIZE LT ISZERO PUSH2 0x13 JUMPI PUSH1 0x0 DUP1 REVERT JUMPDEST PUSH1 0x0 CALLDATALOAD PUSH1 0xE0 SHR SWAP1 DUP2 PUSH3 0x1590C8 EQ PUSH2 0x16CB JUMPI POP DUP1 PUSH4 0xA8FA825 EQ PUSH2 0x16A0 JUMPI DUP1 PUSH4 0x218BF91B EQ PUSH2 0x1683 JUMPI DUP1 PUSH4 0x22C0AEC7 EQ PUSH2 0x154C JUMPI DUP1 PUSH4 0x26319833 EQ PUSH2 0x1644 JUMPI DUP1 PUSH4 0x29D34301 EQ PUSH2 0x1627 JUMPI DUP1 PUSH4 0x2A4FE4CD EQ PUSH2 0x1602 JUMPI DUP1 PUSH4 0x4D0970C6 EQ PUSH2 0x158B JUMPI DUP1 PUSH4 0x503B8E81 EQ PUSH2 0x154C JUMPI DUP1 PUSH4 0x50A053CD EQ PUSH2 0x1507 JUMPI DUP1 PUSH4 0x5162122C EQ PUSH2 0x14EB JUMPI DUP1 PUSH4 0x531E00D1 EQ PUSH2 0x14CF JUMPI DUP1 PUSH4 0x58C83C6C EQ PUSH2 0x13D5 JUMPI DUP1 PUSH4 0x5BCE545B EQ PUSH2 0x1393 JUMPI DUP1 PUSH4 0x715018A6 EQ PUSH2 0x133A JUMPI DUP1 PUSH4 0x75A67D5C EQ PUSH2 0x3C4 JUMPI DUP1 PUSH4 0x7EC73384 EQ PUSH2 0x131E JUMPI DUP1 PUSH4 0x801D2CF1 EQ PUSH2 0x12DC JUMPI DUP1 PUSH4 0x897FE5CC EQ PUSH2 0x12BF JUMPI DUP1 PUSH4 0x8AA96FAC EQ PUSH2 0x1259 JUMPI DUP1 PUSH4 0x8DA5CB5B EQ PUSH2 0x1230 JUMPI DUP1 PUSH4 0x985CC061 EQ PUSH2 0x11A9 JUMPI DUP1 PUSH4 0x9C51A2CD EQ PUSH2 0xA39 JUMPI DUP1 PUSH4 0xAAEE2E3C EQ PUSH2 0xA1B JUMPI DUP1 PUSH4 0xB4754850 EQ PUSH2 0x98E JUMPI DUP1 PUSH4 0xB8727064 EQ PUSH2 0x901 JUMPI DUP1 PUSH4 0xB9F974B5 EQ PUSH2 0x5F0 JUMPI DUP1 PUSH4 0xC206DACA EQ PUSH2 0x5D4 JUMPI DUP1 PUSH4 0xDC564B3B EQ PUSH2 0x589 JUMPI DUP1 PUSH4 0xE0F3AA11 EQ PUSH2 0x50B JUMPI DUP1 PUSH4 0xF2FDE38B EQ PUSH2 0x447 JUMPI DUP1 PUSH4 0xFE0438B2 EQ PUSH2 0x3C4 JUMPI DUP1 PUSH4 0xFF46A234 EQ PUSH2 0x3A6 JUMPI PUSH4 0xFFC11775 EQ PUSH2 0x194 JUMPI PUSH1 0x0 DUP1 REVERT JUMPDEST CALLVALUE PUSH2 0x3A1 JUMPI PUSH2 0x1A2 CALLDATASIZE PUSH2 0x179E JUMP JUMPDEST SWAP1 PUSH1 0x1 DUP1 PUSH1 0xA0 SHL SUB DUP2 AND SWAP2 DUP3 PUSH1 0x0 MSTORE PUSH1 0x20 SWAP1 PUSH1 0x2 DUP3 MSTORE PUSH1 0x40 PUSH1 0x0 KECCAK256 SWAP2 DUP3 SLOAD SWAP3 PUSH3 0x15180 DUP5 ADD DUP1 SWAP5 GT PUSH2 0x38B JUMPI PUSH32 0x1D41FB4D153FF4122C040264DC66EBBD80E35E272A7FB3A52E5A48C66749EE31 SWAP5 PUSH2 0x273 SWAP5 TIMESTAMP LT ISZERO PUSH2 0x375 JUMPI JUMPDEST DUP4 MLOAD SWAP1 DUP4 DUP6 ADD SWAP2 DUP3 KECCAK256 PUSH2 0x20D PUSH2 0x19B8 JUMP JUMPDEST DUP1 MLOAD SWAP1 DUP7 ADD KECCAK256 SUB PUSH2 0x2C2 JUMPI PUSH1 0xA PUSH1 0x1 DUP5 ADD PUSH2 0x228 DUP2 SLOAD PUSH2 0x19A9 JUMP JUMPDEST DUP1 SWAP2 SSTORE PUSH1 0x3 DUP6 ADD PUSH2 0x239 DUP2 SLOAD PUSH2 0x19A9 JUMP JUMPDEST SWAP1 SSTORE GT PUSH2 0x285 JUMPI JUMPDEST POP JUMPDEST DUP4 MLOAD SWAP1 KECCAK256 PUSH2 0x24F PUSH2 0x19B8 JUMP JUMPDEST DUP1 MLOAD SWAP1 DUP5 ADD KECCAK256 SUB PUSH2 0x27C JUMPI PUSH1 0x1 ADD SLOAD JUMPDEST PUSH1 0x40 MLOAD SWAP4 DUP5 SWAP4 PUSH1 0x40 DUP6 MSTORE PUSH1 0x40 DUP6 ADD SWAP1 PUSH2 0x18E0 JUMP JUMPDEST SWAP2 DUP4 ADD MSTORE SUB SWAP1 LOG2 STOP JUMPDEST PUSH1 0x2 ADD SLOAD PUSH2 0x25F JUMP JUMPDEST PUSH1 0x40 MLOAD PUSH2 0x2BC SWAP2 PUSH2 0x295 DUP3 PUSH2 0x16FB JUMP JUMPDEST PUSH1 0x16 DUP3 MSTORE PUSH22 0x457863657373697665206170706C69636174696F6E73 PUSH1 0x50 SHL DUP7 DUP4 ADD MSTORE PUSH2 0x1B78 JUMP JUMPDEST CODESIZE PUSH2 0x241 JUMP JUMPDEST PUSH32 0xBBCD34453363DA560051485CA17E5CBF89D760886EAF4EE3B17F898E50E53E20 DUP6 MLOAD DUP4 KECCAK256 PUSH8 0x1A9BD897DC1BDCDD PUSH1 0xC2 SHL DUP7 PUSH1 0x40 MLOAD PUSH2 0x300 DUP2 PUSH2 0x16FB JUMP JUMPDEST PUSH1 0x8 DUP2 MSTORE ADD MSTORE EQ PUSH2 0x312 JUMPI JUMPDEST POP PUSH2 0x243 JUMP JUMPDEST PUSH1 0x5 PUSH1 0x2 DUP5 ADD PUSH2 0x322 DUP2 SLOAD PUSH2 0x19A9 JUMP JUMPDEST DUP1 SWAP2 SSTORE PUSH1 0x4 DUP6 ADD PUSH2 0x333 DUP2 SLOAD PUSH2 0x19A9 JUMP JUMPDEST SWAP1 SSTORE GT ISZERO PUSH2 0x30C JUMPI PUSH1 0x40 MLOAD PUSH2 0x36F SWAP2 PUSH2 0x34B DUP3 PUSH2 0x16FB JUMP JUMPDEST PUSH1 0x13 DUP3 MSTORE PUSH19 0x457863657373697665206A6F6220706F737473 PUSH1 0x68 SHL DUP7 DUP4 ADD MSTORE PUSH2 0x1B78 JUMP JUMPDEST CODESIZE PUSH2 0x30C JUMP JUMPDEST PUSH1 0x0 PUSH1 0x1 DUP4 ADD SSTORE PUSH1 0x0 PUSH1 0x2 DUP4 ADD SSTORE TIMESTAMP DUP3 SSTORE PUSH2 0x1FC JUMP JUMPDEST PUSH4 0x4E487B71 PUSH1 0xE0 SHL PUSH1 0x0 MSTORE PUSH1 0x11 PUSH1 0x4 MSTORE PUSH1 0x24 PUSH1 0x0 REVERT JUMPDEST PUSH1 0x0 DUP1 REVERT JUMPDEST CALLVALUE PUSH2 0x3A1 JUMPI PUSH1 0x0 CALLDATASIZE PUSH1 0x3 NOT ADD SLT PUSH2 0x3A1 JUMPI PUSH1 0x20 PUSH1 0x8 SLOAD PUSH1 0x40 MLOAD SWAP1 DUP2 MSTORE RETURN JUMPDEST CALLVALUE PUSH2 0x3A1 JUMPI PUSH1 0x20 CALLDATASIZE PUSH1 0x3 NOT ADD SLT PUSH2 0x3A1 JUMPI PUSH1 0x1 PUSH1 0x1 PUSH1 0xA0 SHL SUB PUSH2 0x3E5 PUSH2 0x16E5 JUMP JUMPDEST AND PUSH1 0x0 MSTORE PUSH1 0x4 PUSH1 0x20 MSTORE PUSH1 0x40 PUSH1 0x0 KECCAK256 DUP1 SLOAD PUSH2 0x443 PUSH1 0x1 DUP4 ADD SLOAD SWAP3 PUSH1 0x2 DUP2 ADD SLOAD SWAP1 PUSH1 0x3 DUP2 ADD SLOAD PUSH1 0x5 PUSH1 0x4 DUP4 ADD SLOAD SWAP3 ADD SLOAD SWAP3 PUSH1 0x40 MLOAD SWAP7 DUP8 SWAP7 DUP8 SWAP3 PUSH1 0xA0 SWAP5 SWAP2 SWAP8 SWAP7 SWAP6 SWAP3 PUSH1 0xC0 DUP6 ADD SWAP9 DUP6 MSTORE PUSH1 0x20 DUP6 ADD MSTORE PUSH1 0x40 DUP5 ADD MSTORE PUSH1 0x60 DUP4 ADD MSTORE PUSH1 0x80 DUP3 ADD MSTORE ADD MSTORE JUMP JUMPDEST SUB SWAP1 RETURN JUMPDEST CALLVALUE PUSH2 0x3A1 JUMPI PUSH1 0x20 CALLDATASIZE PUSH1 0x3 NOT ADD SLT PUSH2 0x3A1 JUMPI PUSH2 0x460 PUSH2 0x16E5 JUMP JUMPDEST PUSH2 0x468 PUSH2 0x1AD3 JUMP JUMPDEST PUSH1 0x1 PUSH1 0x1 PUSH1 0xA0 SHL SUB SWAP1 DUP2 AND SWAP1 DUP2 ISZERO PUSH2 0x4B7 JUMPI PUSH1 0x0 SLOAD DUP3 PUSH1 0x1 PUSH1 0x1 PUSH1 0x60 SHL SUB PUSH1 0xA0 SHL DUP3 AND OR PUSH1 0x0 SSTORE AND PUSH32 0x8BE0079C531659141344CD1FD0A4F28419497F9722A3DAAFE3B4186F6B6457E0 PUSH1 0x0 DUP1 LOG3 STOP JUMPDEST PUSH1 0x40 MLOAD PUSH3 0x461BCD PUSH1 0xE5 SHL DUP2 MSTORE PUSH1 0x20 PUSH1 0x4 DUP3 ADD MSTORE PUSH1 0x26 PUSH1 0x24 DUP3 ADD MSTORE PUSH32 0x4F776E61626C653A206E6577206F776E657220697320746865207A65726F2061 PUSH1 0x44 DUP3 ADD MSTORE PUSH6 0x646472657373 PUSH1 0xD0 SHL PUSH1 0x64 DUP3 ADD MSTORE PUSH1 0x84 SWAP1 REVERT JUMPDEST CALLVALUE PUSH2 0x3A1 JUMPI PUSH1 0x20 CALLDATASIZE PUSH1 0x3 NOT ADD SLT PUSH2 0x3A1 JUMPI PUSH1 0x1 PUSH1 0x1 PUSH1 0xA0 SHL SUB PUSH2 0x52C PUSH2 0x16E5 JUMP JUMPDEST AND PUSH1 0x0 MSTORE PUSH1 0x2 PUSH1 0x20 MSTORE PUSH1 0xE0 PUSH1 0x40 PUSH1 0x0 KECCAK256 PUSH1 0x1 DUP2 ADD SLOAD SWAP1 PUSH1 0x2 DUP2 ADD SLOAD SWAP1 PUSH1 0x3 DUP2 ADD SLOAD PUSH1 0x4 DUP3 ADD SLOAD PUSH1 0x5 DUP4 ADD SLOAD SWAP2 PUSH1 0x7 PUSH1 0x6 DUP6 ADD SLOAD SWAP5 ADD SLOAD SWAP5 PUSH1 0x40 MLOAD SWAP7 DUP8 MSTORE PUSH1 0x20 DUP8 ADD MSTORE PUSH1 0x40 DUP7 ADD MSTORE PUSH1 0x60 DUP6 ADD MSTORE PUSH1 0x80 DUP5 ADD MSTORE PUSH1 0xA0 DUP4 ADD MSTORE PUSH1 0xC0 DUP3 ADD MSTORE RETURN JUMPDEST CALLVALUE PUSH2 0x3A1 JUMPI PUSH1 0x20 CALLDATASIZE PUSH1 0x3 NOT ADD SLT PUSH2 0x3A1 JUMPI PUSH2 0x5D2 PUSH2 0x5A5 PUSH2 0x16E5 JUMP JUMPDEST PUSH1 0x1 PUSH1 0x1 PUSH1 0xA0 SHL SUB DUP2 AND PUSH1 0x0 SWAP1 DUP2 MSTORE PUSH1 0x2 PUSH1 0x20 MSTORE PUSH1 0x40 SWAP1 KECCAK256 PUSH1 0x6 ADD DUP1 SLOAD PUSH2 0x5CB SWAP1 PUSH2 0x19A9 JUMP JUMPDEST SWAP1 SSTORE PUSH2 0x1B2B JUMP JUMPDEST STOP JUMPDEST CALLVALUE PUSH2 0x3A1 JUMPI PUSH1 0x0 CALLDATASIZE PUSH1 0x3 NOT ADD SLT PUSH2 0x3A1 JUMPI PUSH1 0x20 PUSH1 0x40 MLOAD PUSH1 0xC8 DUP2 MSTORE RETURN JUMPDEST CALLVALUE PUSH2 0x3A1 JUMPI PUSH1 0x40 CALLDATASIZE PUSH1 0x3 NOT ADD SLT PUSH2 0x3A1 JUMPI PUSH1 0x4 CALLDATALOAD PUSH1 0x24 DUP1 CALLDATALOAD DUP1 ISZERO ISZERO SWAP2 DUP3 DUP3 SUB PUSH2 0x3A1 JUMPI CALLER PUSH1 0x0 MSTORE PUSH1 0x20 SWAP2 PUSH1 0x5 DUP4 MSTORE PUSH1 0xFF PUSH1 0x40 PUSH1 0x0 KECCAK256 SLOAD AND ISZERO PUSH2 0x8C4 JUMPI DUP5 ISZERO ISZERO DUP1 PUSH2 0x8B8 JUMPI JUMPDEST ISZERO PUSH2 0x880 JUMPI DUP5 PUSH1 0x0 MSTORE PUSH1 0x3 DUP4 MSTORE PUSH1 0x40 PUSH1 0x0 KECCAK256 SWAP2 PUSH1 0x6 DUP4 ADD SWAP2 DUP3 SLOAD SWAP3 PUSH1 0xFF DUP5 AND PUSH2 0x83C JUMPI PUSH2 0xFFFF NOT SWAP1 SWAP4 AND DUP2 ISZERO ISZERO PUSH1 0x8 SHL PUSH2 0xFF00 AND OR PUSH1 0x1 OR SWAP1 SWAP3 SSTORE PUSH1 0xFF NOT SWAP2 TIMESTAMP PUSH1 0x8 DUP6 ADD SSTORE PUSH1 0x9 DUP5 ADD CALLER PUSH1 0x1 PUSH1 0x1 PUSH1 0x60 SHL SUB PUSH1 0xA0 SHL DUP3 SLOAD AND OR SWAP1 SSTORE PUSH2 0x69B PUSH1 0x8 SLOAD PUSH2 0x19A9 JUMP JUMPDEST PUSH1 0x8 SSTORE PUSH2 0x6D6 JUMPI JUMPDEST DUP6 PUSH32 0xF860C9BD736ED88D6DEA7355447D5D5CEA3D006699FDA5B1DB5D1DF2C6BF9F27 PUSH1 0x40 DUP8 DUP8 DUP3 MLOAD SWAP2 DUP3 MSTORE CALLER SWAP1 DUP3 ADD MSTORE LOG2 STOP JUMPDEST PUSH1 0x4 PUSH1 0x1 DUP1 PUSH1 0xA0 SHL SUB PUSH1 0x2 DUP6 ADD SLOAD AND SWAP4 ADD SLOAD SWAP2 DUP4 PUSH1 0x0 MSTORE PUSH1 0x4 DUP6 MSTORE PUSH1 0x40 PUSH1 0x0 KECCAK256 SWAP3 PUSH1 0x4 DUP5 ADD SWAP3 DUP4 SLOAD PUSH1 0x19 DUP2 MUL SWAP1 DUP1 DUP3 DIV PUSH1 0x19 EQ DUP2 ISZERO OR ISZERO PUSH2 0x827 JUMPI DUP4 MUL PUSH1 0x19 MUL SWAP3 DUP2 ISZERO SWAP2 DUP5 DIV EQ OR ISZERO PUSH2 0x813 JUMPI POP PUSH1 0x40 SWAP6 SWAP4 PUSH32 0xF860C9BD736ED88D6DEA7355447D5D5CEA3D006699FDA5B1DB5D1DF2C6BF9F27 SWAP8 SWAP6 SWAP4 PUSH1 0x0 DUP1 MLOAD PUSH1 0x20 PUSH2 0x1DA4 DUP4 CODECOPY DUP2 MLOAD SWAP2 MSTORE SWAP4 PUSH1 0x32 PUSH1 0x64 DUP11 SWAP6 DIV SWAP4 PUSH1 0x3 DUP2 ADD PUSH2 0x773 DUP7 DUP3 SLOAD PUSH2 0x197C JUMP JUMPDEST SWAP1 SSTORE PUSH2 0x77E DUP9 PUSH2 0x19DF JUMP JUMPDEST SWAP1 DUP2 DUP6 SSTORE PUSH1 0x5 TIMESTAMP SWAP2 ADD SSTORE LT PUSH2 0x7A3 JUMPI JUMPDEST POP SLOAD SWAP1 DUP3 MLOAD SWAP2 DUP3 MSTORE DUP6 DUP3 ADD MSTORE LOG2 SWAP2 DUP2 SWAP4 PUSH2 0x6A3 JUMP JUMPDEST DUP6 PUSH1 0x0 MSTORE PUSH1 0x6 DUP8 MSTORE PUSH1 0x1 DUP5 PUSH1 0x0 KECCAK256 SWAP2 DUP3 SLOAD AND OR SWAP1 SSTORE DUP5 PUSH32 0xCC1CF21B75158E751A071CC4770B92CDE8BB2BC34F9187EEDD0592B874A55669 PUSH1 0x60 DUP6 MLOAD DUP10 DUP2 MSTORE PUSH1 0x1A DUP11 DUP3 ADD MSTORE PUSH32 0x52657075746174696F6E2062656C6F77207468726573686F6C64000000000000 DUP8 DUP3 ADD MSTORE LOG2 DUP11 PUSH2 0x78E JUMP JUMPDEST PUSH4 0x4E487B71 PUSH1 0xE0 SHL PUSH1 0x0 SWAP1 DUP2 MSTORE PUSH1 0x11 PUSH1 0x4 MSTORE REVERT JUMPDEST DUP3 PUSH4 0x4E487B71 PUSH1 0xE0 SHL PUSH1 0x0 MSTORE PUSH1 0x11 PUSH1 0x4 MSTORE PUSH1 0x0 REVERT JUMPDEST PUSH1 0x40 MLOAD PUSH3 0x461BCD PUSH1 0xE5 SHL DUP2 MSTORE PUSH1 0x4 DUP2 ADD DUP8 SWAP1 MSTORE PUSH1 0x17 DUP2 DUP6 ADD MSTORE PUSH32 0x5265706F727420616C7265616479207265736F6C766564000000000000000000 PUSH1 0x44 DUP3 ADD MSTORE PUSH1 0x64 SWAP1 REVERT JUMPDEST PUSH1 0x40 MLOAD PUSH3 0x461BCD PUSH1 0xE5 SHL DUP2 MSTORE PUSH1 0x4 DUP2 ADD DUP5 SWAP1 MSTORE PUSH1 0x11 DUP2 DUP5 ADD MSTORE PUSH17 0x125B9D985B1A59081C995C1BDC9D081251 PUSH1 0x7A SHL PUSH1 0x44 DUP3 ADD MSTORE PUSH1 0x64 SWAP1 REVERT JUMPDEST POP PUSH1 0x7 SLOAD DUP6 GT ISZERO PUSH2 0x635 JUMP JUMPDEST PUSH1 0x40 MLOAD PUSH3 0x461BCD PUSH1 0xE5 SHL DUP2 MSTORE PUSH1 0x4 DUP2 ADD DUP5 SWAP1 MSTORE PUSH1 0x16 DUP2 DUP5 ADD MSTORE PUSH22 0x2737BA1030903A393AB9BA32B2103B32B934B334B2B9 PUSH1 0x51 SHL PUSH1 0x44 DUP3 ADD MSTORE PUSH1 0x64 SWAP1 REVERT JUMPDEST CALLVALUE PUSH2 0x3A1 JUMPI PUSH1 0x20 CALLDATASIZE PUSH1 0x3 NOT ADD SLT PUSH2 0x3A1 JUMPI PUSH1 0x4 CALLDATALOAD PUSH1 0x0 MSTORE PUSH1 0x3 PUSH1 0x20 MSTORE PUSH1 0x40 PUSH1 0x0 KECCAK256 DUP1 SLOAD PUSH2 0x443 PUSH1 0x1 DUP1 PUSH1 0xA0 SHL SUB SWAP2 DUP3 PUSH1 0x1 DUP6 ADD SLOAD AND SWAP3 DUP1 PUSH1 0x2 DUP7 ADD SLOAD AND SWAP5 PUSH1 0x4 DUP2 ADD SLOAD SWAP3 PUSH1 0x6 DUP3 ADD SLOAD SWAP1 PUSH1 0x7 DUP4 ADD SLOAD SWAP3 PUSH1 0x8 DUP2 ADD SLOAD SWAP5 PUSH1 0x9 DUP3 ADD SLOAD AND SWAP6 PUSH2 0x976 PUSH1 0x5 PUSH2 0x96F PUSH1 0x3 DUP6 ADD PUSH2 0x1818 JUMP JUMPDEST SWAP4 ADD PUSH2 0x1818 JUMP JUMPDEST SWAP2 PUSH1 0x40 MLOAD SWAP11 DUP12 SWAP11 PUSH1 0xFF DUP1 DUP9 PUSH1 0x8 SHR AND SWAP8 AND SWAP6 DUP13 PUSH2 0x1905 JUMP JUMPDEST CALLVALUE PUSH2 0x3A1 JUMPI PUSH1 0x20 CALLDATASIZE PUSH1 0x3 NOT ADD SLT PUSH2 0x3A1 JUMPI PUSH1 0x4 CALLDATALOAD PUSH1 0x0 MSTORE PUSH1 0x3 PUSH1 0x20 MSTORE PUSH1 0x40 PUSH1 0x0 KECCAK256 DUP1 SLOAD SWAP1 PUSH2 0x443 PUSH1 0x1 DUP1 PUSH1 0xA0 SHL SUB SWAP3 DUP4 PUSH1 0x1 DUP5 ADD SLOAD AND SWAP3 DUP5 PUSH1 0x2 DUP3 ADD SLOAD AND SWAP5 PUSH2 0x9D9 PUSH1 0x3 DUP4 ADD PUSH2 0x1818 JUMP JUMPDEST SWAP3 PUSH1 0x4 DUP4 ADD SLOAD SWAP1 PUSH2 0x9EC PUSH1 0x5 DUP6 ADD PUSH2 0x1818 JUMP JUMPDEST PUSH1 0x6 DUP6 ADD SLOAD SWAP3 PUSH1 0x7 DUP7 ADD SLOAD SWAP5 PUSH1 0x9 PUSH1 0x8 DUP9 ADD SLOAD SWAP8 ADD SLOAD AND SWAP7 PUSH1 0x40 MLOAD SWAP11 DUP12 SWAP11 PUSH1 0xFF DUP1 DUP9 PUSH1 0x8 SHR AND SWAP8 AND SWAP6 DUP13 PUSH2 0x1905 JUMP JUMPDEST CALLVALUE PUSH2 0x3A1 JUMPI PUSH1 0x0 CALLDATASIZE PUSH1 0x3 NOT ADD SLT PUSH2 0x3A1 JUMPI PUSH1 0x20 PUSH1 0x7 SLOAD PUSH1 0x40 MLOAD SWAP1 DUP2 MSTORE RETURN JUMPDEST CALLVALUE PUSH2 0x3A1 JUMPI PUSH1 0xA0 CALLDATASIZE PUSH1 0x3 NOT ADD SLT PUSH2 0x3A1 JUMPI PUSH2 0xA52 PUSH2 0x16E5 JUMP JUMPDEST PUSH1 0x24 CALLDATALOAD PUSH8 0xFFFFFFFFFFFFFFFF DUP2 GT PUSH2 0x3A1 JUMPI PUSH2 0xA72 SWAP1 CALLDATASIZE SWAP1 PUSH1 0x4 ADD PUSH2 0x1780 JUMP JUMPDEST PUSH1 0x44 DUP1 CALLDATALOAD PUSH1 0x64 DUP1 CALLDATALOAD PUSH8 0xFFFFFFFFFFFFFFFF DUP2 GT PUSH2 0x3A1 JUMPI PUSH2 0xA97 SWAP1 CALLDATASIZE SWAP1 PUSH1 0x4 ADD PUSH2 0x1780 JUMP JUMPDEST SWAP3 PUSH1 0x84 CALLDATALOAD PUSH8 0xFFFFFFFFFFFFFFFF DUP2 GT PUSH2 0x3A1 JUMPI CALLDATASIZE PUSH1 0x23 DUP3 ADD SLT ISZERO PUSH2 0x3A1 JUMPI PUSH2 0xAC9 SWAP1 CALLDATASIZE SWAP1 PUSH1 0x24 DUP2 PUSH1 0x4 ADD CALLDATALOAD SWAP2 ADD PUSH2 0x1739 JUMP JUMPDEST CALLER PUSH1 0x0 MSTORE PUSH1 0x6 PUSH1 0x20 MSTORE PUSH1 0xFF PUSH1 0x40 PUSH1 0x0 KECCAK256 SLOAD AND PUSH2 0x1171 JUMPI PUSH1 0x1 DUP5 LT ISZERO DUP1 PUSH2 0x1166 JUMPI JUMPDEST ISZERO PUSH2 0x112B JUMPI PUSH1 0x1 PUSH1 0x1 PUSH1 0xA0 SHL SUB DUP8 AND ISZERO PUSH2 0x10F1 JUMPI PUSH1 0x1 PUSH1 0x1 PUSH1 0xA0 SHL SUB DUP8 AND CALLER EQ PUSH2 0x10B6 JUMPI DUP6 MLOAD ISZERO PUSH2 0x1082 JUMPI DUP5 MLOAD ISZERO PUSH2 0x104C JUMPI PUSH1 0x40 MLOAD PUSH1 0x20 DUP2 ADD SWAP1 PUSH1 0x1 PUSH1 0x1 PUSH1 0x60 SHL SUB NOT DUP10 PUSH1 0x60 SHL AND DUP3 MSTORE PUSH2 0xB79 PUSH1 0x54 DUP3 DUP11 MLOAD PUSH2 0xB4E DUP2 DUP14 PUSH1 0x20 PUSH1 0x34 DUP7 ADD SWAP2 ADD PUSH2 0x18BD JUMP JUMPDEST DUP2 ADD DUP10 PUSH1 0x34 DUP3 ADD MSTORE DUP11 MLOAD SWAP1 PUSH2 0xB6A DUP3 DUP14 PUSH1 0x20 DUP8 DUP6 ADD SWAP2 ADD PUSH2 0x18BD JUMP JUMPDEST ADD SUB PUSH1 0x34 DUP2 ADD DUP5 MSTORE ADD DUP3 PUSH2 0x1717 JUMP JUMPDEST MLOAD SWAP1 KECCAK256 PUSH1 0x40 MLOAD SWAP2 PUSH1 0x20 DUP4 ADD SWAP2 PUSH32 0x19457468657265756D205369676E6564204D6573736167653A0A333200000000 DUP4 MSTORE PUSH1 0x3C DUP5 ADD MSTORE PUSH1 0x3C DUP4 MSTORE PUSH1 0x60 DUP4 ADD SWAP2 DUP4 DUP4 LT PUSH8 0xFFFFFFFFFFFFFFFF DUP5 GT OR PUSH2 0xF31 JUMPI PUSH2 0xBE4 SWAP4 PUSH2 0xBDC SWAP4 PUSH1 0x40 MSTORE MLOAD SWAP1 KECCAK256 PUSH2 0x1BC2 JUMP JUMPDEST SWAP2 SWAP1 SWAP2 PUSH2 0x1BFA JUMP JUMPDEST CALLER PUSH1 0x1 PUSH1 0x1 PUSH1 0xA0 SHL SUB SWAP1 SWAP2 AND SUB PUSH2 0x1017 JUMPI POP POP PUSH2 0xC02 PUSH1 0x7 SLOAD PUSH2 0x19A9 JUMP JUMPDEST SWAP2 DUP3 PUSH1 0x7 SSTORE PUSH1 0x40 MLOAD SWAP2 PUSH2 0x160 DUP4 ADD DUP4 DUP2 LT PUSH8 0xFFFFFFFFFFFFFFFF DUP3 GT OR PUSH2 0xF31 JUMPI PUSH1 0x40 MSTORE DUP4 DUP4 MSTORE CALLER PUSH1 0x20 DUP5 ADD MSTORE PUSH1 0x1 DUP1 PUSH1 0xA0 SHL SUB DUP7 AND PUSH1 0x40 DUP5 ADD MSTORE DUP5 PUSH1 0x60 DUP5 ADD MSTORE PUSH1 0x80 DUP4 ADD MSTORE PUSH1 0xA0 DUP3 ADD MSTORE PUSH1 0x0 PUSH1 0xC0 DUP3 ADD MSTORE PUSH1 0x0 PUSH1 0xE0 DUP3 ADD MSTORE TIMESTAMP PUSH2 0x100 DUP3 ADD MSTORE PUSH1 0x0 PUSH2 0x120 DUP3 ADD MSTORE PUSH1 0x0 PUSH2 0x140 DUP3 ADD MSTORE DUP2 PUSH1 0x0 MSTORE PUSH1 0x3 PUSH1 0x20 MSTORE PUSH1 0x40 PUSH1 0x0 KECCAK256 DUP2 MLOAD DUP2 SSTORE PUSH1 0x1 DUP1 PUSH1 0xA0 SHL SUB PUSH1 0x20 DUP4 ADD MLOAD AND PUSH1 0x1 PUSH1 0x1 PUSH1 0x60 SHL SUB PUSH1 0xA0 SHL PUSH1 0x1 DUP4 ADD SLOAD AND OR PUSH1 0x1 DUP3 ADD SSTORE PUSH1 0x2 DUP2 ADD PUSH1 0x1 DUP1 PUSH1 0xA0 SHL SUB PUSH1 0x40 DUP5 ADD MLOAD AND PUSH1 0x1 PUSH1 0x1 PUSH1 0x60 SHL SUB PUSH1 0xA0 SHL DUP3 SLOAD AND OR SWAP1 SSTORE PUSH1 0x60 DUP3 ADD MLOAD DUP1 MLOAD SWAP1 PUSH8 0xFFFFFFFFFFFFFFFF DUP3 GT PUSH2 0xF31 JUMPI DUP2 SWAP1 PUSH2 0xCF0 PUSH1 0x3 DUP6 ADD SLOAD PUSH2 0x17DE JUMP JUMPDEST PUSH1 0x1F DUP2 GT PUSH2 0xFC4 JUMPI JUMPDEST POP PUSH1 0x20 SWAP1 PUSH1 0x1F DUP4 GT PUSH1 0x1 EQ PUSH2 0xF52 JUMPI PUSH1 0x0 SWAP3 PUSH2 0xF47 JUMPI JUMPDEST POP POP DUP2 PUSH1 0x1 SHL SWAP2 PUSH1 0x0 NOT SWAP1 PUSH1 0x3 SHL SHR NOT AND OR PUSH1 0x3 DUP3 ADD SSTORE JUMPDEST PUSH1 0x80 DUP3 ADD MLOAD PUSH1 0x4 DUP3 ADD SSTORE PUSH1 0xA0 DUP3 ADD MLOAD DUP1 MLOAD SWAP1 PUSH8 0xFFFFFFFFFFFFFFFF DUP3 GT PUSH2 0xF31 JUMPI PUSH2 0xD56 PUSH1 0x5 DUP5 ADD SLOAD PUSH2 0x17DE JUMP JUMPDEST PUSH1 0x1F DUP2 GT PUSH2 0xEEA JUMPI JUMPDEST POP PUSH1 0x20 SWAP1 PUSH1 0x1F DUP4 GT PUSH1 0x1 EQ PUSH2 0xE77 JUMPI PUSH1 0x9 SWAP4 SWAP3 SWAP2 PUSH1 0x0 SWAP2 DUP4 PUSH2 0xE6C JUMPI JUMPDEST POP POP DUP2 PUSH1 0x1 SHL SWAP2 PUSH1 0x0 NOT SWAP1 PUSH1 0x3 SHL SHR NOT AND OR PUSH1 0x5 DUP3 ADD SSTORE JUMPDEST PUSH2 0xDCC PUSH1 0x6 DUP3 ADD PUSH1 0xC0 DUP6 ADD MLOAD ISZERO ISZERO PUSH1 0xFF DUP1 NOT DUP4 SLOAD AND SWAP2 AND OR DUP2 SSTORE PUSH1 0xE0 DUP6 ADD MLOAD ISZERO ISZERO PUSH2 0xFF00 DUP3 SLOAD SWAP2 ISZERO ISZERO PUSH1 0x8 SHL AND SWAP1 PUSH2 0xFF00 NOT AND OR SWAP1 SSTORE JUMP JUMPDEST PUSH2 0x100 DUP4 ADD MLOAD PUSH1 0x7 DUP3 ADD SSTORE PUSH2 0x120 DUP4 ADD MLOAD PUSH1 0x8 DUP3 ADD SSTORE PUSH2 0x140 SWAP1 SWAP3 ADD MLOAD SWAP2 ADD DUP1 SLOAD PUSH1 0x1 PUSH1 0x1 PUSH1 0xA0 SHL SUB NOT AND PUSH1 0x1 PUSH1 0x1 PUSH1 0xA0 SHL SUB SWAP3 DUP4 AND OR SWAP1 SSTORE DUP4 AND PUSH1 0x0 SWAP1 DUP2 MSTORE PUSH1 0x2 PUSH1 0x20 MSTORE PUSH1 0x40 SWAP1 KECCAK256 PUSH1 0x5 ADD DUP1 SLOAD PUSH2 0xE23 SWAP1 PUSH2 0x19A9 JUMP JUMPDEST SWAP1 SSTORE PUSH32 0xEBCD02F1ED8AF4BDEA0EF6A2698804D151870A540444B754F3A5F9627ED3F3A4 PUSH1 0x40 MLOAD SWAP4 PUSH1 0x20 DUP6 MSTORE PUSH1 0x1 DUP1 PUSH1 0xA0 SHL SUB AND SWAP4 DUP1 PUSH2 0xE67 CALLER SWAP6 PUSH1 0x20 DUP4 ADD SWAP1 PUSH2 0x18E0 JUMP JUMPDEST SUB SWAP1 LOG4 STOP JUMPDEST ADD MLOAD SWAP1 POP DUP9 DUP1 PUSH2 0xD7C JUMP JUMPDEST SWAP1 PUSH1 0x5 DUP5 ADD PUSH1 0x0 MSTORE PUSH1 0x20 PUSH1 0x0 KECCAK256 SWAP2 PUSH1 0x0 JUMPDEST PUSH1 0x1F NOT DUP6 AND DUP2 LT PUSH2 0xED2 JUMPI POP SWAP2 DUP4 SWAP2 PUSH1 0x1 SWAP4 PUSH1 0x9 SWAP7 SWAP6 PUSH1 0x1F NOT DUP2 AND LT PUSH2 0xEB9 JUMPI JUMPDEST POP POP POP DUP2 SHL ADD PUSH1 0x5 DUP3 ADD SSTORE PUSH2 0xD94 JUMP JUMPDEST ADD MLOAD PUSH1 0x0 NOT PUSH1 0xF8 DUP5 PUSH1 0x3 SHL AND SHR NOT AND SWAP1 SSTORE DUP9 DUP1 DUP1 PUSH2 0xEA9 JUMP JUMPDEST SWAP2 SWAP3 PUSH1 0x20 PUSH1 0x1 DUP2 SWAP3 DUP7 DUP6 ADD MLOAD DUP2 SSTORE ADD SWAP5 ADD SWAP3 ADD PUSH2 0xE88 JUMP JUMPDEST PUSH1 0x5 DUP5 ADD PUSH1 0x0 MSTORE PUSH1 0x20 PUSH1 0x0 KECCAK256 PUSH1 0x1F DUP5 ADD PUSH1 0x5 SHR DUP2 ADD PUSH1 0x20 DUP6 LT PUSH2 0xF2A JUMPI JUMPDEST PUSH1 0x1F DUP4 ADD PUSH1 0x5 SHR DUP3 ADD DUP2 LT PUSH2 0xF1E JUMPI POP POP PUSH2 0xD5F JUMP JUMPDEST PUSH1 0x0 DUP2 SSTORE PUSH1 0x1 ADD PUSH2 0xF08 JUMP JUMPDEST POP DUP1 PUSH2 0xF08 JUMP JUMPDEST PUSH4 0x4E487B71 PUSH1 0xE0 SHL PUSH1 0x0 MSTORE PUSH1 0x41 PUSH1 0x4 MSTORE PUSH1 0x24 PUSH1 0x0 REVERT JUMPDEST ADD MLOAD SWAP1 POP DUP8 DUP1 PUSH2 0xD10 JUMP JUMPDEST SWAP3 POP PUSH1 0x3 DUP5 ADD PUSH1 0x0 MSTORE PUSH1 0x20 PUSH1 0x0 KECCAK256 SWAP1 PUSH1 0x0 SWAP4 JUMPDEST PUSH1 0x1F NOT DUP5 AND DUP6 LT PUSH2 0xFA9 JUMPI PUSH1 0x1 SWAP5 POP DUP4 PUSH1 0x1F NOT DUP2 AND LT PUSH2 0xF90 JUMPI JUMPDEST POP POP POP DUP2 SHL ADD PUSH1 0x3 DUP3 ADD SSTORE PUSH2 0xD28 JUMP JUMPDEST ADD MLOAD PUSH1 0x0 NOT PUSH1 0xF8 DUP5 PUSH1 0x3 SHL AND SHR NOT AND SWAP1 SSTORE DUP8 DUP1 DUP1 PUSH2 0xF80 JUMP JUMPDEST DUP2 DUP2 ADD MLOAD DUP4 SSTORE PUSH1 0x20 SWAP5 DUP6 ADD SWAP5 PUSH1 0x1 SWAP1 SWAP4 ADD SWAP3 SWAP1 SWAP2 ADD SWAP1 PUSH2 0xF65 JUMP JUMPDEST SWAP1 SWAP2 POP PUSH1 0x3 DUP5 ADD PUSH1 0x0 MSTORE PUSH1 0x20 PUSH1 0x0 KECCAK256 PUSH1 0x1F DUP5 ADD PUSH1 0x5 SHR DUP2 ADD PUSH1 0x20 DUP6 LT PUSH2 0x1010 JUMPI JUMPDEST SWAP1 DUP5 SWAP4 SWAP3 SWAP2 JUMPDEST PUSH1 0x1F DUP4 ADD PUSH1 0x5 SHR DUP3 ADD DUP2 LT PUSH2 0x1001 JUMPI POP POP PUSH2 0xCF9 JUMP JUMPDEST PUSH1 0x0 DUP2 SSTORE DUP6 SWAP5 POP PUSH1 0x1 ADD PUSH2 0xFEB JUMP JUMPDEST POP DUP1 PUSH2 0xFE5 JUMP JUMPDEST PUSH17 0x496E76616C6964207369676E6174757265 PUSH1 0x78 SHL PUSH1 0x40 MLOAD SWAP2 PUSH3 0x461BCD PUSH1 0xE5 SHL DUP4 MSTORE PUSH1 0x20 PUSH1 0x4 DUP5 ADD MSTORE PUSH1 0x11 PUSH1 0x24 DUP5 ADD MSTORE DUP3 ADD MSTORE REVERT JUMPDEST POP PUSH17 0x115D9A59195B98D9481C995C5D5A5C9959 PUSH1 0x7A SHL PUSH1 0x40 MLOAD SWAP2 PUSH3 0x461BCD PUSH1 0xE5 SHL DUP4 MSTORE PUSH1 0x20 PUSH1 0x4 DUP5 ADD MSTORE PUSH1 0x11 PUSH1 0x24 DUP5 ADD MSTORE DUP3 ADD MSTORE REVERT JUMPDEST POP PUSH15 0x1499585CDBDB881C995C5D5A5C9959 PUSH1 0x8A SHL PUSH1 0x40 MLOAD SWAP2 PUSH3 0x461BCD PUSH1 0xE5 SHL DUP4 MSTORE PUSH1 0x20 PUSH1 0x4 DUP5 ADD MSTORE PUSH1 0xF PUSH1 0x24 DUP5 ADD MSTORE DUP3 ADD MSTORE REVERT JUMPDEST POP PUSH22 0x21B0B73737BA103932B837B93A103CB7BAB939B2B633 PUSH1 0x51 SHL PUSH1 0x40 MLOAD SWAP2 PUSH3 0x461BCD PUSH1 0xE5 SHL DUP4 MSTORE PUSH1 0x20 PUSH1 0x4 DUP5 ADD MSTORE PUSH1 0x16 PUSH1 0x24 DUP5 ADD MSTORE DUP3 ADD MSTORE REVERT JUMPDEST POP PUSH21 0x24B73B30B634B2103932B837B93A32B2103AB9B2B9 PUSH1 0x59 SHL PUSH1 0x40 MLOAD SWAP2 PUSH3 0x461BCD PUSH1 0xE5 SHL DUP4 MSTORE PUSH1 0x20 PUSH1 0x4 DUP5 ADD MSTORE PUSH1 0x15 PUSH1 0x24 DUP5 ADD MSTORE DUP3 ADD MSTORE REVERT JUMPDEST POP PUSH22 0x125B9D985B1A59081CD95D995C9A5D1E481B195D995B PUSH1 0x52 SHL PUSH1 0x40 MLOAD SWAP2 PUSH3 0x461BCD PUSH1 0xE5 SHL DUP4 MSTORE PUSH1 0x20 PUSH1 0x4 DUP5 ADD MSTORE PUSH1 0x16 PUSH1 0x24 DUP5 ADD MSTORE DUP3 ADD MSTORE REVERT JUMPDEST POP PUSH1 0x5 DUP5 GT ISZERO PUSH2 0xAEA JUMP JUMPDEST POP PUSH19 0x155CD95C881A5CC8189B1858DADB1A5CDD1959 PUSH1 0x6A SHL PUSH1 0x40 MLOAD SWAP2 PUSH3 0x461BCD PUSH1 0xE5 SHL DUP4 MSTORE PUSH1 0x20 PUSH1 0x4 DUP5 ADD MSTORE PUSH1 0x13 PUSH1 0x24 DUP5 ADD MSTORE DUP3 ADD MSTORE REVERT JUMPDEST CALLVALUE PUSH2 0x3A1 JUMPI PUSH1 0x20 CALLDATASIZE PUSH1 0x3 NOT ADD SLT PUSH2 0x3A1 JUMPI PUSH1 0x1 PUSH1 0x1 PUSH1 0xA0 SHL SUB PUSH2 0x11CA PUSH2 0x16E5 JUMP JUMPDEST AND PUSH1 0x0 MSTORE PUSH1 0x2 PUSH1 0x20 MSTORE PUSH2 0x100 PUSH1 0x40 PUSH1 0x0 KECCAK256 DUP1 SLOAD SWAP1 PUSH1 0x1 DUP2 ADD SLOAD SWAP1 PUSH1 0x2 DUP2 ADD SLOAD PUSH1 0x3 DUP3 ADD SLOAD PUSH1 0x4 DUP4 ADD SLOAD SWAP1 PUSH1 0x5 DUP5 ADD SLOAD SWAP3 PUSH1 0x7 PUSH1 0x6 DUP7 ADD SLOAD SWAP6 ADD SLOAD SWAP6 PUSH1 0x40 MLOAD SWAP8 DUP9 MSTORE PUSH1 0x20 DUP9 ADD MSTORE PUSH1 0x40 DUP8 ADD MSTORE PUSH1 0x60 DUP7 ADD MSTORE PUSH1 0x80 DUP6 ADD MSTORE PUSH1 0xA0 DUP5 ADD MSTORE PUSH1 0xC0 DUP4 ADD MSTORE PUSH1 0xE0 DUP3 ADD MSTORE RETURN JUMPDEST CALLVALUE PUSH2 0x3A1 JUMPI PUSH1 0x0 CALLDATASIZE PUSH1 0x3 NOT ADD SLT PUSH2 0x3A1 JUMPI PUSH1 0x0 SLOAD PUSH1 0x40 MLOAD PUSH1 0x1 PUSH1 0x1 PUSH1 0xA0 SHL SUB SWAP1 SWAP2 AND DUP2 MSTORE PUSH1 0x20 SWAP1 RETURN JUMPDEST CALLVALUE PUSH2 0x3A1 JUMPI PUSH1 0x20 CALLDATASIZE PUSH1 0x3 NOT ADD SLT PUSH2 0x3A1 JUMPI PUSH2 0x1272 PUSH2 0x16E5 JUMP JUMPDEST PUSH2 0x127A PUSH2 0x1AD3 JUMP JUMPDEST PUSH1 0x1 PUSH1 0x1 PUSH1 0xA0 SHL SUB AND PUSH1 0x0 DUP2 DUP2 MSTORE PUSH1 0x6 PUSH1 0x20 MSTORE PUSH1 0x40 DUP2 KECCAK256 DUP1 SLOAD PUSH1 0xFF NOT AND SWAP1 SSTORE PUSH32 0xE8627D8A3BA37F2A00B3AE4503C200E696F351225F168DF1D3E84EED8009FF9 SWAP1 DUP1 LOG2 STOP JUMPDEST CALLVALUE PUSH2 0x3A1 JUMPI PUSH1 0x0 CALLDATASIZE PUSH1 0x3 NOT ADD SLT PUSH2 0x3A1 JUMPI PUSH1 0x20 PUSH1 0x40 MLOAD PUSH2 0x258 DUP2 MSTORE RETURN JUMPDEST CALLVALUE PUSH2 0x3A1 JUMPI PUSH1 0x20 CALLDATASIZE PUSH1 0x3 NOT ADD SLT PUSH2 0x3A1 JUMPI PUSH2 0x12F5 PUSH2 0x16E5 JUMP JUMPDEST PUSH2 0x12FD PUSH2 0x1AD3 JUMP JUMPDEST PUSH1 0x1 PUSH1 0x1 PUSH1 0xA0 SHL SUB AND PUSH1 0x0 SWAP1 DUP2 MSTORE PUSH1 0x5 PUSH1 0x20 MSTORE PUSH1 0x40 SWAP1 KECCAK256 DUP1 SLOAD PUSH1 0xFF NOT AND SWAP1 SSTORE STOP JUMPDEST CALLVALUE PUSH2 0x3A1 JUMPI PUSH1 0x0 CALLDATASIZE PUSH1 0x3 NOT ADD SLT PUSH2 0x3A1 JUMPI PUSH1 0x20 PUSH1 0x40 MLOAD PUSH1 0x19 DUP2 MSTORE RETURN JUMPDEST CALLVALUE PUSH2 0x3A1 JUMPI PUSH1 0x0 CALLDATASIZE PUSH1 0x3 NOT ADD SLT PUSH2 0x3A1 JUMPI PUSH2 0x1353 PUSH2 0x1AD3 JUMP JUMPDEST PUSH1 0x0 DUP1 SLOAD PUSH1 0x1 PUSH1 0x1 PUSH1 0xA0 SHL SUB NOT DUP2 AND DUP3 SSTORE PUSH1 0x1 PUSH1 0x1 PUSH1 0xA0 SHL SUB AND PUSH32 0x8BE0079C531659141344CD1FD0A4F28419497F9722A3DAAFE3B4186F6B6457E0 DUP3 DUP1 LOG3 STOP JUMPDEST CALLVALUE PUSH2 0x3A1 JUMPI PUSH1 0x20 CALLDATASIZE PUSH1 0x3 NOT ADD SLT PUSH2 0x3A1 JUMPI PUSH2 0x5D2 PUSH2 0x13AF PUSH2 0x16E5 JUMP JUMPDEST PUSH1 0x1 PUSH1 0x1 PUSH1 0xA0 SHL SUB DUP2 AND PUSH1 0x0 SWAP1 DUP2 MSTORE PUSH1 0x2 PUSH1 0x20 MSTORE PUSH1 0x40 SWAP1 KECCAK256 PUSH1 0x7 ADD DUP1 SLOAD PUSH2 0x5CB SWAP1 PUSH2 0x19A9 JUMP JUMPDEST CALLVALUE PUSH2 0x3A1 JUMPI PUSH1 0x20 CALLDATASIZE PUSH1 0x3 NOT ADD SLT PUSH2 0x3A1 JUMPI PUSH2 0x13EE PUSH2 0x16E5 JUMP JUMPDEST PUSH1 0x1 DUP1 PUSH1 0xA0 SHL SUB DUP2 AND SWAP1 DUP2 PUSH1 0x0 MSTORE PUSH1 0x4 PUSH1 0x20 MSTORE PUSH1 0x40 PUSH1 0x0 KECCAK256 SWAP1 PUSH1 0x2 PUSH1 0x20 MSTORE PUSH1 0x40 PUSH1 0x0 KECCAK256 PUSH1 0x64 DUP4 SSTORE PUSH1 0x6 DUP2 ADD SWAP1 DUP2 SLOAD SWAP1 PUSH1 0xA DUP3 MUL SWAP2 DUP1 DUP4 DIV PUSH1 0xA EQ SWAP1 ISZERO OR ISZERO PUSH2 0x38B JUMPI PUSH2 0x1446 SWAP2 PUSH1 0x1 DUP7 ADD SSTORE PUSH1 0x7 DUP4 SLOAD SWAP2 ADD SLOAD SWAP1 PUSH2 0x197C JUMP JUMPDEST PUSH1 0x2 DUP5 ADD SWAP2 PUSH1 0x0 DUP4 SSTORE DUP2 PUSH2 0x148D JUMPI JUMPDEST DUP6 PUSH1 0x0 DUP1 MLOAD PUSH1 0x20 PUSH2 0x1DA4 DUP4 CODECOPY DUP2 MLOAD SWAP2 MSTORE PUSH1 0x40 DUP8 PUSH2 0x1471 DUP9 PUSH2 0x19DF JUMP JUMPDEST SWAP1 DUP2 PUSH1 0x4 DUP3 ADD SSTORE PUSH1 0x5 TIMESTAMP SWAP2 ADD SSTORE DUP2 MLOAD SWAP1 DUP2 MSTORE PUSH1 0x0 PUSH1 0x20 DUP3 ADD MSTORE LOG2 STOP JUMPDEST SWAP4 SWAP2 SWAP4 SLOAD SWAP3 PUSH1 0x64 DUP5 MUL SWAP4 DUP1 DUP6 DIV PUSH1 0x64 EQ SWAP1 ISZERO OR ISZERO PUSH2 0x38B JUMPI PUSH1 0x0 DUP1 MLOAD PUSH1 0x20 PUSH2 0x1DA4 DUP4 CODECOPY DUP2 MLOAD SWAP2 MSTORE SWAP5 PUSH2 0x14C4 PUSH2 0x1471 SWAP4 PUSH1 0x40 SWAP7 PUSH2 0x1989 JUMP JUMPDEST SWAP1 SSTORE SWAP3 DUP3 SWAP5 POP PUSH2 0x1455 JUMP JUMPDEST CALLVALUE PUSH2 0x3A1 JUMPI PUSH1 0x0 CALLDATASIZE PUSH1 0x3 NOT ADD SLT PUSH2 0x3A1 JUMPI PUSH1 0x20 PUSH1 0x40 MLOAD PUSH1 0xA DUP2 MSTORE RETURN JUMPDEST CALLVALUE PUSH2 0x3A1 JUMPI PUSH1 0x0 CALLDATASIZE PUSH1 0x3 NOT ADD SLT PUSH2 0x3A1 JUMPI PUSH1 0x20 PUSH1 0x40 MLOAD PUSH1 0x5 DUP2 MSTORE RETURN JUMPDEST CALLVALUE PUSH2 0x3A1 JUMPI PUSH1 0x20 CALLDATASIZE PUSH1 0x3 NOT ADD SLT PUSH2 0x3A1 JUMPI PUSH2 0x1520 PUSH2 0x16E5 JUMP JUMPDEST PUSH2 0x1528 PUSH2 0x1AD3 JUMP JUMPDEST PUSH1 0x1 PUSH1 0x1 PUSH1 0xA0 SHL SUB AND PUSH1 0x0 SWAP1 DUP2 MSTORE PUSH1 0x5 PUSH1 0x20 MSTORE PUSH1 0x40 SWAP1 KECCAK256 DUP1 SLOAD PUSH1 0xFF NOT AND PUSH1 0x1 OR SWAP1 SSTORE STOP JUMPDEST CALLVALUE PUSH2 0x3A1 JUMPI PUSH1 0x20 CALLDATASIZE PUSH1 0x3 NOT ADD SLT PUSH2 0x3A1 JUMPI PUSH1 0x1 PUSH1 0x1 PUSH1 0xA0 SHL SUB PUSH2 0x156D PUSH2 0x16E5 JUMP JUMPDEST AND PUSH1 0x0 MSTORE PUSH1 0x6 PUSH1 0x20 MSTORE PUSH1 0x20 PUSH1 0xFF PUSH1 0x40 PUSH1 0x0 KECCAK256 SLOAD AND PUSH1 0x40 MLOAD SWAP1 ISZERO ISZERO DUP2 MSTORE RETURN JUMPDEST CALLVALUE PUSH2 0x3A1 JUMPI PUSH2 0x15FD PUSH32 0xCC1CF21B75158E751A071CC4770B92CDE8BB2BC34F9187EEDD0592B874A55669 PUSH2 0x15BD CALLDATASIZE PUSH2 0x179E JUMP JUMPDEST SWAP3 SWAP1 PUSH2 0x15C7 PUSH2 0x1AD3 JUMP JUMPDEST PUSH1 0x1 DUP1 PUSH1 0xA0 SHL SUB AND SWAP3 DUP4 PUSH1 0x0 MSTORE PUSH1 0x6 PUSH1 0x20 MSTORE PUSH1 0x40 PUSH1 0x0 KECCAK256 PUSH1 0x1 PUSH1 0xFF NOT DUP3 SLOAD AND OR SWAP1 SSTORE PUSH1 0x40 MLOAD SWAP2 DUP3 SWAP2 PUSH1 0x20 DUP4 MSTORE PUSH1 0x20 DUP4 ADD SWAP1 PUSH2 0x18E0 JUMP JUMPDEST SUB SWAP1 LOG2 STOP JUMPDEST CALLVALUE PUSH2 0x3A1 JUMPI PUSH1 0x0 CALLDATASIZE PUSH1 0x3 NOT ADD SLT PUSH2 0x3A1 JUMPI PUSH1 0x40 PUSH1 0x7 SLOAD PUSH1 0x8 SLOAD DUP3 MLOAD SWAP2 DUP3 MSTORE PUSH1 0x20 DUP3 ADD MSTORE RETURN JUMPDEST CALLVALUE PUSH2 0x3A1 JUMPI PUSH1 0x0 CALLDATASIZE PUSH1 0x3 NOT ADD SLT PUSH2 0x3A1 JUMPI PUSH1 0x20 PUSH1 0x40 MLOAD PUSH2 0x190 DUP2 MSTORE RETURN JUMPDEST CALLVALUE PUSH2 0x3A1 JUMPI PUSH1 0x20 CALLDATASIZE PUSH1 0x3 NOT ADD SLT PUSH2 0x3A1 JUMPI PUSH1 0x1 PUSH1 0x1 PUSH1 0xA0 SHL SUB PUSH2 0x1665 PUSH2 0x16E5 JUMP JUMPDEST AND PUSH1 0x0 MSTORE PUSH1 0x5 PUSH1 0x20 MSTORE PUSH1 0x20 PUSH1 0xFF PUSH1 0x40 PUSH1 0x0 KECCAK256 SLOAD AND PUSH1 0x40 MLOAD SWAP1 ISZERO ISZERO DUP2 MSTORE RETURN JUMPDEST CALLVALUE PUSH2 0x3A1 JUMPI PUSH1 0x0 CALLDATASIZE PUSH1 0x3 NOT ADD SLT PUSH2 0x3A1 JUMPI PUSH1 0x20 PUSH1 0x40 MLOAD PUSH2 0x320 DUP2 MSTORE RETURN JUMPDEST CALLVALUE PUSH2 0x3A1 JUMPI PUSH1 0x20 CALLDATASIZE PUSH1 0x3 NOT ADD SLT PUSH2 0x3A1 JUMPI PUSH1 0x20 PUSH2 0x16C3 PUSH2 0x16BE PUSH2 0x16E5 JUMP JUMPDEST PUSH2 0x19DF JUMP JUMPDEST PUSH1 0x40 MLOAD SWAP1 DUP2 MSTORE RETURN JUMPDEST CALLVALUE PUSH2 0x3A1 JUMPI PUSH1 0x0 CALLDATASIZE PUSH1 0x3 NOT ADD SLT PUSH2 0x3A1 JUMPI DUP1 PUSH1 0x32 PUSH1 0x20 SWAP3 MSTORE RETURN JUMPDEST PUSH1 0x4 CALLDATALOAD SWAP1 PUSH1 0x1 PUSH1 0x1 PUSH1 0xA0 SHL SUB DUP3 AND DUP3 SUB PUSH2 0x3A1 JUMPI JUMP JUMPDEST PUSH1 0x40 DUP2 ADD SWAP1 DUP2 LT PUSH8 0xFFFFFFFFFFFFFFFF DUP3 GT OR PUSH2 0xF31 JUMPI PUSH1 0x40 MSTORE JUMP JUMPDEST SWAP1 PUSH1 0x1F DUP1 NOT SWAP2 ADD AND DUP2 ADD SWAP1 DUP2 LT PUSH8 0xFFFFFFFFFFFFFFFF DUP3 GT OR PUSH2 0xF31 JUMPI PUSH1 0x40 MSTORE JUMP JUMPDEST SWAP3 SWAP2 SWAP3 PUSH8 0xFFFFFFFFFFFFFFFF DUP3 GT PUSH2 0xF31 JUMPI PUSH1 0x40 MLOAD SWAP2 PUSH2 0x1763 PUSH1 0x1F DUP3 ADD PUSH1 0x1F NOT AND PUSH1 0x20 ADD DUP5 PUSH2 0x1717 JUMP JUMPDEST DUP3 SWAP5 DUP2 DUP5 MSTORE DUP2 DUP4 ADD GT PUSH2 0x3A1 JUMPI DUP3 DUP2 PUSH1 0x20 SWAP4 DUP5 PUSH1 0x0 SWAP7 ADD CALLDATACOPY ADD ADD MSTORE JUMP JUMPDEST SWAP1 DUP1 PUSH1 0x1F DUP4 ADD SLT ISZERO PUSH2 0x3A1 JUMPI DUP2 PUSH1 0x20 PUSH2 0x179B SWAP4 CALLDATALOAD SWAP2 ADD PUSH2 0x1739 JUMP JUMPDEST SWAP1 JUMP JUMPDEST SWAP1 PUSH1 0x40 PUSH1 0x3 NOT DUP4 ADD SLT PUSH2 0x3A1 JUMPI PUSH1 0x4 CALLDATALOAD PUSH1 0x1 PUSH1 0x1 PUSH1 0xA0 SHL SUB DUP2 AND DUP2 SUB PUSH2 0x3A1 JUMPI SWAP2 PUSH1 0x24 CALLDATALOAD SWAP1 PUSH8 0xFFFFFFFFFFFFFFFF DUP3 GT PUSH2 0x3A1 JUMPI PUSH2 0x179B SWAP2 PUSH1 0x4 ADD PUSH2 0x1780 JUMP JUMPDEST SWAP1 PUSH1 0x1 DUP3 DUP2 SHR SWAP3 AND DUP1 ISZERO PUSH2 0x180E JUMPI JUMPDEST PUSH1 0x20 DUP4 LT EQ PUSH2 0x17F8 JUMPI JUMP JUMPDEST PUSH4 0x4E487B71 PUSH1 0xE0 SHL PUSH1 0x0 MSTORE PUSH1 0x22 PUSH1 0x4 MSTORE PUSH1 0x24 PUSH1 0x0 REVERT JUMPDEST SWAP2 PUSH1 0x7F AND SWAP2 PUSH2 0x17ED JUMP JUMPDEST SWAP1 PUSH1 0x40 MLOAD SWAP2 DUP3 PUSH1 0x0 DUP3 SLOAD PUSH2 0x182B DUP2 PUSH2 0x17DE JUMP JUMPDEST SWAP1 DUP2 DUP5 MSTORE PUSH1 0x20 SWAP5 PUSH1 0x1 SWAP2 PUSH1 0x1 DUP2 AND SWAP1 DUP2 PUSH1 0x0 EQ PUSH2 0x189B JUMPI POP PUSH1 0x1 EQ PUSH2 0x185C JUMPI JUMPDEST POP POP POP PUSH2 0x185A SWAP3 POP SUB DUP4 PUSH2 0x1717 JUMP JUMPDEST JUMP JUMPDEST PUSH1 0x0 SWAP1 DUP2 MSTORE DUP6 DUP2 KECCAK256 SWAP6 SWAP4 POP SWAP2 SWAP1 JUMPDEST DUP2 DUP4 LT PUSH2 0x1883 JUMPI POP POP PUSH2 0x185A SWAP4 POP DUP3 ADD ADD CODESIZE DUP1 DUP1 PUSH2 0x184B JUMP JUMPDEST DUP6 SLOAD DUP9 DUP5 ADD DUP6 ADD MSTORE SWAP5 DUP6 ADD SWAP5 DUP8 SWAP5 POP SWAP2 DUP4 ADD SWAP2 PUSH2 0x186A JUMP JUMPDEST SWAP3 POP POP POP PUSH2 0x185A SWAP5 SWAP3 POP PUSH1 0xFF NOT AND DUP3 DUP5 ADD MSTORE ISZERO ISZERO PUSH1 0x5 SHL DUP3 ADD ADD CODESIZE DUP1 DUP1 PUSH2 0x184B JUMP JUMPDEST PUSH1 0x0 JUMPDEST DUP4 DUP2 LT PUSH2 0x18D0 JUMPI POP POP PUSH1 0x0 SWAP2 ADD MSTORE JUMP JUMPDEST DUP2 DUP2 ADD MLOAD DUP4 DUP3 ADD MSTORE PUSH1 0x20 ADD PUSH2 0x18C0 JUMP JUMPDEST SWAP1 PUSH1 0x20 SWAP2 PUSH2 0x18F9 DUP2 MLOAD DUP1 SWAP3 DUP2 DUP6 MSTORE DUP6 DUP1 DUP7 ADD SWAP2 ADD PUSH2 0x18BD JUMP JUMPDEST PUSH1 0x1F ADD PUSH1 0x1F NOT AND ADD ADD SWAP1 JUMP JUMPDEST SWAP10 SWAP6 SWAP1 PUSH2 0x195B SWAP4 SWAP9 SWAP5 PUSH2 0x140 SWAP11 SWAP7 SWAP4 PUSH2 0x1948 SWAP3 SWAP10 SWAP15 SWAP14 SWAP10 PUSH1 0x60 DUP15 PUSH2 0x160 SWAP4 DUP5 SWAP4 DUP3 MSTORE PUSH1 0x1 DUP1 PUSH1 0xA0 SHL SUB SWAP15 DUP16 DUP1 SWAP3 AND PUSH1 0x20 DUP5 ADD MSTORE AND PUSH1 0x40 DUP3 ADD MSTORE ADD MSTORE DUP13 ADD SWAP1 PUSH2 0x18E0 JUMP JUMPDEST SWAP2 PUSH1 0x80 DUP12 ADD MSTORE DUP10 DUP3 SUB PUSH1 0xA0 DUP12 ADD MSTORE PUSH2 0x18E0 JUMP JUMPDEST SWAP9 ISZERO ISZERO PUSH1 0xC0 DUP9 ADD MSTORE ISZERO ISZERO PUSH1 0xE0 DUP8 ADD MSTORE PUSH2 0x100 DUP7 ADD MSTORE PUSH2 0x120 DUP6 ADD MSTORE AND SWAP2 ADD MSTORE JUMP JUMPDEST SWAP2 SWAP1 DUP3 ADD DUP1 SWAP3 GT PUSH2 0x38B JUMPI JUMP JUMPDEST DUP2 ISZERO PUSH2 0x1993 JUMPI DIV SWAP1 JUMP JUMPDEST PUSH4 0x4E487B71 PUSH1 0xE0 SHL PUSH1 0x0 MSTORE PUSH1 0x12 PUSH1 0x4 MSTORE PUSH1 0x24 PUSH1 0x0 REVERT JUMPDEST PUSH1 0x0 NOT DUP2 EQ PUSH2 0x38B JUMPI PUSH1 0x1 ADD SWAP1 JUMP JUMPDEST PUSH1 0x40 MLOAD SWAP1 PUSH2 0x19C5 DUP3 PUSH2 0x16FB JUMP JUMPDEST PUSH1 0xB DUP3 MSTORE PUSH11 0x30B8383634B1B0BA34B7B7 PUSH1 0xA9 SHL PUSH1 0x20 DUP4 ADD MSTORE JUMP JUMPDEST PUSH1 0x0 SWAP1 PUSH1 0x1 DUP1 PUSH1 0xA0 SHL SUB AND DUP2 MSTORE PUSH1 0x2 PUSH1 0x20 MSTORE PUSH1 0x40 DUP2 KECCAK256 SWAP1 PUSH1 0x4 PUSH1 0x20 MSTORE PUSH1 0x40 DUP2 KECCAK256 SWAP2 PUSH1 0x6 DUP2 ADD SLOAD PUSH1 0xA DUP2 MUL SWAP1 DUP1 ISZERO SWAP3 DUP2 DUP4 DIV PUSH1 0xA EQ DUP5 OR ISZERO PUSH2 0x1ABF JUMPI PUSH1 0x7 PUSH2 0x1A28 SWAP2 ADD SLOAD DUP3 PUSH2 0x197C JUMP JUMPDEST SWAP1 DUP5 SWAP4 DUP3 PUSH2 0x1A83 JUMPI JUMPDEST POP POP POP PUSH1 0x64 ADD DUP1 PUSH1 0x64 GT PUSH2 0x1A6F JUMPI PUSH1 0x3 SWAP2 PUSH2 0x1A4B SWAP2 PUSH2 0x197C JUMP JUMPDEST SWAP3 ADD SLOAD DUP3 SUB SWAP2 DUP3 GT PUSH2 0x1A5B JUMPI POP SWAP1 JUMP JUMPDEST PUSH4 0x4E487B71 PUSH1 0xE0 SHL DUP2 MSTORE PUSH1 0x11 PUSH1 0x4 MSTORE PUSH1 0x24 SWAP1 REVERT JUMPDEST PUSH4 0x4E487B71 PUSH1 0xE0 SHL DUP4 MSTORE PUSH1 0x11 PUSH1 0x4 MSTORE PUSH1 0x24 DUP4 REVERT JUMPDEST SWAP1 SWAP2 SWAP3 SWAP4 POP PUSH1 0x64 DUP3 MUL SWAP2 DUP3 DIV PUSH1 0x64 EQ OR ISZERO PUSH2 0x1AAB JUMPI SWAP1 PUSH2 0x1AA2 SWAP2 PUSH2 0x1989 JUMP JUMPDEST SWAP1 CODESIZE DUP1 DUP1 PUSH2 0x1A31 JUMP JUMPDEST PUSH4 0x4E487B71 PUSH1 0xE0 SHL DUP5 MSTORE PUSH1 0x11 PUSH1 0x4 MSTORE PUSH1 0x24 DUP5 REVERT JUMPDEST PUSH4 0x4E487B71 PUSH1 0xE0 SHL DUP6 MSTORE PUSH1 0x11 PUSH1 0x4 MSTORE PUSH1 0x24 DUP6 REVERT JUMPDEST PUSH1 0x0 SLOAD PUSH1 0x1 PUSH1 0x1 PUSH1 0xA0 SHL SUB AND CALLER SUB PUSH2 0x1AE7 JUMPI JUMP JUMPDEST PUSH1 0x64 PUSH1 0x40 MLOAD PUSH3 0x461BCD PUSH1 0xE5 SHL DUP2 MSTORE PUSH1 0x20 PUSH1 0x4 DUP3 ADD MSTORE PUSH1 0x20 PUSH1 0x24 DUP3 ADD MSTORE PUSH32 0x4F776E61626C653A2063616C6C6572206973206E6F7420746865206F776E6572 PUSH1 0x44 DUP3 ADD MSTORE REVERT JUMPDEST PUSH1 0x0 DUP1 MLOAD PUSH1 0x20 PUSH2 0x1DA4 DUP4 CODECOPY DUP2 MLOAD SWAP2 MSTORE PUSH1 0x40 PUSH1 0x1 DUP1 PUSH1 0xA0 SHL SUB DUP4 AND SWAP3 DUP4 PUSH1 0x0 MSTORE PUSH1 0x4 PUSH1 0x20 MSTORE PUSH2 0x1B5C DUP3 PUSH1 0x0 KECCAK256 SWAP2 PUSH2 0x19DF JUMP JUMPDEST SWAP1 DUP2 PUSH1 0x4 DUP3 ADD SSTORE PUSH1 0x5 TIMESTAMP SWAP2 ADD SSTORE DUP2 MLOAD SWAP1 DUP2 MSTORE PUSH1 0x0 PUSH1 0x20 DUP3 ADD MSTORE LOG2 JUMP JUMPDEST SWAP1 PUSH1 0x0 PUSH32 0xEBCD02F1ED8AF4BDEA0EF6A2698804D151870A540444B754F3A5F9627ED3F3A4 PUSH1 0x40 MLOAD SWAP4 PUSH1 0x20 DUP6 MSTORE PUSH1 0x1 DUP1 PUSH1 0xA0 SHL SUB AND SWAP4 DUP1 PUSH2 0x1BBD ADDRESS SWAP6 PUSH1 0x20 DUP4 ADD SWAP1 PUSH2 0x18E0 JUMP JUMPDEST SUB SWAP1 LOG4 JUMP JUMPDEST SWAP1 PUSH1 0x41 DUP2 MLOAD EQ PUSH1 0x0 EQ PUSH2 0x1BF0 JUMPI PUSH2 0x1BEC SWAP2 PUSH1 0x20 DUP3 ADD MLOAD SWAP1 PUSH1 0x60 PUSH1 0x40 DUP5 ADD MLOAD SWAP4 ADD MLOAD PUSH1 0x0 BYTE SWAP1 PUSH2 0x1D14 JUMP JUMPDEST SWAP1 SWAP2 JUMP JUMPDEST POP POP PUSH1 0x0 SWAP1 PUSH1 0x2 SWAP1 JUMP JUMPDEST PUSH1 0x5 DUP2 LT ISZERO PUSH2 0x1CFE JUMPI DUP1 PUSH2 0x1C0B JUMPI POP JUMP JUMPDEST PUSH1 0x1 DUP2 SUB PUSH2 0x1C58 JUMPI PUSH1 0x40 MLOAD PUSH3 0x461BCD PUSH1 0xE5 SHL DUP2 MSTORE PUSH1 0x20 PUSH1 0x4 DUP3 ADD MSTORE PUSH1 0x18 PUSH1 0x24 DUP3 ADD MSTORE PUSH32 0x45434453413A20696E76616C6964207369676E61747572650000000000000000 PUSH1 0x44 DUP3 ADD MSTORE PUSH1 0x64 SWAP1 REVERT JUMPDEST PUSH1 0x2 DUP2 SUB PUSH2 0x1CA5 JUMPI PUSH1 0x40 MLOAD PUSH3 0x461BCD PUSH1 0xE5 SHL DUP2 MSTORE PUSH1 0x20 PUSH1 0x4 DUP3 ADD MSTORE PUSH1 0x1F PUSH1 0x24 DUP3 ADD MSTORE PUSH32 0x45434453413A20696E76616C6964207369676E6174757265206C656E67746800 PUSH1 0x44 DUP3 ADD MSTORE PUSH1 0x64 SWAP1 REVERT JUMPDEST PUSH1 0x3 EQ PUSH2 0x1CAE JUMPI JUMP JUMPDEST PUSH1 0x40 MLOAD PUSH3 0x461BCD PUSH1 0xE5 SHL DUP2 MSTORE PUSH1 0x20 PUSH1 0x4 DUP3 ADD MSTORE PUSH1 0x22 PUSH1 0x24 DUP3 ADD MSTORE PUSH32 0x45434453413A20696E76616C6964207369676E6174757265202773272076616C PUSH1 0x44 DUP3 ADD MSTORE PUSH2 0x7565 PUSH1 0xF0 SHL PUSH1 0x64 DUP3 ADD MSTORE PUSH1 0x84 SWAP1 REVERT JUMPDEST PUSH4 0x4E487B71 PUSH1 0xE0 SHL PUSH1 0x0 MSTORE PUSH1 0x21 PUSH1 0x4 MSTORE PUSH1 0x24 PUSH1 0x0 REVERT JUMPDEST SWAP3 SWAP2 SWAP1 PUSH32 0x7FFFFFFFFFFFFFFFFFFFFFFFFFFFFFFF5D576E7357A4501DDFE92F46681B20A0 DUP4 GT PUSH2 0x1D97 JUMPI SWAP2 PUSH1 0x80 SWAP5 SWAP4 SWAP2 PUSH1 0xFF PUSH1 0x20 SWAP5 PUSH1 0x40 MLOAD SWAP5 DUP6 MSTORE AND DUP5 DUP5 ADD MSTORE PUSH1 0x40 DUP4 ADD MSTORE PUSH1 0x60 DUP3 ADD MSTORE PUSH1 0x0 SWAP4 DUP5 SWAP2 DUP3 DUP1 MSTORE PUSH1 0x1 GAS STATICCALL ISZERO PUSH2 0x1D8A JUMPI DUP2 MLOAD PUSH1 0x1 PUSH1 0x1 PUSH1 0xA0 SHL SUB DUP2 AND ISZERO PUSH2 0x1D84 JUMPI SWAP2 SWAP1 JUMP JUMPDEST POP PUSH1 0x1 SWAP1 JUMP JUMPDEST POP PUSH1 0x40 MLOAD SWAP1 RETURNDATASIZE SWAP1 DUP3 RETURNDATACOPY RETURNDATASIZE SWAP1 REVERT JUMPDEST POP POP POP POP PUSH1 0x0 SWAP1 PUSH1 0x3 SWAP1 JUMP INVALID JUMPDEST DUP9 LOG2 0xE3 0xFC BYTE MSTORE8 0x23 NUMBER JUMPI 0xAB PUSH25 0xC104DF11C33CCFA79886793654565AD70B8AFB6EA264697066 PUSH20 0x582212200D7ED05087C116DD86AB4F71EBDCC4F1 CALLER 0xC2 0xBF LOG4 0xEE LOG2 0x1F PUSH8 0xC7B2EB7FDEB7901 PUSH5 0x736F6C6343 STOP ADDMOD XOR STOP CALLER "},"methodIdentifiers":{"AVERAGE_REPUTATION()":"29d34301","EXCELLENT_REPUTATION()":"218bf91b","FRAUD_PENALTY_PERCENTAGE()":"7ec73384","GOOD_REPUTATION()":"897fe5cc","MAX_APPLICATIONS_PER_DAY()":"531e00d1","MAX_JOBS_PER_DAY()":"5162122c","MIN_REPUTATION_FOR_POSTING()":"001590c8","POOR_REPUTATION()":"c206daca","addTrustedVerifier(address)":"50a053cd","blacklistUser(address,string)":"4d0970c6","blacklistedUsers(address)":"22c0aec7","calculateReputationScore(address)":"0a8fa825","fraudReports(uint256)":"b4754850","getFraudReport(uint256)":"b8727064","getReputationScore(address)":"75a67d5c","getTotalFraudReports()":"2a4fe4cd","getUserActivity(address)":"e0f3aa11","isUserBlacklisted(address)":"503b8e81","owner()":"8da5cb5b","recordFailedJob(address)":"5bce545b","recordSuccessfulJob(address)":"dc564b3b","removeTrustedVerifier(address)":"801d2cf1","renounceOwnership()":"715018a6","reportFraud(address,string,uint256,string,bytes)":"9c51a2cd","reputationScores(address)":"fe0438b2","resolveFraudReport(uint256,bool)":"b9f974b5","resolvedFraudReports()":"ff46a234","totalFraudReports()":"aaee2e3c","trackActivity(address,string)":"ffc11775","transferOwnership(address)":"f2fde38b","trustedVerifiers(address)":"26319833","unblacklistUser(address)":"8aa96fac","updateReputationScore(address)":"58c83c6c","userActivities(address)":"985cc061"}}}}}