{"contracts/Web3JobPlatform.sol":{"Web3JobPlatform":{"abi":[{"inputs":[{"internalType":"address","name":"_stakingToken","type":"address"}],"stateMutability":"nonpayable","type":"constructor"},{"anonymous":false,"inputs":[{"indexed":true,"internalType":"uint256","name":"applicationId","type":"uint256"},{"indexed":true,"internalType":"uint256","name":"jobId","type":"uint256"},{"indexed":true,"internalType":"uint256","name":"developerId","type":"uint256"}],"name":"ApplicationHired","type":"event"},{"anonymous":false,"inputs":[{"indexed":true,"internalType":"uint256","name":"applicationId","type":"uint256"},{"indexed":true,"internalType":"uint256","name":"jobId","type":"uint256"},{"indexed":true,"internalType":"uint256","name":"developerId","type":"uint256"}],"name":"ApplicationSubmitted","type":"event"},{"anonymous":false,"inputs":[{"indexed":true,"internalType":"uint256","name":"companyId","type":"uint256"},{"indexed":true,"internalType":"address","name":"wallet","type":"address"},{"indexed":false,"internalType":"string","name":"name","type":"string"}],"name":"CompanyRegistered","type":"event"},{"anonymous":false,"inputs":[{"indexed":true,"internalType":"uint256","name":"developerId","type":"uint256"},{"indexed":true,"internalType":"address","name":"wallet","type":"address"},{"indexed":false,"internalType":"string","name":"name","type":"string"}],"name":"DeveloperRegistered","type":"event"},{"anonymous":false,"inputs":[{"indexed":true,"internalType":"uint256","name":"applicationId","type":"uint256"},{"indexed":true,"internalType":"uint256","name":"jobId","type":"uint256"},{"indexed":false,"internalType":"uint256","name":"rating","type":"uint256"}],"name":"JobCompleted","type":"event"},{"anonymous":false,"inputs":[{"indexed":true,"internalType":"uint256","name":"jobId","type":"uint256"},{"indexed":true,"internalType":"uint256","name":"companyId","type":"uint256"},{"indexed":false,"internalType":"string","name":"title","type":"string"}],"name":"JobPosted","type":"event"},{"anonymous":false,"inputs":[{"indexed":true,"internalType":"address","name":"previousOwner","type":"address"},{"indexed":true,"internalType":"address","name":"newOwner","type":"address"}],"name":"OwnershipTransferred","type":"event"},{"anonymous":false,"inputs":[{"indexed":false,"internalType":"address","name":"account","type":"address"}],"name":"Paused","type":"event"},{"anonymous":false,"inputs":[{"indexed":true,"internalType":"uint256","name":"entityId","type":"uint256"},{"indexed":false,"internalType":"uint256","name":"newReputation","type":"uint256"},{"indexed":false,"internalType":"bool","name":"isCompany","type":"bool"}],"name":"ReputationUpdated","type":"event"},{"anonymous":false,"inputs":[{"indexed":true,"internalType":"uint256","name":"developerId","type":"uint256"},{"indexed":false,"internalType":"string","name":"skill","type":"string"},{"indexed":false,"internalType":"uint256","name":"score","type":"uint256"},{"indexed":false,"internalType":"address","name":"verifier","type":"address"}],"name":"SkillVerified","type":"event"},{"anonymous":false,"inputs":[{"indexed":true,"internalType":"uint256","name":"companyId","type":"uint256"},{"indexed":false,"internalType":"uint256","name":"amount","type":"uint256"}],"name":"StakeDeposited","type":"event"},{"anonymous":false,"inputs":[{"indexed":true,"internalType":"uint256","name":"companyId","type":"uint256"},{"indexed":false,"internalType":"uint256","name":"amount","type":"uint256"}],"name":"StakeWithdrawn","type":"event"},{"anonymous":false,"inputs":[{"indexed":false,"internalType":"address","name":"account","type":"address"}],"name":"Unpaused","type":"event"},{"inputs":[],"name":"MAX_STAKE_AMOUNT","outputs":[{"internalType":"uint256","name":"","type":"uint256"}],"stateMutability":"view","type":"function"},{"inputs":[],"name":"MIN_STAKE_AMOUNT","outputs":[{"internalType":"uint256","name":"","type":"uint256"}],"stateMutability":"view","type":"function"},{"inputs":[],"name":"PLATFORM_FEE_PERCENTAGE","outputs":[{"internalType":"uint256","name":"","type":"uint256"}],"stateMutability":"view","type":"function"},{"inputs":[],"name":"STAKE_DURATION","outputs":[{"internalType":"uint256","name":"","type":"uint256"}],"stateMutability":"view","type":"function"},{"inputs":[{"internalType":"address","name":"_verifier","type":"address"}],"name":"addVerifiedSkillVerifier","outputs":[],"stateMutability":"nonpayable","type":"function"},{"inputs":[{"internalType":"uint256","name":"","type":"uint256"}],"name":"applications","outputs":[{"internalType":"uint256","name":"id","type":"uint256"},{"internalType":"uint256","name":"jobId","type":"uint256"},{"internalType":"uint256","name":"developerId","type":"uint256"},{"internalType":"string","name":"coverLetter","type":"string"},{"internalType":"enum Web3JobPlatform.ApplicationStatus","name":"status","type":"uint8"},{"internalType":"uint256","name":"appliedAt","type":"uint256"},{"internalType":"uint256","name":"reviewedAt","type":"uint256"},{"internalType":"uint256","name":"hiredAt","type":"uint256"},{"internalType":"uint256","name":"completedAt","type":"uint256"},{"internalType":"string","name":"companyFeedback","type":"string"},{"internalType":"uint256","name":"rating","type":"uint256"}],"stateMutability":"view","type":"function"},{"inputs":[{"internalType":"uint256","name":"_jobId","type":"uint256"},{"internalType":"string","name":"_coverLetter","type":"string"},{"internalType":"uint256[]","name":"_skillScores","type":"uint256[]"},{"internalType":"uint256[]","name":"_portfolioLinks","type":"uint256[]"}],"name":"applyForJob","outputs":[],"stateMutability":"nonpayable","type":"function"},{"inputs":[{"internalType":"uint256","name":"","type":"uint256"}],"name":"companies","outputs":[{"internalType":"uint256","name":"id","type":"uint256"},{"internalType":"address","name":"wallet","type":"address"},{"internalType":"string","name":"name","type":"string"},{"internalType":"string","name":"description","type":"string"},{"internalType":"string","name":"website","type":"string"},{"internalType":"string","name":"logoUrl","type":"string"},{"internalType":"uint256","name":"reputation","type":"uint256"},{"internalType":"uint256","name":"stakedAmount","type":"uint256"},{"internalType":"uint256","name":"stakeTimestamp","type":"uint256"},{"internalType":"bool","name":"isVerified","type":"bool"},{"internalType":"bool","name":"isActive","type":"bool"}],"stateMutability":"view","type":"function"},{"inputs":[{"internalType":"address","name":"","type":"address"}],"name":"companyAddressToId","outputs":[{"internalType":"uint256","name":"","type":"uint256"}],"stateMutability":"view","type":"function"},{"inputs":[{"internalType":"uint256","name":"_applicationId","type":"uint256"},{"internalType":"uint256","name":"_rating","type":"uint256"},{"internalType":"string","name":"_feedback","type":"string"}],"name":"completeJob","outputs":[],"stateMutability":"nonpayable","type":"function"},{"inputs":[{"internalType":"address","name":"","type":"address"}],"name":"developerAddressToId","outputs":[{"internalType":"uint256","name":"","type":"uint256"}],"stateMutability":"view","type":"function"},{"inputs":[{"internalType":"uint256","name":"","type":"uint256"}],"name":"developers","outputs":[{"internalType":"uint256","name":"id","type":"uint256"},{"internalType":"address","name":"wallet","type":"address"},{"internalType":"string","name":"name","type":"string"},{"internalType":"string","name":"email","type":"string"},{"internalType":"string","name":"github","type":"string"},{"internalType":"string","name":"portfolio","type":"string"},{"internalType":"uint256","name":"reputation","type":"uint256"},{"internalType":"bool","name":"isVerified","type":"bool"},{"internalType":"bool","name":"isActive","type":"bool"}],"stateMutability":"view","type":"function"},{"inputs":[{"internalType":"uint256","name":"_companyId","type":"uint256"}],"name":"getCompanySkills","outputs":[{"internalType":"string[]","name":"","type":"string[]"}],"stateMutability":"view","type":"function"},{"inputs":[{"internalType":"uint256","name":"_developerId","type":"uint256"}],"name":"getDeveloperSkills","outputs":[{"internalType":"string[]","name":"","type":"string[]"},{"internalType":"uint256[]","name":"","type":"uint256[]"}],"stateMutability":"view","type":"function"},{"inputs":[{"internalType":"uint256","name":"_jobId","type":"uint256"}],"name":"getJobApplications","outputs":[{"internalType":"uint256[]","name":"","type":"uint256[]"}],"stateMutability":"view","type":"function"},{"inputs":[],"name":"getTotalCompanies","outputs":[{"internalType":"uint256","name":"","type":"uint256"}],"stateMutability":"view","type":"function"},{"inputs":[],"name":"getTotalDevelopers","outputs":[{"internalType":"uint256","name":"","type":"uint256"}],"stateMutability":"view","type":"function"},{"inputs":[],"name":"getTotalJobs","outputs":[{"internalType":"uint256","name":"","type":"uint256"}],"stateMutability":"view","type":"function"},{"inputs":[{"internalType":"uint256","name":"","type":"uint256"},{"internalType":"uint256","name":"","type":"uint256"}],"name":"hasApplied","outputs":[{"internalType":"bool","name":"","type":"bool"}],"stateMutability":"view","type":"function"},{"inputs":[{"internalType":"uint256","name":"_applicationId","type":"uint256"}],"name":"hireApplicant","outputs":[],"stateMutability":"nonpayable","type":"function"},{"inputs":[{"internalType":"uint256","name":"","type":"uint256"}],"name":"jobs","outputs":[{"internalType":"uint256","name":"id","type":"uint256"},{"internalType":"uint256","name":"companyId","type":"uint256"},{"internalType":"string","name":"title","type":"string"},{"internalType":"string","name":"description","type":"string"},{"internalType":"uint256","name":"salaryMin","type":"uint256"},{"internalType":"uint256","name":"salaryMax","type":"uint256"},{"internalType":"uint256","name":"deadline","type":"uint256"},{"internalType":"enum Web3JobPlatform.JobStatus","name":"status","type":"uint8"},{"internalType":"enum Web3JobPlatform.JobType","name":"jobType","type":"uint8"},{"internalType":"uint256","name":"maxApplications","type":"uint256"},{"internalType":"uint256","name":"applicationCount","type":"uint256"},{"internalType":"uint256","name":"stakedAmount","type":"uint256"},{"internalType":"uint256","name":"createdAt","type":"uint256"},{"internalType":"uint256","name":"updatedAt","type":"uint256"}],"stateMutability":"view","type":"function"},{"inputs":[],"name":"owner","outputs":[{"internalType":"address","name":"","type":"address"}],"stateMutability":"view","type":"function"},{"inputs":[],"name":"pause","outputs":[],"stateMutability":"nonpayable","type":"function"},{"inputs":[],"name":"paused","outputs":[{"internalType":"bool","name":"","type":"bool"}],"stateMutability":"view","type":"function"},{"inputs":[{"internalType":"string","name":"_title","type":"string"},{"internalType":"string","name":"_description","type":"string"},{"internalType":"string[]","name":"_requiredSkills","type":"string[]"},{"internalType":"uint256[]","name":"_skillWeights","type":"uint256[]"},{"internalType":"uint256","name":"_salaryMin","type":"uint256"},{"internalType":"uint256","name":"_salaryMax","type":"uint256"},{"internalType":"uint256","name":"_deadline","type":"uint256"},{"internalType":"enum Web3JobPlatform.JobType","name":"_jobType","type":"uint8"},{"internalType":"uint256","name":"_maxApplications","type":"uint256"}],"name":"postJob","outputs":[],"stateMutability":"nonpayable","type":"function"},{"inputs":[{"internalType":"string","name":"_name","type":"string"},{"internalType":"string","name":"_description","type":"string"},{"internalType":"string","name":"_website","type":"string"},{"internalType":"string","name":"_logoUrl","type":"string"},{"internalType":"string[]","name":"_verifiableSkills","type":"string[]"}],"name":"registerCompany","outputs":[],"stateMutability":"nonpayable","type":"function"},{"inputs":[{"internalType":"string","name":"_name","type":"string"},{"internalType":"string","name":"_email","type":"string"},{"internalType":"string","name":"_github","type":"string"},{"internalType":"string","name":"_portfolio","type":"string"},{"internalType":"string[]","name":"_skills","type":"string[]"},{"internalType":"uint256[]","name":"_skillScores","type":"uint256[]"}],"name":"registerDeveloper","outputs":[],"stateMutability":"nonpayable","type":"function"},{"inputs":[{"internalType":"address","name":"_verifier","type":"address"}],"name":"removeVerifiedSkillVerifier","outputs":[],"stateMutability":"nonpayable","type":"function"},{"inputs":[],"name":"renounceOwnership","outputs":[],"stateMutability":"nonpayable","type":"function"},{"inputs":[{"internalType":"bytes32","name":"","type":"bytes32"}],"name":"skillVerifications","outputs":[{"internalType":"address","name":"verifier","type":"address"},{"internalType":"uint256","name":"developerId","type":"uint256"},{"internalType":"string","name":"skill","type":"string"},{"internalType":"uint256","name":"score","type":"uint256"},{"internalType":"string","name":"evidence","type":"string"},{"internalType":"uint256","name":"timestamp","type":"uint256"},{"internalType":"bool","name":"isValid","type":"bool"}],"stateMutability":"view","type":"function"},{"inputs":[{"internalType":"uint256","name":"_amount","type":"uint256"}],"name":"stakeTokens","outputs":[],"stateMutability":"nonpayable","type":"function"},{"inputs":[],"name":"stakingToken","outputs":[{"internalType":"contract IERC20","name":"","type":"address"}],"stateMutability":"view","type":"function"},{"inputs":[{"internalType":"address","name":"newOwner","type":"address"}],"name":"transferOwnership","outputs":[],"stateMutability":"nonpayable","type":"function"},{"inputs":[],"name":"unpause","outputs":[],"stateMutability":"nonpayable","type":"function"},{"inputs":[{"internalType":"address","name":"","type":"address"}],"name":"verifiedSkillVerifiers","outputs":[{"internalType":"bool","name":"","type":"bool"}],"stateMutability":"view","type":"function"},{"inputs":[{"internalType":"uint256","name":"_developerId","type":"uint256"},{"internalType":"string","name":"_skill","type":"string"},{"internalType":"uint256","name":"_score","type":"uint256"},{"internalType":"string","name":"_evidence","type":"string"},{"internalType":"bytes","name":"_signature","type":"bytes"}],"name":"verifySkill","outputs":[],"stateMutability":"nonpayable","type":"function"},{"inputs":[{"internalType":"uint256","name":"_amount","type":"uint256"}],"name":"withdrawStake","outputs":[],"stateMutability":"nonpayable","type":"function"}],"evm":{"bytecode":{"linkReferences":{},"object":"6080346100cd57601f62002ec338819003918201601f19168301916001600160401b038311848410176100d2578084926020946040528339810103126100cd57516001600160a01b0390818116908190036100cd576001600081815581546001600160a81b0319811633600881811b610100600160a81b0316929092179094556040519591901c16907f8be0079c531659141344cd1fd0a4f28419497f9722a3daafe3b4186f6b6457e09080a3600680546001600160a01b031916919091179055612dda9081620000e98239f35b600080fd5b634e487b7160e01b600052604160045260246000fdfe608080604052600436101561001357600080fd5b60003560e01c90816315548232146123e457508063180aedf3146122e557806325d5971f1461219857806327ed7188146121745780632813d19d146120755780632f92f1f2146120505780633aee7996146120325780633b06c30e14611fef5780633f4ba83a14611f5b578063486b1b1114611f3d5780635b987a8f14611a725780635c975abb14611a4f5780636775615a14611a115780636afb630a146119f3578063715018a614611992578063717149f21461169d578063718b5a891461141d57806372f702f3146113f4578063747143b9146113bc5780637547c7a3146111f4578063759bf6ed146111ae5780638456cb59146111555780638b35eab71461110c5780638da5cb5b146110df57806399ddb25e146110a7578063ab4f7b4714611068578063b77a4c4d1461102a578063ba16e5cd14610eff578063bbc7107814610e1a578063d621481014610bb7578063dfefadff14610ae1578063e0a3b0a514610ac3578063e739c271146107f0578063e9fba9471461041a578063ecda017414610376578063eff25cd6146102915763f2fde38b146101b657600080fd5b3461028c57602036600319011261028c576004356001600160a01b038181169182810361028c576101e5612b62565b82156102385760018054610100600160a81b03198116600893841b610100600160a81b031617909155901c167f8be0079c531659141344cd1fd0a4f28419497f9722a3daafe3b4186f6b6457e0600080a3005b60405162461bcd60e51b815260206004820152602660248201527f4f776e61626c653a206e6577206f776e657220697320746865207a65726f206160448201526564647265737360d01b6064820152608490fd5b600080fd5b3461028c57602036600319011261028c5760043560005260096020526040600020604081549160ff60018060a01b036001830154166103566102d560028501612474565b6103486102e460038701612474565b61033a6102f360048901612474565b9161032c61030360058b01612474565b95600960068c01549b0154988c519d8e9d8e6101209384938252602082015201528c019061253c565b908a820360608c015261253c565b9088820360808a015261253c565b9086820360a088015261253c565b9260c0850152818116151560e085015260081c1615156101008301520390f35b3461028c57602036600319011261028c57600435600052600d602052604060002060018060a01b038154166001820154916103b360028201612474565b61040960038301546103c760048501612474565b6103f660ff6006600588015497015416946040519889988952602089015260e0604089015260e088019061253c565b916060870152858203608087015261253c565b9160a0840152151560c08301520390f35b3461028c57608036600319011261028c576004356001600160401b0360243581811161028c5761044e9036906004016125b1565b604491823581811161028c57610468903690600401612665565b93606491823590811161028c57610483903690600401612665565b91811515806107e4575b156107b25761049a612b1e565b33600052600a6020526040600020549485156107715782600052600b60205260ff60096040600020015416600481101561075b576107295782600052600b60205260086040600020015442116106e85782600052600b6020526040600020600a600b82015491015411156106a75782600052600f60205260406000208660005260205260ff6040600020541661067457505061055f600160035401938460035584600052600c602052600360406000208681558460018201558760028201550161283f565b6000838152600c6020526040812060068101805460ff19169055426007909101555b85518110156105b85760019084600052600c6020526105b260046040600020016105ab838a612951565b51906129d6565b01610581565b50828460005b84518110156105ee5760019083600052600c6020526105e860056040600020016105ab8389612951565b016105be565b50925081600052600b602052600b6040600020018054600019811461065e57600101905581600052600f6020526040600020836000526020526040600020600160ff198254161790557fc521ae2ba003e699f056b3b367d35b1c5eb94287a1997be3abd4be66c7443d20600080a4005b634e487b7160e01b600052601160045260246000fd5b6e105b1c9958591e48185c1c1b1a5959608a1b6040519162461bcd60e51b835260206004840152600f6024840152820152fd5b7f4d6178206170706c69636174696f6e73207265616368656400000000000000006040519162461bcd60e51b83526020600484015260186024840152820152fd5b7f4170706c69636174696f6e20646561646c696e652070617373656400000000006040519162461bcd60e51b835260206004840152601b6024840152820152fd5b6d4a6f62206e6f742061637469766560901b6040519162461bcd60e51b835260206004840152600e6024840152820152fd5b634e487b7160e01b600052602160045260246000fd5b7f446576656c6f706572206e6f74207265676973746572656400000000000000006040519162461bcd60e51b83526020600484015260186024840152820152fd5b60405162461bcd60e51b815260206004820152600e60248201526d125b9d985b1a59081a9bd888125160921b81870152fd5b5060025482111561048d565b3461028c5760c036600319011261028c576001600160401b0360043581811161028c576108219036906004016125b1565b9060243581811161028c5761083a9036906004016125b1565b9160443582811161028c576108539036906004016125b1565b9160643581811161028c5761086c9036906004016125b1565b60843582811161028c576108849036906004016125e6565b9160a43590811161028c5761089d903690600401612665565b906108a6612b1e565b33600052602094600a8652604060002054610a7e576108c785511515612a8c565b8351835103610a2f579461095d819793926109496002986109356001976109218b6001600554019d8e80600555806000526009809b52604060002090815560018101336001600160601b0360a01b8254161790550161283f565b8b600052868d52600360406000200161283f565b89600052848b52600460406000200161283f565b87600052828952600560406000200161283f565b600086815281885260408120606460068201558201805461ff001916610100179055835b6109d4575b87877fd6ac0e75d10bb224fbac5aab86a97c824c5efe36cb6e63d55fff9cb1e634a6186109cf8933600052600a855283604060002055604051918291868352339683019061253c565b0390a3005b8451811015610a2a57908380939288600052828a52610a0560086040600020016109fe838a612951565b5190612993565b88600052828a52610a2160076040600020016105ab8387612951565b01909192610981565b610986565b60405162461bcd60e51b815260048101879052602160248201527f536b696c6c7320616e642073636f726573206c656e677468206d69736d6174636044820152600d60fb1b6064820152608490fd5b60405162461bcd60e51b815260048101879052601c60248201527f446576656c6f70657220616c72656164792072656769737465726564000000006044820152606490fd5b3461028c57600036600319011261028c576020600554604051908152f35b3461028c57602036600319011261028c57600435600052600c60205260406000208054600182015491600281015490610b1c60038201612474565b60ff60068301541691600781015494600882015492610b74600984015491600a85015493600c610b4e600b8801612474565b960154986040519b610160928d5260208d015260408c01528060608c01528a019061253c565b93600686101561075b578897610bac9660808a015260a089015260c088015260e087015261010086015284820361012086015261253c565b906101408301520390f35b3461028c5760a036600319011261028c576001600160401b0360043581811161028c57610be89036906004016125b1565b60243582811161028c57610c009036906004016125b1565b60443583811161028c57610c189036906004016125b1565b9260643581811161028c57610c319036906004016125b1565b9060843590811161028c57610c4a9036906004016125e6565b90610c53612b1e565b3360005260209460088652604060002054610dd5579392610c7984939293511515612a8c565b610d01600193610ced600160045401978860045588600052610cd9600795868c52610cc58a60028d604060002090815560018101336001600160601b0360a01b8254161790550161283f565b8a600052868c52600360406000200161283f565b88600052848a52600460406000200161283f565b86600052828852600560406000200161283f565b60008581528187526040812060646006820155600901805461ff001916610100179055835b610d74575b86867fb942b64496751623fe8e67d13435346a352981ddb97189053829c967cc046df96109cf88336000526008855283604060002055604051918291868352339683019061253c565b8251811015610dd057908380939287600052828952610db489600a604060002001610d9f8488612951565b51908260405194838680955193849201612519565b8201908152030190208260ff1982541617905501909192610d26565b610d2b565b60405162461bcd60e51b815260048101879052601a60248201527f436f6d70616e7920616c726561647920726567697374657265640000000000006044820152606490fd5b3461028c5760208060031936011261028c5760043560005260098152604060002060076008820191018154610e4e816125cf565b92610e5c6040519485612453565b8184526000908152848120858086015b848410610ee1575060405185548082526000878152838120899392858401925b818110610ecd57610ebc86610ec98988610ea8818a0382612453565b6040519485946040865260408601906126f9565b91848303908501526126c5565b0390f35b825484529286019260019283019201610e8c565b6001918291610eef85612474565b8152019201920191908690610e6c565b3461028c57602036600319011261028c576004358015158061101e575b610f2590612a0b565b610f2d612b1e565b80600052600c6020526040600020600181018054600052600b602052604060002090336000526008602052610f6c604060002054600184015414612a50565b600683019182549060ff8216600681101561075b578015908115611013575b5015610fdd576009600294918592600460ff198096161790554282880155019182541617905554910154917fbdee521fd0bfab4a5c29077beb3bfe150d407440bfd5c5ade74b3fc45cacee49600080a4005b60405162461bcd60e51b815260206004820152600e60248201526d496e76616c69642073746174757360901b6044820152606490fd5b600191501487610f8b565b50600354811115610f1c565b3461028c57602036600319011261028c576004356001600160a01b0381169081900361028c57600052600a6020526020604060002054604051908152f35b3461028c57604036600319011261028c57600435600052600f6020526040600020602435600052602052602060ff604060002054166040519015158152f35b3461028c57602036600319011261028c57610ec96040516110c781612438565b600081526040519182916020835260208301906126f9565b3461028c57600036600319011261028c5760015460405160089190911c6001600160a01b03168152602090f35b3461028c57602036600319011261028c576004356001600160a01b0381169081900361028c5761113a612b62565b6000908152600e60205260409020805460ff19166001179055005b3461028c57600036600319011261028c5761116e612b62565b611176612b1e565b600160ff19815416176001557f62e78cea01bee320cd4e420270b5ea74000d11b0c9f74754ebdbfc544b05a2586020604051338152a1005b3461028c57602036600319011261028c576004356001600160a01b0381169081900361028c576111dc612b62565b6000908152600e60205260409020805460ff19169055005b3461028c5760208060031936011261028c5760043590611212612ac8565b61121a612b1e565b336000526008815260406000205491611234831515612756565b683635c9adc5dea0000081106113805769152d02c7e14af68000008111611343576006546040516323b872dd60e01b8152336004820152306024820152604481018390529291908290849060649082906000906001600160a01b03165af1928315611337577fccb52a6d64de372476805d81d080c6f8d4d1bc9a7461111b98cb525022963598936112cd9160009161130a575b50612801565b836000526007825260076040600020016112e88282546127dc565b9055836000526007825242600860406000200155604051908152a26001600055005b61132a9150843d8611611330575b6113228183612453565b8101906127e9565b866112c7565b503d611318565b6040513d6000823e3d90fd5b60405162461bcd60e51b81526004810183905260156024820152740a6e8c2d6ca40c2dadeeadce840e8dede40d0d2ced605b1b6044820152606490fd5b60405162461bcd60e51b81526004810183905260146024820152735374616b6520616d6f756e7420746f6f206c6f7760601b6044820152606490fd5b3461028c57602036600319011261028c57610ec96040516113dc81612438565b600081526040519182916020835260208301906126c5565b3461028c57600036600319011261028c576006546040516001600160a01b039091168152602090f35b3461028c57606036600319011261028c5760043560248035906044356001600160401b03811161028c576114559036906004016125b1565b9083151580611691575b61146890612a0b565b611470612b1e565b83600052602092600c8452604060002094600186018054600052600b865260406000209633600052600887526114b160016040600020549901548914612a50565b600695868201805460ff81168981101561167c5760040361164c57600187101580611641575b1561160c5760ff1916600517905542600a830155600c82018590556002919061150390600b830161283f565b01549360148402848104601414851517156115f7578560005260098852611532876040600020019182546127dc565b9055876000526007875285604060002001805491600a83018093116115e35750927f7c5d69214198831f9c6fbb4fa6a2bd35bc8fca92609004e229858adfd271f6fd886040999794600197948b9a975554938951908152a380600052600984528185600020015485519081526000858201527fbf679dfc0d830b347bba472268a897a845ddda5e39264b61aa9ad0fca7ec0388968791a28560005260078352836000200154918351928352820152a2005b634e487b7160e01b60009081526011600452fd5b50634e487b7160e01b60009081526011600452fd5b60405162461bcd60e51b8152600481018b9052600e818a01526d496e76616c696420726174696e6760901b6044820152606490fd5b5060058711156114d7565b60405162461bcd60e51b8152600481018b90526009818a015268139bdd081a1a5c995960ba1b6044820152606490fd5b88634e487b7160e01b60005260216004526000fd5b5060035484111561145f565b3461028c5761012036600319011261028c576001600160401b0360043581811161028c576116cf9036906004016125b1565b60243582811161028c576116e79036906004016125b1565b60443583811161028c576116ff9036906004016125e6565b9260643590811161028c57611718903690600401612665565b92600560e435101561028c5761172c612b1e565b33600052600860205260406000205490611747821515612756565b81600052600760205261176d683635c9adc5dea00000600760406000200154101561279b565b8051855103611942574260c435111561190a5761010435156118c5576001600254019182600255826000526117d1600b94856020526117bc87600260406000208881558660018201550161283f565b8460005285602052600360406000200161283f565b826000528360205260096040600020608435600682015560a435600782015560c435600882015501805461180660e435612561565b61ff0060e43560081b169061ffff19161790558260005283602052604060002061010435600a82015542600d820155600e4291015560005b825181101561188a57600190846000528560205261186760046040600020016109fe8387612951565b846000528560205261188460056040600020016105ab838b612951565b0161183e565b50827f9e57cd9bb0401e5d88c36c462389c28112832a4401bc7c3298432f228bfa660f6109cf8760405191829160208352602083019061253c565b60405162461bcd60e51b815260206004820152601c60248201527f4d6178206170706c69636174696f6e73206d757374206265203e2030000000006044820152606490fd5b60405162461bcd60e51b815260206004820152601060248201526f496e76616c696420646561646c696e6560801b6044820152606490fd5b60405162461bcd60e51b815260206004820152602260248201527f536b696c6c7320616e642077656967687473206c656e677468206d69736d61746044820152610c6d60f31b6064820152608490fd5b3461028c57600036600319011261028c576119ab612b62565b60018054610100600160a81b0319811690915560009060081c6001600160a01b03167f8be0079c531659141344cd1fd0a4f28419497f9722a3daafe3b4186f6b6457e08280a3005b3461028c57600036600319011261028c57602060405162278d008152f35b3461028c57602036600319011261028c576004356001600160a01b0381169081900361028c5760005260086020526020604060002054604051908152f35b3461028c57600036600319011261028c57602060ff600154166040519015158152f35b3461028c5760a036600319011261028c576024356001600160401b03811161028c57611aa29036906004016125b1565b6064356001600160401b03811161028c57611ac19036906004016125b1565b6084356001600160401b03811161028c573660238201121561028c57611af190369060248160040135910161256b565b9033600052600e60205260ff6040600020541615611ef857611b11612b1e565b600435151580611eea575b15611eae57606460443511611e7957825115611e4357805115611e0a576040516004356020820152611b8d6060828651611b5d816040840160208b01612519565b60443560408284010152855190611b7c82858386010160208a01612519565b820101036040810184520182612453565b602081519101206040519260208401917f19457468657265756d205369676e6564204d6573736167653a0a3332000000008352603c850152603c845260608401918483106001600160401b03841117611d6c57611bfb94611bf393604052519020612bbd565b929092612bf5565b6001600160a01b03913390831603611dd15760405160208101906004358252611c4c6054828751611c33816040840160208c01612519565b81013360601b6040820152036034810184520182612453565b5190209182600052600d60205260ff60066040600020015416611d82576040519060e082018281106001600160401b03821117611d6c57600693611d0691604052338452602084016004358152611cf660408601898152606087019260443584526080880194855260a088019642885260c089019a60018c52600052600d60205260406000209851166001600160601b0360a01b895416178855516001880155516002870161283f565b516003850155516004840161283f565b516005820155019051151560ff801983541691161790557f30a23997b597468c0e83bab15a9030b2ba260326119cf3d407ac6d7304ce8144611d536040519260608452606084019061253c565b91604435602082015233604082015280600435930390a2005b634e487b7160e01b600052604160045260246000fd5b60405162461bcd60e51b815260206004820152602160248201527f416c7265616479207665726966696564206279207468697320766572696669656044820152603960f91b6064820152608490fd5b60405162461bcd60e51b8152602060048201526011602482015270496e76616c6964207369676e617475726560781b6044820152606490fd5b60405162461bcd60e51b8152602060048201526011602482015270115d9a59195b98d9481c995c5d5a5c9959607a1b6044820152606490fd5b60405162461bcd60e51b815260206004820152600e60248201526d14dada5b1b081c995c5d5a5c995960921b6044820152606490fd5b60405162461bcd60e51b815260206004820152600d60248201526c496e76616c69642073636f726560981b6044820152606490fd5b60405162461bcd60e51b8152602060048201526014602482015273125b9d985b1a590819195d995b1bdc195c88125160621b6044820152606490fd5b506005546004351115611b1c565b60405162461bcd60e51b815260206004820152601d60248201527f4e6f74206120766572696669656420736b696c6c2076657269666965720000006044820152606490fd5b3461028c57600036600319011261028c576020600454604051908152f35b3461028c57600036600319011261028c57611f74612b62565b60015460ff811615611fb35760ff19166001557f5db9ee0a495bf2e6ff9c91a7834c1ba4fdd244a5e8aa4e537bd38aeae4b073aa6020604051338152a1005b60405162461bcd60e51b815260206004820152601460248201527314185d5cd8589b194e881b9bdd081c185d5cd95960621b6044820152606490fd5b3461028c57602036600319011261028c576004356001600160a01b0381169081900361028c57600052600e602052602060ff604060002054166040519015158152f35b3461028c57600036600319011261028c576020600254604051908152f35b3461028c57600036600319011261028c57602060405169152d02c7e14af68000008152f35b3461028c57602036600319011261028c576004356000526007602052604060002080549060018060a01b036001820154169060ff6120b560028301612474565b6120c160038401612474565b926120ce60048201612474565b936121486120de60058401612474565b61213a60068501549761212c60078701549561211e600960088a0154990154996040519e8f9e8f906101609282526020820152816040820152019061253c565b8c810360608e01529061253c565b908a820360808c015261253c565b9088820360a08a015261253c565b9460c087015260e0860152610100850152818116151561012085015260081c1615156101408301520390f35b3461028c57600036600319011261028c576020604051683635c9adc5dea000008152f35b3461028c5760208060031936011261028c576004356121b5612ac8565b6121bd612b1e565b3360005260088252604060002054916121d7831515612756565b82600052600781526121f382600760406000200154101561279b565b826000526007815260086040600020015462278d00810180911161065e5742106122ad578260005260078152600760406000200191825481810390811161065e57600093558160018060a01b036006541660446040518096819363a9059cbb60e01b83523360048401528660248401525af1928315611337577f3db0ca701d7c1106534c6003e5d65dae65a9cb891ad5bbb9be39c091df79d87e9361229f9160009161130a5750612801565b604051908152a26001600055005b6064906040519062461bcd60e51b82526004820152601160248201527014dd185ad9481b9bdd081b585d1d5c9959607a1b6044820152fd5b3461028c57602036600319011261028c57600435600052600b602052604060002080549060018101549161231b60028301612474565b9061232860038401612474565b92600681015492600782015494600883015495600984015496600a85015491612382600b8701549461211e600c89015497600e600d8b01549a01549a6040519e8f906101c09282526020820152816040820152019061253c565b9760808b015260a08a015260c0890152600460ff8816101561075b5760ff87818a991660e08a01526123b8828260081c16612561565b60081c166101008801526101208701526101408601526101608501526101808401526101a08301520390f35b3461028c57600036600319011261028c5780600560209252f35b90600182811c9216801561242e575b602083101461241857565b634e487b7160e01b600052602260045260246000fd5b91607f169161240d565b602081019081106001600160401b03821117611d6c57604052565b90601f801991011681019081106001600160401b03821117611d6c57604052565b90604051918260008254612487816123fe565b908184526020946001916001811690816000146124f757506001146124b8575b5050506124b692500383612453565b565b600090815285812095935091905b8183106124df5750506124b693508201013880806124a7565b855488840185015294850194879450918301916124c6565b925050506124b694925060ff191682840152151560051b8201013880806124a7565b60005b83811061252c5750506000910152565b818101518382015260200161251c565b9060209161255581518092818552858086019101612519565b601f01601f1916010190565b6005111561075b57565b9291926001600160401b038211611d6c5760405191612594601f8201601f191660200184612453565b82948184528183011161028c578281602093846000960137010152565b9080601f8301121561028c578160206125cc9335910161256b565b90565b6001600160401b038111611d6c5760051b60200190565b81601f8201121561028c57803591602091612600846125cf565b9361260e6040519586612453565b808552838086019160051b8301019280841161028c57848301915b8483106126395750505050505090565b82356001600160401b03811161028c57869161265a848480948901016125b1565b815201920191612629565b9080601f8301121561028c57602090823561267f816125cf565b9361268d6040519586612453565b81855260208086019260051b82010192831161028c57602001905b8282106126b6575050505090565b813581529083019083016126a8565b90815180825260208080930193019160005b8281106126e5575050505090565b8351855293810193928101926001016126d7565b90808251908181526020809101926020808460051b8301019501936000915b8483106127285750505050505090565b9091929394958480612746600193601f198682030187528a5161253c565b9801930193019194939290612718565b1561275d57565b60405162461bcd60e51b815260206004820152601660248201527510dbdb5c185b9e481b9bdd081c9959da5cdd195c995960521b6044820152606490fd5b156127a257565b60405162461bcd60e51b8152602060048201526012602482015271496e73756666696369656e74207374616b6560701b6044820152606490fd5b9190820180921161065e57565b9081602091031261028c5751801515810361028c5790565b1561280857565b60405162461bcd60e51b815260206004820152600f60248201526e151c985b9cd9995c8819985a5b1959608a1b6044820152606490fd5b91909182516001600160401b038111611d6c5761285c82546123fe565b601f8111612907575b50602080601f83116001146128a2575081929394600092612897575b50508160011b916000199060031b1c1916179055565b015190503880612881565b90601f19831695846000526020600020926000905b8882106128ef575050836001959697106128d6575b505050811b019055565b015160001960f88460031b161c191690553880806128cc565b806001859682949686015181550195019301906128b7565b6000836000526020600020601f840160051c81019260208510612947575b601f0160051c01915b82811061293c575050612865565b81815560010161292e565b9092508290612925565b80518210156129655760209160051b010190565b634e487b7160e01b600052603260045260246000fd5b80548210156129655760005260206000200190600090565b8054600160401b811015611d6c576129b09160018201815561297b565b9190916129c0576124b69161283f565b634e487b7160e01b600052600060045260246000fd5b8054600160401b811015611d6c576129f39160018201815561297b565b819291549060031b91821b91600019901b1916179055565b15612a1257565b60405162461bcd60e51b8152602060048201526016602482015275125b9d985b1a5908185c1c1b1a58d85d1a5bdb88125160521b6044820152606490fd5b15612a5757565b60405162461bcd60e51b815260206004820152600d60248201526c2737ba103537b11037bbb732b960991b6044820152606490fd5b15612a9357565b60405162461bcd60e51b815260206004820152600d60248201526c13985b59481c995c5d5a5c9959609a1b6044820152606490fd5b600260005414612ad9576002600055565b60405162461bcd60e51b815260206004820152601f60248201527f5265656e7472616e637947756172643a207265656e7472616e742063616c6c006044820152606490fd5b60ff60015416612b2a57565b60405162461bcd60e51b815260206004820152601060248201526f14185d5cd8589b194e881c185d5cd95960821b6044820152606490fd5b60015460081c6001600160a01b03163303612b7957565b606460405162461bcd60e51b815260206004820152602060248201527f4f776e61626c653a2063616c6c6572206973206e6f7420746865206f776e65726044820152fd5b906041815114600014612beb57612be7916020820151906060604084015193015160001a90612d15565b9091565b5050600090600290565b612bfe81612561565b80612c065750565b612c0f81612561565b60018103612c5c5760405162461bcd60e51b815260206004820152601860248201527f45434453413a20696e76616c6964207369676e617475726500000000000000006044820152606490fd5b612c6581612561565b60028103612cb25760405162461bcd60e51b815260206004820152601f60248201527f45434453413a20696e76616c6964207369676e6174757265206c656e677468006044820152606490fd5b80612cbe600392612561565b14612cc557565b60405162461bcd60e51b815260206004820152602260248201527f45434453413a20696e76616c6964207369676e6174757265202773272076616c604482015261756560f01b6064820152608490fd5b9291907f7fffffffffffffffffffffffffffffff5d576e7357a4501ddfe92f46681b20a08311612d985791608094939160ff602094604051948552168484015260408301526060820152600093849182805260015afa15612d8b5781516001600160a01b03811615612d85579190565b50600190565b50604051903d90823e3d90fd5b5050505060009060039056fea26469706673582212209f0c42487c61e5f59a304a5f9d5c98292564d08760b032064ffb185844c57eea64736f6c63430008180033","opcodes":"PUSH1 0x80 CALLVALUE PUSH2 0xCD JUMPI PUSH1 0x1F PUSH3 0x2EC3 CODESIZE DUP2 SWAP1 SUB SWAP2 DUP3 ADD PUSH1 0x1F NOT AND DUP4 ADD SWAP2 PUSH1 0x1 PUSH1 0x1 PUSH1 0x40 SHL SUB DUP4 GT DUP5 DUP5 LT OR PUSH2 0xD2 JUMPI DUP1 DUP5 SWAP3 PUSH1 0x20 SWAP5 PUSH1 0x40 MSTORE DUP4 CODECOPY DUP2 ADD SUB SLT PUSH2 0xCD JUMPI MLOAD PUSH1 0x1 PUSH1 0x1 PUSH1 0xA0 SHL SUB SWAP1 DUP2 DUP2 AND SWAP1 DUP2 SWAP1 SUB PUSH2 0xCD JUMPI PUSH1 0x1 PUSH1 0x0 DUP2 DUP2 SSTORE DUP2 SLOAD PUSH1 0x1 PUSH1 0x1 PUSH1 0xA8 SHL SUB NOT DUP2 AND CALLER PUSH1 0x8 DUP2 DUP2 SHL PUSH2 0x100 PUSH1 0x1 PUSH1 0xA8 SHL SUB AND SWAP3 SWAP1 SWAP3 OR SWAP1 SWAP5 SSTORE PUSH1 0x40 MLOAD SWAP6 SWAP2 SWAP1 SHR AND SWAP1 PUSH32 0x8BE0079C531659141344CD1FD0A4F28419497F9722A3DAAFE3B4186F6B6457E0 SWAP1 DUP1 LOG3 PUSH1 0x6 DUP1 SLOAD PUSH1 0x1 PUSH1 0x1 PUSH1 0xA0 SHL SUB NOT AND SWAP2 SWAP1 SWAP2 OR SWAP1 SSTORE PUSH2 0x2DDA SWAP1 DUP2 PUSH3 0xE9 DUP3 CODECOPY RETURN JUMPDEST PUSH1 0x0 DUP1 REVERT JUMPDEST PUSH4 0x4E487B71 PUSH1 0xE0 SHL PUSH1 0x0 MSTORE PUSH1 0x41 PUSH1 0x4 MSTORE PUSH1 0x24 PUSH1 0x0 REVERT INVALID PUSH1 0x80 DUP1 PUSH1 0x40 MSTORE PUSH1 0x4 CALLDATASIZE LT ISZERO PUSH2 0x13 JUMPI PUSH1 0x0 DUP1 REVERT JUMPDEST PUSH1 0x0 CALLDATALOAD PUSH1 0xE0 SHR SWAP1 DUP2 PUSH4 0x15548232 EQ PUSH2 0x23E4 JUMPI POP DUP1 PUSH4 0x180AEDF3 EQ PUSH2 0x22E5 JUMPI DUP1 PUSH4 0x25D5971F EQ PUSH2 0x2198 JUMPI DUP1 PUSH4 0x27ED7188 EQ PUSH2 0x2174 JUMPI DUP1 PUSH4 0x2813D19D EQ PUSH2 0x2075 JUMPI DUP1 PUSH4 0x2F92F1F2 EQ PUSH2 0x2050 JUMPI DUP1 PUSH4 0x3AEE7996 EQ PUSH2 0x2032 JUMPI DUP1 PUSH4 0x3B06C30E EQ PUSH2 0x1FEF JUMPI DUP1 PUSH4 0x3F4BA83A EQ PUSH2 0x1F5B JUMPI DUP1 PUSH4 0x486B1B11 EQ PUSH2 0x1F3D JUMPI DUP1 PUSH4 0x5B987A8F EQ PUSH2 0x1A72 JUMPI DUP1 PUSH4 0x5C975ABB EQ PUSH2 0x1A4F JUMPI DUP1 PUSH4 0x6775615A EQ PUSH2 0x1A11 JUMPI DUP1 PUSH4 0x6AFB630A EQ PUSH2 0x19F3 JUMPI DUP1 PUSH4 0x715018A6 EQ PUSH2 0x1992 JUMPI DUP1 PUSH4 0x717149F2 EQ PUSH2 0x169D JUMPI DUP1 PUSH4 0x718B5A89 EQ PUSH2 0x141D JUMPI DUP1 PUSH4 0x72F702F3 EQ PUSH2 0x13F4 JUMPI DUP1 PUSH4 0x747143B9 EQ PUSH2 0x13BC JUMPI DUP1 PUSH4 0x7547C7A3 EQ PUSH2 0x11F4 JUMPI DUP1 PUSH4 0x759BF6ED EQ PUSH2 0x11AE JUMPI DUP1 PUSH4 0x8456CB59 EQ PUSH2 0x1155 JUMPI DUP1 PUSH4 0x8B35EAB7 EQ PUSH2 0x110C JUMPI DUP1 PUSH4 0x8DA5CB5B EQ PUSH2 0x10DF JUMPI DUP1 PUSH4 0x99DDB25E EQ PUSH2 0x10A7 JUMPI DUP1 PUSH4 0xAB4F7B47 EQ PUSH2 0x1068 JUMPI DUP1 PUSH4 0xB77A4C4D EQ PUSH2 0x102A JUMPI DUP1 PUSH4 0xBA16E5CD EQ PUSH2 0xEFF JUMPI DUP1 PUSH4 0xBBC71078 EQ PUSH2 0xE1A JUMPI DUP1 PUSH4 0xD6214810 EQ PUSH2 0xBB7 JUMPI DUP1 PUSH4 0xDFEFADFF EQ PUSH2 0xAE1 JUMPI DUP1 PUSH4 0xE0A3B0A5 EQ PUSH2 0xAC3 JUMPI DUP1 PUSH4 0xE739C271 EQ PUSH2 0x7F0 JUMPI DUP1 PUSH4 0xE9FBA947 EQ PUSH2 0x41A JUMPI DUP1 PUSH4 0xECDA0174 EQ PUSH2 0x376 JUMPI DUP1 PUSH4 0xEFF25CD6 EQ PUSH2 0x291 JUMPI PUSH4 0xF2FDE38B EQ PUSH2 0x1B6 JUMPI PUSH1 0x0 DUP1 REVERT JUMPDEST CALLVALUE PUSH2 0x28C JUMPI PUSH1 0x20 CALLDATASIZE PUSH1 0x3 NOT ADD SLT PUSH2 0x28C JUMPI PUSH1 0x4 CALLDATALOAD PUSH1 0x1 PUSH1 0x1 PUSH1 0xA0 SHL SUB DUP2 DUP2 AND SWAP2 DUP3 DUP2 SUB PUSH2 0x28C JUMPI PUSH2 0x1E5 PUSH2 0x2B62 JUMP JUMPDEST DUP3 ISZERO PUSH2 0x238 JUMPI PUSH1 0x1 DUP1 SLOAD PUSH2 0x100 PUSH1 0x1 PUSH1 0xA8 SHL SUB NOT DUP2 AND PUSH1 0x8 SWAP4 DUP5 SHL PUSH2 0x100 PUSH1 0x1 PUSH1 0xA8 SHL SUB AND OR SWAP1 SWAP2 SSTORE SWAP1 SHR AND PUSH32 0x8BE0079C531659141344CD1FD0A4F28419497F9722A3DAAFE3B4186F6B6457E0 PUSH1 0x0 DUP1 LOG3 STOP JUMPDEST PUSH1 0x40 MLOAD PUSH3 0x461BCD PUSH1 0xE5 SHL DUP2 MSTORE PUSH1 0x20 PUSH1 0x4 DUP3 ADD MSTORE PUSH1 0x26 PUSH1 0x24 DUP3 ADD MSTORE PUSH32 0x4F776E61626C653A206E6577206F776E657220697320746865207A65726F2061 PUSH1 0x44 DUP3 ADD MSTORE PUSH6 0x646472657373 PUSH1 0xD0 SHL PUSH1 0x64 DUP3 ADD MSTORE PUSH1 0x84 SWAP1 REVERT JUMPDEST PUSH1 0x0 DUP1 REVERT JUMPDEST CALLVALUE PUSH2 0x28C JUMPI PUSH1 0x20 CALLDATASIZE PUSH1 0x3 NOT ADD SLT PUSH2 0x28C JUMPI PUSH1 0x4 CALLDATALOAD PUSH1 0x0 MSTORE PUSH1 0x9 PUSH1 0x20 MSTORE PUSH1 0x40 PUSH1 0x0 KECCAK256 PUSH1 0x40 DUP2 SLOAD SWAP2 PUSH1 0xFF PUSH1 0x1 DUP1 PUSH1 0xA0 SHL SUB PUSH1 0x1 DUP4 ADD SLOAD AND PUSH2 0x356 PUSH2 0x2D5 PUSH1 0x2 DUP6 ADD PUSH2 0x2474 JUMP JUMPDEST PUSH2 0x348 PUSH2 0x2E4 PUSH1 0x3 DUP8 ADD PUSH2 0x2474 JUMP JUMPDEST PUSH2 0x33A PUSH2 0x2F3 PUSH1 0x4 DUP10 ADD PUSH2 0x2474 JUMP JUMPDEST SWAP2 PUSH2 0x32C PUSH2 0x303 PUSH1 0x5 DUP12 ADD PUSH2 0x2474 JUMP JUMPDEST SWAP6 PUSH1 0x9 PUSH1 0x6 DUP13 ADD SLOAD SWAP12 ADD SLOAD SWAP9 DUP13 MLOAD SWAP14 DUP15 SWAP14 DUP15 PUSH2 0x120 SWAP4 DUP5 SWAP4 DUP3 MSTORE PUSH1 0x20 DUP3 ADD MSTORE ADD MSTORE DUP13 ADD SWAP1 PUSH2 0x253C JUMP JUMPDEST SWAP1 DUP11 DUP3 SUB PUSH1 0x60 DUP13 ADD MSTORE PUSH2 0x253C JUMP JUMPDEST SWAP1 DUP9 DUP3 SUB PUSH1 0x80 DUP11 ADD MSTORE PUSH2 0x253C JUMP JUMPDEST SWAP1 DUP7 DUP3 SUB PUSH1 0xA0 DUP9 ADD MSTORE PUSH2 0x253C JUMP JUMPDEST SWAP3 PUSH1 0xC0 DUP6 ADD MSTORE DUP2 DUP2 AND ISZERO ISZERO PUSH1 0xE0 DUP6 ADD MSTORE PUSH1 0x8 SHR AND ISZERO ISZERO PUSH2 0x100 DUP4 ADD MSTORE SUB SWAP1 RETURN JUMPDEST CALLVALUE PUSH2 0x28C JUMPI PUSH1 0x20 CALLDATASIZE PUSH1 0x3 NOT ADD SLT PUSH2 0x28C JUMPI PUSH1 0x4 CALLDATALOAD PUSH1 0x0 MSTORE PUSH1 0xD PUSH1 0x20 MSTORE PUSH1 0x40 PUSH1 0x0 KECCAK256 PUSH1 0x1 DUP1 PUSH1 0xA0 SHL SUB DUP2 SLOAD AND PUSH1 0x1 DUP3 ADD SLOAD SWAP2 PUSH2 0x3B3 PUSH1 0x2 DUP3 ADD PUSH2 0x2474 JUMP JUMPDEST PUSH2 0x409 PUSH1 0x3 DUP4 ADD SLOAD PUSH2 0x3C7 PUSH1 0x4 DUP6 ADD PUSH2 0x2474 JUMP JUMPDEST PUSH2 0x3F6 PUSH1 0xFF PUSH1 0x6 PUSH1 0x5 DUP9 ADD SLOAD SWAP8 ADD SLOAD AND SWAP5 PUSH1 0x40 MLOAD SWAP9 DUP10 SWAP9 DUP10 MSTORE PUSH1 0x20 DUP10 ADD MSTORE PUSH1 0xE0 PUSH1 0x40 DUP10 ADD MSTORE PUSH1 0xE0 DUP9 ADD SWAP1 PUSH2 0x253C JUMP JUMPDEST SWAP2 PUSH1 0x60 DUP8 ADD MSTORE DUP6 DUP3 SUB PUSH1 0x80 DUP8 ADD MSTORE PUSH2 0x253C JUMP JUMPDEST SWAP2 PUSH1 0xA0 DUP5 ADD MSTORE ISZERO ISZERO PUSH1 0xC0 DUP4 ADD MSTORE SUB SWAP1 RETURN JUMPDEST CALLVALUE PUSH2 0x28C JUMPI PUSH1 0x80 CALLDATASIZE PUSH1 0x3 NOT ADD SLT PUSH2 0x28C JUMPI PUSH1 0x4 CALLDATALOAD PUSH1 0x1 PUSH1 0x1 PUSH1 0x40 SHL SUB PUSH1 0x24 CALLDATALOAD DUP2 DUP2 GT PUSH2 0x28C JUMPI PUSH2 0x44E SWAP1 CALLDATASIZE SWAP1 PUSH1 0x4 ADD PUSH2 0x25B1 JUMP JUMPDEST PUSH1 0x44 SWAP2 DUP3 CALLDATALOAD DUP2 DUP2 GT PUSH2 0x28C JUMPI PUSH2 0x468 SWAP1 CALLDATASIZE SWAP1 PUSH1 0x4 ADD PUSH2 0x2665 JUMP JUMPDEST SWAP4 PUSH1 0x64 SWAP2 DUP3 CALLDATALOAD SWAP1 DUP2 GT PUSH2 0x28C JUMPI PUSH2 0x483 SWAP1 CALLDATASIZE SWAP1 PUSH1 0x4 ADD PUSH2 0x2665 JUMP JUMPDEST SWAP2 DUP2 ISZERO ISZERO DUP1 PUSH2 0x7E4 JUMPI JUMPDEST ISZERO PUSH2 0x7B2 JUMPI PUSH2 0x49A PUSH2 0x2B1E JUMP JUMPDEST CALLER PUSH1 0x0 MSTORE PUSH1 0xA PUSH1 0x20 MSTORE PUSH1 0x40 PUSH1 0x0 KECCAK256 SLOAD SWAP5 DUP6 ISZERO PUSH2 0x771 JUMPI DUP3 PUSH1 0x0 MSTORE PUSH1 0xB PUSH1 0x20 MSTORE PUSH1 0xFF PUSH1 0x9 PUSH1 0x40 PUSH1 0x0 KECCAK256 ADD SLOAD AND PUSH1 0x4 DUP2 LT ISZERO PUSH2 0x75B JUMPI PUSH2 0x729 JUMPI DUP3 PUSH1 0x0 MSTORE PUSH1 0xB PUSH1 0x20 MSTORE PUSH1 0x8 PUSH1 0x40 PUSH1 0x0 KECCAK256 ADD SLOAD TIMESTAMP GT PUSH2 0x6E8 JUMPI DUP3 PUSH1 0x0 MSTORE PUSH1 0xB PUSH1 0x20 MSTORE PUSH1 0x40 PUSH1 0x0 KECCAK256 PUSH1 0xA PUSH1 0xB DUP3 ADD SLOAD SWAP2 ADD SLOAD GT ISZERO PUSH2 0x6A7 JUMPI DUP3 PUSH1 0x0 MSTORE PUSH1 0xF PUSH1 0x20 MSTORE PUSH1 0x40 PUSH1 0x0 KECCAK256 DUP7 PUSH1 0x0 MSTORE PUSH1 0x20 MSTORE PUSH1 0xFF PUSH1 0x40 PUSH1 0x0 KECCAK256 SLOAD AND PUSH2 0x674 JUMPI POP POP PUSH2 0x55F PUSH1 0x1 PUSH1 0x3 SLOAD ADD SWAP4 DUP5 PUSH1 0x3 SSTORE DUP5 PUSH1 0x0 MSTORE PUSH1 0xC PUSH1 0x20 MSTORE PUSH1 0x3 PUSH1 0x40 PUSH1 0x0 KECCAK256 DUP7 DUP2 SSTORE DUP5 PUSH1 0x1 DUP3 ADD SSTORE DUP8 PUSH1 0x2 DUP3 ADD SSTORE ADD PUSH2 0x283F JUMP JUMPDEST PUSH1 0x0 DUP4 DUP2 MSTORE PUSH1 0xC PUSH1 0x20 MSTORE PUSH1 0x40 DUP2 KECCAK256 PUSH1 0x6 DUP2 ADD DUP1 SLOAD PUSH1 0xFF NOT AND SWAP1 SSTORE TIMESTAMP PUSH1 0x7 SWAP1 SWAP2 ADD SSTORE JUMPDEST DUP6 MLOAD DUP2 LT ISZERO PUSH2 0x5B8 JUMPI PUSH1 0x1 SWAP1 DUP5 PUSH1 0x0 MSTORE PUSH1 0xC PUSH1 0x20 MSTORE PUSH2 0x5B2 PUSH1 0x4 PUSH1 0x40 PUSH1 0x0 KECCAK256 ADD PUSH2 0x5AB DUP4 DUP11 PUSH2 0x2951 JUMP JUMPDEST MLOAD SWAP1 PUSH2 0x29D6 JUMP JUMPDEST ADD PUSH2 0x581 JUMP JUMPDEST POP DUP3 DUP5 PUSH1 0x0 JUMPDEST DUP5 MLOAD DUP2 LT ISZERO PUSH2 0x5EE JUMPI PUSH1 0x1 SWAP1 DUP4 PUSH1 0x0 MSTORE PUSH1 0xC PUSH1 0x20 MSTORE PUSH2 0x5E8 PUSH1 0x5 PUSH1 0x40 PUSH1 0x0 KECCAK256 ADD PUSH2 0x5AB DUP4 DUP10 PUSH2 0x2951 JUMP JUMPDEST ADD PUSH2 0x5BE JUMP JUMPDEST POP SWAP3 POP DUP2 PUSH1 0x0 MSTORE PUSH1 0xB PUSH1 0x20 MSTORE PUSH1 0xB PUSH1 0x40 PUSH1 0x0 KECCAK256 ADD DUP1 SLOAD PUSH1 0x0 NOT DUP2 EQ PUSH2 0x65E JUMPI PUSH1 0x1 ADD SWAP1 SSTORE DUP2 PUSH1 0x0 MSTORE PUSH1 0xF PUSH1 0x20 MSTORE PUSH1 0x40 PUSH1 0x0 KECCAK256 DUP4 PUSH1 0x0 MSTORE PUSH1 0x20 MSTORE PUSH1 0x40 PUSH1 0x0 KECCAK256 PUSH1 0x1 PUSH1 0xFF NOT DUP3 SLOAD AND OR SWAP1 SSTORE PUSH32 0xC521AE2BA003E699F056B3B367D35B1C5EB94287A1997BE3ABD4BE66C7443D20 PUSH1 0x0 DUP1 LOG4 STOP JUMPDEST PUSH4 0x4E487B71 PUSH1 0xE0 SHL PUSH1 0x0 MSTORE PUSH1 0x11 PUSH1 0x4 MSTORE PUSH1 0x24 PUSH1 0x0 REVERT JUMPDEST PUSH15 0x105B1C9958591E48185C1C1B1A5959 PUSH1 0x8A SHL PUSH1 0x40 MLOAD SWAP2 PUSH3 0x461BCD PUSH1 0xE5 SHL DUP4 MSTORE PUSH1 0x20 PUSH1 0x4 DUP5 ADD MSTORE PUSH1 0xF PUSH1 0x24 DUP5 ADD MSTORE DUP3 ADD MSTORE REVERT JUMPDEST PUSH32 0x4D6178206170706C69636174696F6E7320726561636865640000000000000000 PUSH1 0x40 MLOAD SWAP2 PUSH3 0x461BCD PUSH1 0xE5 SHL DUP4 MSTORE PUSH1 0x20 PUSH1 0x4 DUP5 ADD MSTORE PUSH1 0x18 PUSH1 0x24 DUP5 ADD MSTORE DUP3 ADD MSTORE REVERT JUMPDEST PUSH32 0x4170706C69636174696F6E20646561646C696E65207061737365640000000000 PUSH1 0x40 MLOAD SWAP2 PUSH3 0x461BCD PUSH1 0xE5 SHL DUP4 MSTORE PUSH1 0x20 PUSH1 0x4 DUP5 ADD MSTORE PUSH1 0x1B PUSH1 0x24 DUP5 ADD MSTORE DUP3 ADD MSTORE REVERT JUMPDEST PUSH14 0x4A6F62206E6F7420616374697665 PUSH1 0x90 SHL PUSH1 0x40 MLOAD SWAP2 PUSH3 0x461BCD PUSH1 0xE5 SHL DUP4 MSTORE PUSH1 0x20 PUSH1 0x4 DUP5 ADD MSTORE PUSH1 0xE PUSH1 0x24 DUP5 ADD MSTORE DUP3 ADD MSTORE REVERT JUMPDEST PUSH4 0x4E487B71 PUSH1 0xE0 SHL PUSH1 0x0 MSTORE PUSH1 0x21 PUSH1 0x4 MSTORE PUSH1 0x24 PUSH1 0x0 REVERT JUMPDEST PUSH32 0x446576656C6F706572206E6F7420726567697374657265640000000000000000 PUSH1 0x40 MLOAD SWAP2 PUSH3 0x461BCD PUSH1 0xE5 SHL DUP4 MSTORE PUSH1 0x20 PUSH1 0x4 DUP5 ADD MSTORE PUSH1 0x18 PUSH1 0x24 DUP5 ADD MSTORE DUP3 ADD MSTORE REVERT JUMPDEST PUSH1 0x40 MLOAD PUSH3 0x461BCD PUSH1 0xE5 SHL DUP2 MSTORE PUSH1 0x20 PUSH1 0x4 DUP3 ADD MSTORE PUSH1 0xE PUSH1 0x24 DUP3 ADD MSTORE PUSH14 0x125B9D985B1A59081A9BD8881251 PUSH1 0x92 SHL DUP2 DUP8 ADD MSTORE REVERT JUMPDEST POP PUSH1 0x2 SLOAD DUP3 GT ISZERO PUSH2 0x48D JUMP JUMPDEST CALLVALUE PUSH2 0x28C JUMPI PUSH1 0xC0 CALLDATASIZE PUSH1 0x3 NOT ADD SLT PUSH2 0x28C JUMPI PUSH1 0x1 PUSH1 0x1 PUSH1 0x40 SHL SUB PUSH1 0x4 CALLDATALOAD DUP2 DUP2 GT PUSH2 0x28C JUMPI PUSH2 0x821 SWAP1 CALLDATASIZE SWAP1 PUSH1 0x4 ADD PUSH2 0x25B1 JUMP JUMPDEST SWAP1 PUSH1 0x24 CALLDATALOAD DUP2 DUP2 GT PUSH2 0x28C JUMPI PUSH2 0x83A SWAP1 CALLDATASIZE SWAP1 PUSH1 0x4 ADD PUSH2 0x25B1 JUMP JUMPDEST SWAP2 PUSH1 0x44 CALLDATALOAD DUP3 DUP2 GT PUSH2 0x28C JUMPI PUSH2 0x853 SWAP1 CALLDATASIZE SWAP1 PUSH1 0x4 ADD PUSH2 0x25B1 JUMP JUMPDEST SWAP2 PUSH1 0x64 CALLDATALOAD DUP2 DUP2 GT PUSH2 0x28C JUMPI PUSH2 0x86C SWAP1 CALLDATASIZE SWAP1 PUSH1 0x4 ADD PUSH2 0x25B1 JUMP JUMPDEST PUSH1 0x84 CALLDATALOAD DUP3 DUP2 GT PUSH2 0x28C JUMPI PUSH2 0x884 SWAP1 CALLDATASIZE SWAP1 PUSH1 0x4 ADD PUSH2 0x25E6 JUMP JUMPDEST SWAP2 PUSH1 0xA4 CALLDATALOAD SWAP1 DUP2 GT PUSH2 0x28C JUMPI PUSH2 0x89D SWAP1 CALLDATASIZE SWAP1 PUSH1 0x4 ADD PUSH2 0x2665 JUMP JUMPDEST SWAP1 PUSH2 0x8A6 PUSH2 0x2B1E JUMP JUMPDEST CALLER PUSH1 0x0 MSTORE PUSH1 0x20 SWAP5 PUSH1 0xA DUP7 MSTORE PUSH1 0x40 PUSH1 0x0 KECCAK256 SLOAD PUSH2 0xA7E JUMPI PUSH2 0x8C7 DUP6 MLOAD ISZERO ISZERO PUSH2 0x2A8C JUMP JUMPDEST DUP4 MLOAD DUP4 MLOAD SUB PUSH2 0xA2F JUMPI SWAP5 PUSH2 0x95D DUP2 SWAP8 SWAP4 SWAP3 PUSH2 0x949 PUSH1 0x2 SWAP9 PUSH2 0x935 PUSH1 0x1 SWAP8 PUSH2 0x921 DUP12 PUSH1 0x1 PUSH1 0x5 SLOAD ADD SWAP14 DUP15 DUP1 PUSH1 0x5 SSTORE DUP1 PUSH1 0x0 MSTORE PUSH1 0x9 DUP1 SWAP12 MSTORE PUSH1 0x40 PUSH1 0x0 KECCAK256 SWAP1 DUP2 SSTORE PUSH1 0x1 DUP2 ADD CALLER PUSH1 0x1 PUSH1 0x1 PUSH1 0x60 SHL SUB PUSH1 0xA0 SHL DUP3 SLOAD AND OR SWAP1 SSTORE ADD PUSH2 0x283F JUMP JUMPDEST DUP12 PUSH1 0x0 MSTORE DUP7 DUP14 MSTORE PUSH1 0x3 PUSH1 0x40 PUSH1 0x0 KECCAK256 ADD PUSH2 0x283F JUMP JUMPDEST DUP10 PUSH1 0x0 MSTORE DUP5 DUP12 MSTORE PUSH1 0x4 PUSH1 0x40 PUSH1 0x0 KECCAK256 ADD PUSH2 0x283F JUMP JUMPDEST DUP8 PUSH1 0x0 MSTORE DUP3 DUP10 MSTORE PUSH1 0x5 PUSH1 0x40 PUSH1 0x0 KECCAK256 ADD PUSH2 0x283F JUMP JUMPDEST PUSH1 0x0 DUP7 DUP2 MSTORE DUP2 DUP9 MSTORE PUSH1 0x40 DUP2 KECCAK256 PUSH1 0x64 PUSH1 0x6 DUP3 ADD SSTORE DUP3 ADD DUP1 SLOAD PUSH2 0xFF00 NOT AND PUSH2 0x100 OR SWAP1 SSTORE DUP4 JUMPDEST PUSH2 0x9D4 JUMPI JUMPDEST DUP8 DUP8 PUSH32 0xD6AC0E75D10BB224FBAC5AAB86A97C824C5EFE36CB6E63D55FFF9CB1E634A618 PUSH2 0x9CF DUP10 CALLER PUSH1 0x0 MSTORE PUSH1 0xA DUP6 MSTORE DUP4 PUSH1 0x40 PUSH1 0x0 KECCAK256 SSTORE PUSH1 0x40 MLOAD SWAP2 DUP3 SWAP2 DUP7 DUP4 MSTORE CALLER SWAP7 DUP4 ADD SWAP1 PUSH2 0x253C JUMP JUMPDEST SUB SWAP1 LOG3 STOP JUMPDEST DUP5 MLOAD DUP2 LT ISZERO PUSH2 0xA2A JUMPI SWAP1 DUP4 DUP1 SWAP4 SWAP3 DUP9 PUSH1 0x0 MSTORE DUP3 DUP11 MSTORE PUSH2 0xA05 PUSH1 0x8 PUSH1 0x40 PUSH1 0x0 KECCAK256 ADD PUSH2 0x9FE DUP4 DUP11 PUSH2 0x2951 JUMP JUMPDEST MLOAD SWAP1 PUSH2 0x2993 JUMP JUMPDEST DUP9 PUSH1 0x0 MSTORE DUP3 DUP11 MSTORE PUSH2 0xA21 PUSH1 0x7 PUSH1 0x40 PUSH1 0x0 KECCAK256 ADD PUSH2 0x5AB DUP4 DUP8 PUSH2 0x2951 JUMP JUMPDEST ADD SWAP1 SWAP2 SWAP3 PUSH2 0x981 JUMP JUMPDEST PUSH2 0x986 JUMP JUMPDEST PUSH1 0x40 MLOAD PUSH3 0x461BCD PUSH1 0xE5 SHL DUP2 MSTORE PUSH1 0x4 DUP2 ADD DUP8 SWAP1 MSTORE PUSH1 0x21 PUSH1 0x24 DUP3 ADD MSTORE PUSH32 0x536B696C6C7320616E642073636F726573206C656E677468206D69736D617463 PUSH1 0x44 DUP3 ADD MSTORE PUSH1 0xD PUSH1 0xFB SHL PUSH1 0x64 DUP3 ADD MSTORE PUSH1 0x84 SWAP1 REVERT JUMPDEST PUSH1 0x40 MLOAD PUSH3 0x461BCD PUSH1 0xE5 SHL DUP2 MSTORE PUSH1 0x4 DUP2 ADD DUP8 SWAP1 MSTORE PUSH1 0x1C PUSH1 0x24 DUP3 ADD MSTORE PUSH32 0x446576656C6F70657220616C7265616479207265676973746572656400000000 PUSH1 0x44 DUP3 ADD MSTORE PUSH1 0x64 SWAP1 REVERT JUMPDEST CALLVALUE PUSH2 0x28C JUMPI PUSH1 0x0 CALLDATASIZE PUSH1 0x3 NOT ADD SLT PUSH2 0x28C JUMPI PUSH1 0x20 PUSH1 0x5 SLOAD PUSH1 0x40 MLOAD SWAP1 DUP2 MSTORE RETURN JUMPDEST CALLVALUE PUSH2 0x28C JUMPI PUSH1 0x20 CALLDATASIZE PUSH1 0x3 NOT ADD SLT PUSH2 0x28C JUMPI PUSH1 0x4 CALLDATALOAD PUSH1 0x0 MSTORE PUSH1 0xC PUSH1 0x20 MSTORE PUSH1 0x40 PUSH1 0x0 KECCAK256 DUP1 SLOAD PUSH1 0x1 DUP3 ADD SLOAD SWAP2 PUSH1 0x2 DUP2 ADD SLOAD SWAP1 PUSH2 0xB1C PUSH1 0x3 DUP3 ADD PUSH2 0x2474 JUMP JUMPDEST PUSH1 0xFF PUSH1 0x6 DUP4 ADD SLOAD AND SWAP2 PUSH1 0x7 DUP2 ADD SLOAD SWAP5 PUSH1 0x8 DUP3 ADD SLOAD SWAP3 PUSH2 0xB74 PUSH1 0x9 DUP5 ADD SLOAD SWAP2 PUSH1 0xA DUP6 ADD SLOAD SWAP4 PUSH1 0xC PUSH2 0xB4E PUSH1 0xB DUP9 ADD PUSH2 0x2474 JUMP JUMPDEST SWAP7 ADD SLOAD SWAP9 PUSH1 0x40 MLOAD SWAP12 PUSH2 0x160 SWAP3 DUP14 MSTORE PUSH1 0x20 DUP14 ADD MSTORE PUSH1 0x40 DUP13 ADD MSTORE DUP1 PUSH1 0x60 DUP13 ADD MSTORE DUP11 ADD SWAP1 PUSH2 0x253C JUMP JUMPDEST SWAP4 PUSH1 0x6 DUP7 LT ISZERO PUSH2 0x75B JUMPI DUP9 SWAP8 PUSH2 0xBAC SWAP7 PUSH1 0x80 DUP11 ADD MSTORE PUSH1 0xA0 DUP10 ADD MSTORE PUSH1 0xC0 DUP9 ADD MSTORE PUSH1 0xE0 DUP8 ADD MSTORE PUSH2 0x100 DUP7 ADD MSTORE DUP5 DUP3 SUB PUSH2 0x120 DUP7 ADD MSTORE PUSH2 0x253C JUMP JUMPDEST SWAP1 PUSH2 0x140 DUP4 ADD MSTORE SUB SWAP1 RETURN JUMPDEST CALLVALUE PUSH2 0x28C JUMPI PUSH1 0xA0 CALLDATASIZE PUSH1 0x3 NOT ADD SLT PUSH2 0x28C JUMPI PUSH1 0x1 PUSH1 0x1 PUSH1 0x40 SHL SUB PUSH1 0x4 CALLDATALOAD DUP2 DUP2 GT PUSH2 0x28C JUMPI PUSH2 0xBE8 SWAP1 CALLDATASIZE SWAP1 PUSH1 0x4 ADD PUSH2 0x25B1 JUMP JUMPDEST PUSH1 0x24 CALLDATALOAD DUP3 DUP2 GT PUSH2 0x28C JUMPI PUSH2 0xC00 SWAP1 CALLDATASIZE SWAP1 PUSH1 0x4 ADD PUSH2 0x25B1 JUMP JUMPDEST PUSH1 0x44 CALLDATALOAD DUP4 DUP2 GT PUSH2 0x28C JUMPI PUSH2 0xC18 SWAP1 CALLDATASIZE SWAP1 PUSH1 0x4 ADD PUSH2 0x25B1 JUMP JUMPDEST SWAP3 PUSH1 0x64 CALLDATALOAD DUP2 DUP2 GT PUSH2 0x28C JUMPI PUSH2 0xC31 SWAP1 CALLDATASIZE SWAP1 PUSH1 0x4 ADD PUSH2 0x25B1 JUMP JUMPDEST SWAP1 PUSH1 0x84 CALLDATALOAD SWAP1 DUP2 GT PUSH2 0x28C JUMPI PUSH2 0xC4A SWAP1 CALLDATASIZE SWAP1 PUSH1 0x4 ADD PUSH2 0x25E6 JUMP JUMPDEST SWAP1 PUSH2 0xC53 PUSH2 0x2B1E JUMP JUMPDEST CALLER PUSH1 0x0 MSTORE PUSH1 0x20 SWAP5 PUSH1 0x8 DUP7 MSTORE PUSH1 0x40 PUSH1 0x0 KECCAK256 SLOAD PUSH2 0xDD5 JUMPI SWAP4 SWAP3 PUSH2 0xC79 DUP5 SWAP4 SWAP3 SWAP4 MLOAD ISZERO ISZERO PUSH2 0x2A8C JUMP JUMPDEST PUSH2 0xD01 PUSH1 0x1 SWAP4 PUSH2 0xCED PUSH1 0x1 PUSH1 0x4 SLOAD ADD SWAP8 DUP9 PUSH1 0x4 SSTORE DUP9 PUSH1 0x0 MSTORE PUSH2 0xCD9 PUSH1 0x7 SWAP6 DUP7 DUP13 MSTORE PUSH2 0xCC5 DUP11 PUSH1 0x2 DUP14 PUSH1 0x40 PUSH1 0x0 KECCAK256 SWAP1 DUP2 SSTORE PUSH1 0x1 DUP2 ADD CALLER PUSH1 0x1 PUSH1 0x1 PUSH1 0x60 SHL SUB PUSH1 0xA0 SHL DUP3 SLOAD AND OR SWAP1 SSTORE ADD PUSH2 0x283F JUMP JUMPDEST DUP11 PUSH1 0x0 MSTORE DUP7 DUP13 MSTORE PUSH1 0x3 PUSH1 0x40 PUSH1 0x0 KECCAK256 ADD PUSH2 0x283F JUMP JUMPDEST DUP9 PUSH1 0x0 MSTORE DUP5 DUP11 MSTORE PUSH1 0x4 PUSH1 0x40 PUSH1 0x0 KECCAK256 ADD PUSH2 0x283F JUMP JUMPDEST DUP7 PUSH1 0x0 MSTORE DUP3 DUP9 MSTORE PUSH1 0x5 PUSH1 0x40 PUSH1 0x0 KECCAK256 ADD PUSH2 0x283F JUMP JUMPDEST PUSH1 0x0 DUP6 DUP2 MSTORE DUP2 DUP8 MSTORE PUSH1 0x40 DUP2 KECCAK256 PUSH1 0x64 PUSH1 0x6 DUP3 ADD SSTORE PUSH1 0x9 ADD DUP1 SLOAD PUSH2 0xFF00 NOT AND PUSH2 0x100 OR SWAP1 SSTORE DUP4 JUMPDEST PUSH2 0xD74 JUMPI JUMPDEST DUP7 DUP7 PUSH32 0xB942B64496751623FE8E67D13435346A352981DDB97189053829C967CC046DF9 PUSH2 0x9CF DUP9 CALLER PUSH1 0x0 MSTORE PUSH1 0x8 DUP6 MSTORE DUP4 PUSH1 0x40 PUSH1 0x0 KECCAK256 SSTORE PUSH1 0x40 MLOAD SWAP2 DUP3 SWAP2 DUP7 DUP4 MSTORE CALLER SWAP7 DUP4 ADD SWAP1 PUSH2 0x253C JUMP JUMPDEST DUP3 MLOAD DUP2 LT ISZERO PUSH2 0xDD0 JUMPI SWAP1 DUP4 DUP1 SWAP4 SWAP3 DUP8 PUSH1 0x0 MSTORE DUP3 DUP10 MSTORE PUSH2 0xDB4 DUP10 PUSH1 0xA PUSH1 0x40 PUSH1 0x0 KECCAK256 ADD PUSH2 0xD9F DUP5 DUP9 PUSH2 0x2951 JUMP JUMPDEST MLOAD SWAP1 DUP3 PUSH1 0x40 MLOAD SWAP5 DUP4 DUP7 DUP1 SWAP6 MLOAD SWAP4 DUP5 SWAP3 ADD PUSH2 0x2519 JUMP JUMPDEST DUP3 ADD SWAP1 DUP2 MSTORE SUB ADD SWAP1 KECCAK256 DUP3 PUSH1 0xFF NOT DUP3 SLOAD AND OR SWAP1 SSTORE ADD SWAP1 SWAP2 SWAP3 PUSH2 0xD26 JUMP JUMPDEST PUSH2 0xD2B JUMP JUMPDEST PUSH1 0x40 MLOAD PUSH3 0x461BCD PUSH1 0xE5 SHL DUP2 MSTORE PUSH1 0x4 DUP2 ADD DUP8 SWAP1 MSTORE PUSH1 0x1A PUSH1 0x24 DUP3 ADD MSTORE PUSH32 0x436F6D70616E7920616C72656164792072656769737465726564000000000000 PUSH1 0x44 DUP3 ADD MSTORE PUSH1 0x64 SWAP1 REVERT JUMPDEST CALLVALUE PUSH2 0x28C JUMPI PUSH1 0x20 DUP1 PUSH1 0x3 NOT CALLDATASIZE ADD SLT PUSH2 0x28C JUMPI PUSH1 0x4 CALLDATALOAD PUSH1 0x0 MSTORE PUSH1 0x9 DUP2 MSTORE PUSH1 0x40 PUSH1 0x0 KECCAK256 PUSH1 0x7 PUSH1 0x8 DUP3 ADD SWAP2 ADD DUP2 SLOAD PUSH2 0xE4E DUP2 PUSH2 0x25CF JUMP JUMPDEST SWAP3 PUSH2 0xE5C PUSH1 0x40 MLOAD SWAP5 DUP6 PUSH2 0x2453 JUMP JUMPDEST DUP2 DUP5 MSTORE PUSH1 0x0 SWAP1 DUP2 MSTORE DUP5 DUP2 KECCAK256 DUP6 DUP1 DUP7 ADD JUMPDEST DUP5 DUP5 LT PUSH2 0xEE1 JUMPI POP PUSH1 0x40 MLOAD DUP6 SLOAD DUP1 DUP3 MSTORE PUSH1 0x0 DUP8 DUP2 MSTORE DUP4 DUP2 KECCAK256 DUP10 SWAP4 SWAP3 DUP6 DUP5 ADD SWAP3 JUMPDEST DUP2 DUP2 LT PUSH2 0xECD JUMPI PUSH2 0xEBC DUP7 PUSH2 0xEC9 DUP10 DUP9 PUSH2 0xEA8 DUP2 DUP11 SUB DUP3 PUSH2 0x2453 JUMP JUMPDEST PUSH1 0x40 MLOAD SWAP5 DUP6 SWAP5 PUSH1 0x40 DUP7 MSTORE PUSH1 0x40 DUP7 ADD SWAP1 PUSH2 0x26F9 JUMP JUMPDEST SWAP2 DUP5 DUP4 SUB SWAP1 DUP6 ADD MSTORE PUSH2 0x26C5 JUMP JUMPDEST SUB SWAP1 RETURN JUMPDEST DUP3 SLOAD DUP5 MSTORE SWAP3 DUP7 ADD SWAP3 PUSH1 0x1 SWAP3 DUP4 ADD SWAP3 ADD PUSH2 0xE8C JUMP JUMPDEST PUSH1 0x1 SWAP2 DUP3 SWAP2 PUSH2 0xEEF DUP6 PUSH2 0x2474 JUMP JUMPDEST DUP2 MSTORE ADD SWAP3 ADD SWAP3 ADD SWAP2 SWAP1 DUP7 SWAP1 PUSH2 0xE6C JUMP JUMPDEST CALLVALUE PUSH2 0x28C JUMPI PUSH1 0x20 CALLDATASIZE PUSH1 0x3 NOT ADD SLT PUSH2 0x28C JUMPI PUSH1 0x4 CALLDATALOAD DUP1 ISZERO ISZERO DUP1 PUSH2 0x101E JUMPI JUMPDEST PUSH2 0xF25 SWAP1 PUSH2 0x2A0B JUMP JUMPDEST PUSH2 0xF2D PUSH2 0x2B1E JUMP JUMPDEST DUP1 PUSH1 0x0 MSTORE PUSH1 0xC PUSH1 0x20 MSTORE PUSH1 0x40 PUSH1 0x0 KECCAK256 PUSH1 0x1 DUP2 ADD DUP1 SLOAD PUSH1 0x0 MSTORE PUSH1 0xB PUSH1 0x20 MSTORE PUSH1 0x40 PUSH1 0x0 KECCAK256 SWAP1 CALLER PUSH1 0x0 MSTORE PUSH1 0x8 PUSH1 0x20 MSTORE PUSH2 0xF6C PUSH1 0x40 PUSH1 0x0 KECCAK256 SLOAD PUSH1 0x1 DUP5 ADD SLOAD EQ PUSH2 0x2A50 JUMP JUMPDEST PUSH1 0x6 DUP4 ADD SWAP2 DUP3 SLOAD SWAP1 PUSH1 0xFF DUP3 AND PUSH1 0x6 DUP2 LT ISZERO PUSH2 0x75B JUMPI DUP1 ISZERO SWAP1 DUP2 ISZERO PUSH2 0x1013 JUMPI JUMPDEST POP ISZERO PUSH2 0xFDD JUMPI PUSH1 0x9 PUSH1 0x2 SWAP5 SWAP2 DUP6 SWAP3 PUSH1 0x4 PUSH1 0xFF NOT DUP1 SWAP7 AND OR SWAP1 SSTORE TIMESTAMP DUP3 DUP9 ADD SSTORE ADD SWAP2 DUP3 SLOAD AND OR SWAP1 SSTORE SLOAD SWAP2 ADD SLOAD SWAP2 PUSH32 0xBDEE521FD0BFAB4A5C29077BEB3BFE150D407440BFD5C5ADE74B3FC45CACEE49 PUSH1 0x0 DUP1 LOG4 STOP JUMPDEST PUSH1 0x40 MLOAD PUSH3 0x461BCD PUSH1 0xE5 SHL DUP2 MSTORE PUSH1 0x20 PUSH1 0x4 DUP3 ADD MSTORE PUSH1 0xE PUSH1 0x24 DUP3 ADD MSTORE PUSH14 0x496E76616C696420737461747573 PUSH1 0x90 SHL PUSH1 0x44 DUP3 ADD MSTORE PUSH1 0x64 SWAP1 REVERT JUMPDEST PUSH1 0x1 SWAP2 POP EQ DUP8 PUSH2 0xF8B JUMP JUMPDEST POP PUSH1 0x3 SLOAD DUP2 GT ISZERO PUSH2 0xF1C JUMP JUMPDEST CALLVALUE PUSH2 0x28C JUMPI PUSH1 0x20 CALLDATASIZE PUSH1 0x3 NOT ADD SLT PUSH2 0x28C JUMPI PUSH1 0x4 CALLDATALOAD PUSH1 0x1 PUSH1 0x1 PUSH1 0xA0 SHL SUB DUP2 AND SWAP1 DUP2 SWAP1 SUB PUSH2 0x28C JUMPI PUSH1 0x0 MSTORE PUSH1 0xA PUSH1 0x20 MSTORE PUSH1 0x20 PUSH1 0x40 PUSH1 0x0 KECCAK256 SLOAD PUSH1 0x40 MLOAD SWAP1 DUP2 MSTORE RETURN JUMPDEST CALLVALUE PUSH2 0x28C JUMPI PUSH1 0x40 CALLDATASIZE PUSH1 0x3 NOT ADD SLT PUSH2 0x28C JUMPI PUSH1 0x4 CALLDATALOAD PUSH1 0x0 MSTORE PUSH1 0xF PUSH1 0x20 MSTORE PUSH1 0x40 PUSH1 0x0 KECCAK256 PUSH1 0x24 CALLDATALOAD PUSH1 0x0 MSTORE PUSH1 0x20 MSTORE PUSH1 0x20 PUSH1 0xFF PUSH1 0x40 PUSH1 0x0 KECCAK256 SLOAD AND PUSH1 0x40 MLOAD SWAP1 ISZERO ISZERO DUP2 MSTORE RETURN JUMPDEST CALLVALUE PUSH2 0x28C JUMPI PUSH1 0x20 CALLDATASIZE PUSH1 0x3 NOT ADD SLT PUSH2 0x28C JUMPI PUSH2 0xEC9 PUSH1 0x40 MLOAD PUSH2 0x10C7 DUP2 PUSH2 0x2438 JUMP JUMPDEST PUSH1 0x0 DUP2 MSTORE PUSH1 0x40 MLOAD SWAP2 DUP3 SWAP2 PUSH1 0x20 DUP4 MSTORE PUSH1 0x20 DUP4 ADD SWAP1 PUSH2 0x26F9 JUMP JUMPDEST CALLVALUE PUSH2 0x28C JUMPI PUSH1 0x0 CALLDATASIZE PUSH1 0x3 NOT ADD SLT PUSH2 0x28C JUMPI PUSH1 0x1 SLOAD PUSH1 0x40 MLOAD PUSH1 0x8 SWAP2 SWAP1 SWAP2 SHR PUSH1 0x1 PUSH1 0x1 PUSH1 0xA0 SHL SUB AND DUP2 MSTORE PUSH1 0x20 SWAP1 RETURN JUMPDEST CALLVALUE PUSH2 0x28C JUMPI PUSH1 0x20 CALLDATASIZE PUSH1 0x3 NOT ADD SLT PUSH2 0x28C JUMPI PUSH1 0x4 CALLDATALOAD PUSH1 0x1 PUSH1 0x1 PUSH1 0xA0 SHL SUB DUP2 AND SWAP1 DUP2 SWAP1 SUB PUSH2 0x28C JUMPI PUSH2 0x113A PUSH2 0x2B62 JUMP JUMPDEST PUSH1 0x0 SWAP1 DUP2 MSTORE PUSH1 0xE PUSH1 0x20 MSTORE PUSH1 0x40 SWAP1 KECCAK256 DUP1 SLOAD PUSH1 0xFF NOT AND PUSH1 0x1 OR SWAP1 SSTORE STOP JUMPDEST CALLVALUE PUSH2 0x28C JUMPI PUSH1 0x0 CALLDATASIZE PUSH1 0x3 NOT ADD SLT PUSH2 0x28C JUMPI PUSH2 0x116E PUSH2 0x2B62 JUMP JUMPDEST PUSH2 0x1176 PUSH2 0x2B1E JUMP JUMPDEST PUSH1 0x1 PUSH1 0xFF NOT DUP2 SLOAD AND OR PUSH1 0x1 SSTORE PUSH32 0x62E78CEA01BEE320CD4E420270B5EA74000D11B0C9F74754EBDBFC544B05A258 PUSH1 0x20 PUSH1 0x40 MLOAD CALLER DUP2 MSTORE LOG1 STOP JUMPDEST CALLVALUE PUSH2 0x28C JUMPI PUSH1 0x20 CALLDATASIZE PUSH1 0x3 NOT ADD SLT PUSH2 0x28C JUMPI PUSH1 0x4 CALLDATALOAD PUSH1 0x1 PUSH1 0x1 PUSH1 0xA0 SHL SUB DUP2 AND SWAP1 DUP2 SWAP1 SUB PUSH2 0x28C JUMPI PUSH2 0x11DC PUSH2 0x2B62 JUMP JUMPDEST PUSH1 0x0 SWAP1 DUP2 MSTORE PUSH1 0xE PUSH1 0x20 MSTORE PUSH1 0x40 SWAP1 KECCAK256 DUP1 SLOAD PUSH1 0xFF NOT AND SWAP1 SSTORE STOP JUMPDEST CALLVALUE PUSH2 0x28C JUMPI PUSH1 0x20 DUP1 PUSH1 0x3 NOT CALLDATASIZE ADD SLT PUSH2 0x28C JUMPI PUSH1 0x4 CALLDATALOAD SWAP1 PUSH2 0x1212 PUSH2 0x2AC8 JUMP JUMPDEST PUSH2 0x121A PUSH2 0x2B1E JUMP JUMPDEST CALLER PUSH1 0x0 MSTORE PUSH1 0x8 DUP2 MSTORE PUSH1 0x40 PUSH1 0x0 KECCAK256 SLOAD SWAP2 PUSH2 0x1234 DUP4 ISZERO ISZERO PUSH2 0x2756 JUMP JUMPDEST PUSH9 0x3635C9ADC5DEA00000 DUP2 LT PUSH2 0x1380 JUMPI PUSH10 0x152D02C7E14AF6800000 DUP2 GT PUSH2 0x1343 JUMPI PUSH1 0x6 SLOAD PUSH1 0x40 MLOAD PUSH4 0x23B872DD PUSH1 0xE0 SHL DUP2 MSTORE CALLER PUSH1 0x4 DUP3 ADD MSTORE ADDRESS PUSH1 0x24 DUP3 ADD MSTORE PUSH1 0x44 DUP2 ADD DUP4 SWAP1 MSTORE SWAP3 SWAP2 SWAP1 DUP3 SWAP1 DUP5 SWAP1 PUSH1 0x64 SWAP1 DUP3 SWAP1 PUSH1 0x0 SWAP1 PUSH1 0x1 PUSH1 0x1 PUSH1 0xA0 SHL SUB AND GAS CALL SWAP3 DUP4 ISZERO PUSH2 0x1337 JUMPI PUSH32 0xCCB52A6D64DE372476805D81D080C6F8D4D1BC9A7461111B98CB525022963598 SWAP4 PUSH2 0x12CD SWAP2 PUSH1 0x0 SWAP2 PUSH2 0x130A JUMPI JUMPDEST POP PUSH2 0x2801 JUMP JUMPDEST DUP4 PUSH1 0x0 MSTORE PUSH1 0x7 DUP3 MSTORE PUSH1 0x7 PUSH1 0x40 PUSH1 0x0 KECCAK256 ADD PUSH2 0x12E8 DUP3 DUP3 SLOAD PUSH2 0x27DC JUMP JUMPDEST SWAP1 SSTORE DUP4 PUSH1 0x0 MSTORE PUSH1 0x7 DUP3 MSTORE TIMESTAMP PUSH1 0x8 PUSH1 0x40 PUSH1 0x0 KECCAK256 ADD SSTORE PUSH1 0x40 MLOAD SWAP1 DUP2 MSTORE LOG2 PUSH1 0x1 PUSH1 0x0 SSTORE STOP JUMPDEST PUSH2 0x132A SWAP2 POP DUP5 RETURNDATASIZE DUP7 GT PUSH2 0x1330 JUMPI JUMPDEST PUSH2 0x1322 DUP2 DUP4 PUSH2 0x2453 JUMP JUMPDEST DUP2 ADD SWAP1 PUSH2 0x27E9 JUMP JUMPDEST DUP7 PUSH2 0x12C7 JUMP JUMPDEST POP RETURNDATASIZE PUSH2 0x1318 JUMP JUMPDEST PUSH1 0x40 MLOAD RETURNDATASIZE PUSH1 0x0 DUP3 RETURNDATACOPY RETURNDATASIZE SWAP1 REVERT JUMPDEST PUSH1 0x40 MLOAD PUSH3 0x461BCD PUSH1 0xE5 SHL DUP2 MSTORE PUSH1 0x4 DUP2 ADD DUP4 SWAP1 MSTORE PUSH1 0x15 PUSH1 0x24 DUP3 ADD MSTORE PUSH21 0xA6E8C2D6CA40C2DADEEADCE840E8DEDE40D0D2CED PUSH1 0x5B SHL PUSH1 0x44 DUP3 ADD MSTORE PUSH1 0x64 SWAP1 REVERT JUMPDEST PUSH1 0x40 MLOAD PUSH3 0x461BCD PUSH1 0xE5 SHL DUP2 MSTORE PUSH1 0x4 DUP2 ADD DUP4 SWAP1 MSTORE PUSH1 0x14 PUSH1 0x24 DUP3 ADD MSTORE PUSH20 0x5374616B6520616D6F756E7420746F6F206C6F77 PUSH1 0x60 SHL PUSH1 0x44 DUP3 ADD MSTORE PUSH1 0x64 SWAP1 REVERT JUMPDEST CALLVALUE PUSH2 0x28C JUMPI PUSH1 0x20 CALLDATASIZE PUSH1 0x3 NOT ADD SLT PUSH2 0x28C JUMPI PUSH2 0xEC9 PUSH1 0x40 MLOAD PUSH2 0x13DC DUP2 PUSH2 0x2438 JUMP JUMPDEST PUSH1 0x0 DUP2 MSTORE PUSH1 0x40 MLOAD SWAP2 DUP3 SWAP2 PUSH1 0x20 DUP4 MSTORE PUSH1 0x20 DUP4 ADD SWAP1 PUSH2 0x26C5 JUMP JUMPDEST CALLVALUE PUSH2 0x28C JUMPI PUSH1 0x0 CALLDATASIZE PUSH1 0x3 NOT ADD SLT PUSH2 0x28C JUMPI PUSH1 0x6 SLOAD PUSH1 0x40 MLOAD PUSH1 0x1 PUSH1 0x1 PUSH1 0xA0 SHL SUB SWAP1 SWAP2 AND DUP2 MSTORE PUSH1 0x20 SWAP1 RETURN JUMPDEST CALLVALUE PUSH2 0x28C JUMPI PUSH1 0x60 CALLDATASIZE PUSH1 0x3 NOT ADD SLT PUSH2 0x28C JUMPI PUSH1 0x4 CALLDATALOAD PUSH1 0x24 DUP1 CALLDATALOAD SWAP1 PUSH1 0x44 CALLDATALOAD PUSH1 0x1 PUSH1 0x1 PUSH1 0x40 SHL SUB DUP2 GT PUSH2 0x28C JUMPI PUSH2 0x1455 SWAP1 CALLDATASIZE SWAP1 PUSH1 0x4 ADD PUSH2 0x25B1 JUMP JUMPDEST SWAP1 DUP4 ISZERO ISZERO DUP1 PUSH2 0x1691 JUMPI JUMPDEST PUSH2 0x1468 SWAP1 PUSH2 0x2A0B JUMP JUMPDEST PUSH2 0x1470 PUSH2 0x2B1E JUMP JUMPDEST DUP4 PUSH1 0x0 MSTORE PUSH1 0x20 SWAP3 PUSH1 0xC DUP5 MSTORE PUSH1 0x40 PUSH1 0x0 KECCAK256 SWAP5 PUSH1 0x1 DUP7 ADD DUP1 SLOAD PUSH1 0x0 MSTORE PUSH1 0xB DUP7 MSTORE PUSH1 0x40 PUSH1 0x0 KECCAK256 SWAP7 CALLER PUSH1 0x0 MSTORE PUSH1 0x8 DUP8 MSTORE PUSH2 0x14B1 PUSH1 0x1 PUSH1 0x40 PUSH1 0x0 KECCAK256 SLOAD SWAP10 ADD SLOAD DUP10 EQ PUSH2 0x2A50 JUMP JUMPDEST PUSH1 0x6 SWAP6 DUP7 DUP3 ADD DUP1 SLOAD PUSH1 0xFF DUP2 AND DUP10 DUP2 LT ISZERO PUSH2 0x167C JUMPI PUSH1 0x4 SUB PUSH2 0x164C JUMPI PUSH1 0x1 DUP8 LT ISZERO DUP1 PUSH2 0x1641 JUMPI JUMPDEST ISZERO PUSH2 0x160C JUMPI PUSH1 0xFF NOT AND PUSH1 0x5 OR SWAP1 SSTORE TIMESTAMP PUSH1 0xA DUP4 ADD SSTORE PUSH1 0xC DUP3 ADD DUP6 SWAP1 SSTORE PUSH1 0x2 SWAP2 SWAP1 PUSH2 0x1503 SWAP1 PUSH1 0xB DUP4 ADD PUSH2 0x283F JUMP JUMPDEST ADD SLOAD SWAP4 PUSH1 0x14 DUP5 MUL DUP5 DUP2 DIV PUSH1 0x14 EQ DUP6 ISZERO OR ISZERO PUSH2 0x15F7 JUMPI DUP6 PUSH1 0x0 MSTORE PUSH1 0x9 DUP9 MSTORE PUSH2 0x1532 DUP8 PUSH1 0x40 PUSH1 0x0 KECCAK256 ADD SWAP2 DUP3 SLOAD PUSH2 0x27DC JUMP JUMPDEST SWAP1 SSTORE DUP8 PUSH1 0x0 MSTORE PUSH1 0x7 DUP8 MSTORE DUP6 PUSH1 0x40 PUSH1 0x0 KECCAK256 ADD DUP1 SLOAD SWAP2 PUSH1 0xA DUP4 ADD DUP1 SWAP4 GT PUSH2 0x15E3 JUMPI POP SWAP3 PUSH32 0x7C5D69214198831F9C6FBB4FA6A2BD35BC8FCA92609004E229858ADFD271F6FD DUP9 PUSH1 0x40 SWAP10 SWAP8 SWAP5 PUSH1 0x1 SWAP8 SWAP5 DUP12 SWAP11 SWAP8 SSTORE SLOAD SWAP4 DUP10 MLOAD SWAP1 DUP2 MSTORE LOG3 DUP1 PUSH1 0x0 MSTORE PUSH1 0x9 DUP5 MSTORE DUP2 DUP6 PUSH1 0x0 KECCAK256 ADD SLOAD DUP6 MLOAD SWAP1 DUP2 MSTORE PUSH1 0x0 DUP6 DUP3 ADD MSTORE PUSH32 0xBF679DFC0D830B347BBA472268A897A845DDDA5E39264B61AA9AD0FCA7EC0388 SWAP7 DUP8 SWAP2 LOG2 DUP6 PUSH1 0x0 MSTORE PUSH1 0x7 DUP4 MSTORE DUP4 PUSH1 0x0 KECCAK256 ADD SLOAD SWAP2 DUP4 MLOAD SWAP3 DUP4 MSTORE DUP3 ADD MSTORE LOG2 STOP JUMPDEST PUSH4 0x4E487B71 PUSH1 0xE0 SHL PUSH1 0x0 SWAP1 DUP2 MSTORE PUSH1 0x11 PUSH1 0x4 MSTORE REVERT JUMPDEST POP PUSH4 0x4E487B71 PUSH1 0xE0 SHL PUSH1 0x0 SWAP1 DUP2 MSTORE PUSH1 0x11 PUSH1 0x4 MSTORE REVERT JUMPDEST PUSH1 0x40 MLOAD PUSH3 0x461BCD PUSH1 0xE5 SHL DUP2 MSTORE PUSH1 0x4 DUP2 ADD DUP12 SWAP1 MSTORE PUSH1 0xE DUP2 DUP11 ADD MSTORE PUSH14 0x496E76616C696420726174696E67 PUSH1 0x90 SHL PUSH1 0x44 DUP3 ADD MSTORE PUSH1 0x64 SWAP1 REVERT JUMPDEST POP PUSH1 0x5 DUP8 GT ISZERO PUSH2 0x14D7 JUMP JUMPDEST PUSH1 0x40 MLOAD PUSH3 0x461BCD PUSH1 0xE5 SHL DUP2 MSTORE PUSH1 0x4 DUP2 ADD DUP12 SWAP1 MSTORE PUSH1 0x9 DUP2 DUP11 ADD MSTORE PUSH9 0x139BDD081A1A5C9959 PUSH1 0xBA SHL PUSH1 0x44 DUP3 ADD MSTORE PUSH1 0x64 SWAP1 REVERT JUMPDEST DUP9 PUSH4 0x4E487B71 PUSH1 0xE0 SHL PUSH1 0x0 MSTORE PUSH1 0x21 PUSH1 0x4 MSTORE PUSH1 0x0 REVERT JUMPDEST POP PUSH1 0x3 SLOAD DUP5 GT ISZERO PUSH2 0x145F JUMP JUMPDEST CALLVALUE PUSH2 0x28C JUMPI PUSH2 0x120 CALLDATASIZE PUSH1 0x3 NOT ADD SLT PUSH2 0x28C JUMPI PUSH1 0x1 PUSH1 0x1 PUSH1 0x40 SHL SUB PUSH1 0x4 CALLDATALOAD DUP2 DUP2 GT PUSH2 0x28C JUMPI PUSH2 0x16CF SWAP1 CALLDATASIZE SWAP1 PUSH1 0x4 ADD PUSH2 0x25B1 JUMP JUMPDEST PUSH1 0x24 CALLDATALOAD DUP3 DUP2 GT PUSH2 0x28C JUMPI PUSH2 0x16E7 SWAP1 CALLDATASIZE SWAP1 PUSH1 0x4 ADD PUSH2 0x25B1 JUMP JUMPDEST PUSH1 0x44 CALLDATALOAD DUP4 DUP2 GT PUSH2 0x28C JUMPI PUSH2 0x16FF SWAP1 CALLDATASIZE SWAP1 PUSH1 0x4 ADD PUSH2 0x25E6 JUMP JUMPDEST SWAP3 PUSH1 0x64 CALLDATALOAD SWAP1 DUP2 GT PUSH2 0x28C JUMPI PUSH2 0x1718 SWAP1 CALLDATASIZE SWAP1 PUSH1 0x4 ADD PUSH2 0x2665 JUMP JUMPDEST SWAP3 PUSH1 0x5 PUSH1 0xE4 CALLDATALOAD LT ISZERO PUSH2 0x28C JUMPI PUSH2 0x172C PUSH2 0x2B1E JUMP JUMPDEST CALLER PUSH1 0x0 MSTORE PUSH1 0x8 PUSH1 0x20 MSTORE PUSH1 0x40 PUSH1 0x0 KECCAK256 SLOAD SWAP1 PUSH2 0x1747 DUP3 ISZERO ISZERO PUSH2 0x2756 JUMP JUMPDEST DUP2 PUSH1 0x0 MSTORE PUSH1 0x7 PUSH1 0x20 MSTORE PUSH2 0x176D PUSH9 0x3635C9ADC5DEA00000 PUSH1 0x7 PUSH1 0x40 PUSH1 0x0 KECCAK256 ADD SLOAD LT ISZERO PUSH2 0x279B JUMP JUMPDEST DUP1 MLOAD DUP6 MLOAD SUB PUSH2 0x1942 JUMPI TIMESTAMP PUSH1 0xC4 CALLDATALOAD GT ISZERO PUSH2 0x190A JUMPI PUSH2 0x104 CALLDATALOAD ISZERO PUSH2 0x18C5 JUMPI PUSH1 0x1 PUSH1 0x2 SLOAD ADD SWAP2 DUP3 PUSH1 0x2 SSTORE DUP3 PUSH1 0x0 MSTORE PUSH2 0x17D1 PUSH1 0xB SWAP5 DUP6 PUSH1 0x20 MSTORE PUSH2 0x17BC DUP8 PUSH1 0x2 PUSH1 0x40 PUSH1 0x0 KECCAK256 DUP9 DUP2 SSTORE DUP7 PUSH1 0x1 DUP3 ADD SSTORE ADD PUSH2 0x283F JUMP JUMPDEST DUP5 PUSH1 0x0 MSTORE DUP6 PUSH1 0x20 MSTORE PUSH1 0x3 PUSH1 0x40 PUSH1 0x0 KECCAK256 ADD PUSH2 0x283F JUMP JUMPDEST DUP3 PUSH1 0x0 MSTORE DUP4 PUSH1 0x20 MSTORE PUSH1 0x9 PUSH1 0x40 PUSH1 0x0 KECCAK256 PUSH1 0x84 CALLDATALOAD PUSH1 0x6 DUP3 ADD SSTORE PUSH1 0xA4 CALLDATALOAD PUSH1 0x7 DUP3 ADD SSTORE PUSH1 0xC4 CALLDATALOAD PUSH1 0x8 DUP3 ADD SSTORE ADD DUP1 SLOAD PUSH2 0x1806 PUSH1 0xE4 CALLDATALOAD PUSH2 0x2561 JUMP JUMPDEST PUSH2 0xFF00 PUSH1 0xE4 CALLDATALOAD PUSH1 0x8 SHL AND SWAP1 PUSH2 0xFFFF NOT AND OR SWAP1 SSTORE DUP3 PUSH1 0x0 MSTORE DUP4 PUSH1 0x20 MSTORE PUSH1 0x40 PUSH1 0x0 KECCAK256 PUSH2 0x104 CALLDATALOAD PUSH1 0xA DUP3 ADD SSTORE TIMESTAMP PUSH1 0xD DUP3 ADD SSTORE PUSH1 0xE TIMESTAMP SWAP2 ADD SSTORE PUSH1 0x0 JUMPDEST DUP3 MLOAD DUP2 LT ISZERO PUSH2 0x188A JUMPI PUSH1 0x1 SWAP1 DUP5 PUSH1 0x0 MSTORE DUP6 PUSH1 0x20 MSTORE PUSH2 0x1867 PUSH1 0x4 PUSH1 0x40 PUSH1 0x0 KECCAK256 ADD PUSH2 0x9FE DUP4 DUP8 PUSH2 0x2951 JUMP JUMPDEST DUP5 PUSH1 0x0 MSTORE DUP6 PUSH1 0x20 MSTORE PUSH2 0x1884 PUSH1 0x5 PUSH1 0x40 PUSH1 0x0 KECCAK256 ADD PUSH2 0x5AB DUP4 DUP12 PUSH2 0x2951 JUMP JUMPDEST ADD PUSH2 0x183E JUMP JUMPDEST POP DUP3 PUSH32 0x9E57CD9BB0401E5D88C36C462389C28112832A4401BC7C3298432F228BFA660F PUSH2 0x9CF DUP8 PUSH1 0x40 MLOAD SWAP2 DUP3 SWAP2 PUSH1 0x20 DUP4 MSTORE PUSH1 0x20 DUP4 ADD SWAP1 PUSH2 0x253C JUMP JUMPDEST PUSH1 0x40 MLOAD PUSH3 0x461BCD PUSH1 0xE5 SHL DUP2 MSTORE PUSH1 0x20 PUSH1 0x4 DUP3 ADD MSTORE PUSH1 0x1C PUSH1 0x24 DUP3 ADD MSTORE PUSH32 0x4D6178206170706C69636174696F6E73206D757374206265203E203000000000 PUSH1 0x44 DUP3 ADD MSTORE PUSH1 0x64 SWAP1 REVERT JUMPDEST PUSH1 0x40 MLOAD PUSH3 0x461BCD PUSH1 0xE5 SHL DUP2 MSTORE PUSH1 0x20 PUSH1 0x4 DUP3 ADD MSTORE PUSH1 0x10 PUSH1 0x24 DUP3 ADD MSTORE PUSH16 0x496E76616C696420646561646C696E65 PUSH1 0x80 SHL PUSH1 0x44 DUP3 ADD MSTORE PUSH1 0x64 SWAP1 REVERT JUMPDEST PUSH1 0x40 MLOAD PUSH3 0x461BCD PUSH1 0xE5 SHL DUP2 MSTORE PUSH1 0x20 PUSH1 0x4 DUP3 ADD MSTORE PUSH1 0x22 PUSH1 0x24 DUP3 ADD MSTORE PUSH32 0x536B696C6C7320616E642077656967687473206C656E677468206D69736D6174 PUSH1 0x44 DUP3 ADD MSTORE PUSH2 0xC6D PUSH1 0xF3 SHL PUSH1 0x64 DUP3 ADD MSTORE PUSH1 0x84 SWAP1 REVERT JUMPDEST CALLVALUE PUSH2 0x28C JUMPI PUSH1 0x0 CALLDATASIZE PUSH1 0x3 NOT ADD SLT PUSH2 0x28C JUMPI PUSH2 0x19AB PUSH2 0x2B62 JUMP JUMPDEST PUSH1 0x1 DUP1 SLOAD PUSH2 0x100 PUSH1 0x1 PUSH1 0xA8 SHL SUB NOT DUP2 AND SWAP1 SWAP2 SSTORE PUSH1 0x0 SWAP1 PUSH1 0x8 SHR PUSH1 0x1 PUSH1 0x1 PUSH1 0xA0 SHL SUB AND PUSH32 0x8BE0079C531659141344CD1FD0A4F28419497F9722A3DAAFE3B4186F6B6457E0 DUP3 DUP1 LOG3 STOP JUMPDEST CALLVALUE PUSH2 0x28C JUMPI PUSH1 0x0 CALLDATASIZE PUSH1 0x3 NOT ADD SLT PUSH2 0x28C JUMPI PUSH1 0x20 PUSH1 0x40 MLOAD PUSH3 0x278D00 DUP2 MSTORE RETURN JUMPDEST CALLVALUE PUSH2 0x28C JUMPI PUSH1 0x20 CALLDATASIZE PUSH1 0x3 NOT ADD SLT PUSH2 0x28C JUMPI PUSH1 0x4 CALLDATALOAD PUSH1 0x1 PUSH1 0x1 PUSH1 0xA0 SHL SUB DUP2 AND SWAP1 DUP2 SWAP1 SUB PUSH2 0x28C JUMPI PUSH1 0x0 MSTORE PUSH1 0x8 PUSH1 0x20 MSTORE PUSH1 0x20 PUSH1 0x40 PUSH1 0x0 KECCAK256 SLOAD PUSH1 0x40 MLOAD SWAP1 DUP2 MSTORE RETURN JUMPDEST CALLVALUE PUSH2 0x28C JUMPI PUSH1 0x0 CALLDATASIZE PUSH1 0x3 NOT ADD SLT PUSH2 0x28C JUMPI PUSH1 0x20 PUSH1 0xFF PUSH1 0x1 SLOAD AND PUSH1 0x40 MLOAD SWAP1 ISZERO ISZERO DUP2 MSTORE RETURN JUMPDEST CALLVALUE PUSH2 0x28C JUMPI PUSH1 0xA0 CALLDATASIZE PUSH1 0x3 NOT ADD SLT PUSH2 0x28C JUMPI PUSH1 0x24 CALLDATALOAD PUSH1 0x1 PUSH1 0x1 PUSH1 0x40 SHL SUB DUP2 GT PUSH2 0x28C JUMPI PUSH2 0x1AA2 SWAP1 CALLDATASIZE SWAP1 PUSH1 0x4 ADD PUSH2 0x25B1 JUMP JUMPDEST PUSH1 0x64 CALLDATALOAD PUSH1 0x1 PUSH1 0x1 PUSH1 0x40 SHL SUB DUP2 GT PUSH2 0x28C JUMPI PUSH2 0x1AC1 SWAP1 CALLDATASIZE SWAP1 PUSH1 0x4 ADD PUSH2 0x25B1 JUMP JUMPDEST PUSH1 0x84 CALLDATALOAD PUSH1 0x1 PUSH1 0x1 PUSH1 0x40 SHL SUB DUP2 GT PUSH2 0x28C JUMPI CALLDATASIZE PUSH1 0x23 DUP3 ADD SLT ISZERO PUSH2 0x28C JUMPI PUSH2 0x1AF1 SWAP1 CALLDATASIZE SWAP1 PUSH1 0x24 DUP2 PUSH1 0x4 ADD CALLDATALOAD SWAP2 ADD PUSH2 0x256B JUMP JUMPDEST SWAP1 CALLER PUSH1 0x0 MSTORE PUSH1 0xE PUSH1 0x20 MSTORE PUSH1 0xFF PUSH1 0x40 PUSH1 0x0 KECCAK256 SLOAD AND ISZERO PUSH2 0x1EF8 JUMPI PUSH2 0x1B11 PUSH2 0x2B1E JUMP JUMPDEST PUSH1 0x4 CALLDATALOAD ISZERO ISZERO DUP1 PUSH2 0x1EEA JUMPI JUMPDEST ISZERO PUSH2 0x1EAE JUMPI PUSH1 0x64 PUSH1 0x44 CALLDATALOAD GT PUSH2 0x1E79 JUMPI DUP3 MLOAD ISZERO PUSH2 0x1E43 JUMPI DUP1 MLOAD ISZERO PUSH2 0x1E0A JUMPI PUSH1 0x40 MLOAD PUSH1 0x4 CALLDATALOAD PUSH1 0x20 DUP3 ADD MSTORE PUSH2 0x1B8D PUSH1 0x60 DUP3 DUP7 MLOAD PUSH2 0x1B5D DUP2 PUSH1 0x40 DUP5 ADD PUSH1 0x20 DUP12 ADD PUSH2 0x2519 JUMP JUMPDEST PUSH1 0x44 CALLDATALOAD PUSH1 0x40 DUP3 DUP5 ADD ADD MSTORE DUP6 MLOAD SWAP1 PUSH2 0x1B7C DUP3 DUP6 DUP4 DUP7 ADD ADD PUSH1 0x20 DUP11 ADD PUSH2 0x2519 JUMP JUMPDEST DUP3 ADD ADD SUB PUSH1 0x40 DUP2 ADD DUP5 MSTORE ADD DUP3 PUSH2 0x2453 JUMP JUMPDEST PUSH1 0x20 DUP2 MLOAD SWAP2 ADD KECCAK256 PUSH1 0x40 MLOAD SWAP3 PUSH1 0x20 DUP5 ADD SWAP2 PUSH32 0x19457468657265756D205369676E6564204D6573736167653A0A333200000000 DUP4 MSTORE PUSH1 0x3C DUP6 ADD MSTORE PUSH1 0x3C DUP5 MSTORE PUSH1 0x60 DUP5 ADD SWAP2 DUP5 DUP4 LT PUSH1 0x1 PUSH1 0x1 PUSH1 0x40 SHL SUB DUP5 GT OR PUSH2 0x1D6C JUMPI PUSH2 0x1BFB SWAP5 PUSH2 0x1BF3 SWAP4 PUSH1 0x40 MSTORE MLOAD SWAP1 KECCAK256 PUSH2 0x2BBD JUMP JUMPDEST SWAP3 SWAP1 SWAP3 PUSH2 0x2BF5 JUMP JUMPDEST PUSH1 0x1 PUSH1 0x1 PUSH1 0xA0 SHL SUB SWAP2 CALLER SWAP1 DUP4 AND SUB PUSH2 0x1DD1 JUMPI PUSH1 0x40 MLOAD PUSH1 0x20 DUP2 ADD SWAP1 PUSH1 0x4 CALLDATALOAD DUP3 MSTORE PUSH2 0x1C4C PUSH1 0x54 DUP3 DUP8 MLOAD PUSH2 0x1C33 DUP2 PUSH1 0x40 DUP5 ADD PUSH1 0x20 DUP13 ADD PUSH2 0x2519 JUMP JUMPDEST DUP2 ADD CALLER PUSH1 0x60 SHL PUSH1 0x40 DUP3 ADD MSTORE SUB PUSH1 0x34 DUP2 ADD DUP5 MSTORE ADD DUP3 PUSH2 0x2453 JUMP JUMPDEST MLOAD SWAP1 KECCAK256 SWAP2 DUP3 PUSH1 0x0 MSTORE PUSH1 0xD PUSH1 0x20 MSTORE PUSH1 0xFF PUSH1 0x6 PUSH1 0x40 PUSH1 0x0 KECCAK256 ADD SLOAD AND PUSH2 0x1D82 JUMPI PUSH1 0x40 MLOAD SWAP1 PUSH1 0xE0 DUP3 ADD DUP3 DUP2 LT PUSH1 0x1 PUSH1 0x1 PUSH1 0x40 SHL SUB DUP3 GT OR PUSH2 0x1D6C JUMPI PUSH1 0x6 SWAP4 PUSH2 0x1D06 SWAP2 PUSH1 0x40 MSTORE CALLER DUP5 MSTORE PUSH1 0x20 DUP5 ADD PUSH1 0x4 CALLDATALOAD DUP2 MSTORE PUSH2 0x1CF6 PUSH1 0x40 DUP7 ADD DUP10 DUP2 MSTORE PUSH1 0x60 DUP8 ADD SWAP3 PUSH1 0x44 CALLDATALOAD DUP5 MSTORE PUSH1 0x80 DUP9 ADD SWAP5 DUP6 MSTORE PUSH1 0xA0 DUP9 ADD SWAP7 TIMESTAMP DUP9 MSTORE PUSH1 0xC0 DUP10 ADD SWAP11 PUSH1 0x1 DUP13 MSTORE PUSH1 0x0 MSTORE PUSH1 0xD PUSH1 0x20 MSTORE PUSH1 0x40 PUSH1 0x0 KECCAK256 SWAP9 MLOAD AND PUSH1 0x1 PUSH1 0x1 PUSH1 0x60 SHL SUB PUSH1 0xA0 SHL DUP10 SLOAD AND OR DUP9 SSTORE MLOAD PUSH1 0x1 DUP9 ADD SSTORE MLOAD PUSH1 0x2 DUP8 ADD PUSH2 0x283F JUMP JUMPDEST MLOAD PUSH1 0x3 DUP6 ADD SSTORE MLOAD PUSH1 0x4 DUP5 ADD PUSH2 0x283F JUMP JUMPDEST MLOAD PUSH1 0x5 DUP3 ADD SSTORE ADD SWAP1 MLOAD ISZERO ISZERO PUSH1 0xFF DUP1 NOT DUP4 SLOAD AND SWAP2 AND OR SWAP1 SSTORE PUSH32 0x30A23997B597468C0E83BAB15A9030B2BA260326119CF3D407AC6D7304CE8144 PUSH2 0x1D53 PUSH1 0x40 MLOAD SWAP3 PUSH1 0x60 DUP5 MSTORE PUSH1 0x60 DUP5 ADD SWAP1 PUSH2 0x253C JUMP JUMPDEST SWAP2 PUSH1 0x44 CALLDATALOAD PUSH1 0x20 DUP3 ADD MSTORE CALLER PUSH1 0x40 DUP3 ADD MSTORE DUP1 PUSH1 0x4 CALLDATALOAD SWAP4 SUB SWAP1 LOG2 STOP JUMPDEST PUSH4 0x4E487B71 PUSH1 0xE0 SHL PUSH1 0x0 MSTORE PUSH1 0x41 PUSH1 0x4 MSTORE PUSH1 0x24 PUSH1 0x0 REVERT JUMPDEST PUSH1 0x40 MLOAD PUSH3 0x461BCD PUSH1 0xE5 SHL DUP2 MSTORE PUSH1 0x20 PUSH1 0x4 DUP3 ADD MSTORE PUSH1 0x21 PUSH1 0x24 DUP3 ADD MSTORE PUSH32 0x416C726561647920766572696669656420627920746869732076657269666965 PUSH1 0x44 DUP3 ADD MSTORE PUSH1 0x39 PUSH1 0xF9 SHL PUSH1 0x64 DUP3 ADD MSTORE PUSH1 0x84 SWAP1 REVERT JUMPDEST PUSH1 0x40 MLOAD PUSH3 0x461BCD PUSH1 0xE5 SHL DUP2 MSTORE PUSH1 0x20 PUSH1 0x4 DUP3 ADD MSTORE PUSH1 0x11 PUSH1 0x24 DUP3 ADD MSTORE PUSH17 0x496E76616C6964207369676E6174757265 PUSH1 0x78 SHL PUSH1 0x44 DUP3 ADD MSTORE PUSH1 0x64 SWAP1 REVERT JUMPDEST PUSH1 0x40 MLOAD PUSH3 0x461BCD PUSH1 0xE5 SHL DUP2 MSTORE PUSH1 0x20 PUSH1 0x4 DUP3 ADD MSTORE PUSH1 0x11 PUSH1 0x24 DUP3 ADD MSTORE PUSH17 0x115D9A59195B98D9481C995C5D5A5C9959 PUSH1 0x7A SHL PUSH1 0x44 DUP3 ADD MSTORE PUSH1 0x64 SWAP1 REVERT JUMPDEST PUSH1 0x40 MLOAD PUSH3 0x461BCD PUSH1 0xE5 SHL DUP2 MSTORE PUSH1 0x20 PUSH1 0x4 DUP3 ADD MSTORE PUSH1 0xE PUSH1 0x24 DUP3 ADD MSTORE PUSH14 0x14DADA5B1B081C995C5D5A5C9959 PUSH1 0x92 SHL PUSH1 0x44 DUP3 ADD MSTORE PUSH1 0x64 SWAP1 REVERT JUMPDEST PUSH1 0x40 MLOAD PUSH3 0x461BCD PUSH1 0xE5 SHL DUP2 MSTORE PUSH1 0x20 PUSH1 0x4 DUP3 ADD MSTORE PUSH1 0xD PUSH1 0x24 DUP3 ADD MSTORE PUSH13 0x496E76616C69642073636F7265 PUSH1 0x98 SHL PUSH1 0x44 DUP3 ADD MSTORE PUSH1 0x64 SWAP1 REVERT JUMPDEST PUSH1 0x40 MLOAD PUSH3 0x461BCD PUSH1 0xE5 SHL DUP2 MSTORE PUSH1 0x20 PUSH1 0x4 DUP3 ADD MSTORE PUSH1 0x14 PUSH1 0x24 DUP3 ADD MSTORE PUSH20 0x125B9D985B1A590819195D995B1BDC195C881251 PUSH1 0x62 SHL PUSH1 0x44 DUP3 ADD MSTORE PUSH1 0x64 SWAP1 REVERT JUMPDEST POP PUSH1 0x5 SLOAD PUSH1 0x4 CALLDATALOAD GT ISZERO PUSH2 0x1B1C JUMP JUMPDEST PUSH1 0x40 MLOAD PUSH3 0x461BCD PUSH1 0xE5 SHL DUP2 MSTORE PUSH1 0x20 PUSH1 0x4 DUP3 ADD MSTORE PUSH1 0x1D PUSH1 0x24 DUP3 ADD MSTORE PUSH32 0x4E6F74206120766572696669656420736B696C6C207665726966696572000000 PUSH1 0x44 DUP3 ADD MSTORE PUSH1 0x64 SWAP1 REVERT JUMPDEST CALLVALUE PUSH2 0x28C JUMPI PUSH1 0x0 CALLDATASIZE PUSH1 0x3 NOT ADD SLT PUSH2 0x28C JUMPI PUSH1 0x20 PUSH1 0x4 SLOAD PUSH1 0x40 MLOAD SWAP1 DUP2 MSTORE RETURN JUMPDEST CALLVALUE PUSH2 0x28C JUMPI PUSH1 0x0 CALLDATASIZE PUSH1 0x3 NOT ADD SLT PUSH2 0x28C JUMPI PUSH2 0x1F74 PUSH2 0x2B62 JUMP JUMPDEST PUSH1 0x1 SLOAD PUSH1 0xFF DUP2 AND ISZERO PUSH2 0x1FB3 JUMPI PUSH1 0xFF NOT AND PUSH1 0x1 SSTORE PUSH32 0x5DB9EE0A495BF2E6FF9C91A7834C1BA4FDD244A5E8AA4E537BD38AEAE4B073AA PUSH1 0x20 PUSH1 0x40 MLOAD CALLER DUP2 MSTORE LOG1 STOP JUMPDEST PUSH1 0x40 MLOAD PUSH3 0x461BCD PUSH1 0xE5 SHL DUP2 MSTORE PUSH1 0x20 PUSH1 0x4 DUP3 ADD MSTORE PUSH1 0x14 PUSH1 0x24 DUP3 ADD MSTORE PUSH20 0x14185D5CD8589B194E881B9BDD081C185D5CD959 PUSH1 0x62 SHL PUSH1 0x44 DUP3 ADD MSTORE PUSH1 0x64 SWAP1 REVERT JUMPDEST CALLVALUE PUSH2 0x28C JUMPI PUSH1 0x20 CALLDATASIZE PUSH1 0x3 NOT ADD SLT PUSH2 0x28C JUMPI PUSH1 0x4 CALLDATALOAD PUSH1 0x1 PUSH1 0x1 PUSH1 0xA0 SHL SUB DUP2 AND SWAP1 DUP2 SWAP1 SUB PUSH2 0x28C JUMPI PUSH1 0x0 MSTORE PUSH1 0xE PUSH1 0x20 MSTORE PUSH1 0x20 PUSH1 0xFF PUSH1 0x40 PUSH1 0x0 KECCAK256 SLOAD AND PUSH1 0x40 MLOAD SWAP1 ISZERO ISZERO DUP2 MSTORE RETURN JUMPDEST CALLVALUE PUSH2 0x28C JUMPI PUSH1 0x0 CALLDATASIZE PUSH1 0x3 NOT ADD SLT PUSH2 0x28C JUMPI PUSH1 0x20 PUSH1 0x2 SLOAD PUSH1 0x40 MLOAD SWAP1 DUP2 MSTORE RETURN JUMPDEST CALLVALUE PUSH2 0x28C JUMPI PUSH1 0x0 CALLDATASIZE PUSH1 0x3 NOT ADD SLT PUSH2 0x28C JUMPI PUSH1 0x20 PUSH1 0x40 MLOAD PUSH10 0x152D02C7E14AF6800000 DUP2 MSTORE RETURN JUMPDEST CALLVALUE PUSH2 0x28C JUMPI PUSH1 0x20 CALLDATASIZE PUSH1 0x3 NOT ADD SLT PUSH2 0x28C JUMPI PUSH1 0x4 CALLDATALOAD PUSH1 0x0 MSTORE PUSH1 0x7 PUSH1 0x20 MSTORE PUSH1 0x40 PUSH1 0x0 KECCAK256 DUP1 SLOAD SWAP1 PUSH1 0x1 DUP1 PUSH1 0xA0 SHL SUB PUSH1 0x1 DUP3 ADD SLOAD AND SWAP1 PUSH1 0xFF PUSH2 0x20B5 PUSH1 0x2 DUP4 ADD PUSH2 0x2474 JUMP JUMPDEST PUSH2 0x20C1 PUSH1 0x3 DUP5 ADD PUSH2 0x2474 JUMP JUMPDEST SWAP3 PUSH2 0x20CE PUSH1 0x4 DUP3 ADD PUSH2 0x2474 JUMP JUMPDEST SWAP4 PUSH2 0x2148 PUSH2 0x20DE PUSH1 0x5 DUP5 ADD PUSH2 0x2474 JUMP JUMPDEST PUSH2 0x213A PUSH1 0x6 DUP6 ADD SLOAD SWAP8 PUSH2 0x212C PUSH1 0x7 DUP8 ADD SLOAD SWAP6 PUSH2 0x211E PUSH1 0x9 PUSH1 0x8 DUP11 ADD SLOAD SWAP10 ADD SLOAD SWAP10 PUSH1 0x40 MLOAD SWAP15 DUP16 SWAP15 DUP16 SWAP1 PUSH2 0x160 SWAP3 DUP3 MSTORE PUSH1 0x20 DUP3 ADD MSTORE DUP2 PUSH1 0x40 DUP3 ADD MSTORE ADD SWAP1 PUSH2 0x253C JUMP JUMPDEST DUP13 DUP2 SUB PUSH1 0x60 DUP15 ADD MSTORE SWAP1 PUSH2 0x253C JUMP JUMPDEST SWAP1 DUP11 DUP3 SUB PUSH1 0x80 DUP13 ADD MSTORE PUSH2 0x253C JUMP JUMPDEST SWAP1 DUP9 DUP3 SUB PUSH1 0xA0 DUP11 ADD MSTORE PUSH2 0x253C JUMP JUMPDEST SWAP5 PUSH1 0xC0 DUP8 ADD MSTORE PUSH1 0xE0 DUP7 ADD MSTORE PUSH2 0x100 DUP6 ADD MSTORE DUP2 DUP2 AND ISZERO ISZERO PUSH2 0x120 DUP6 ADD MSTORE PUSH1 0x8 SHR AND ISZERO ISZERO PUSH2 0x140 DUP4 ADD MSTORE SUB SWAP1 RETURN JUMPDEST CALLVALUE PUSH2 0x28C JUMPI PUSH1 0x0 CALLDATASIZE PUSH1 0x3 NOT ADD SLT PUSH2 0x28C JUMPI PUSH1 0x20 PUSH1 0x40 MLOAD PUSH9 0x3635C9ADC5DEA00000 DUP2 MSTORE RETURN JUMPDEST CALLVALUE PUSH2 0x28C JUMPI PUSH1 0x20 DUP1 PUSH1 0x3 NOT CALLDATASIZE ADD SLT PUSH2 0x28C JUMPI PUSH1 0x4 CALLDATALOAD PUSH2 0x21B5 PUSH2 0x2AC8 JUMP JUMPDEST PUSH2 0x21BD PUSH2 0x2B1E JUMP JUMPDEST CALLER PUSH1 0x0 MSTORE PUSH1 0x8 DUP3 MSTORE PUSH1 0x40 PUSH1 0x0 KECCAK256 SLOAD SWAP2 PUSH2 0x21D7 DUP4 ISZERO ISZERO PUSH2 0x2756 JUMP JUMPDEST DUP3 PUSH1 0x0 MSTORE PUSH1 0x7 DUP2 MSTORE PUSH2 0x21F3 DUP3 PUSH1 0x7 PUSH1 0x40 PUSH1 0x0 KECCAK256 ADD SLOAD LT ISZERO PUSH2 0x279B JUMP JUMPDEST DUP3 PUSH1 0x0 MSTORE PUSH1 0x7 DUP2 MSTORE PUSH1 0x8 PUSH1 0x40 PUSH1 0x0 KECCAK256 ADD SLOAD PUSH3 0x278D00 DUP2 ADD DUP1 SWAP2 GT PUSH2 0x65E JUMPI TIMESTAMP LT PUSH2 0x22AD JUMPI DUP3 PUSH1 0x0 MSTORE PUSH1 0x7 DUP2 MSTORE PUSH1 0x7 PUSH1 0x40 PUSH1 0x0 KECCAK256 ADD SWAP2 DUP3 SLOAD DUP2 DUP2 SUB SWAP1 DUP2 GT PUSH2 0x65E JUMPI PUSH1 0x0 SWAP4 SSTORE DUP2 PUSH1 0x1 DUP1 PUSH1 0xA0 SHL SUB PUSH1 0x6 SLOAD AND PUSH1 0x44 PUSH1 0x40 MLOAD DUP1 SWAP7 DUP2 SWAP4 PUSH4 0xA9059CBB PUSH1 0xE0 SHL DUP4 MSTORE CALLER PUSH1 0x4 DUP5 ADD MSTORE DUP7 PUSH1 0x24 DUP5 ADD MSTORE GAS CALL SWAP3 DUP4 ISZERO PUSH2 0x1337 JUMPI PUSH32 0x3DB0CA701D7C1106534C6003E5D65DAE65A9CB891AD5BBB9BE39C091DF79D87E SWAP4 PUSH2 0x229F SWAP2 PUSH1 0x0 SWAP2 PUSH2 0x130A JUMPI POP PUSH2 0x2801 JUMP JUMPDEST PUSH1 0x40 MLOAD SWAP1 DUP2 MSTORE LOG2 PUSH1 0x1 PUSH1 0x0 SSTORE STOP JUMPDEST PUSH1 0x64 SWAP1 PUSH1 0x40 MLOAD SWAP1 PUSH3 0x461BCD PUSH1 0xE5 SHL DUP3 MSTORE PUSH1 0x4 DUP3 ADD MSTORE PUSH1 0x11 PUSH1 0x24 DUP3 ADD MSTORE PUSH17 0x14DD185AD9481B9BDD081B585D1D5C9959 PUSH1 0x7A SHL PUSH1 0x44 DUP3 ADD MSTORE REVERT JUMPDEST CALLVALUE PUSH2 0x28C JUMPI PUSH1 0x20 CALLDATASIZE PUSH1 0x3 NOT ADD SLT PUSH2 0x28C JUMPI PUSH1 0x4 CALLDATALOAD PUSH1 0x0 MSTORE PUSH1 0xB PUSH1 0x20 MSTORE PUSH1 0x40 PUSH1 0x0 KECCAK256 DUP1 SLOAD SWAP1 PUSH1 0x1 DUP2 ADD SLOAD SWAP2 PUSH2 0x231B PUSH1 0x2 DUP4 ADD PUSH2 0x2474 JUMP JUMPDEST SWAP1 PUSH2 0x2328 PUSH1 0x3 DUP5 ADD PUSH2 0x2474 JUMP JUMPDEST SWAP3 PUSH1 0x6 DUP2 ADD SLOAD SWAP3 PUSH1 0x7 DUP3 ADD SLOAD SWAP5 PUSH1 0x8 DUP4 ADD SLOAD SWAP6 PUSH1 0x9 DUP5 ADD SLOAD SWAP7 PUSH1 0xA DUP6 ADD SLOAD SWAP2 PUSH2 0x2382 PUSH1 0xB DUP8 ADD SLOAD SWAP5 PUSH2 0x211E PUSH1 0xC DUP10 ADD SLOAD SWAP8 PUSH1 0xE PUSH1 0xD DUP12 ADD SLOAD SWAP11 ADD SLOAD SWAP11 PUSH1 0x40 MLOAD SWAP15 DUP16 SWAP1 PUSH2 0x1C0 SWAP3 DUP3 MSTORE PUSH1 0x20 DUP3 ADD MSTORE DUP2 PUSH1 0x40 DUP3 ADD MSTORE ADD SWAP1 PUSH2 0x253C JUMP JUMPDEST SWAP8 PUSH1 0x80 DUP12 ADD MSTORE PUSH1 0xA0 DUP11 ADD MSTORE PUSH1 0xC0 DUP10 ADD MSTORE PUSH1 0x4 PUSH1 0xFF DUP9 AND LT ISZERO PUSH2 0x75B JUMPI PUSH1 0xFF DUP8 DUP2 DUP11 SWAP10 AND PUSH1 0xE0 DUP11 ADD MSTORE PUSH2 0x23B8 DUP3 DUP3 PUSH1 0x8 SHR AND PUSH2 0x2561 JUMP JUMPDEST PUSH1 0x8 SHR AND PUSH2 0x100 DUP9 ADD MSTORE PUSH2 0x120 DUP8 ADD MSTORE PUSH2 0x140 DUP7 ADD MSTORE PUSH2 0x160 DUP6 ADD MSTORE PUSH2 0x180 DUP5 ADD MSTORE PUSH2 0x1A0 DUP4 ADD MSTORE SUB SWAP1 RETURN JUMPDEST CALLVALUE PUSH2 0x28C JUMPI PUSH1 0x0 CALLDATASIZE PUSH1 0x3 NOT ADD SLT PUSH2 0x28C JUMPI DUP1 PUSH1 0x5 PUSH1 0x20 SWAP3 MSTORE RETURN JUMPDEST SWAP1 PUSH1 0x1 DUP3 DUP2 SHR SWAP3 AND DUP1 ISZERO PUSH2 0x242E JUMPI JUMPDEST PUSH1 0x20 DUP4 LT EQ PUSH2 0x2418 JUMPI JUMP JUMPDEST PUSH4 0x4E487B71 PUSH1 0xE0 SHL PUSH1 0x0 MSTORE PUSH1 0x22 PUSH1 0x4 MSTORE PUSH1 0x24 PUSH1 0x0 REVERT JUMPDEST SWAP2 PUSH1 0x7F AND SWAP2 PUSH2 0x240D JUMP JUMPDEST PUSH1 0x20 DUP2 ADD SWAP1 DUP2 LT PUSH1 0x1 PUSH1 0x1 PUSH1 0x40 SHL SUB DUP3 GT OR PUSH2 0x1D6C JUMPI PUSH1 0x40 MSTORE JUMP JUMPDEST SWAP1 PUSH1 0x1F DUP1 NOT SWAP2 ADD AND DUP2 ADD SWAP1 DUP2 LT PUSH1 0x1 PUSH1 0x1 PUSH1 0x40 SHL SUB DUP3 GT OR PUSH2 0x1D6C JUMPI PUSH1 0x40 MSTORE JUMP JUMPDEST SWAP1 PUSH1 0x40 MLOAD SWAP2 DUP3 PUSH1 0x0 DUP3 SLOAD PUSH2 0x2487 DUP2 PUSH2 0x23FE JUMP JUMPDEST SWAP1 DUP2 DUP5 MSTORE PUSH1 0x20 SWAP5 PUSH1 0x1 SWAP2 PUSH1 0x1 DUP2 AND SWAP1 DUP2 PUSH1 0x0 EQ PUSH2 0x24F7 JUMPI POP PUSH1 0x1 EQ PUSH2 0x24B8 JUMPI JUMPDEST POP POP POP PUSH2 0x24B6 SWAP3 POP SUB DUP4 PUSH2 0x2453 JUMP JUMPDEST JUMP JUMPDEST PUSH1 0x0 SWAP1 DUP2 MSTORE DUP6 DUP2 KECCAK256 SWAP6 SWAP4 POP SWAP2 SWAP1 JUMPDEST DUP2 DUP4 LT PUSH2 0x24DF JUMPI POP POP PUSH2 0x24B6 SWAP4 POP DUP3 ADD ADD CODESIZE DUP1 DUP1 PUSH2 0x24A7 JUMP JUMPDEST DUP6 SLOAD DUP9 DUP5 ADD DUP6 ADD MSTORE SWAP5 DUP6 ADD SWAP5 DUP8 SWAP5 POP SWAP2 DUP4 ADD SWAP2 PUSH2 0x24C6 JUMP JUMPDEST SWAP3 POP POP POP PUSH2 0x24B6 SWAP5 SWAP3 POP PUSH1 0xFF NOT AND DUP3 DUP5 ADD MSTORE ISZERO ISZERO PUSH1 0x5 SHL DUP3 ADD ADD CODESIZE DUP1 DUP1 PUSH2 0x24A7 JUMP JUMPDEST PUSH1 0x0 JUMPDEST DUP4 DUP2 LT PUSH2 0x252C JUMPI POP POP PUSH1 0x0 SWAP2 ADD MSTORE JUMP JUMPDEST DUP2 DUP2 ADD MLOAD DUP4 DUP3 ADD MSTORE PUSH1 0x20 ADD PUSH2 0x251C JUMP JUMPDEST SWAP1 PUSH1 0x20 SWAP2 PUSH2 0x2555 DUP2 MLOAD DUP1 SWAP3 DUP2 DUP6 MSTORE DUP6 DUP1 DUP7 ADD SWAP2 ADD PUSH2 0x2519 JUMP JUMPDEST PUSH1 0x1F ADD PUSH1 0x1F NOT AND ADD ADD SWAP1 JUMP JUMPDEST PUSH1 0x5 GT ISZERO PUSH2 0x75B JUMPI JUMP JUMPDEST SWAP3 SWAP2 SWAP3 PUSH1 0x1 PUSH1 0x1 PUSH1 0x40 SHL SUB DUP3 GT PUSH2 0x1D6C JUMPI PUSH1 0x40 MLOAD SWAP2 PUSH2 0x2594 PUSH1 0x1F DUP3 ADD PUSH1 0x1F NOT AND PUSH1 0x20 ADD DUP5 PUSH2 0x2453 JUMP JUMPDEST DUP3 SWAP5 DUP2 DUP5 MSTORE DUP2 DUP4 ADD GT PUSH2 0x28C JUMPI DUP3 DUP2 PUSH1 0x20 SWAP4 DUP5 PUSH1 0x0 SWAP7 ADD CALLDATACOPY ADD ADD MSTORE JUMP JUMPDEST SWAP1 DUP1 PUSH1 0x1F DUP4 ADD SLT ISZERO PUSH2 0x28C JUMPI DUP2 PUSH1 0x20 PUSH2 0x25CC SWAP4 CALLDATALOAD SWAP2 ADD PUSH2 0x256B JUMP JUMPDEST SWAP1 JUMP JUMPDEST PUSH1 0x1 PUSH1 0x1 PUSH1 0x40 SHL SUB DUP2 GT PUSH2 0x1D6C JUMPI PUSH1 0x5 SHL PUSH1 0x20 ADD SWAP1 JUMP JUMPDEST DUP2 PUSH1 0x1F DUP3 ADD SLT ISZERO PUSH2 0x28C JUMPI DUP1 CALLDATALOAD SWAP2 PUSH1 0x20 SWAP2 PUSH2 0x2600 DUP5 PUSH2 0x25CF JUMP JUMPDEST SWAP4 PUSH2 0x260E PUSH1 0x40 MLOAD SWAP6 DUP7 PUSH2 0x2453 JUMP JUMPDEST DUP1 DUP6 MSTORE DUP4 DUP1 DUP7 ADD SWAP2 PUSH1 0x5 SHL DUP4 ADD ADD SWAP3 DUP1 DUP5 GT PUSH2 0x28C JUMPI DUP5 DUP4 ADD SWAP2 JUMPDEST DUP5 DUP4 LT PUSH2 0x2639 JUMPI POP POP POP POP POP POP SWAP1 JUMP JUMPDEST DUP3 CALLDATALOAD PUSH1 0x1 PUSH1 0x1 PUSH1 0x40 SHL SUB DUP2 GT PUSH2 0x28C JUMPI DUP7 SWAP2 PUSH2 0x265A DUP5 DUP5 DUP1 SWAP5 DUP10 ADD ADD PUSH2 0x25B1 JUMP JUMPDEST DUP2 MSTORE ADD SWAP3 ADD SWAP2 PUSH2 0x2629 JUMP JUMPDEST SWAP1 DUP1 PUSH1 0x1F DUP4 ADD SLT ISZERO PUSH2 0x28C JUMPI PUSH1 0x20 SWAP1 DUP3 CALLDATALOAD PUSH2 0x267F DUP2 PUSH2 0x25CF JUMP JUMPDEST SWAP4 PUSH2 0x268D PUSH1 0x40 MLOAD SWAP6 DUP7 PUSH2 0x2453 JUMP JUMPDEST DUP2 DUP6 MSTORE PUSH1 0x20 DUP1 DUP7 ADD SWAP3 PUSH1 0x5 SHL DUP3 ADD ADD SWAP3 DUP4 GT PUSH2 0x28C JUMPI PUSH1 0x20 ADD SWAP1 JUMPDEST DUP3 DUP3 LT PUSH2 0x26B6 JUMPI POP POP POP POP SWAP1 JUMP JUMPDEST DUP2 CALLDATALOAD DUP2 MSTORE SWAP1 DUP4 ADD SWAP1 DUP4 ADD PUSH2 0x26A8 JUMP JUMPDEST SWAP1 DUP2 MLOAD DUP1 DUP3 MSTORE PUSH1 0x20 DUP1 DUP1 SWAP4 ADD SWAP4 ADD SWAP2 PUSH1 0x0 JUMPDEST DUP3 DUP2 LT PUSH2 0x26E5 JUMPI POP POP POP POP SWAP1 JUMP JUMPDEST DUP4 MLOAD DUP6 MSTORE SWAP4 DUP2 ADD SWAP4 SWAP3 DUP2 ADD SWAP3 PUSH1 0x1 ADD PUSH2 0x26D7 JUMP JUMPDEST SWAP1 DUP1 DUP3 MLOAD SWAP1 DUP2 DUP2 MSTORE PUSH1 0x20 DUP1 SWAP2 ADD SWAP3 PUSH1 0x20 DUP1 DUP5 PUSH1 0x5 SHL DUP4 ADD ADD SWAP6 ADD SWAP4 PUSH1 0x0 SWAP2 JUMPDEST DUP5 DUP4 LT PUSH2 0x2728 JUMPI POP POP POP POP POP POP SWAP1 JUMP JUMPDEST SWAP1 SWAP2 SWAP3 SWAP4 SWAP5 SWAP6 DUP5 DUP1 PUSH2 0x2746 PUSH1 0x1 SWAP4 PUSH1 0x1F NOT DUP7 DUP3 SUB ADD DUP8 MSTORE DUP11 MLOAD PUSH2 0x253C JUMP JUMPDEST SWAP9 ADD SWAP4 ADD SWAP4 ADD SWAP2 SWAP5 SWAP4 SWAP3 SWAP1 PUSH2 0x2718 JUMP JUMPDEST ISZERO PUSH2 0x275D JUMPI JUMP JUMPDEST PUSH1 0x40 MLOAD PUSH3 0x461BCD PUSH1 0xE5 SHL DUP2 MSTORE PUSH1 0x20 PUSH1 0x4 DUP3 ADD MSTORE PUSH1 0x16 PUSH1 0x24 DUP3 ADD MSTORE PUSH22 0x10DBDB5C185B9E481B9BDD081C9959DA5CDD195C9959 PUSH1 0x52 SHL PUSH1 0x44 DUP3 ADD MSTORE PUSH1 0x64 SWAP1 REVERT JUMPDEST ISZERO PUSH2 0x27A2 JUMPI JUMP JUMPDEST PUSH1 0x40 MLOAD PUSH3 0x461BCD PUSH1 0xE5 SHL DUP2 MSTORE PUSH1 0x20 PUSH1 0x4 DUP3 ADD MSTORE PUSH1 0x12 PUSH1 0x24 DUP3 ADD MSTORE PUSH18 0x496E73756666696369656E74207374616B65 PUSH1 0x70 SHL PUSH1 0x44 DUP3 ADD MSTORE PUSH1 0x64 SWAP1 REVERT JUMPDEST SWAP2 SWAP1 DUP3 ADD DUP1 SWAP3 GT PUSH2 0x65E JUMPI JUMP JUMPDEST SWAP1 DUP2 PUSH1 0x20 SWAP2 SUB SLT PUSH2 0x28C JUMPI MLOAD DUP1 ISZERO ISZERO DUP2 SUB PUSH2 0x28C JUMPI SWAP1 JUMP JUMPDEST ISZERO PUSH2 0x2808 JUMPI JUMP JUMPDEST PUSH1 0x40 MLOAD PUSH3 0x461BCD PUSH1 0xE5 SHL DUP2 MSTORE PUSH1 0x20 PUSH1 0x4 DUP3 ADD MSTORE PUSH1 0xF PUSH1 0x24 DUP3 ADD MSTORE PUSH15 0x151C985B9CD9995C8819985A5B1959 PUSH1 0x8A SHL PUSH1 0x44 DUP3 ADD MSTORE PUSH1 0x64 SWAP1 REVERT JUMPDEST SWAP2 SWAP1 SWAP2 DUP3 MLOAD PUSH1 0x1 PUSH1 0x1 PUSH1 0x40 SHL SUB DUP2 GT PUSH2 0x1D6C JUMPI PUSH2 0x285C DUP3 SLOAD PUSH2 0x23FE JUMP JUMPDEST PUSH1 0x1F DUP2 GT PUSH2 0x2907 JUMPI JUMPDEST POP PUSH1 0x20 DUP1 PUSH1 0x1F DUP4 GT PUSH1 0x1 EQ PUSH2 0x28A2 JUMPI POP DUP2 SWAP3 SWAP4 SWAP5 PUSH1 0x0 SWAP3 PUSH2 0x2897 JUMPI JUMPDEST POP POP DUP2 PUSH1 0x1 SHL SWAP2 PUSH1 0x0 NOT SWAP1 PUSH1 0x3 SHL SHR NOT AND OR SWAP1 SSTORE JUMP JUMPDEST ADD MLOAD SWAP1 POP CODESIZE DUP1 PUSH2 0x2881 JUMP JUMPDEST SWAP1 PUSH1 0x1F NOT DUP4 AND SWAP6 DUP5 PUSH1 0x0 MSTORE PUSH1 0x20 PUSH1 0x0 KECCAK256 SWAP3 PUSH1 0x0 SWAP1 JUMPDEST DUP9 DUP3 LT PUSH2 0x28EF JUMPI POP POP DUP4 PUSH1 0x1 SWAP6 SWAP7 SWAP8 LT PUSH2 0x28D6 JUMPI JUMPDEST POP POP POP DUP2 SHL ADD SWAP1 SSTORE JUMP JUMPDEST ADD MLOAD PUSH1 0x0 NOT PUSH1 0xF8 DUP5 PUSH1 0x3 SHL AND SHR NOT AND SWAP1 SSTORE CODESIZE DUP1 DUP1 PUSH2 0x28CC JUMP JUMPDEST DUP1 PUSH1 0x1 DUP6 SWAP7 DUP3 SWAP5 SWAP7 DUP7 ADD MLOAD DUP2 SSTORE ADD SWAP6 ADD SWAP4 ADD SWAP1 PUSH2 0x28B7 JUMP JUMPDEST PUSH1 0x0 DUP4 PUSH1 0x0 MSTORE PUSH1 0x20 PUSH1 0x0 KECCAK256 PUSH1 0x1F DUP5 ADD PUSH1 0x5 SHR DUP2 ADD SWAP3 PUSH1 0x20 DUP6 LT PUSH2 0x2947 JUMPI JUMPDEST PUSH1 0x1F ADD PUSH1 0x5 SHR ADD SWAP2 JUMPDEST DUP3 DUP2 LT PUSH2 0x293C JUMPI POP POP PUSH2 0x2865 JUMP JUMPDEST DUP2 DUP2 SSTORE PUSH1 0x1 ADD PUSH2 0x292E JUMP JUMPDEST SWAP1 SWAP3 POP DUP3 SWAP1 PUSH2 0x2925 JUMP JUMPDEST DUP1 MLOAD DUP3 LT ISZERO PUSH2 0x2965 JUMPI PUSH1 0x20 SWAP2 PUSH1 0x5 SHL ADD ADD SWAP1 JUMP JUMPDEST PUSH4 0x4E487B71 PUSH1 0xE0 SHL PUSH1 0x0 MSTORE PUSH1 0x32 PUSH1 0x4 MSTORE PUSH1 0x24 PUSH1 0x0 REVERT JUMPDEST DUP1 SLOAD DUP3 LT ISZERO PUSH2 0x2965 JUMPI PUSH1 0x0 MSTORE PUSH1 0x20 PUSH1 0x0 KECCAK256 ADD SWAP1 PUSH1 0x0 SWAP1 JUMP JUMPDEST DUP1 SLOAD PUSH1 0x1 PUSH1 0x40 SHL DUP2 LT ISZERO PUSH2 0x1D6C JUMPI PUSH2 0x29B0 SWAP2 PUSH1 0x1 DUP3 ADD DUP2 SSTORE PUSH2 0x297B JUMP JUMPDEST SWAP2 SWAP1 SWAP2 PUSH2 0x29C0 JUMPI PUSH2 0x24B6 SWAP2 PUSH2 0x283F JUMP JUMPDEST PUSH4 0x4E487B71 PUSH1 0xE0 SHL PUSH1 0x0 MSTORE PUSH1 0x0 PUSH1 0x4 MSTORE PUSH1 0x24 PUSH1 0x0 REVERT JUMPDEST DUP1 SLOAD PUSH1 0x1 PUSH1 0x40 SHL DUP2 LT ISZERO PUSH2 0x1D6C JUMPI PUSH2 0x29F3 SWAP2 PUSH1 0x1 DUP3 ADD DUP2 SSTORE PUSH2 0x297B JUMP JUMPDEST DUP2 SWAP3 SWAP2 SLOAD SWAP1 PUSH1 0x3 SHL SWAP2 DUP3 SHL SWAP2 PUSH1 0x0 NOT SWAP1 SHL NOT AND OR SWAP1 SSTORE JUMP JUMPDEST ISZERO PUSH2 0x2A12 JUMPI JUMP JUMPDEST PUSH1 0x40 MLOAD PUSH3 0x461BCD PUSH1 0xE5 SHL DUP2 MSTORE PUSH1 0x20 PUSH1 0x4 DUP3 ADD MSTORE PUSH1 0x16 PUSH1 0x24 DUP3 ADD MSTORE PUSH22 0x125B9D985B1A5908185C1C1B1A58D85D1A5BDB881251 PUSH1 0x52 SHL PUSH1 0x44 DUP3 ADD MSTORE PUSH1 0x64 SWAP1 REVERT JUMPDEST ISZERO PUSH2 0x2A57 JUMPI JUMP JUMPDEST PUSH1 0x40 MLOAD PUSH3 0x461BCD PUSH1 0xE5 SHL DUP2 MSTORE PUSH1 0x20 PUSH1 0x4 DUP3 ADD MSTORE PUSH1 0xD PUSH1 0x24 DUP3 ADD MSTORE PUSH13 0x2737BA103537B11037BBB732B9 PUSH1 0x99 SHL PUSH1 0x44 DUP3 ADD MSTORE PUSH1 0x64 SWAP1 REVERT JUMPDEST ISZERO PUSH2 0x2A93 JUMPI JUMP JUMPDEST PUSH1 0x40 MLOAD PUSH3 0x461BCD PUSH1 0xE5 SHL DUP2 MSTORE PUSH1 0x20 PUSH1 0x4 DUP3 ADD MSTORE PUSH1 0xD PUSH1 0x24 DUP3 ADD MSTORE PUSH13 0x13985B59481C995C5D5A5C9959 PUSH1 0x9A SHL PUSH1 0x44 DUP3 ADD MSTORE PUSH1 0x64 SWAP1 REVERT JUMPDEST PUSH1 0x2 PUSH1 0x0 SLOAD EQ PUSH2 0x2AD9 JUMPI PUSH1 0x2 PUSH1 0x0 SSTORE JUMP JUMPDEST PUSH1 0x40 MLOAD PUSH3 0x461BCD PUSH1 0xE5 SHL DUP2 MSTORE PUSH1 0x20 PUSH1 0x4 DUP3 ADD MSTORE PUSH1 0x1F PUSH1 0x24 DUP3 ADD MSTORE PUSH32 0x5265656E7472616E637947756172643A207265656E7472616E742063616C6C00 PUSH1 0x44 DUP3 ADD MSTORE PUSH1 0x64 SWAP1 REVERT JUMPDEST PUSH1 0xFF PUSH1 0x1 SLOAD AND PUSH2 0x2B2A JUMPI JUMP JUMPDEST PUSH1 0x40 MLOAD PUSH3 0x461BCD PUSH1 0xE5 SHL DUP2 MSTORE PUSH1 0x20 PUSH1 0x4 DUP3 ADD MSTORE PUSH1 0x10 PUSH1 0x24 DUP3 ADD MSTORE PUSH16 0x14185D5CD8589B194E881C185D5CD959 PUSH1 0x82 SHL PUSH1 0x44 DUP3 ADD MSTORE PUSH1 0x64 SWAP1 REVERT JUMPDEST PUSH1 0x1 SLOAD PUSH1 0x8 SHR PUSH1 0x1 PUSH1 0x1 PUSH1 0xA0 SHL SUB AND CALLER SUB PUSH2 0x2B79 JUMPI JUMP JUMPDEST PUSH1 0x64 PUSH1 0x40 MLOAD PUSH3 0x461BCD PUSH1 0xE5 SHL DUP2 MSTORE PUSH1 0x20 PUSH1 0x4 DUP3 ADD MSTORE PUSH1 0x20 PUSH1 0x24 DUP3 ADD MSTORE PUSH32 0x4F776E61626C653A2063616C6C6572206973206E6F7420746865206F776E6572 PUSH1 0x44 DUP3 ADD MSTORE REVERT JUMPDEST SWAP1 PUSH1 0x41 DUP2 MLOAD EQ PUSH1 0x0 EQ PUSH2 0x2BEB JUMPI PUSH2 0x2BE7 SWAP2 PUSH1 0x20 DUP3 ADD MLOAD SWAP1 PUSH1 0x60 PUSH1 0x40 DUP5 ADD MLOAD SWAP4 ADD MLOAD PUSH1 0x0 BYTE SWAP1 PUSH2 0x2D15 JUMP JUMPDEST SWAP1 SWAP2 JUMP JUMPDEST POP POP PUSH1 0x0 SWAP1 PUSH1 0x2 SWAP1 JUMP JUMPDEST PUSH2 0x2BFE DUP2 PUSH2 0x2561 JUMP JUMPDEST DUP1 PUSH2 0x2C06 JUMPI POP JUMP JUMPDEST PUSH2 0x2C0F DUP2 PUSH2 0x2561 JUMP JUMPDEST PUSH1 0x1 DUP2 SUB PUSH2 0x2C5C JUMPI PUSH1 0x40 MLOAD PUSH3 0x461BCD PUSH1 0xE5 SHL DUP2 MSTORE PUSH1 0x20 PUSH1 0x4 DUP3 ADD MSTORE PUSH1 0x18 PUSH1 0x24 DUP3 ADD MSTORE PUSH32 0x45434453413A20696E76616C6964207369676E61747572650000000000000000 PUSH1 0x44 DUP3 ADD MSTORE PUSH1 0x64 SWAP1 REVERT JUMPDEST PUSH2 0x2C65 DUP2 PUSH2 0x2561 JUMP JUMPDEST PUSH1 0x2 DUP2 SUB PUSH2 0x2CB2 JUMPI PUSH1 0x40 MLOAD PUSH3 0x461BCD PUSH1 0xE5 SHL DUP2 MSTORE PUSH1 0x20 PUSH1 0x4 DUP3 ADD MSTORE PUSH1 0x1F PUSH1 0x24 DUP3 ADD MSTORE PUSH32 0x45434453413A20696E76616C6964207369676E6174757265206C656E67746800 PUSH1 0x44 DUP3 ADD MSTORE PUSH1 0x64 SWAP1 REVERT JUMPDEST DUP1 PUSH2 0x2CBE PUSH1 0x3 SWAP3 PUSH2 0x2561 JUMP JUMPDEST EQ PUSH2 0x2CC5 JUMPI JUMP JUMPDEST PUSH1 0x40 MLOAD PUSH3 0x461BCD PUSH1 0xE5 SHL DUP2 MSTORE PUSH1 0x20 PUSH1 0x4 DUP3 ADD MSTORE PUSH1 0x22 PUSH1 0x24 DUP3 ADD MSTORE PUSH32 0x45434453413A20696E76616C6964207369676E6174757265202773272076616C PUSH1 0x44 DUP3 ADD MSTORE PUSH2 0x7565 PUSH1 0xF0 SHL PUSH1 0x64 DUP3 ADD MSTORE PUSH1 0x84 SWAP1 REVERT JUMPDEST SWAP3 SWAP2 SWAP1 PUSH32 0x7FFFFFFFFFFFFFFFFFFFFFFFFFFFFFFF5D576E7357A4501DDFE92F46681B20A0 DUP4 GT PUSH2 0x2D98 JUMPI SWAP2 PUSH1 0x80 SWAP5 SWAP4 SWAP2 PUSH1 0xFF PUSH1 0x20 SWAP5 PUSH1 0x40 MLOAD SWAP5 DUP6 MSTORE AND DUP5 DUP5 ADD MSTORE PUSH1 0x40 DUP4 ADD MSTORE PUSH1 0x60 DUP3 ADD MSTORE PUSH1 0x0 SWAP4 DUP5 SWAP2 DUP3 DUP1 MSTORE PUSH1 0x1 GAS STATICCALL ISZERO PUSH2 0x2D8B JUMPI DUP2 MLOAD PUSH1 0x1 PUSH1 0x1 PUSH1 0xA0 SHL SUB DUP2 AND ISZERO PUSH2 0x2D85 JUMPI SWAP2 SWAP1 JUMP JUMPDEST POP PUSH1 0x1 SWAP1 JUMP JUMPDEST POP PUSH1 0x40 MLOAD SWAP1 RETURNDATASIZE SWAP1 DUP3 RETURNDATACOPY RETURNDATASIZE SWAP1 REVERT JUMPDEST POP POP POP POP PUSH1 0x0 SWAP1 PUSH1 0x3 SWAP1 JUMP INVALID LOG2 PUSH5 0x6970667358 0x22 SLT KECCAK256 SWAP16 0xC TIMESTAMP BASEFEE PUSH29 0x61E5F59A304A5F9D5C98292564D08760B032064FFB185844C57EEA6473 PUSH16 0x6C634300081800330000000000000000 "},"methodIdentifiers":{"MAX_STAKE_AMOUNT()":"2f92f1f2","MIN_STAKE_AMOUNT()":"27ed7188","PLATFORM_FEE_PERCENTAGE()":"15548232","STAKE_DURATION()":"6afb630a","addVerifiedSkillVerifier(address)":"8b35eab7","applications(uint256)":"dfefadff","applyForJob(uint256,string,uint256[],uint256[])":"e9fba947","companies(uint256)":"2813d19d","companyAddressToId(address)":"6775615a","completeJob(uint256,uint256,string)":"718b5a89","developerAddressToId(address)":"b77a4c4d","developers(uint256)":"eff25cd6","getCompanySkills(uint256)":"99ddb25e","getDeveloperSkills(uint256)":"bbc71078","getJobApplications(uint256)":"747143b9","getTotalCompanies()":"486b1b11","getTotalDevelopers()":"e0a3b0a5","getTotalJobs()":"3aee7996","hasApplied(uint256,uint256)":"ab4f7b47","hireApplicant(uint256)":"ba16e5cd","jobs(uint256)":"180aedf3","owner()":"8da5cb5b","pause()":"8456cb59","paused()":"5c975abb","postJob(string,string,string[],uint256[],uint256,uint256,uint256,uint8,uint256)":"717149f2","registerCompany(string,string,string,string,string[])":"d6214810","registerDeveloper(string,string,string,string,string[],uint256[])":"e739c271","removeVerifiedSkillVerifier(address)":"759bf6ed","renounceOwnership()":"715018a6","skillVerifications(bytes32)":"ecda0174","stakeTokens(uint256)":"7547c7a3","stakingToken()":"72f702f3","transferOwnership(address)":"f2fde38b","unpause()":"3f4ba83a","verifiedSkillVerifiers(address)":"3b06c30e","verifySkill(uint256,string,uint256,string,bytes)":"5b987a8f","withdrawStake(uint256)":"25d5971f"}}}}}