{"contracts/YellowJobToken.sol":{"YellowJobToken":{"abi":[{"inputs":[],"stateMutability":"nonpayable","type":"constructor"},{"anonymous":false,"inputs":[{"indexed":true,"internalType":"address","name":"owner","type":"address"},{"indexed":true,"internalType":"address","name":"spender","type":"address"},{"indexed":false,"internalType":"uint256","name":"value","type":"uint256"}],"name":"Approval","type":"event"},{"anonymous":false,"inputs":[{"indexed":true,"internalType":"address","name":"from","type":"address"},{"indexed":false,"internalType":"uint256","name":"amount","type":"uint256"}],"name":"FeeCollected","type":"event"},{"anonymous":false,"inputs":[{"indexed":true,"internalType":"address","name":"previousOwner","type":"address"},{"indexed":true,"internalType":"address","name":"newOwner","type":"address"}],"name":"OwnershipTransferred","type":"event"},{"anonymous":false,"inputs":[{"indexed":false,"internalType":"address","name":"account","type":"address"}],"name":"Paused","type":"event"},{"anonymous":false,"inputs":[{"indexed":true,"internalType":"address","name":"user","type":"address"},{"indexed":false,"internalType":"uint256","name":"amount","type":"uint256"}],"name":"RewardsClaimed","type":"event"},{"anonymous":false,"inputs":[{"indexed":true,"internalType":"address","name":"user","type":"address"},{"indexed":false,"internalType":"uint256","name":"amount","type":"uint256"},{"indexed":false,"internalType":"uint256","name":"timestamp","type":"uint256"}],"name":"TokensStaked","type":"event"},{"anonymous":false,"inputs":[{"indexed":true,"internalType":"address","name":"user","type":"address"},{"indexed":false,"internalType":"uint256","name":"amount","type":"uint256"},{"indexed":false,"internalType":"uint256","name":"rewards","type":"uint256"}],"name":"TokensUnstaked","type":"event"},{"anonymous":false,"inputs":[{"indexed":true,"internalType":"address","name":"from","type":"address"},{"indexed":true,"internalType":"address","name":"to","type":"address"},{"indexed":false,"internalType":"uint256","name":"value","type":"uint256"}],"name":"Transfer","type":"event"},{"anonymous":false,"inputs":[{"indexed":false,"internalType":"address","name":"account","type":"address"}],"name":"Unpaused","type":"event"},{"inputs":[],"name":"INITIAL_SUPPLY","outputs":[{"internalType":"uint256","name":"","type":"uint256"}],"stateMutability":"view","type":"function"},{"inputs":[],"name":"MAX_SUPPLY","outputs":[{"internalType":"uint256","name":"","type":"uint256"}],"stateMutability":"view","type":"function"},{"inputs":[],"name":"MIN_STAKING_DURATION","outputs":[{"internalType":"uint256","name":"","type":"uint256"}],"stateMutability":"view","type":"function"},{"inputs":[],"name":"PLATFORM_FEE_PERCENTAGE","outputs":[{"internalType":"uint256","name":"","type":"uint256"}],"stateMutability":"view","type":"function"},{"inputs":[],"name":"STAKING_REWARD_RATE","outputs":[{"internalType":"uint256","name":"","type":"uint256"}],"stateMutability":"view","type":"function"},{"inputs":[{"internalType":"address","name":"owner","type":"address"},{"internalType":"address","name":"spender","type":"address"}],"name":"allowance","outputs":[{"internalType":"uint256","name":"","type":"uint256"}],"stateMutability":"view","type":"function"},{"inputs":[{"internalType":"address","name":"spender","type":"address"},{"internalType":"uint256","name":"amount","type":"uint256"}],"name":"approve","outputs":[{"internalType":"bool","name":"","type":"bool"}],"stateMutability":"nonpayable","type":"function"},{"inputs":[{"internalType":"address","name":"account","type":"address"}],"name":"balanceOf","outputs":[{"internalType":"uint256","name":"","type":"uint256"}],"stateMutability":"view","type":"function"},{"inputs":[{"internalType":"uint256","name":"amount","type":"uint256"}],"name":"burn","outputs":[],"stateMutability":"nonpayable","type":"function"},{"inputs":[{"internalType":"address","name":"account","type":"address"},{"internalType":"uint256","name":"amount","type":"uint256"}],"name":"burnFrom","outputs":[],"stateMutability":"nonpayable","type":"function"},{"inputs":[],"name":"claimRewards","outputs":[],"stateMutability":"nonpayable","type":"function"},{"inputs":[],"name":"decimals","outputs":[{"internalType":"uint8","name":"","type":"uint8"}],"stateMutability":"view","type":"function"},{"inputs":[{"internalType":"address","name":"spender","type":"address"},{"internalType":"uint256","name":"subtractedValue","type":"uint256"}],"name":"decreaseAllowance","outputs":[{"internalType":"bool","name":"","type":"bool"}],"stateMutability":"nonpayable","type":"function"},{"inputs":[],"name":"feeRecipient","outputs":[{"internalType":"address","name":"","type":"address"}],"stateMutability":"view","type":"function"},{"inputs":[{"internalType":"address","name":"_user","type":"address"}],"name":"getStakingInfo","outputs":[{"internalType":"uint256","name":"stakedAmount","type":"uint256"},{"internalType":"uint256","name":"stakingTimestamp","type":"uint256"},{"internalType":"uint256","name":"pendingRewards","type":"uint256"}],"stateMutability":"view","type":"function"},{"inputs":[],"name":"getTotalStaked","outputs":[{"internalType":"uint256","name":"","type":"uint256"}],"stateMutability":"view","type":"function"},{"inputs":[{"internalType":"address","name":"spender","type":"address"},{"internalType":"uint256","name":"addedValue","type":"uint256"}],"name":"increaseAllowance","outputs":[{"internalType":"bool","name":"","type":"bool"}],"stateMutability":"nonpayable","type":"function"},{"inputs":[{"internalType":"address","name":"","type":"address"}],"name":"lastClaimedRewards","outputs":[{"internalType":"uint256","name":"","type":"uint256"}],"stateMutability":"view","type":"function"},{"inputs":[{"internalType":"address","name":"to","type":"address"},{"internalType":"uint256","name":"amount","type":"uint256"}],"name":"mint","outputs":[],"stateMutability":"nonpayable","type":"function"},{"inputs":[],"name":"name","outputs":[{"internalType":"string","name":"","type":"string"}],"stateMutability":"view","type":"function"},{"inputs":[],"name":"owner","outputs":[{"internalType":"address","name":"","type":"address"}],"stateMutability":"view","type":"function"},{"inputs":[],"name":"pause","outputs":[],"stateMutability":"nonpayable","type":"function"},{"inputs":[],"name":"paused","outputs":[{"internalType":"bool","name":"","type":"bool"}],"stateMutability":"view","type":"function"},{"inputs":[],"name":"renounceOwnership","outputs":[],"stateMutability":"nonpayable","type":"function"},{"inputs":[{"internalType":"address","name":"_feeRecipient","type":"address"}],"name":"setFeeRecipient","outputs":[],"stateMutability":"nonpayable","type":"function"},{"inputs":[{"internalType":"uint256","name":"_amount","type":"uint256"}],"name":"stakeTokens","outputs":[],"stateMutability":"nonpayable","type":"function"},{"inputs":[{"internalType":"address","name":"","type":"address"}],"name":"stakingBalances","outputs":[{"internalType":"uint256","name":"","type":"uint256"}],"stateMutability":"view","type":"function"},{"inputs":[{"internalType":"address","name":"","type":"address"}],"name":"stakingTimestamps","outputs":[{"internalType":"uint256","name":"","type":"uint256"}],"stateMutability":"view","type":"function"},{"inputs":[],"name":"symbol","outputs":[{"internalType":"string","name":"","type":"string"}],"stateMutability":"view","type":"function"},{"inputs":[],"name":"totalFeesCollected","outputs":[{"internalType":"uint256","name":"","type":"uint256"}],"stateMutability":"view","type":"function"},{"inputs":[],"name":"totalSupply","outputs":[{"internalType":"uint256","name":"","type":"uint256"}],"stateMutability":"view","type":"function"},{"inputs":[{"internalType":"address","name":"to","type":"address"},{"internalType":"uint256","name":"amount","type":"uint256"}],"name":"transfer","outputs":[{"internalType":"bool","name":"","type":"bool"}],"stateMutability":"nonpayable","type":"function"},{"inputs":[{"internalType":"address","name":"from","type":"address"},{"internalType":"address","name":"to","type":"address"},{"internalType":"uint256","name":"amount","type":"uint256"}],"name":"transferFrom","outputs":[{"internalType":"bool","name":"","type":"bool"}],"stateMutability":"nonpayable","type":"function"},{"inputs":[{"internalType":"address","name":"newOwner","type":"address"}],"name":"transferOwnership","outputs":[],"stateMutability":"nonpayable","type":"function"},{"inputs":[],"name":"unpause","outputs":[],"stateMutability":"nonpayable","type":"function"},{"inputs":[{"internalType":"uint256","name":"_amount","type":"uint256"}],"name":"unstakeTokens","outputs":[],"stateMutability":"nonpayable","type":"function"}],"evm":{"bytecode":{"linkReferences":{},"object":"60803462000448576040906001600160401b03908083018281118282101762000348578352601081526020906f2cb2b63637bb902537b1102a37b5b2b760811b8282015283519284840184811082821117620003485785526003908185526216529560ea1b8486015282519181831162000348578054926001948585811c951680156200043d575b8786101462000427578190601f95868111620003d1575b5087908683116001146200036a576000926200035e575b505060001982841b1c191690851b1781555b8551918211620003485760049586548581811c911680156200033d575b87821014620003285790818585949311620002d0575b508690858411600114620002655760009362000259575b505082851b92600019911b1c19161784555b600580546001600160a81b0319811633600881811b610100600160a81b0316929092179093558751949291901c6001600160a01b03167f8be0079c531659141344cd1fd0a4f28419497f9722a3daafe3b4186f6b6457e0600080a3600655600a80546001600160a01b03191633908117909155156200021c5750506002546a084595161401484a000000928382018092116200020757506000917fddf252ad1be2c89b69c2b068fc378daa952ba7f163c4a11628f55a4df523b3ef9160025533835282815284832084815401905584519384523393a35161181190816200044e8239f35b601190634e487b7160e01b6000525260246000fd5b6064928462461bcd60e51b845283015260248201527f45524332303a206d696e7420746f20746865207a65726f2061646472657373006044820152fd5b01519150388062000111565b9190869450601f1984169289600052886000209360005b8a828210620002b957505085116200029e575b50505050811b01845562000123565b01519060f884600019921b161c19169055388080806200028f565b8385015187558a989096019593840193016200027c565b9091925087600052866000208580860160051c8201928987106200031e575b91889187969594930160051c01915b8281106200030e575050620000fa565b60008155869550889101620002fe565b92508192620002ef565b602288634e487b7160e01b6000525260246000fd5b90607f1690620000e4565b634e487b7160e01b600052604160045260246000fd5b015190503880620000b5565b90879350601f1983169185600052896000209260005b8b828210620003ba5750508411620003a1575b505050811b018155620000c7565b015160001983861b60f8161c1916905538808062000393565b8385015186558b9790950194938401930162000380565b90915083600052876000208680850160051c8201928a86106200041d575b918991869594930160051c01915b8281106200040d5750506200009e565b60008155859450899101620003fd565b92508192620003ef565b634e487b7160e01b600052602260045260246000fd5b94607f169462000087565b600080fdfe6080604081815260048036101561001557600080fd5b600092833560e01c90816306fdde0314610e1b575080630917e77614610df0578063095ea7b314610dc65780630e2b68f614610d8e5780630f1a290514610d725780631554823214610d5657806318160ddd14610d3757806323b872dd14610cfa5780632ff2e9dc14610cd4578063313ce56714610cb857806332cb6b0c14610c92578063372500ab14610bed5780633950935114610b9d5780633f4ba83a14610b0857806340c10f1914610a7657806342966c6814610a585780634690484014610a2f5780635c975abb14610a0b578063608e4dd0146108aa57806360c6d8ae1461088b57806361b8b5dc1461085357806370a0823114610810578063715018a6146107af5780637547c7a3146106c257806379cc67901461068f5780638456cb59146106345780638da5cb5b14610607578063937b983b146105cf57806395d89b41146104ad578063a457c2d714610406578063a9059cbb146103d5578063aa4704f31461037f578063abc4cc4014610361578063dd62ed3e14610314578063e74b981b1461028a5763f2fde38b146101af57600080fd5b34610286576020366003190112610286576101c8610f5b565b6101d06113f2565b6001600160a01b0381811693909290841561023457505060058054610100600160a81b03198116600893841b610100600160a81b031617909155901c167f8be0079c531659141344cd1fd0a4f28419497f9722a3daafe3b4186f6b6457e08380a380f35b906020608492519162461bcd60e51b8352820152602660248201527f4f776e61626c653a206e6577206f776e657220697320746865207a65726f206160448201526564647265737360d01b6064820152fd5b8280fd5b5034610286576020366003190112610286576102a4610f5b565b6102ac6113f2565b6001600160a01b03169182156102d95750506bffffffffffffffffffffffff60a01b600a541617600a5580f35b906020606492519162461bcd60e51b83528201526015602482015274125b9d985b1a5908199959481c9958da5c1a595b9d605a1b6044820152fd5b50503461035d578060031936011261035d5780602092610332610f5b565b61033a610f76565b6001600160a01b0391821683526001865283832091168252845220549051908152f35b5080fd5b50503461035d578160031936011261035d576020905162093a808152f35b50503461035d57602036600319011261035d579060609161039e610f5b565b9060018060a01b038216835260076020526103c5818085205494600860205220549261132b565b9181519384526020840152820152f35b50503461035d578060031936011261035d576020906103ff6103f5610f5b565b60243590336111a2565b5160018152f35b5082346104aa57826003193601126104aa57610420610f5b565b918360243592338152600160205281812060018060a01b0386168252602052205490828210610459576020856103ff8585038733611008565b608490602086519162461bcd60e51b8352820152602560248201527f45524332303a2064656372656173656420616c6c6f77616e63652062656c6f77604482015264207a65726f60d81b6064820152fd5b80fd5b5091903461035d578160031936011261035d5780519082845460018160011c90600183169283156105c5575b60209384841081146105b2578388529081156105965750600114610541575b505050829003601f01601f191682019267ffffffffffffffff84118385101761052e575082918261052a925282610f12565b0390f35b634e487b7160e01b815260418552602490fd5b8787529192508591837f8a35acfbc15ff81a39ae7d344fd709f28e8600b4aa8c65c6b64bfe7fe36bd19b5b83851061058257505050508301013880806104f8565b80548886018301529301928490820161056c565b60ff1916878501525050151560051b84010190503880806104f8565b634e487b7160e01b895260228a52602489fd5b91607f16916104d9565b50503461035d57602036600319011261035d5760209181906001600160a01b036105f7610f5b565b1681526008845220549051908152f35b50503461035d578160031936011261035d57600554905160089190911c6001600160a01b03168152602090f35b50503461035d578160031936011261035d5760207f62e78cea01bee320cd4e420270b5ea74000d11b0c9f74754ebdbfc544b05a258916106726113f2565b61067a6112e7565b600160ff19600554161760055551338152a180f35b50503461035d573660031901126104aa576106bf6106ab610f5b565b602435906106ba82338361110a565b611552565b80f35b509034610286576020806003193601126107ab578235926106e1611291565b6106e96112e7565b6106f4841515610faf565b3385528482528383862054106107735750907fdd2a19c3bdd089cbe77c04f5655f83de0504d6140d12c8667646f55d0557c4dc916107306113c7565b61073b8430336111a2565b33855260078152818520610750858254610f8c565b9055338552600881524282862055815193845242908401523392a2600160065580f35b915162461bcd60e51b8152918201526014602482015273496e73756666696369656e742062616c616e636560601b6044820152606490fd5b8380fd5b83346104aa57806003193601126104aa576107c86113f2565b60058054610100600160a81b03198116909155819060081c6001600160a01b03167f8be0079c531659141344cd1fd0a4f28419497f9722a3daafe3b4186f6b6457e08280a380f35b50503461035d57602036600319011261035d5760209061084c610831610f5b565b6001600160a01b031660009081526020819052604090205490565b9051908152f35b50503461035d57602036600319011261035d5760209181906001600160a01b0361087b610f5b565b1681526007845220549051908152f35b50503461035d578160031936011261035d57602090600b549051908152f35b509034610286576020806003193601126107ab578235926108c9611291565b6108d16112e7565b6108dc841515610faf565b338552600782528383862054106109ca57338552600882528285205462093a8081018091116109b75742106109765750907f6f2d3e000c89d37446b7c0374c0125068ff316d1e3ee302336478a8cd03c2336916109383361132b565b906109416113c7565b33865260078152828620610956868254610ffb565b90556109638533306111a2565b82519485528401523392a2600160065580f35b915162461bcd60e51b815291820181905260248201527f4d696e696d756d207374616b696e67206475726174696f6e206e6f74206d65746044820152606490fd5b634e487b7160e01b865260118252602486fd5b915162461bcd60e51b815291820152601a60248201527f496e73756666696369656e74207374616b656420616d6f756e740000000000006044820152606490fd5b50503461035d578160031936011261035d5760209060ff6005541690519015158152f35b50503461035d578160031936011261035d57600a5490516001600160a01b039091168152602090f35b83823461035d57602036600319011261035d576106bf903533611552565b5082903461035d578260031936011261035d57610a91610f5b565b60243591610a9d6113f2565b6a52b7d2dcc80cd2e4000000610ab584600254610f8c565b11610ac55750906106bf9161144d565b606490602086519162461bcd60e51b8352820152601760248201527f576f756c6420657863656564206d617820737570706c790000000000000000006044820152fd5b5034610286578260031936011261028657610b216113f2565b6005549060ff821615610b63575060ff1916600555513381527f5db9ee0a495bf2e6ff9c91a7834c1ba4fdd244a5e8aa4e537bd38aeae4b073aa90602090a180f35b606490602084519162461bcd60e51b8352820152601460248201527314185d5cd8589b194e881b9bdd081c185d5cd95960621b6044820152fd5b50503461035d578060031936011261035d576103ff602092610be6610bc0610f5b565b338352600186528483206001600160a01b03821684528652918490205460243590610f8c565b9033611008565b509034610286578260031936011261028657610c07611291565b610c0f6112e7565b610c183361132b565b918215610c5a5750610c286113c7565b519081527ffc30cddea38e2bf4d6ea7d3f9ed3b6ad7f176419f4963bd81318067a4aee73fe60203392a2600160065580f35b6020606492519162461bcd60e51b835282015260136024820152724e6f207265776172647320746f20636c61696d60681b6044820152fd5b50503461035d578160031936011261035d57602090516a52b7d2dcc80cd2e40000008152f35b50503461035d578160031936011261035d576020905160128152f35b50503461035d578160031936011261035d57602090516a084595161401484a0000008152f35b50503461035d57606036600319011261035d576020906103ff610d1b610f5b565b610d23610f76565b60443591610d3283338361110a565b6111a2565b50503461035d578160031936011261035d576020906002549051908152f35b50503461035d578160031936011261035d576020905160028152f35b50503461035d578160031936011261035d5760209051600a8152f35b50503461035d57602036600319011261035d5760209181906001600160a01b03610db6610f5b565b1681526009845220549051908152f35b50503461035d578060031936011261035d576020906103ff610de6610f5b565b6024359033611008565b50503461035d578160031936011261035d57306000908152602081815260409091205490919061084c565b84915083346102865782600319360112610286578260035460018160011c9060018316928315610f08575b60209384841081146105b257838852908115610eec5750600114610e9657505050829003601f01601f191682019267ffffffffffffffff84118385101761052e575082918261052a925282610f12565b600387529192508591837fc2575a0e9e593c00f959f8c92f12db2869c3395a3b0502d05e2516446f71f85b5b838510610ed857505050508301018580806104f8565b805488860183015293019284908201610ec2565b60ff1916878501525050151560051b84010190508580806104f8565b91607f1691610e46565b6020808252825181830181905290939260005b828110610f4757505060409293506000838284010152601f8019910116010190565b818101860151848201604001528501610f25565b600435906001600160a01b0382168203610f7157565b600080fd5b602435906001600160a01b0382168203610f7157565b91908201809211610f9957565b634e487b7160e01b600052601160045260246000fd5b15610fb657565b60405162461bcd60e51b815260206004820152601d60248201527f416d6f756e74206d7573742062652067726561746572207468616e20300000006044820152606490fd5b91908203918211610f9957565b6001600160a01b039081169182156110b957169182156110695760207f8c5be1e5ebec7d5bd14f71427d1e84f3dd0314c0f7b2291e5b200ac8c7c3b925918360005260018252604060002085600052825280604060002055604051908152a3565b60405162461bcd60e51b815260206004820152602260248201527f45524332303a20617070726f766520746f20746865207a65726f206164647265604482015261737360f01b6064820152608490fd5b60405162461bcd60e51b8152602060048201526024808201527f45524332303a20617070726f76652066726f6d20746865207a65726f206164646044820152637265737360e01b6064820152608490fd5b9060018060a01b0380831660005260016020526040600020908216600052602052604060002054926000198403611142575b50505050565b80841061115d57611154930391611008565b3880808061113c565b60405162461bcd60e51b815260206004820152601d60248201527f45524332303a20696e73756666696369656e7420616c6c6f77616e63650000006044820152606490fd5b6005546001600160a01b038083169493929160081c8116858114908115611285575b50801561127c575b8015611271575b156111e557506111e39350611663565b565b918360019492941b9082820460021483151715610f995761120d606461121493048094610ffb565b9085611663565b8061121f5750505050565b611252817f06c5efeff5c320943d265dc4e5f1af95ad523555ce0c1957e367dda5514572df94602094600a541690611663565b61125e81600b54610f8c565b600b55604051908152a23880808061113c565b5030818416146111d3565b503085146111cc565b905081841614386111c4565b6002600654146112a2576002600655565b60405162461bcd60e51b815260206004820152601f60248201527f5265656e7472616e637947756172643a207265656e7472616e742063616c6c006044820152606490fd5b60ff600554166112f357565b60405162461bcd60e51b815260206004820152601060248201526f14185d5cd8589b194e881c185d5cd95960821b6044820152606490fd5b6001600160a01b0316600081815260076020526040812054156113c257600960205261135b604082205442610ffb565b91815260076020526040812054600a810290808204600a14901517156113ae576064900482810292818404149015171561139a57506301e13380900490565b634e487b7160e01b81526011600452602490fd5b634e487b7160e01b82526011600452602482fd5b905090565b6113d03361132b565b806113d85750565b6111e390336000526009602052426040600020553361144d565b60055460081c6001600160a01b0316330361140957565b606460405162461bcd60e51b815260206004820152602060248201527f4f776e61626c653a2063616c6c6572206973206e6f7420746865206f776e65726044820152fd5b6001600160a01b031690811561150d5760ff600554166114b5577fddf252ad1be2c89b69c2b068fc378daa952ba7f163c4a11628f55a4df523b3ef602082611499600094600254610f8c565b60025584845283825260408420818154019055604051908152a3565b60405162461bcd60e51b815260206004820152602a60248201527f45524332305061757361626c653a20746f6b656e207472616e736665722077686044820152691a5b19481c185d5cd95960b21b6064820152608490fd5b60405162461bcd60e51b815260206004820152601f60248201527f45524332303a206d696e7420746f20746865207a65726f2061646472657373006044820152606490fd5b6001600160a01b031680156116145760ff600554166114b5576000918183528260205260408320548181106115c457817fddf252ad1be2c89b69c2b068fc378daa952ba7f163c4a11628f55a4df523b3ef926020928587528684520360408620558060025403600255604051908152a3565b60405162461bcd60e51b815260206004820152602260248201527f45524332303a206275726e20616d6f756e7420657863656564732062616c616e604482015261636560f01b6064820152608490fd5b60405162461bcd60e51b815260206004820152602160248201527f45524332303a206275726e2066726f6d20746865207a65726f206164647265736044820152607360f81b6064820152608490fd5b6001600160a01b0390811691821561178857169182156117375760ff600554166114b5576000828152806020526040812054918083106116e357604082827fddf252ad1be2c89b69c2b068fc378daa952ba7f163c4a11628f55a4df523b3ef958760209652828652038282205586815220818154019055604051908152a3565b60405162461bcd60e51b815260206004820152602660248201527f45524332303a207472616e7366657220616d6f756e7420657863656564732062604482015265616c616e636560d01b6064820152608490fd5b60405162461bcd60e51b815260206004820152602360248201527f45524332303a207472616e7366657220746f20746865207a65726f206164647260448201526265737360e81b6064820152608490fd5b60405162461bcd60e51b815260206004820152602560248201527f45524332303a207472616e736665722066726f6d20746865207a65726f206164604482015264647265737360d81b6064820152608490fdfea2646970667358221220bb915c1360cd238eb79baf6aaaed7450e924f6aba169882c761509617878062064736f6c63430008180033","opcodes":"PUSH1 0x80 CALLVALUE PUSH3 0x448 JUMPI PUSH1 0x40 SWAP1 PUSH1 0x1 PUSH1 0x1 PUSH1 0x40 SHL SUB SWAP1 DUP1 DUP4 ADD DUP3 DUP2 GT DUP3 DUP3 LT OR PUSH3 0x348 JUMPI DUP4 MSTORE PUSH1 0x10 DUP2 MSTORE PUSH1 0x20 SWAP1 PUSH16 0x2CB2B63637BB902537B1102A37B5B2B7 PUSH1 0x81 SHL DUP3 DUP3 ADD MSTORE DUP4 MLOAD SWAP3 DUP5 DUP5 ADD DUP5 DUP2 LT DUP3 DUP3 GT OR PUSH3 0x348 JUMPI DUP6 MSTORE PUSH1 0x3 SWAP1 DUP2 DUP6 MSTORE PUSH3 0x165295 PUSH1 0xEA SHL DUP5 DUP7 ADD MSTORE DUP3 MLOAD SWAP2 DUP2 DUP4 GT PUSH3 0x348 JUMPI DUP1 SLOAD SWAP3 PUSH1 0x1 SWAP5 DUP6 DUP6 DUP2 SHR SWAP6 AND DUP1 ISZERO PUSH3 0x43D JUMPI JUMPDEST DUP8 DUP7 LT EQ PUSH3 0x427 JUMPI DUP2 SWAP1 PUSH1 0x1F SWAP6 DUP7 DUP2 GT PUSH3 0x3D1 JUMPI JUMPDEST POP DUP8 SWAP1 DUP7 DUP4 GT PUSH1 0x1 EQ PUSH3 0x36A JUMPI PUSH1 0x0 SWAP3 PUSH3 0x35E JUMPI JUMPDEST POP POP PUSH1 0x0 NOT DUP3 DUP5 SHL SHR NOT AND SWAP1 DUP6 SHL OR DUP2 SSTORE JUMPDEST DUP6 MLOAD SWAP2 DUP3 GT PUSH3 0x348 JUMPI PUSH1 0x4 SWAP6 DUP7 SLOAD DUP6 DUP2 DUP2 SHR SWAP2 AND DUP1 ISZERO PUSH3 0x33D JUMPI JUMPDEST DUP8 DUP3 LT EQ PUSH3 0x328 JUMPI SWAP1 DUP2 DUP6 DUP6 SWAP5 SWAP4 GT PUSH3 0x2D0 JUMPI JUMPDEST POP DUP7 SWAP1 DUP6 DUP5 GT PUSH1 0x1 EQ PUSH3 0x265 JUMPI PUSH1 0x0 SWAP4 PUSH3 0x259 JUMPI JUMPDEST POP POP DUP3 DUP6 SHL SWAP3 PUSH1 0x0 NOT SWAP2 SHL SHR NOT AND OR DUP5 SSTORE JUMPDEST PUSH1 0x5 DUP1 SLOAD PUSH1 0x1 PUSH1 0x1 PUSH1 0xA8 SHL SUB NOT DUP2 AND CALLER PUSH1 0x8 DUP2 DUP2 SHL PUSH2 0x100 PUSH1 0x1 PUSH1 0xA8 SHL SUB AND SWAP3 SWAP1 SWAP3 OR SWAP1 SWAP4 SSTORE DUP8 MLOAD SWAP5 SWAP3 SWAP2 SWAP1 SHR PUSH1 0x1 PUSH1 0x1 PUSH1 0xA0 SHL SUB AND PUSH32 0x8BE0079C531659141344CD1FD0A4F28419497F9722A3DAAFE3B4186F6B6457E0 PUSH1 0x0 DUP1 LOG3 PUSH1 0x6 SSTORE PUSH1 0xA DUP1 SLOAD PUSH1 0x1 PUSH1 0x1 PUSH1 0xA0 SHL SUB NOT AND CALLER SWAP1 DUP2 OR SWAP1 SWAP2 SSTORE ISZERO PUSH3 0x21C JUMPI POP POP PUSH1 0x2 SLOAD PUSH11 0x84595161401484A000000 SWAP3 DUP4 DUP3 ADD DUP1 SWAP3 GT PUSH3 0x207 JUMPI POP PUSH1 0x0 SWAP2 PUSH32 0xDDF252AD1BE2C89B69C2B068FC378DAA952BA7F163C4A11628F55A4DF523B3EF SWAP2 PUSH1 0x2 SSTORE CALLER DUP4 MSTORE DUP3 DUP2 MSTORE DUP5 DUP4 KECCAK256 DUP5 DUP2 SLOAD ADD SWAP1 SSTORE DUP5 MLOAD SWAP4 DUP5 MSTORE CALLER SWAP4 LOG3 MLOAD PUSH2 0x1811 SWAP1 DUP2 PUSH3 0x44E DUP3 CODECOPY RETURN JUMPDEST PUSH1 0x11 SWAP1 PUSH4 0x4E487B71 PUSH1 0xE0 SHL PUSH1 0x0 MSTORE MSTORE PUSH1 0x24 PUSH1 0x0 REVERT JUMPDEST PUSH1 0x64 SWAP3 DUP5 PUSH3 0x461BCD PUSH1 0xE5 SHL DUP5 MSTORE DUP4 ADD MSTORE PUSH1 0x24 DUP3 ADD MSTORE PUSH32 0x45524332303A206D696E7420746F20746865207A65726F206164647265737300 PUSH1 0x44 DUP3 ADD MSTORE REVERT JUMPDEST ADD MLOAD SWAP2 POP CODESIZE DUP1 PUSH3 0x111 JUMP JUMPDEST SWAP2 SWAP1 DUP7 SWAP5 POP PUSH1 0x1F NOT DUP5 AND SWAP3 DUP10 PUSH1 0x0 MSTORE DUP9 PUSH1 0x0 KECCAK256 SWAP4 PUSH1 0x0 JUMPDEST DUP11 DUP3 DUP3 LT PUSH3 0x2B9 JUMPI POP POP DUP6 GT PUSH3 0x29E JUMPI JUMPDEST POP POP POP POP DUP2 SHL ADD DUP5 SSTORE PUSH3 0x123 JUMP JUMPDEST ADD MLOAD SWAP1 PUSH1 0xF8 DUP5 PUSH1 0x0 NOT SWAP3 SHL AND SHR NOT AND SWAP1 SSTORE CODESIZE DUP1 DUP1 DUP1 PUSH3 0x28F JUMP JUMPDEST DUP4 DUP6 ADD MLOAD DUP8 SSTORE DUP11 SWAP9 SWAP1 SWAP7 ADD SWAP6 SWAP4 DUP5 ADD SWAP4 ADD PUSH3 0x27C JUMP JUMPDEST SWAP1 SWAP2 SWAP3 POP DUP8 PUSH1 0x0 MSTORE DUP7 PUSH1 0x0 KECCAK256 DUP6 DUP1 DUP7 ADD PUSH1 0x5 SHR DUP3 ADD SWAP3 DUP10 DUP8 LT PUSH3 0x31E JUMPI JUMPDEST SWAP2 DUP9 SWAP2 DUP8 SWAP7 SWAP6 SWAP5 SWAP4 ADD PUSH1 0x5 SHR ADD SWAP2 JUMPDEST DUP3 DUP2 LT PUSH3 0x30E JUMPI POP POP PUSH3 0xFA JUMP JUMPDEST PUSH1 0x0 DUP2 SSTORE DUP7 SWAP6 POP DUP9 SWAP2 ADD PUSH3 0x2FE JUMP JUMPDEST SWAP3 POP DUP2 SWAP3 PUSH3 0x2EF JUMP JUMPDEST PUSH1 0x22 DUP9 PUSH4 0x4E487B71 PUSH1 0xE0 SHL PUSH1 0x0 MSTORE MSTORE PUSH1 0x24 PUSH1 0x0 REVERT JUMPDEST SWAP1 PUSH1 0x7F AND SWAP1 PUSH3 0xE4 JUMP JUMPDEST PUSH4 0x4E487B71 PUSH1 0xE0 SHL PUSH1 0x0 MSTORE PUSH1 0x41 PUSH1 0x4 MSTORE PUSH1 0x24 PUSH1 0x0 REVERT JUMPDEST ADD MLOAD SWAP1 POP CODESIZE DUP1 PUSH3 0xB5 JUMP JUMPDEST SWAP1 DUP8 SWAP4 POP PUSH1 0x1F NOT DUP4 AND SWAP2 DUP6 PUSH1 0x0 MSTORE DUP10 PUSH1 0x0 KECCAK256 SWAP3 PUSH1 0x0 JUMPDEST DUP12 DUP3 DUP3 LT PUSH3 0x3BA JUMPI POP POP DUP5 GT PUSH3 0x3A1 JUMPI JUMPDEST POP POP POP DUP2 SHL ADD DUP2 SSTORE PUSH3 0xC7 JUMP JUMPDEST ADD MLOAD PUSH1 0x0 NOT DUP4 DUP7 SHL PUSH1 0xF8 AND SHR NOT AND SWAP1 SSTORE CODESIZE DUP1 DUP1 PUSH3 0x393 JUMP JUMPDEST DUP4 DUP6 ADD MLOAD DUP7 SSTORE DUP12 SWAP8 SWAP1 SWAP6 ADD SWAP5 SWAP4 DUP5 ADD SWAP4 ADD PUSH3 0x380 JUMP JUMPDEST SWAP1 SWAP2 POP DUP4 PUSH1 0x0 MSTORE DUP8 PUSH1 0x0 KECCAK256 DUP7 DUP1 DUP6 ADD PUSH1 0x5 SHR DUP3 ADD SWAP3 DUP11 DUP7 LT PUSH3 0x41D JUMPI JUMPDEST SWAP2 DUP10 SWAP2 DUP7 SWAP6 SWAP5 SWAP4 ADD PUSH1 0x5 SHR ADD SWAP2 JUMPDEST DUP3 DUP2 LT PUSH3 0x40D JUMPI POP POP PUSH3 0x9E JUMP JUMPDEST PUSH1 0x0 DUP2 SSTORE DUP6 SWAP5 POP DUP10 SWAP2 ADD PUSH3 0x3FD JUMP JUMPDEST SWAP3 POP DUP2 SWAP3 PUSH3 0x3EF JUMP JUMPDEST PUSH4 0x4E487B71 PUSH1 0xE0 SHL PUSH1 0x0 MSTORE PUSH1 0x22 PUSH1 0x4 MSTORE PUSH1 0x24 PUSH1 0x0 REVERT JUMPDEST SWAP5 PUSH1 0x7F AND SWAP5 PUSH3 0x87 JUMP JUMPDEST PUSH1 0x0 DUP1 REVERT INVALID PUSH1 0x80 PUSH1 0x40 DUP2 DUP2 MSTORE PUSH1 0x4 DUP1 CALLDATASIZE LT ISZERO PUSH2 0x15 JUMPI PUSH1 0x0 DUP1 REVERT JUMPDEST PUSH1 0x0 SWAP3 DUP4 CALLDATALOAD PUSH1 0xE0 SHR SWAP1 DUP2 PUSH4 0x6FDDE03 EQ PUSH2 0xE1B JUMPI POP DUP1 PUSH4 0x917E776 EQ PUSH2 0xDF0 JUMPI DUP1 PUSH4 0x95EA7B3 EQ PUSH2 0xDC6 JUMPI DUP1 PUSH4 0xE2B68F6 EQ PUSH2 0xD8E JUMPI DUP1 PUSH4 0xF1A2905 EQ PUSH2 0xD72 JUMPI DUP1 PUSH4 0x15548232 EQ PUSH2 0xD56 JUMPI DUP1 PUSH4 0x18160DDD EQ PUSH2 0xD37 JUMPI DUP1 PUSH4 0x23B872DD EQ PUSH2 0xCFA JUMPI DUP1 PUSH4 0x2FF2E9DC EQ PUSH2 0xCD4 JUMPI DUP1 PUSH4 0x313CE567 EQ PUSH2 0xCB8 JUMPI DUP1 PUSH4 0x32CB6B0C EQ PUSH2 0xC92 JUMPI DUP1 PUSH4 0x372500AB EQ PUSH2 0xBED JUMPI DUP1 PUSH4 0x39509351 EQ PUSH2 0xB9D JUMPI DUP1 PUSH4 0x3F4BA83A EQ PUSH2 0xB08 JUMPI DUP1 PUSH4 0x40C10F19 EQ PUSH2 0xA76 JUMPI DUP1 PUSH4 0x42966C68 EQ PUSH2 0xA58 JUMPI DUP1 PUSH4 0x46904840 EQ PUSH2 0xA2F JUMPI DUP1 PUSH4 0x5C975ABB EQ PUSH2 0xA0B JUMPI DUP1 PUSH4 0x608E4DD0 EQ PUSH2 0x8AA JUMPI DUP1 PUSH4 0x60C6D8AE EQ PUSH2 0x88B JUMPI DUP1 PUSH4 0x61B8B5DC EQ PUSH2 0x853 JUMPI DUP1 PUSH4 0x70A08231 EQ PUSH2 0x810 JUMPI DUP1 PUSH4 0x715018A6 EQ PUSH2 0x7AF JUMPI DUP1 PUSH4 0x7547C7A3 EQ PUSH2 0x6C2 JUMPI DUP1 PUSH4 0x79CC6790 EQ PUSH2 0x68F JUMPI DUP1 PUSH4 0x8456CB59 EQ PUSH2 0x634 JUMPI DUP1 PUSH4 0x8DA5CB5B EQ PUSH2 0x607 JUMPI DUP1 PUSH4 0x937B983B EQ PUSH2 0x5CF JUMPI DUP1 PUSH4 0x95D89B41 EQ PUSH2 0x4AD JUMPI DUP1 PUSH4 0xA457C2D7 EQ PUSH2 0x406 JUMPI DUP1 PUSH4 0xA9059CBB EQ PUSH2 0x3D5 JUMPI DUP1 PUSH4 0xAA4704F3 EQ PUSH2 0x37F JUMPI DUP1 PUSH4 0xABC4CC40 EQ PUSH2 0x361 JUMPI DUP1 PUSH4 0xDD62ED3E EQ PUSH2 0x314 JUMPI DUP1 PUSH4 0xE74B981B EQ PUSH2 0x28A JUMPI PUSH4 0xF2FDE38B EQ PUSH2 0x1AF JUMPI PUSH1 0x0 DUP1 REVERT JUMPDEST CALLVALUE PUSH2 0x286 JUMPI PUSH1 0x20 CALLDATASIZE PUSH1 0x3 NOT ADD SLT PUSH2 0x286 JUMPI PUSH2 0x1C8 PUSH2 0xF5B JUMP JUMPDEST PUSH2 0x1D0 PUSH2 0x13F2 JUMP JUMPDEST PUSH1 0x1 PUSH1 0x1 PUSH1 0xA0 SHL SUB DUP2 DUP2 AND SWAP4 SWAP1 SWAP3 SWAP1 DUP5 ISZERO PUSH2 0x234 JUMPI POP POP PUSH1 0x5 DUP1 SLOAD PUSH2 0x100 PUSH1 0x1 PUSH1 0xA8 SHL SUB NOT DUP2 AND PUSH1 0x8 SWAP4 DUP5 SHL PUSH2 0x100 PUSH1 0x1 PUSH1 0xA8 SHL SUB AND OR SWAP1 SWAP2 SSTORE SWAP1 SHR AND PUSH32 0x8BE0079C531659141344CD1FD0A4F28419497F9722A3DAAFE3B4186F6B6457E0 DUP4 DUP1 LOG3 DUP1 RETURN JUMPDEST SWAP1 PUSH1 0x20 PUSH1 0x84 SWAP3 MLOAD SWAP2 PUSH3 0x461BCD PUSH1 0xE5 SHL DUP4 MSTORE DUP3 ADD MSTORE PUSH1 0x26 PUSH1 0x24 DUP3 ADD MSTORE PUSH32 0x4F776E61626C653A206E6577206F776E657220697320746865207A65726F2061 PUSH1 0x44 DUP3 ADD MSTORE PUSH6 0x646472657373 PUSH1 0xD0 SHL PUSH1 0x64 DUP3 ADD MSTORE REVERT JUMPDEST DUP3 DUP1 REVERT JUMPDEST POP CALLVALUE PUSH2 0x286 JUMPI PUSH1 0x20 CALLDATASIZE PUSH1 0x3 NOT ADD SLT PUSH2 0x286 JUMPI PUSH2 0x2A4 PUSH2 0xF5B JUMP JUMPDEST PUSH2 0x2AC PUSH2 0x13F2 JUMP JUMPDEST PUSH1 0x1 PUSH1 0x1 PUSH1 0xA0 SHL SUB AND SWAP2 DUP3 ISZERO PUSH2 0x2D9 JUMPI POP POP PUSH12 0xFFFFFFFFFFFFFFFFFFFFFFFF PUSH1 0xA0 SHL PUSH1 0xA SLOAD AND OR PUSH1 0xA SSTORE DUP1 RETURN JUMPDEST SWAP1 PUSH1 0x20 PUSH1 0x64 SWAP3 MLOAD SWAP2 PUSH3 0x461BCD PUSH1 0xE5 SHL DUP4 MSTORE DUP3 ADD MSTORE PUSH1 0x15 PUSH1 0x24 DUP3 ADD MSTORE PUSH21 0x125B9D985B1A5908199959481C9958DA5C1A595B9D PUSH1 0x5A SHL PUSH1 0x44 DUP3 ADD MSTORE REVERT JUMPDEST POP POP CALLVALUE PUSH2 0x35D JUMPI DUP1 PUSH1 0x3 NOT CALLDATASIZE ADD SLT PUSH2 0x35D JUMPI DUP1 PUSH1 0x20 SWAP3 PUSH2 0x332 PUSH2 0xF5B JUMP JUMPDEST PUSH2 0x33A PUSH2 0xF76 JUMP JUMPDEST PUSH1 0x1 PUSH1 0x1 PUSH1 0xA0 SHL SUB SWAP2 DUP3 AND DUP4 MSTORE PUSH1 0x1 DUP7 MSTORE DUP4 DUP4 KECCAK256 SWAP2 AND DUP3 MSTORE DUP5 MSTORE KECCAK256 SLOAD SWAP1 MLOAD SWAP1 DUP2 MSTORE RETURN JUMPDEST POP DUP1 REVERT JUMPDEST POP POP CALLVALUE PUSH2 0x35D JUMPI DUP2 PUSH1 0x3 NOT CALLDATASIZE ADD SLT PUSH2 0x35D JUMPI PUSH1 0x20 SWAP1 MLOAD PUSH3 0x93A80 DUP2 MSTORE RETURN JUMPDEST POP POP CALLVALUE PUSH2 0x35D JUMPI PUSH1 0x20 CALLDATASIZE PUSH1 0x3 NOT ADD SLT PUSH2 0x35D JUMPI SWAP1 PUSH1 0x60 SWAP2 PUSH2 0x39E PUSH2 0xF5B JUMP JUMPDEST SWAP1 PUSH1 0x1 DUP1 PUSH1 0xA0 SHL SUB DUP3 AND DUP4 MSTORE PUSH1 0x7 PUSH1 0x20 MSTORE PUSH2 0x3C5 DUP2 DUP1 DUP6 KECCAK256 SLOAD SWAP5 PUSH1 0x8 PUSH1 0x20 MSTORE KECCAK256 SLOAD SWAP3 PUSH2 0x132B JUMP JUMPDEST SWAP2 DUP2 MLOAD SWAP4 DUP5 MSTORE PUSH1 0x20 DUP5 ADD MSTORE DUP3 ADD MSTORE RETURN JUMPDEST POP POP CALLVALUE PUSH2 0x35D JUMPI DUP1 PUSH1 0x3 NOT CALLDATASIZE ADD SLT PUSH2 0x35D JUMPI PUSH1 0x20 SWAP1 PUSH2 0x3FF PUSH2 0x3F5 PUSH2 0xF5B JUMP JUMPDEST PUSH1 0x24 CALLDATALOAD SWAP1 CALLER PUSH2 0x11A2 JUMP JUMPDEST MLOAD PUSH1 0x1 DUP2 MSTORE RETURN JUMPDEST POP DUP3 CALLVALUE PUSH2 0x4AA JUMPI DUP3 PUSH1 0x3 NOT CALLDATASIZE ADD SLT PUSH2 0x4AA JUMPI PUSH2 0x420 PUSH2 0xF5B JUMP JUMPDEST SWAP2 DUP4 PUSH1 0x24 CALLDATALOAD SWAP3 CALLER DUP2 MSTORE PUSH1 0x1 PUSH1 0x20 MSTORE DUP2 DUP2 KECCAK256 PUSH1 0x1 DUP1 PUSH1 0xA0 SHL SUB DUP7 AND DUP3 MSTORE PUSH1 0x20 MSTORE KECCAK256 SLOAD SWAP1 DUP3 DUP3 LT PUSH2 0x459 JUMPI PUSH1 0x20 DUP6 PUSH2 0x3FF DUP6 DUP6 SUB DUP8 CALLER PUSH2 0x1008 JUMP JUMPDEST PUSH1 0x84 SWAP1 PUSH1 0x20 DUP7 MLOAD SWAP2 PUSH3 0x461BCD PUSH1 0xE5 SHL DUP4 MSTORE DUP3 ADD MSTORE PUSH1 0x25 PUSH1 0x24 DUP3 ADD MSTORE PUSH32 0x45524332303A2064656372656173656420616C6C6F77616E63652062656C6F77 PUSH1 0x44 DUP3 ADD MSTORE PUSH5 0x207A65726F PUSH1 0xD8 SHL PUSH1 0x64 DUP3 ADD MSTORE REVERT JUMPDEST DUP1 REVERT JUMPDEST POP SWAP2 SWAP1 CALLVALUE PUSH2 0x35D JUMPI DUP2 PUSH1 0x3 NOT CALLDATASIZE ADD SLT PUSH2 0x35D JUMPI DUP1 MLOAD SWAP1 DUP3 DUP5 SLOAD PUSH1 0x1 DUP2 PUSH1 0x1 SHR SWAP1 PUSH1 0x1 DUP4 AND SWAP3 DUP4 ISZERO PUSH2 0x5C5 JUMPI JUMPDEST PUSH1 0x20 SWAP4 DUP5 DUP5 LT DUP2 EQ PUSH2 0x5B2 JUMPI DUP4 DUP9 MSTORE SWAP1 DUP2 ISZERO PUSH2 0x596 JUMPI POP PUSH1 0x1 EQ PUSH2 0x541 JUMPI JUMPDEST POP POP POP DUP3 SWAP1 SUB PUSH1 0x1F ADD PUSH1 0x1F NOT AND DUP3 ADD SWAP3 PUSH8 0xFFFFFFFFFFFFFFFF DUP5 GT DUP4 DUP6 LT OR PUSH2 0x52E JUMPI POP DUP3 SWAP2 DUP3 PUSH2 0x52A SWAP3 MSTORE DUP3 PUSH2 0xF12 JUMP JUMPDEST SUB SWAP1 RETURN JUMPDEST PUSH4 0x4E487B71 PUSH1 0xE0 SHL DUP2 MSTORE PUSH1 0x41 DUP6 MSTORE PUSH1 0x24 SWAP1 REVERT JUMPDEST DUP8 DUP8 MSTORE SWAP2 SWAP3 POP DUP6 SWAP2 DUP4 PUSH32 0x8A35ACFBC15FF81A39AE7D344FD709F28E8600B4AA8C65C6B64BFE7FE36BD19B JUMPDEST DUP4 DUP6 LT PUSH2 0x582 JUMPI POP POP POP POP DUP4 ADD ADD CODESIZE DUP1 DUP1 PUSH2 0x4F8 JUMP JUMPDEST DUP1 SLOAD DUP9 DUP7 ADD DUP4 ADD MSTORE SWAP4 ADD SWAP3 DUP5 SWAP1 DUP3 ADD PUSH2 0x56C JUMP JUMPDEST PUSH1 0xFF NOT AND DUP8 DUP6 ADD MSTORE POP POP ISZERO ISZERO PUSH1 0x5 SHL DUP5 ADD ADD SWAP1 POP CODESIZE DUP1 DUP1 PUSH2 0x4F8 JUMP JUMPDEST PUSH4 0x4E487B71 PUSH1 0xE0 SHL DUP10 MSTORE PUSH1 0x22 DUP11 MSTORE PUSH1 0x24 DUP10 REVERT JUMPDEST SWAP2 PUSH1 0x7F AND SWAP2 PUSH2 0x4D9 JUMP JUMPDEST POP POP CALLVALUE PUSH2 0x35D JUMPI PUSH1 0x20 CALLDATASIZE PUSH1 0x3 NOT ADD SLT PUSH2 0x35D JUMPI PUSH1 0x20 SWAP2 DUP2 SWAP1 PUSH1 0x1 PUSH1 0x1 PUSH1 0xA0 SHL SUB PUSH2 0x5F7 PUSH2 0xF5B JUMP JUMPDEST AND DUP2 MSTORE PUSH1 0x8 DUP5 MSTORE KECCAK256 SLOAD SWAP1 MLOAD SWAP1 DUP2 MSTORE RETURN JUMPDEST POP POP CALLVALUE PUSH2 0x35D JUMPI DUP2 PUSH1 0x3 NOT CALLDATASIZE ADD SLT PUSH2 0x35D JUMPI PUSH1 0x5 SLOAD SWAP1 MLOAD PUSH1 0x8 SWAP2 SWAP1 SWAP2 SHR PUSH1 0x1 PUSH1 0x1 PUSH1 0xA0 SHL SUB AND DUP2 MSTORE PUSH1 0x20 SWAP1 RETURN JUMPDEST POP POP CALLVALUE PUSH2 0x35D JUMPI DUP2 PUSH1 0x3 NOT CALLDATASIZE ADD SLT PUSH2 0x35D JUMPI PUSH1 0x20 PUSH32 0x62E78CEA01BEE320CD4E420270B5EA74000D11B0C9F74754EBDBFC544B05A258 SWAP2 PUSH2 0x672 PUSH2 0x13F2 JUMP JUMPDEST PUSH2 0x67A PUSH2 0x12E7 JUMP JUMPDEST PUSH1 0x1 PUSH1 0xFF NOT PUSH1 0x5 SLOAD AND OR PUSH1 0x5 SSTORE MLOAD CALLER DUP2 MSTORE LOG1 DUP1 RETURN JUMPDEST POP POP CALLVALUE PUSH2 0x35D JUMPI CALLDATASIZE PUSH1 0x3 NOT ADD SLT PUSH2 0x4AA JUMPI PUSH2 0x6BF PUSH2 0x6AB PUSH2 0xF5B JUMP JUMPDEST PUSH1 0x24 CALLDATALOAD SWAP1 PUSH2 0x6BA DUP3 CALLER DUP4 PUSH2 0x110A JUMP JUMPDEST PUSH2 0x1552 JUMP JUMPDEST DUP1 RETURN JUMPDEST POP SWAP1 CALLVALUE PUSH2 0x286 JUMPI PUSH1 0x20 DUP1 PUSH1 0x3 NOT CALLDATASIZE ADD SLT PUSH2 0x7AB JUMPI DUP3 CALLDATALOAD SWAP3 PUSH2 0x6E1 PUSH2 0x1291 JUMP JUMPDEST PUSH2 0x6E9 PUSH2 0x12E7 JUMP JUMPDEST PUSH2 0x6F4 DUP5 ISZERO ISZERO PUSH2 0xFAF JUMP JUMPDEST CALLER DUP6 MSTORE DUP5 DUP3 MSTORE DUP4 DUP4 DUP7 KECCAK256 SLOAD LT PUSH2 0x773 JUMPI POP SWAP1 PUSH32 0xDD2A19C3BDD089CBE77C04F5655F83DE0504D6140D12C8667646F55D0557C4DC SWAP2 PUSH2 0x730 PUSH2 0x13C7 JUMP JUMPDEST PUSH2 0x73B DUP5 ADDRESS CALLER PUSH2 0x11A2 JUMP JUMPDEST CALLER DUP6 MSTORE PUSH1 0x7 DUP2 MSTORE DUP2 DUP6 KECCAK256 PUSH2 0x750 DUP6 DUP3 SLOAD PUSH2 0xF8C JUMP JUMPDEST SWAP1 SSTORE CALLER DUP6 MSTORE PUSH1 0x8 DUP2 MSTORE TIMESTAMP DUP3 DUP7 KECCAK256 SSTORE DUP2 MLOAD SWAP4 DUP5 MSTORE TIMESTAMP SWAP1 DUP5 ADD MSTORE CALLER SWAP3 LOG2 PUSH1 0x1 PUSH1 0x6 SSTORE DUP1 RETURN JUMPDEST SWAP2 MLOAD PUSH3 0x461BCD PUSH1 0xE5 SHL DUP2 MSTORE SWAP2 DUP3 ADD MSTORE PUSH1 0x14 PUSH1 0x24 DUP3 ADD MSTORE PUSH20 0x496E73756666696369656E742062616C616E6365 PUSH1 0x60 SHL PUSH1 0x44 DUP3 ADD MSTORE PUSH1 0x64 SWAP1 REVERT JUMPDEST DUP4 DUP1 REVERT JUMPDEST DUP4 CALLVALUE PUSH2 0x4AA JUMPI DUP1 PUSH1 0x3 NOT CALLDATASIZE ADD SLT PUSH2 0x4AA JUMPI PUSH2 0x7C8 PUSH2 0x13F2 JUMP JUMPDEST PUSH1 0x5 DUP1 SLOAD PUSH2 0x100 PUSH1 0x1 PUSH1 0xA8 SHL SUB NOT DUP2 AND SWAP1 SWAP2 SSTORE DUP2 SWAP1 PUSH1 0x8 SHR PUSH1 0x1 PUSH1 0x1 PUSH1 0xA0 SHL SUB AND PUSH32 0x8BE0079C531659141344CD1FD0A4F28419497F9722A3DAAFE3B4186F6B6457E0 DUP3 DUP1 LOG3 DUP1 RETURN JUMPDEST POP POP CALLVALUE PUSH2 0x35D JUMPI PUSH1 0x20 CALLDATASIZE PUSH1 0x3 NOT ADD SLT PUSH2 0x35D JUMPI PUSH1 0x20 SWAP1 PUSH2 0x84C PUSH2 0x831 PUSH2 0xF5B JUMP JUMPDEST PUSH1 0x1 PUSH1 0x1 PUSH1 0xA0 SHL SUB AND PUSH1 0x0 SWAP1 DUP2 MSTORE PUSH1 0x20 DUP2 SWAP1 MSTORE PUSH1 0x40 SWAP1 KECCAK256 SLOAD SWAP1 JUMP JUMPDEST SWAP1 MLOAD SWAP1 DUP2 MSTORE RETURN JUMPDEST POP POP CALLVALUE PUSH2 0x35D JUMPI PUSH1 0x20 CALLDATASIZE PUSH1 0x3 NOT ADD SLT PUSH2 0x35D JUMPI PUSH1 0x20 SWAP2 DUP2 SWAP1 PUSH1 0x1 PUSH1 0x1 PUSH1 0xA0 SHL SUB PUSH2 0x87B PUSH2 0xF5B JUMP JUMPDEST AND DUP2 MSTORE PUSH1 0x7 DUP5 MSTORE KECCAK256 SLOAD SWAP1 MLOAD SWAP1 DUP2 MSTORE RETURN JUMPDEST POP POP CALLVALUE PUSH2 0x35D JUMPI DUP2 PUSH1 0x3 NOT CALLDATASIZE ADD SLT PUSH2 0x35D JUMPI PUSH1 0x20 SWAP1 PUSH1 0xB SLOAD SWAP1 MLOAD SWAP1 DUP2 MSTORE RETURN JUMPDEST POP SWAP1 CALLVALUE PUSH2 0x286 JUMPI PUSH1 0x20 DUP1 PUSH1 0x3 NOT CALLDATASIZE ADD SLT PUSH2 0x7AB JUMPI DUP3 CALLDATALOAD SWAP3 PUSH2 0x8C9 PUSH2 0x1291 JUMP JUMPDEST PUSH2 0x8D1 PUSH2 0x12E7 JUMP JUMPDEST PUSH2 0x8DC DUP5 ISZERO ISZERO PUSH2 0xFAF JUMP JUMPDEST CALLER DUP6 MSTORE PUSH1 0x7 DUP3 MSTORE DUP4 DUP4 DUP7 KECCAK256 SLOAD LT PUSH2 0x9CA JUMPI CALLER DUP6 MSTORE PUSH1 0x8 DUP3 MSTORE DUP3 DUP6 KECCAK256 SLOAD PUSH3 0x93A80 DUP2 ADD DUP1 SWAP2 GT PUSH2 0x9B7 JUMPI TIMESTAMP LT PUSH2 0x976 JUMPI POP SWAP1 PUSH32 0x6F2D3E000C89D37446B7C0374C0125068FF316D1E3EE302336478A8CD03C2336 SWAP2 PUSH2 0x938 CALLER PUSH2 0x132B JUMP JUMPDEST SWAP1 PUSH2 0x941 PUSH2 0x13C7 JUMP JUMPDEST CALLER DUP7 MSTORE PUSH1 0x7 DUP2 MSTORE DUP3 DUP7 KECCAK256 PUSH2 0x956 DUP7 DUP3 SLOAD PUSH2 0xFFB JUMP JUMPDEST SWAP1 SSTORE PUSH2 0x963 DUP6 CALLER ADDRESS PUSH2 0x11A2 JUMP JUMPDEST DUP3 MLOAD SWAP5 DUP6 MSTORE DUP5 ADD MSTORE CALLER SWAP3 LOG2 PUSH1 0x1 PUSH1 0x6 SSTORE DUP1 RETURN JUMPDEST SWAP2 MLOAD PUSH3 0x461BCD PUSH1 0xE5 SHL DUP2 MSTORE SWAP2 DUP3 ADD DUP2 SWAP1 MSTORE PUSH1 0x24 DUP3 ADD MSTORE PUSH32 0x4D696E696D756D207374616B696E67206475726174696F6E206E6F74206D6574 PUSH1 0x44 DUP3 ADD MSTORE PUSH1 0x64 SWAP1 REVERT JUMPDEST PUSH4 0x4E487B71 PUSH1 0xE0 SHL DUP7 MSTORE PUSH1 0x11 DUP3 MSTORE PUSH1 0x24 DUP7 REVERT JUMPDEST SWAP2 MLOAD PUSH3 0x461BCD PUSH1 0xE5 SHL DUP2 MSTORE SWAP2 DUP3 ADD MSTORE PUSH1 0x1A PUSH1 0x24 DUP3 ADD MSTORE PUSH32 0x496E73756666696369656E74207374616B656420616D6F756E74000000000000 PUSH1 0x44 DUP3 ADD MSTORE PUSH1 0x64 SWAP1 REVERT JUMPDEST POP POP CALLVALUE PUSH2 0x35D JUMPI DUP2 PUSH1 0x3 NOT CALLDATASIZE ADD SLT PUSH2 0x35D JUMPI PUSH1 0x20 SWAP1 PUSH1 0xFF PUSH1 0x5 SLOAD AND SWAP1 MLOAD SWAP1 ISZERO ISZERO DUP2 MSTORE RETURN JUMPDEST POP POP CALLVALUE PUSH2 0x35D JUMPI DUP2 PUSH1 0x3 NOT CALLDATASIZE ADD SLT PUSH2 0x35D JUMPI PUSH1 0xA SLOAD SWAP1 MLOAD PUSH1 0x1 PUSH1 0x1 PUSH1 0xA0 SHL SUB SWAP1 SWAP2 AND DUP2 MSTORE PUSH1 0x20 SWAP1 RETURN JUMPDEST DUP4 DUP3 CALLVALUE PUSH2 0x35D JUMPI PUSH1 0x20 CALLDATASIZE PUSH1 0x3 NOT ADD SLT PUSH2 0x35D JUMPI PUSH2 0x6BF SWAP1 CALLDATALOAD CALLER PUSH2 0x1552 JUMP JUMPDEST POP DUP3 SWAP1 CALLVALUE PUSH2 0x35D JUMPI DUP3 PUSH1 0x3 NOT CALLDATASIZE ADD SLT PUSH2 0x35D JUMPI PUSH2 0xA91 PUSH2 0xF5B JUMP JUMPDEST PUSH1 0x24 CALLDATALOAD SWAP2 PUSH2 0xA9D PUSH2 0x13F2 JUMP JUMPDEST PUSH11 0x52B7D2DCC80CD2E4000000 PUSH2 0xAB5 DUP5 PUSH1 0x2 SLOAD PUSH2 0xF8C JUMP JUMPDEST GT PUSH2 0xAC5 JUMPI POP SWAP1 PUSH2 0x6BF SWAP2 PUSH2 0x144D JUMP JUMPDEST PUSH1 0x64 SWAP1 PUSH1 0x20 DUP7 MLOAD SWAP2 PUSH3 0x461BCD PUSH1 0xE5 SHL DUP4 MSTORE DUP3 ADD MSTORE PUSH1 0x17 PUSH1 0x24 DUP3 ADD MSTORE PUSH32 0x576F756C6420657863656564206D617820737570706C79000000000000000000 PUSH1 0x44 DUP3 ADD MSTORE REVERT JUMPDEST POP CALLVALUE PUSH2 0x286 JUMPI DUP3 PUSH1 0x3 NOT CALLDATASIZE ADD SLT PUSH2 0x286 JUMPI PUSH2 0xB21 PUSH2 0x13F2 JUMP JUMPDEST PUSH1 0x5 SLOAD SWAP1 PUSH1 0xFF DUP3 AND ISZERO PUSH2 0xB63 JUMPI POP PUSH1 0xFF NOT AND PUSH1 0x5 SSTORE MLOAD CALLER DUP2 MSTORE PUSH32 0x5DB9EE0A495BF2E6FF9C91A7834C1BA4FDD244A5E8AA4E537BD38AEAE4B073AA SWAP1 PUSH1 0x20 SWAP1 LOG1 DUP1 RETURN JUMPDEST PUSH1 0x64 SWAP1 PUSH1 0x20 DUP5 MLOAD SWAP2 PUSH3 0x461BCD PUSH1 0xE5 SHL DUP4 MSTORE DUP3 ADD MSTORE PUSH1 0x14 PUSH1 0x24 DUP3 ADD MSTORE PUSH20 0x14185D5CD8589B194E881B9BDD081C185D5CD959 PUSH1 0x62 SHL PUSH1 0x44 DUP3 ADD MSTORE REVERT JUMPDEST POP POP CALLVALUE PUSH2 0x35D JUMPI DUP1 PUSH1 0x3 NOT CALLDATASIZE ADD SLT PUSH2 0x35D JUMPI PUSH2 0x3FF PUSH1 0x20 SWAP3 PUSH2 0xBE6 PUSH2 0xBC0 PUSH2 0xF5B JUMP JUMPDEST CALLER DUP4 MSTORE PUSH1 0x1 DUP7 MSTORE DUP5 DUP4 KECCAK256 PUSH1 0x1 PUSH1 0x1 PUSH1 0xA0 SHL SUB DUP3 AND DUP5 MSTORE DUP7 MSTORE SWAP2 DUP5 SWAP1 KECCAK256 SLOAD PUSH1 0x24 CALLDATALOAD SWAP1 PUSH2 0xF8C JUMP JUMPDEST SWAP1 CALLER PUSH2 0x1008 JUMP JUMPDEST POP SWAP1 CALLVALUE PUSH2 0x286 JUMPI DUP3 PUSH1 0x3 NOT CALLDATASIZE ADD SLT PUSH2 0x286 JUMPI PUSH2 0xC07 PUSH2 0x1291 JUMP JUMPDEST PUSH2 0xC0F PUSH2 0x12E7 JUMP JUMPDEST PUSH2 0xC18 CALLER PUSH2 0x132B JUMP JUMPDEST SWAP2 DUP3 ISZERO PUSH2 0xC5A JUMPI POP PUSH2 0xC28 PUSH2 0x13C7 JUMP JUMPDEST MLOAD SWAP1 DUP2 MSTORE PUSH32 0xFC30CDDEA38E2BF4D6EA7D3F9ED3B6AD7F176419F4963BD81318067A4AEE73FE PUSH1 0x20 CALLER SWAP3 LOG2 PUSH1 0x1 PUSH1 0x6 SSTORE DUP1 RETURN JUMPDEST PUSH1 0x20 PUSH1 0x64 SWAP3 MLOAD SWAP2 PUSH3 0x461BCD PUSH1 0xE5 SHL DUP4 MSTORE DUP3 ADD MSTORE PUSH1 0x13 PUSH1 0x24 DUP3 ADD MSTORE PUSH19 0x4E6F207265776172647320746F20636C61696D PUSH1 0x68 SHL PUSH1 0x44 DUP3 ADD MSTORE REVERT JUMPDEST POP POP CALLVALUE PUSH2 0x35D JUMPI DUP2 PUSH1 0x3 NOT CALLDATASIZE ADD SLT PUSH2 0x35D JUMPI PUSH1 0x20 SWAP1 MLOAD PUSH11 0x52B7D2DCC80CD2E4000000 DUP2 MSTORE RETURN JUMPDEST POP POP CALLVALUE PUSH2 0x35D JUMPI DUP2 PUSH1 0x3 NOT CALLDATASIZE ADD SLT PUSH2 0x35D JUMPI PUSH1 0x20 SWAP1 MLOAD PUSH1 0x12 DUP2 MSTORE RETURN JUMPDEST POP POP CALLVALUE PUSH2 0x35D JUMPI DUP2 PUSH1 0x3 NOT CALLDATASIZE ADD SLT PUSH2 0x35D JUMPI PUSH1 0x20 SWAP1 MLOAD PUSH11 0x84595161401484A000000 DUP2 MSTORE RETURN JUMPDEST POP POP CALLVALUE PUSH2 0x35D JUMPI PUSH1 0x60 CALLDATASIZE PUSH1 0x3 NOT ADD SLT PUSH2 0x35D JUMPI PUSH1 0x20 SWAP1 PUSH2 0x3FF PUSH2 0xD1B PUSH2 0xF5B JUMP JUMPDEST PUSH2 0xD23 PUSH2 0xF76 JUMP JUMPDEST PUSH1 0x44 CALLDATALOAD SWAP2 PUSH2 0xD32 DUP4 CALLER DUP4 PUSH2 0x110A JUMP JUMPDEST PUSH2 0x11A2 JUMP JUMPDEST POP POP CALLVALUE PUSH2 0x35D JUMPI DUP2 PUSH1 0x3 NOT CALLDATASIZE ADD SLT PUSH2 0x35D JUMPI PUSH1 0x20 SWAP1 PUSH1 0x2 SLOAD SWAP1 MLOAD SWAP1 DUP2 MSTORE RETURN JUMPDEST POP POP CALLVALUE PUSH2 0x35D JUMPI DUP2 PUSH1 0x3 NOT CALLDATASIZE ADD SLT PUSH2 0x35D JUMPI PUSH1 0x20 SWAP1 MLOAD PUSH1 0x2 DUP2 MSTORE RETURN JUMPDEST POP POP CALLVALUE PUSH2 0x35D JUMPI DUP2 PUSH1 0x3 NOT CALLDATASIZE ADD SLT PUSH2 0x35D JUMPI PUSH1 0x20 SWAP1 MLOAD PUSH1 0xA DUP2 MSTORE RETURN JUMPDEST POP POP CALLVALUE PUSH2 0x35D JUMPI PUSH1 0x20 CALLDATASIZE PUSH1 0x3 NOT ADD SLT PUSH2 0x35D JUMPI PUSH1 0x20 SWAP2 DUP2 SWAP1 PUSH1 0x1 PUSH1 0x1 PUSH1 0xA0 SHL SUB PUSH2 0xDB6 PUSH2 0xF5B JUMP JUMPDEST AND DUP2 MSTORE PUSH1 0x9 DUP5 MSTORE KECCAK256 SLOAD SWAP1 MLOAD SWAP1 DUP2 MSTORE RETURN JUMPDEST POP POP CALLVALUE PUSH2 0x35D JUMPI DUP1 PUSH1 0x3 NOT CALLDATASIZE ADD SLT PUSH2 0x35D JUMPI PUSH1 0x20 SWAP1 PUSH2 0x3FF PUSH2 0xDE6 PUSH2 0xF5B JUMP JUMPDEST PUSH1 0x24 CALLDATALOAD SWAP1 CALLER PUSH2 0x1008 JUMP JUMPDEST POP POP CALLVALUE PUSH2 0x35D JUMPI DUP2 PUSH1 0x3 NOT CALLDATASIZE ADD SLT PUSH2 0x35D JUMPI ADDRESS PUSH1 0x0 SWAP1 DUP2 MSTORE PUSH1 0x20 DUP2 DUP2 MSTORE PUSH1 0x40 SWAP1 SWAP2 KECCAK256 SLOAD SWAP1 SWAP2 SWAP1 PUSH2 0x84C JUMP JUMPDEST DUP5 SWAP2 POP DUP4 CALLVALUE PUSH2 0x286 JUMPI DUP3 PUSH1 0x3 NOT CALLDATASIZE ADD SLT PUSH2 0x286 JUMPI DUP3 PUSH1 0x3 SLOAD PUSH1 0x1 DUP2 PUSH1 0x1 SHR SWAP1 PUSH1 0x1 DUP4 AND SWAP3 DUP4 ISZERO PUSH2 0xF08 JUMPI JUMPDEST PUSH1 0x20 SWAP4 DUP5 DUP5 LT DUP2 EQ PUSH2 0x5B2 JUMPI DUP4 DUP9 MSTORE SWAP1 DUP2 ISZERO PUSH2 0xEEC JUMPI POP PUSH1 0x1 EQ PUSH2 0xE96 JUMPI POP POP POP DUP3 SWAP1 SUB PUSH1 0x1F ADD PUSH1 0x1F NOT AND DUP3 ADD SWAP3 PUSH8 0xFFFFFFFFFFFFFFFF DUP5 GT DUP4 DUP6 LT OR PUSH2 0x52E JUMPI POP DUP3 SWAP2 DUP3 PUSH2 0x52A SWAP3 MSTORE DUP3 PUSH2 0xF12 JUMP JUMPDEST PUSH1 0x3 DUP8 MSTORE SWAP2 SWAP3 POP DUP6 SWAP2 DUP4 PUSH32 0xC2575A0E9E593C00F959F8C92F12DB2869C3395A3B0502D05E2516446F71F85B JUMPDEST DUP4 DUP6 LT PUSH2 0xED8 JUMPI POP POP POP POP DUP4 ADD ADD DUP6 DUP1 DUP1 PUSH2 0x4F8 JUMP JUMPDEST DUP1 SLOAD DUP9 DUP7 ADD DUP4 ADD MSTORE SWAP4 ADD SWAP3 DUP5 SWAP1 DUP3 ADD PUSH2 0xEC2 JUMP JUMPDEST PUSH1 0xFF NOT AND DUP8 DUP6 ADD MSTORE POP POP ISZERO ISZERO PUSH1 0x5 SHL DUP5 ADD ADD SWAP1 POP DUP6 DUP1 DUP1 PUSH2 0x4F8 JUMP JUMPDEST SWAP2 PUSH1 0x7F AND SWAP2 PUSH2 0xE46 JUMP JUMPDEST PUSH1 0x20 DUP1 DUP3 MSTORE DUP3 MLOAD DUP2 DUP4 ADD DUP2 SWAP1 MSTORE SWAP1 SWAP4 SWAP3 PUSH1 0x0 JUMPDEST DUP3 DUP2 LT PUSH2 0xF47 JUMPI POP POP PUSH1 0x40 SWAP3 SWAP4 POP PUSH1 0x0 DUP4 DUP3 DUP5 ADD ADD MSTORE PUSH1 0x1F DUP1 NOT SWAP2 ADD AND ADD ADD SWAP1 JUMP JUMPDEST DUP2 DUP2 ADD DUP7 ADD MLOAD DUP5 DUP3 ADD PUSH1 0x40 ADD MSTORE DUP6 ADD PUSH2 0xF25 JUMP JUMPDEST PUSH1 0x4 CALLDATALOAD SWAP1 PUSH1 0x1 PUSH1 0x1 PUSH1 0xA0 SHL SUB DUP3 AND DUP3 SUB PUSH2 0xF71 JUMPI JUMP JUMPDEST PUSH1 0x0 DUP1 REVERT JUMPDEST PUSH1 0x24 CALLDATALOAD SWAP1 PUSH1 0x1 PUSH1 0x1 PUSH1 0xA0 SHL SUB DUP3 AND DUP3 SUB PUSH2 0xF71 JUMPI JUMP JUMPDEST SWAP2 SWAP1 DUP3 ADD DUP1 SWAP3 GT PUSH2 0xF99 JUMPI JUMP JUMPDEST PUSH4 0x4E487B71 PUSH1 0xE0 SHL PUSH1 0x0 MSTORE PUSH1 0x11 PUSH1 0x4 MSTORE PUSH1 0x24 PUSH1 0x0 REVERT JUMPDEST ISZERO PUSH2 0xFB6 JUMPI JUMP JUMPDEST PUSH1 0x40 MLOAD PUSH3 0x461BCD PUSH1 0xE5 SHL DUP2 MSTORE PUSH1 0x20 PUSH1 0x4 DUP3 ADD MSTORE PUSH1 0x1D PUSH1 0x24 DUP3 ADD MSTORE PUSH32 0x416D6F756E74206D7573742062652067726561746572207468616E2030000000 PUSH1 0x44 DUP3 ADD MSTORE PUSH1 0x64 SWAP1 REVERT JUMPDEST SWAP2 SWAP1 DUP3 SUB SWAP2 DUP3 GT PUSH2 0xF99 JUMPI JUMP JUMPDEST PUSH1 0x1 PUSH1 0x1 PUSH1 0xA0 SHL SUB SWAP1 DUP2 AND SWAP2 DUP3 ISZERO PUSH2 0x10B9 JUMPI AND SWAP2 DUP3 ISZERO PUSH2 0x1069 JUMPI PUSH1 0x20 PUSH32 0x8C5BE1E5EBEC7D5BD14F71427D1E84F3DD0314C0F7B2291E5B200AC8C7C3B925 SWAP2 DUP4 PUSH1 0x0 MSTORE PUSH1 0x1 DUP3 MSTORE PUSH1 0x40 PUSH1 0x0 KECCAK256 DUP6 PUSH1 0x0 MSTORE DUP3 MSTORE DUP1 PUSH1 0x40 PUSH1 0x0 KECCAK256 SSTORE PUSH1 0x40 MLOAD SWAP1 DUP2 MSTORE LOG3 JUMP JUMPDEST PUSH1 0x40 MLOAD PUSH3 0x461BCD PUSH1 0xE5 SHL DUP2 MSTORE PUSH1 0x20 PUSH1 0x4 DUP3 ADD MSTORE PUSH1 0x22 PUSH1 0x24 DUP3 ADD MSTORE PUSH32 0x45524332303A20617070726F766520746F20746865207A65726F206164647265 PUSH1 0x44 DUP3 ADD MSTORE PUSH2 0x7373 PUSH1 0xF0 SHL PUSH1 0x64 DUP3 ADD MSTORE PUSH1 0x84 SWAP1 REVERT JUMPDEST PUSH1 0x40 MLOAD PUSH3 0x461BCD PUSH1 0xE5 SHL DUP2 MSTORE PUSH1 0x20 PUSH1 0x4 DUP3 ADD MSTORE PUSH1 0x24 DUP1 DUP3 ADD MSTORE PUSH32 0x45524332303A20617070726F76652066726F6D20746865207A65726F20616464 PUSH1 0x44 DUP3 ADD MSTORE PUSH4 0x72657373 PUSH1 0xE0 SHL PUSH1 0x64 DUP3 ADD MSTORE PUSH1 0x84 SWAP1 REVERT JUMPDEST SWAP1 PUSH1 0x1 DUP1 PUSH1 0xA0 SHL SUB DUP1 DUP4 AND PUSH1 0x0 MSTORE PUSH1 0x1 PUSH1 0x20 MSTORE PUSH1 0x40 PUSH1 0x0 KECCAK256 SWAP1 DUP3 AND PUSH1 0x0 MSTORE PUSH1 0x20 MSTORE PUSH1 0x40 PUSH1 0x0 KECCAK256 SLOAD SWAP3 PUSH1 0x0 NOT DUP5 SUB PUSH2 0x1142 JUMPI JUMPDEST POP POP POP POP JUMP JUMPDEST DUP1 DUP5 LT PUSH2 0x115D JUMPI PUSH2 0x1154 SWAP4 SUB SWAP2 PUSH2 0x1008 JUMP JUMPDEST CODESIZE DUP1 DUP1 DUP1 PUSH2 0x113C JUMP JUMPDEST PUSH1 0x40 MLOAD PUSH3 0x461BCD PUSH1 0xE5 SHL DUP2 MSTORE PUSH1 0x20 PUSH1 0x4 DUP3 ADD MSTORE PUSH1 0x1D PUSH1 0x24 DUP3 ADD MSTORE PUSH32 0x45524332303A20696E73756666696369656E7420616C6C6F77616E6365000000 PUSH1 0x44 DUP3 ADD MSTORE PUSH1 0x64 SWAP1 REVERT JUMPDEST PUSH1 0x5 SLOAD PUSH1 0x1 PUSH1 0x1 PUSH1 0xA0 SHL SUB DUP1 DUP4 AND SWAP5 SWAP4 SWAP3 SWAP2 PUSH1 0x8 SHR DUP2 AND DUP6 DUP2 EQ SWAP1 DUP2 ISZERO PUSH2 0x1285 JUMPI JUMPDEST POP DUP1 ISZERO PUSH2 0x127C JUMPI JUMPDEST DUP1 ISZERO PUSH2 0x1271 JUMPI JUMPDEST ISZERO PUSH2 0x11E5 JUMPI POP PUSH2 0x11E3 SWAP4 POP PUSH2 0x1663 JUMP JUMPDEST JUMP JUMPDEST SWAP2 DUP4 PUSH1 0x1 SWAP5 SWAP3 SWAP5 SHL SWAP1 DUP3 DUP3 DIV PUSH1 0x2 EQ DUP4 ISZERO OR ISZERO PUSH2 0xF99 JUMPI PUSH2 0x120D PUSH1 0x64 PUSH2 0x1214 SWAP4 DIV DUP1 SWAP5 PUSH2 0xFFB JUMP JUMPDEST SWAP1 DUP6 PUSH2 0x1663 JUMP JUMPDEST DUP1 PUSH2 0x121F JUMPI POP POP POP POP JUMP JUMPDEST PUSH2 0x1252 DUP2 PUSH32 0x6C5EFEFF5C320943D265DC4E5F1AF95AD523555CE0C1957E367DDA5514572DF SWAP5 PUSH1 0x20 SWAP5 PUSH1 0xA SLOAD AND SWAP1 PUSH2 0x1663 JUMP JUMPDEST PUSH2 0x125E DUP2 PUSH1 0xB SLOAD PUSH2 0xF8C JUMP JUMPDEST PUSH1 0xB SSTORE PUSH1 0x40 MLOAD SWAP1 DUP2 MSTORE LOG2 CODESIZE DUP1 DUP1 DUP1 PUSH2 0x113C JUMP JUMPDEST POP ADDRESS DUP2 DUP5 AND EQ PUSH2 0x11D3 JUMP JUMPDEST POP ADDRESS DUP6 EQ PUSH2 0x11CC JUMP JUMPDEST SWAP1 POP DUP2 DUP5 AND EQ CODESIZE PUSH2 0x11C4 JUMP JUMPDEST PUSH1 0x2 PUSH1 0x6 SLOAD EQ PUSH2 0x12A2 JUMPI PUSH1 0x2 PUSH1 0x6 SSTORE JUMP JUMPDEST PUSH1 0x40 MLOAD PUSH3 0x461BCD PUSH1 0xE5 SHL DUP2 MSTORE PUSH1 0x20 PUSH1 0x4 DUP3 ADD MSTORE PUSH1 0x1F PUSH1 0x24 DUP3 ADD MSTORE PUSH32 0x5265656E7472616E637947756172643A207265656E7472616E742063616C6C00 PUSH1 0x44 DUP3 ADD MSTORE PUSH1 0x64 SWAP1 REVERT JUMPDEST PUSH1 0xFF PUSH1 0x5 SLOAD AND PUSH2 0x12F3 JUMPI JUMP JUMPDEST PUSH1 0x40 MLOAD PUSH3 0x461BCD PUSH1 0xE5 SHL DUP2 MSTORE PUSH1 0x20 PUSH1 0x4 DUP3 ADD MSTORE PUSH1 0x10 PUSH1 0x24 DUP3 ADD MSTORE PUSH16 0x14185D5CD8589B194E881C185D5CD959 PUSH1 0x82 SHL PUSH1 0x44 DUP3 ADD MSTORE PUSH1 0x64 SWAP1 REVERT JUMPDEST PUSH1 0x1 PUSH1 0x1 PUSH1 0xA0 SHL SUB AND PUSH1 0x0 DUP2 DUP2 MSTORE PUSH1 0x7 PUSH1 0x20 MSTORE PUSH1 0x40 DUP2 KECCAK256 SLOAD ISZERO PUSH2 0x13C2 JUMPI PUSH1 0x9 PUSH1 0x20 MSTORE PUSH2 0x135B PUSH1 0x40 DUP3 KECCAK256 SLOAD TIMESTAMP PUSH2 0xFFB JUMP JUMPDEST SWAP2 DUP2 MSTORE PUSH1 0x7 PUSH1 0x20 MSTORE PUSH1 0x40 DUP2 KECCAK256 SLOAD PUSH1 0xA DUP2 MUL SWAP1 DUP1 DUP3 DIV PUSH1 0xA EQ SWAP1 ISZERO OR ISZERO PUSH2 0x13AE JUMPI PUSH1 0x64 SWAP1 DIV DUP3 DUP2 MUL SWAP3 DUP2 DUP5 DIV EQ SWAP1 ISZERO OR ISZERO PUSH2 0x139A JUMPI POP PUSH4 0x1E13380 SWAP1 DIV SWAP1 JUMP JUMPDEST PUSH4 0x4E487B71 PUSH1 0xE0 SHL DUP2 MSTORE PUSH1 0x11 PUSH1 0x4 MSTORE PUSH1 0x24 SWAP1 REVERT JUMPDEST PUSH4 0x4E487B71 PUSH1 0xE0 SHL DUP3 MSTORE PUSH1 0x11 PUSH1 0x4 MSTORE PUSH1 0x24 DUP3 REVERT JUMPDEST SWAP1 POP SWAP1 JUMP JUMPDEST PUSH2 0x13D0 CALLER PUSH2 0x132B JUMP JUMPDEST DUP1 PUSH2 0x13D8 JUMPI POP JUMP JUMPDEST PUSH2 0x11E3 SWAP1 CALLER PUSH1 0x0 MSTORE PUSH1 0x9 PUSH1 0x20 MSTORE TIMESTAMP PUSH1 0x40 PUSH1 0x0 KECCAK256 SSTORE CALLER PUSH2 0x144D JUMP JUMPDEST PUSH1 0x5 SLOAD PUSH1 0x8 SHR PUSH1 0x1 PUSH1 0x1 PUSH1 0xA0 SHL SUB AND CALLER SUB PUSH2 0x1409 JUMPI JUMP JUMPDEST PUSH1 0x64 PUSH1 0x40 MLOAD PUSH3 0x461BCD PUSH1 0xE5 SHL DUP2 MSTORE PUSH1 0x20 PUSH1 0x4 DUP3 ADD MSTORE PUSH1 0x20 PUSH1 0x24 DUP3 ADD MSTORE PUSH32 0x4F776E61626C653A2063616C6C6572206973206E6F7420746865206F776E6572 PUSH1 0x44 DUP3 ADD MSTORE REVERT JUMPDEST PUSH1 0x1 PUSH1 0x1 PUSH1 0xA0 SHL SUB AND SWAP1 DUP2 ISZERO PUSH2 0x150D JUMPI PUSH1 0xFF PUSH1 0x5 SLOAD AND PUSH2 0x14B5 JUMPI PUSH32 0xDDF252AD1BE2C89B69C2B068FC378DAA952BA7F163C4A11628F55A4DF523B3EF PUSH1 0x20 DUP3 PUSH2 0x1499 PUSH1 0x0 SWAP5 PUSH1 0x2 SLOAD PUSH2 0xF8C JUMP JUMPDEST PUSH1 0x2 SSTORE DUP5 DUP5 MSTORE DUP4 DUP3 MSTORE PUSH1 0x40 DUP5 KECCAK256 DUP2 DUP2 SLOAD ADD SWAP1 SSTORE PUSH1 0x40 MLOAD SWAP1 DUP2 MSTORE LOG3 JUMP JUMPDEST PUSH1 0x40 MLOAD PUSH3 0x461BCD PUSH1 0xE5 SHL DUP2 MSTORE PUSH1 0x20 PUSH1 0x4 DUP3 ADD MSTORE PUSH1 0x2A PUSH1 0x24 DUP3 ADD MSTORE PUSH32 0x45524332305061757361626C653A20746F6B656E207472616E73666572207768 PUSH1 0x44 DUP3 ADD MSTORE PUSH10 0x1A5B19481C185D5CD959 PUSH1 0xB2 SHL PUSH1 0x64 DUP3 ADD MSTORE PUSH1 0x84 SWAP1 REVERT JUMPDEST PUSH1 0x40 MLOAD PUSH3 0x461BCD PUSH1 0xE5 SHL DUP2 MSTORE PUSH1 0x20 PUSH1 0x4 DUP3 ADD MSTORE PUSH1 0x1F PUSH1 0x24 DUP3 ADD MSTORE PUSH32 0x45524332303A206D696E7420746F20746865207A65726F206164647265737300 PUSH1 0x44 DUP3 ADD MSTORE PUSH1 0x64 SWAP1 REVERT JUMPDEST PUSH1 0x1 PUSH1 0x1 PUSH1 0xA0 SHL SUB AND DUP1 ISZERO PUSH2 0x1614 JUMPI PUSH1 0xFF PUSH1 0x5 SLOAD AND PUSH2 0x14B5 JUMPI PUSH1 0x0 SWAP2 DUP2 DUP4 MSTORE DUP3 PUSH1 0x20 MSTORE PUSH1 0x40 DUP4 KECCAK256 SLOAD DUP2 DUP2 LT PUSH2 0x15C4 JUMPI DUP2 PUSH32 0xDDF252AD1BE2C89B69C2B068FC378DAA952BA7F163C4A11628F55A4DF523B3EF SWAP3 PUSH1 0x20 SWAP3 DUP6 DUP8 MSTORE DUP7 DUP5 MSTORE SUB PUSH1 0x40 DUP7 KECCAK256 SSTORE DUP1 PUSH1 0x2 SLOAD SUB PUSH1 0x2 SSTORE PUSH1 0x40 MLOAD SWAP1 DUP2 MSTORE LOG3 JUMP JUMPDEST PUSH1 0x40 MLOAD PUSH3 0x461BCD PUSH1 0xE5 SHL DUP2 MSTORE PUSH1 0x20 PUSH1 0x4 DUP3 ADD MSTORE PUSH1 0x22 PUSH1 0x24 DUP3 ADD MSTORE PUSH32 0x45524332303A206275726E20616D6F756E7420657863656564732062616C616E PUSH1 0x44 DUP3 ADD MSTORE PUSH2 0x6365 PUSH1 0xF0 SHL PUSH1 0x64 DUP3 ADD MSTORE PUSH1 0x84 SWAP1 REVERT JUMPDEST PUSH1 0x40 MLOAD PUSH3 0x461BCD PUSH1 0xE5 SHL DUP2 MSTORE PUSH1 0x20 PUSH1 0x4 DUP3 ADD MSTORE PUSH1 0x21 PUSH1 0x24 DUP3 ADD MSTORE PUSH32 0x45524332303A206275726E2066726F6D20746865207A65726F20616464726573 PUSH1 0x44 DUP3 ADD MSTORE PUSH1 0x73 PUSH1 0xF8 SHL PUSH1 0x64 DUP3 ADD MSTORE PUSH1 0x84 SWAP1 REVERT JUMPDEST PUSH1 0x1 PUSH1 0x1 PUSH1 0xA0 SHL SUB SWAP1 DUP2 AND SWAP2 DUP3 ISZERO PUSH2 0x1788 JUMPI AND SWAP2 DUP3 ISZERO PUSH2 0x1737 JUMPI PUSH1 0xFF PUSH1 0x5 SLOAD AND PUSH2 0x14B5 JUMPI PUSH1 0x0 DUP3 DUP2 MSTORE DUP1 PUSH1 0x20 MSTORE PUSH1 0x40 DUP2 KECCAK256 SLOAD SWAP2 DUP1 DUP4 LT PUSH2 0x16E3 JUMPI PUSH1 0x40 DUP3 DUP3 PUSH32 0xDDF252AD1BE2C89B69C2B068FC378DAA952BA7F163C4A11628F55A4DF523B3EF SWAP6 DUP8 PUSH1 0x20 SWAP7 MSTORE DUP3 DUP7 MSTORE SUB DUP3 DUP3 KECCAK256 SSTORE DUP7 DUP2 MSTORE KECCAK256 DUP2 DUP2 SLOAD ADD SWAP1 SSTORE PUSH1 0x40 MLOAD SWAP1 DUP2 MSTORE LOG3 JUMP JUMPDEST PUSH1 0x40 MLOAD PUSH3 0x461BCD PUSH1 0xE5 SHL DUP2 MSTORE PUSH1 0x20 PUSH1 0x4 DUP3 ADD MSTORE PUSH1 0x26 PUSH1 0x24 DUP3 ADD MSTORE PUSH32 0x45524332303A207472616E7366657220616D6F756E7420657863656564732062 PUSH1 0x44 DUP3 ADD MSTORE PUSH6 0x616C616E6365 PUSH1 0xD0 SHL PUSH1 0x64 DUP3 ADD MSTORE PUSH1 0x84 SWAP1 REVERT JUMPDEST PUSH1 0x40 MLOAD PUSH3 0x461BCD PUSH1 0xE5 SHL DUP2 MSTORE PUSH1 0x20 PUSH1 0x4 DUP3 ADD MSTORE PUSH1 0x23 PUSH1 0x24 DUP3 ADD MSTORE PUSH32 0x45524332303A207472616E7366657220746F20746865207A65726F2061646472 PUSH1 0x44 DUP3 ADD MSTORE PUSH3 0x657373 PUSH1 0xE8 SHL PUSH1 0x64 DUP3 ADD MSTORE PUSH1 0x84 SWAP1 REVERT JUMPDEST PUSH1 0x40 MLOAD PUSH3 0x461BCD PUSH1 0xE5 SHL DUP2 MSTORE PUSH1 0x20 PUSH1 0x4 DUP3 ADD MSTORE PUSH1 0x25 PUSH1 0x24 DUP3 ADD MSTORE PUSH32 0x45524332303A207472616E736665722066726F6D20746865207A65726F206164 PUSH1 0x44 DUP3 ADD MSTORE PUSH5 0x6472657373 PUSH1 0xD8 SHL PUSH1 0x64 DUP3 ADD MSTORE PUSH1 0x84 SWAP1 REVERT INVALID LOG2 PUSH5 0x6970667358 0x22 SLT KECCAK256 0xBB SWAP2 TLOAD SGT PUSH1 0xCD 0x23 DUP15 0xB7 SWAP12 0xAF PUSH11 0xAAED7450E924F6ABA16988 0x2C PUSH23 0x1509617878062064736F6C634300081800330000000000 "},"methodIdentifiers":{"INITIAL_SUPPLY()":"2ff2e9dc","MAX_SUPPLY()":"32cb6b0c","MIN_STAKING_DURATION()":"abc4cc40","PLATFORM_FEE_PERCENTAGE()":"15548232","STAKING_REWARD_RATE()":"0f1a2905","allowance(address,address)":"dd62ed3e","approve(address,uint256)":"095ea7b3","balanceOf(address)":"70a08231","burn(uint256)":"42966c68","burnFrom(address,uint256)":"79cc6790","claimRewards()":"372500ab","decimals()":"313ce567","decreaseAllowance(address,uint256)":"a457c2d7","feeRecipient()":"46904840","getStakingInfo(address)":"aa4704f3","getTotalStaked()":"0917e776","increaseAllowance(address,uint256)":"39509351","lastClaimedRewards(address)":"0e2b68f6","mint(address,uint256)":"40c10f19","name()":"06fdde03","owner()":"8da5cb5b","pause()":"8456cb59","paused()":"5c975abb","renounceOwnership()":"715018a6","setFeeRecipient(address)":"e74b981b","stakeTokens(uint256)":"7547c7a3","stakingBalances(address)":"61b8b5dc","stakingTimestamps(address)":"937b983b","symbol()":"95d89b41","totalFeesCollected()":"60c6d8ae","totalSupply()":"18160ddd","transfer(address,uint256)":"a9059cbb","transferFrom(address,address,uint256)":"23b872dd","transferOwnership(address)":"f2fde38b","unpause()":"3f4ba83a","unstakeTokens(uint256)":"608e4dd0"}}}}}