{
  "_format": "hh-sol-artifact-1",
  "contractName": "YellowJobToken",
  "sourceName": "contracts/YellowJobToken.sol",
  "abi": [
    {
      "inputs": [],
      "stateMutability": "nonpayable",
      "type": "constructor"
    },
    {
      "anonymous": false,
      "inputs": [
        {
          "indexed": true,
          "internalType": "address",
          "name": "owner",
          "type": "address"
        },
        {
          "indexed": true,
          "internalType": "address",
          "name": "spender",
          "type": "address"
        },
        {
          "indexed": false,
          "internalType": "uint256",
          "name": "value",
          "type": "uint256"
        }
      ],
      "name": "Approval",
      "type": "event"
    },
    {
      "anonymous": false,
      "inputs": [
        {
          "indexed": true,
          "internalType": "address",
          "name": "from",
          "type": "address"
        },
        {
          "indexed": false,
          "internalType": "uint256",
          "name": "amount",
          "type": "uint256"
        }
      ],
      "name": "FeeCollected",
      "type": "event"
    },
    {
      "anonymous": false,
      "inputs": [
        {
          "indexed": true,
          "internalType": "address",
          "name": "previousOwner",
          "type": "address"
        },
        {
          "indexed": true,
          "internalType": "address",
          "name": "newOwner",
          "type": "address"
        }
      ],
      "name": "OwnershipTransferred",
      "type": "event"
    },
    {
      "anonymous": false,
      "inputs": [
        {
          "indexed": false,
          "internalType": "address",
          "name": "account",
          "type": "address"
        }
      ],
      "name": "Paused",
      "type": "event"
    },
    {
      "anonymous": false,
      "inputs": [
        {
          "indexed": true,
          "internalType": "address",
          "name": "user",
          "type": "address"
        },
        {
          "indexed": false,
          "internalType": "uint256",
          "name": "amount",
          "type": "uint256"
        }
      ],
      "name": "RewardsClaimed",
      "type": "event"
    },
    {
      "anonymous": false,
      "inputs": [
        {
          "indexed": true,
          "internalType": "address",
          "name": "user",
          "type": "address"
        },
        {
          "indexed": false,
          "internalType": "uint256",
          "name": "amount",
          "type": "uint256"
        },
        {
          "indexed": false,
          "internalType": "uint256",
          "name": "timestamp",
          "type": "uint256"
        }
      ],
      "name": "TokensStaked",
      "type": "event"
    },
    {
      "anonymous": false,
      "inputs": [
        {
          "indexed": true,
          "internalType": "address",
          "name": "user",
          "type": "address"
        },
        {
          "indexed": false,
          "internalType": "uint256",
          "name": "amount",
          "type": "uint256"
        },
        {
          "indexed": false,
          "internalType": "uint256",
          "name": "rewards",
          "type": "uint256"
        }
      ],
      "name": "TokensUnstaked",
      "type": "event"
    },
    {
      "anonymous": false,
      "inputs": [
        {
          "indexed": true,
          "internalType": "address",
          "name": "from",
          "type": "address"
        },
        {
          "indexed": true,
          "internalType": "address",
          "name": "to",
          "type": "address"
        },
        {
          "indexed": false,
          "internalType": "uint256",
          "name": "value",
          "type": "uint256"
        }
      ],
      "name": "Transfer",
      "type": "event"
    },
    {
      "anonymous": false,
      "inputs": [
        {
          "indexed": false,
          "internalType": "address",
          "name": "account",
          "type": "address"
        }
      ],
      "name": "Unpaused",
      "type": "event"
    },
    {
      "inputs": [],
      "name": "INITIAL_SUPPLY",
      "outputs": [
        {
          "internalType": "uint256",
          "name": "",
          "type": "uint256"
        }
      ],
      "stateMutability": "view",
      "type": "function"
    },
    {
      "inputs": [],
      "name": "MAX_SUPPLY",
      "outputs": [
        {
          "internalType": "uint256",
          "name": "",
          "type": "uint256"
        }
      ],
      "stateMutability": "view",
      "type": "function"
    },
    {
      "inputs": [],
      "name": "MIN_STAKING_DURATION",
      "outputs": [
        {
          "internalType": "uint256",
          "name": "",
          "type": "uint256"
        }
      ],
      "stateMutability": "view",
      "type": "function"
    },
    {
      "inputs": [],
      "name": "PLATFORM_FEE_PERCENTAGE",
      "outputs": [
        {
          "internalType": "uint256",
          "name": "",
          "type": "uint256"
        }
      ],
      "stateMutability": "view",
      "type": "function"
    },
    {
      "inputs": [],
      "name": "STAKING_REWARD_RATE",
      "outputs": [
        {
          "internalType": "uint256",
          "name": "",
          "type": "uint256"
        }
      ],
      "stateMutability": "view",
      "type": "function"
    },
    {
      "inputs": [
        {
          "internalType": "address",
          "name": "owner",
          "type": "address"
        },
        {
          "internalType": "address",
          "name": "spender",
          "type": "address"
        }
      ],
      "name": "allowance",
      "outputs": [
        {
          "internalType": "uint256",
          "name": "",
          "type": "uint256"
        }
      ],
      "stateMutability": "view",
      "type": "function"
    },
    {
      "inputs": [
        {
          "internalType": "address",
          "name": "spender",
          "type": "address"
        },
        {
          "internalType": "uint256",
          "name": "amount",
          "type": "uint256"
        }
      ],
      "name": "approve",
      "outputs": [
        {
          "internalType": "bool",
          "name": "",
          "type": "bool"
        }
      ],
      "stateMutability": "nonpayable",
      "type": "function"
    },
    {
      "inputs": [
        {
          "internalType": "address",
          "name": "account",
          "type": "address"
        }
      ],
      "name": "balanceOf",
      "outputs": [
        {
          "internalType": "uint256",
          "name": "",
          "type": "uint256"
        }
      ],
      "stateMutability": "view",
      "type": "function"
    },
    {
      "inputs": [
        {
          "internalType": "uint256",
          "name": "amount",
          "type": "uint256"
        }
      ],
      "name": "burn",
      "outputs": [],
      "stateMutability": "nonpayable",
      "type": "function"
    },
    {
      "inputs": [
        {
          "internalType": "address",
          "name": "account",
          "type": "address"
        },
        {
          "internalType": "uint256",
          "name": "amount",
          "type": "uint256"
        }
      ],
      "name": "burnFrom",
      "outputs": [],
      "stateMutability": "nonpayable",
      "type": "function"
    },
    {
      "inputs": [],
      "name": "claimRewards",
      "outputs": [],
      "stateMutability": "nonpayable",
      "type": "function"
    },
    {
      "inputs": [],
      "name": "decimals",
      "outputs": [
        {
          "internalType": "uint8",
          "name": "",
          "type": "uint8"
        }
      ],
      "stateMutability": "view",
      "type": "function"
    },
    {
      "inputs": [
        {
          "internalType": "address",
          "name": "spender",
          "type": "address"
        },
        {
          "internalType": "uint256",
          "name": "subtractedValue",
          "type": "uint256"
        }
      ],
      "name": "decreaseAllowance",
      "outputs": [
        {
          "internalType": "bool",
          "name": "",
          "type": "bool"
        }
      ],
      "stateMutability": "nonpayable",
      "type": "function"
    },
    {
      "inputs": [],
      "name": "feeRecipient",
      "outputs": [
        {
          "internalType": "address",
          "name": "",
          "type": "address"
        }
      ],
      "stateMutability": "view",
      "type": "function"
    },
    {
      "inputs": [
        {
          "internalType": "address",
          "name": "_user",
          "type": "address"
        }
      ],
      "name": "getStakingInfo",
      "outputs": [
        {
          "internalType": "uint256",
          "name": "stakedAmount",
          "type": "uint256"
        },
        {
          "internalType": "uint256",
          "name": "stakingTimestamp",
          "type": "uint256"
        },
        {
          "internalType": "uint256",
          "name": "pendingRewards",
          "type": "uint256"
        }
      ],
      "stateMutability": "view",
      "type": "function"
    },
    {
      "inputs": [],
      "name": "getTotalStaked",
      "outputs": [
        {
          "internalType": "uint256",
          "name": "",
          "type": "uint256"
        }
      ],
      "stateMutability": "view",
      "type": "function"
    },
    {
      "inputs": [
        {
          "internalType": "address",
          "name": "spender",
          "type": "address"
        },
        {
          "internalType": "uint256",
          "name": "addedValue",
          "type": "uint256"
        }
      ],
      "name": "increaseAllowance",
      "outputs": [
        {
          "internalType": "bool",
          "name": "",
          "type": "bool"
        }
      ],
      "stateMutability": "nonpayable",
      "type": "function"
    },
    {
      "inputs": [
        {
          "internalType": "address",
          "name": "",
          "type": "address"
        }
      ],
      "name": "lastClaimedRewards",
      "outputs": [
        {
          "internalType": "uint256",
          "name": "",
          "type": "uint256"
        }
      ],
      "stateMutability": "view",
      "type": "function"
    },
    {
      "inputs": [
        {
          "internalType": "address",
          "name": "to",
          "type": "address"
        },
        {
          "internalType": "uint256",
          "name": "amount",
          "type": "uint256"
        }
      ],
      "name": "mint",
      "outputs": [],
      "stateMutability": "nonpayable",
      "type": "function"
    },
    {
      "inputs": [],
      "name": "name",
      "outputs": [
        {
          "internalType": "string",
          "name": "",
          "type": "string"
        }
      ],
      "stateMutability": "view",
      "type": "function"
    },
    {
      "inputs": [],
      "name": "owner",
      "outputs": [
        {
          "internalType": "address",
          "name": "",
          "type": "address"
        }
      ],
      "stateMutability": "view",
      "type": "function"
    },
    {
      "inputs": [],
      "name": "pause",
      "outputs": [],
      "stateMutability": "nonpayable",
      "type": "function"
    },
    {
      "inputs": [],
      "name": "paused",
      "outputs": [
        {
          "internalType": "bool",
          "name": "",
          "type": "bool"
        }
      ],
      "stateMutability": "view",
      "type": "function"
    },
    {
      "inputs": [],
      "name": "renounceOwnership",
      "outputs": [],
      "stateMutability": "nonpayable",
      "type": "function"
    },
    {
      "inputs": [
        {
          "internalType": "address",
          "name": "_feeRecipient",
          "type": "address"
        }
      ],
      "name": "setFeeRecipient",
      "outputs": [],
      "stateMutability": "nonpayable",
      "type": "function"
    },
    {
      "inputs": [
        {
          "internalType": "uint256",
          "name": "_amount",
          "type": "uint256"
        }
      ],
      "name": "stakeTokens",
      "outputs": [],
      "stateMutability": "nonpayable",
      "type": "function"
    },
    {
      "inputs": [
        {
          "internalType": "address",
          "name": "",
          "type": "address"
        }
      ],
      "name": "stakingBalances",
      "outputs": [
        {
          "internalType": "uint256",
          "name": "",
          "type": "uint256"
        }
      ],
      "stateMutability": "view",
      "type": "function"
    },
    {
      "inputs": [
        {
          "internalType": "address",
          "name": "",
          "type": "address"
        }
      ],
      "name": "stakingTimestamps",
      "outputs": [
        {
          "internalType": "uint256",
          "name": "",
          "type": "uint256"
        }
      ],
      "stateMutability": "view",
      "type": "function"
    },
    {
      "inputs": [],
      "name": "symbol",
      "outputs": [
        {
          "internalType": "string",
          "name": "",
          "type": "string"
        }
      ],
      "stateMutability": "view",
      "type": "function"
    },
    {
      "inputs": [],
      "name": "totalFeesCollected",
      "outputs": [
        {
          "internalType": "uint256",
          "name": "",
          "type": "uint256"
        }
      ],
      "stateMutability": "view",
      "type": "function"
    },
    {
      "inputs": [],
      "name": "totalSupply",
      "outputs": [
        {
          "internalType": "uint256",
          "name": "",
          "type": "uint256"
        }
      ],
      "stateMutability": "view",
      "type": "function"
    },
    {
      "inputs": [
        {
          "internalType": "address",
          "name": "to",
          "type": "address"
        },
        {
          "internalType": "uint256",
          "name": "amount",
          "type": "uint256"
        }
      ],
      "name": "transfer",
      "outputs": [
        {
          "internalType": "bool",
          "name": "",
          "type": "bool"
        }
      ],
      "stateMutability": "nonpayable",
      "type": "function"
    },
    {
      "inputs": [
        {
          "internalType": "address",
          "name": "from",
          "type": "address"
        },
        {
          "internalType": "address",
          "name": "to",
          "type": "address"
        },
        {
          "internalType": "uint256",
          "name": "amount",
          "type": "uint256"
        }
      ],
      "name": "transferFrom",
      "outputs": [
        {
          "internalType": "bool",
          "name": "",
          "type": "bool"
        }
      ],
      "stateMutability": "nonpayable",
      "type": "function"
    },
    {
      "inputs": [
        {
          "internalType": "address",
          "name": "newOwner",
          "type": "address"
        }
      ],
      "name": "transferOwnership",
      "outputs": [],
      "stateMutability": "nonpayable",
      "type": "function"
    },
    {
      "inputs": [],
      "name": "unpause",
      "outputs": [],
      "stateMutability": "nonpayable",
      "type": "function"
    },
    {
      "inputs": [
        {
          "internalType": "uint256",
          "name": "_amount",
          "type": "uint256"
        }
      ],
      "name": "unstakeTokens",
      "outputs": [],
      "stateMutability": "nonpayable",
      "type": "function"
    }
  ],
  "bytecode": "0x60803462000448576040906001600160401b03908083018281118282101762000348578352601081526020906f2cb2b63637bb902537b1102a37b5b2b760811b8282015283519284840184811082821117620003485785526003908185526216529560ea1b8486015282519181831162000348578054926001948585811c951680156200043d575b8786101462000427578190601f95868111620003d1575b5087908683116001146200036a576000926200035e575b505060001982841b1c191690851b1781555b8551918211620003485760049586548581811c911680156200033d575b87821014620003285790818585949311620002d0575b508690858411600114620002655760009362000259575b505082851b92600019911b1c19161784555b600580546001600160a81b0319811633600881811b610100600160a81b0316929092179093558751949291901c6001600160a01b03167f8be0079c531659141344cd1fd0a4f28419497f9722a3daafe3b4186f6b6457e0600080a3600655600a80546001600160a01b03191633908117909155156200021c5750506002546a084595161401484a000000928382018092116200020757506000917fddf252ad1be2c89b69c2b068fc378daa952ba7f163c4a11628f55a4df523b3ef9160025533835282815284832084815401905584519384523393a35161181190816200044e8239f35b601190634e487b7160e01b6000525260246000fd5b6064928462461bcd60e51b845283015260248201527f45524332303a206d696e7420746f20746865207a65726f2061646472657373006044820152fd5b01519150388062000111565b9190869450601f1984169289600052886000209360005b8a828210620002b957505085116200029e575b50505050811b01845562000123565b01519060f884600019921b161c19169055388080806200028f565b8385015187558a989096019593840193016200027c565b9091925087600052866000208580860160051c8201928987106200031e575b91889187969594930160051c01915b8281106200030e575050620000fa565b60008155869550889101620002fe565b92508192620002ef565b602288634e487b7160e01b6000525260246000fd5b90607f1690620000e4565b634e487b7160e01b600052604160045260246000fd5b015190503880620000b5565b90879350601f1983169185600052896000209260005b8b828210620003ba5750508411620003a1575b505050811b018155620000c7565b015160001983861b60f8161c1916905538808062000393565b8385015186558b9790950194938401930162000380565b90915083600052876000208680850160051c8201928a86106200041d575b918991869594930160051c01915b8281106200040d5750506200009e565b60008155859450899101620003fd565b92508192620003ef565b634e487b7160e01b600052602260045260246000fd5b94607f169462000087565b600080fdfe6080604081815260048036101561001557600080fd5b600092833560e01c90816306fdde0314610e1b575080630917e77614610df0578063095ea7b314610dc65780630e2b68f614610d8e5780630f1a290514610d725780631554823214610d5657806318160ddd14610d3757806323b872dd14610cfa5780632ff2e9dc14610cd4578063313ce56714610cb857806332cb6b0c14610c92578063372500ab14610bed5780633950935114610b9d5780633f4ba83a14610b0857806340c10f1914610a7657806342966c6814610a585780634690484014610a2f5780635c975abb14610a0b578063608e4dd0146108aa57806360c6d8ae1461088b57806361b8b5dc1461085357806370a0823114610810578063715018a6146107af5780637547c7a3146106c257806379cc67901461068f5780638456cb59146106345780638da5cb5b14610607578063937b983b146105cf57806395d89b41146104ad578063a457c2d714610406578063a9059cbb146103d5578063aa4704f31461037f578063abc4cc4014610361578063dd62ed3e14610314578063e74b981b1461028a5763f2fde38b146101af57600080fd5b34610286576020366003190112610286576101c8610f5b565b6101d06113f2565b6001600160a01b0381811693909290841561023457505060058054610100600160a81b03198116600893841b610100600160a81b031617909155901c167f8be0079c531659141344cd1fd0a4f28419497f9722a3daafe3b4186f6b6457e08380a380f35b906020608492519162461bcd60e51b8352820152602660248201527f4f776e61626c653a206e6577206f776e657220697320746865207a65726f206160448201526564647265737360d01b6064820152fd5b8280fd5b5034610286576020366003190112610286576102a4610f5b565b6102ac6113f2565b6001600160a01b03169182156102d95750506bffffffffffffffffffffffff60a01b600a541617600a5580f35b906020606492519162461bcd60e51b83528201526015602482015274125b9d985b1a5908199959481c9958da5c1a595b9d605a1b6044820152fd5b50503461035d578060031936011261035d5780602092610332610f5b565b61033a610f76565b6001600160a01b0391821683526001865283832091168252845220549051908152f35b5080fd5b50503461035d578160031936011261035d576020905162093a808152f35b50503461035d57602036600319011261035d579060609161039e610f5b565b9060018060a01b038216835260076020526103c5818085205494600860205220549261132b565b9181519384526020840152820152f35b50503461035d578060031936011261035d576020906103ff6103f5610f5b565b60243590336111a2565b5160018152f35b5082346104aa57826003193601126104aa57610420610f5b565b918360243592338152600160205281812060018060a01b0386168252602052205490828210610459576020856103ff8585038733611008565b608490602086519162461bcd60e51b8352820152602560248201527f45524332303a2064656372656173656420616c6c6f77616e63652062656c6f77604482015264207a65726f60d81b6064820152fd5b80fd5b5091903461035d578160031936011261035d5780519082845460018160011c90600183169283156105c5575b60209384841081146105b2578388529081156105965750600114610541575b505050829003601f01601f191682019267ffffffffffffffff84118385101761052e575082918261052a925282610f12565b0390f35b634e487b7160e01b815260418552602490fd5b8787529192508591837f8a35acfbc15ff81a39ae7d344fd709f28e8600b4aa8c65c6b64bfe7fe36bd19b5b83851061058257505050508301013880806104f8565b80548886018301529301928490820161056c565b60ff1916878501525050151560051b84010190503880806104f8565b634e487b7160e01b895260228a52602489fd5b91607f16916104d9565b50503461035d57602036600319011261035d5760209181906001600160a01b036105f7610f5b565b1681526008845220549051908152f35b50503461035d578160031936011261035d57600554905160089190911c6001600160a01b03168152602090f35b50503461035d578160031936011261035d5760207f62e78cea01bee320cd4e420270b5ea74000d11b0c9f74754ebdbfc544b05a258916106726113f2565b61067a6112e7565b600160ff19600554161760055551338152a180f35b50503461035d573660031901126104aa576106bf6106ab610f5b565b602435906106ba82338361110a565b611552565b80f35b509034610286576020806003193601126107ab578235926106e1611291565b6106e96112e7565b6106f4841515610faf565b3385528482528383862054106107735750907fdd2a19c3bdd089cbe77c04f5655f83de0504d6140d12c8667646f55d0557c4dc916107306113c7565b61073b8430336111a2565b33855260078152818520610750858254610f8c565b9055338552600881524282862055815193845242908401523392a2600160065580f35b915162461bcd60e51b8152918201526014602482015273496e73756666696369656e742062616c616e636560601b6044820152606490fd5b8380fd5b83346104aa57806003193601126104aa576107c86113f2565b60058054610100600160a81b03198116909155819060081c6001600160a01b03167f8be0079c531659141344cd1fd0a4f28419497f9722a3daafe3b4186f6b6457e08280a380f35b50503461035d57602036600319011261035d5760209061084c610831610f5b565b6001600160a01b031660009081526020819052604090205490565b9051908152f35b50503461035d57602036600319011261035d5760209181906001600160a01b0361087b610f5b565b1681526007845220549051908152f35b50503461035d578160031936011261035d57602090600b549051908152f35b509034610286576020806003193601126107ab578235926108c9611291565b6108d16112e7565b6108dc841515610faf565b338552600782528383862054106109ca57338552600882528285205462093a8081018091116109b75742106109765750907f6f2d3e000c89d37446b7c0374c0125068ff316d1e3ee302336478a8cd03c2336916109383361132b565b906109416113c7565b33865260078152828620610956868254610ffb565b90556109638533306111a2565b82519485528401523392a2600160065580f35b915162461bcd60e51b815291820181905260248201527f4d696e696d756d207374616b696e67206475726174696f6e206e6f74206d65746044820152606490fd5b634e487b7160e01b865260118252602486fd5b915162461bcd60e51b815291820152601a60248201527f496e73756666696369656e74207374616b656420616d6f756e740000000000006044820152606490fd5b50503461035d578160031936011261035d5760209060ff6005541690519015158152f35b50503461035d578160031936011261035d57600a5490516001600160a01b039091168152602090f35b83823461035d57602036600319011261035d576106bf903533611552565b5082903461035d578260031936011261035d57610a91610f5b565b60243591610a9d6113f2565b6a52b7d2dcc80cd2e4000000610ab584600254610f8c565b11610ac55750906106bf9161144d565b606490602086519162461bcd60e51b8352820152601760248201527f576f756c6420657863656564206d617820737570706c790000000000000000006044820152fd5b5034610286578260031936011261028657610b216113f2565b6005549060ff821615610b63575060ff1916600555513381527f5db9ee0a495bf2e6ff9c91a7834c1ba4fdd244a5e8aa4e537bd38aeae4b073aa90602090a180f35b606490602084519162461bcd60e51b8352820152601460248201527314185d5cd8589b194e881b9bdd081c185d5cd95960621b6044820152fd5b50503461035d578060031936011261035d576103ff602092610be6610bc0610f5b565b338352600186528483206001600160a01b03821684528652918490205460243590610f8c565b9033611008565b509034610286578260031936011261028657610c07611291565b610c0f6112e7565b610c183361132b565b918215610c5a5750610c286113c7565b519081527ffc30cddea38e2bf4d6ea7d3f9ed3b6ad7f176419f4963bd81318067a4aee73fe60203392a2600160065580f35b6020606492519162461bcd60e51b835282015260136024820152724e6f207265776172647320746f20636c61696d60681b6044820152fd5b50503461035d578160031936011261035d57602090516a52b7d2dcc80cd2e40000008152f35b50503461035d578160031936011261035d576020905160128152f35b50503461035d578160031936011261035d57602090516a084595161401484a0000008152f35b50503461035d57606036600319011261035d576020906103ff610d1b610f5b565b610d23610f76565b60443591610d3283338361110a565b6111a2565b50503461035d578160031936011261035d576020906002549051908152f35b50503461035d578160031936011261035d576020905160028152f35b50503461035d578160031936011261035d5760209051600a8152f35b50503461035d57602036600319011261035d5760209181906001600160a01b03610db6610f5b565b1681526009845220549051908152f35b50503461035d578060031936011261035d576020906103ff610de6610f5b565b6024359033611008565b50503461035d578160031936011261035d57306000908152602081815260409091205490919061084c565b84915083346102865782600319360112610286578260035460018160011c9060018316928315610f08575b60209384841081146105b257838852908115610eec5750600114610e9657505050829003601f01601f191682019267ffffffffffffffff84118385101761052e575082918261052a925282610f12565b600387529192508591837fc2575a0e9e593c00f959f8c92f12db2869c3395a3b0502d05e2516446f71f85b5b838510610ed857505050508301018580806104f8565b805488860183015293019284908201610ec2565b60ff1916878501525050151560051b84010190508580806104f8565b91607f1691610e46565b6020808252825181830181905290939260005b828110610f4757505060409293506000838284010152601f8019910116010190565b818101860151848201604001528501610f25565b600435906001600160a01b0382168203610f7157565b600080fd5b602435906001600160a01b0382168203610f7157565b91908201809211610f9957565b634e487b7160e01b600052601160045260246000fd5b15610fb657565b60405162461bcd60e51b815260206004820152601d60248201527f416d6f756e74206d7573742062652067726561746572207468616e20300000006044820152606490fd5b91908203918211610f9957565b6001600160a01b039081169182156110b957169182156110695760207f8c5be1e5ebec7d5bd14f71427d1e84f3dd0314c0f7b2291e5b200ac8c7c3b925918360005260018252604060002085600052825280604060002055604051908152a3565b60405162461bcd60e51b815260206004820152602260248201527f45524332303a20617070726f766520746f20746865207a65726f206164647265604482015261737360f01b6064820152608490fd5b60405162461bcd60e51b8152602060048201526024808201527f45524332303a20617070726f76652066726f6d20746865207a65726f206164646044820152637265737360e01b6064820152608490fd5b9060018060a01b0380831660005260016020526040600020908216600052602052604060002054926000198403611142575b50505050565b80841061115d57611154930391611008565b3880808061113c565b60405162461bcd60e51b815260206004820152601d60248201527f45524332303a20696e73756666696369656e7420616c6c6f77616e63650000006044820152606490fd5b6005546001600160a01b038083169493929160081c8116858114908115611285575b50801561127c575b8015611271575b156111e557506111e39350611663565b565b918360019492941b9082820460021483151715610f995761120d606461121493048094610ffb565b9085611663565b8061121f5750505050565b611252817f06c5efeff5c320943d265dc4e5f1af95ad523555ce0c1957e367dda5514572df94602094600a541690611663565b61125e81600b54610f8c565b600b55604051908152a23880808061113c565b5030818416146111d3565b503085146111cc565b905081841614386111c4565b6002600654146112a2576002600655565b60405162461bcd60e51b815260206004820152601f60248201527f5265656e7472616e637947756172643a207265656e7472616e742063616c6c006044820152606490fd5b60ff600554166112f357565b60405162461bcd60e51b815260206004820152601060248201526f14185d5cd8589b194e881c185d5cd95960821b6044820152606490fd5b6001600160a01b0316600081815260076020526040812054156113c257600960205261135b604082205442610ffb565b91815260076020526040812054600a810290808204600a14901517156113ae576064900482810292818404149015171561139a57506301e13380900490565b634e487b7160e01b81526011600452602490fd5b634e487b7160e01b82526011600452602482fd5b905090565b6113d03361132b565b806113d85750565b6111e390336000526009602052426040600020553361144d565b60055460081c6001600160a01b0316330361140957565b606460405162461bcd60e51b815260206004820152602060248201527f4f776e61626c653a2063616c6c6572206973206e6f7420746865206f776e65726044820152fd5b6001600160a01b031690811561150d5760ff600554166114b5577fddf252ad1be2c89b69c2b068fc378daa952ba7f163c4a11628f55a4df523b3ef602082611499600094600254610f8c565b60025584845283825260408420818154019055604051908152a3565b60405162461bcd60e51b815260206004820152602a60248201527f45524332305061757361626c653a20746f6b656e207472616e736665722077686044820152691a5b19481c185d5cd95960b21b6064820152608490fd5b60405162461bcd60e51b815260206004820152601f60248201527f45524332303a206d696e7420746f20746865207a65726f2061646472657373006044820152606490fd5b6001600160a01b031680156116145760ff600554166114b5576000918183528260205260408320548181106115c457817fddf252ad1be2c89b69c2b068fc378daa952ba7f163c4a11628f55a4df523b3ef926020928587528684520360408620558060025403600255604051908152a3565b60405162461bcd60e51b815260206004820152602260248201527f45524332303a206275726e20616d6f756e7420657863656564732062616c616e604482015261636560f01b6064820152608490fd5b60405162461bcd60e51b815260206004820152602160248201527f45524332303a206275726e2066726f6d20746865207a65726f206164647265736044820152607360f81b6064820152608490fd5b6001600160a01b0390811691821561178857169182156117375760ff600554166114b5576000828152806020526040812054918083106116e357604082827fddf252ad1be2c89b69c2b068fc378daa952ba7f163c4a11628f55a4df523b3ef958760209652828652038282205586815220818154019055604051908152a3565b60405162461bcd60e51b815260206004820152602660248201527f45524332303a207472616e7366657220616d6f756e7420657863656564732062604482015265616c616e636560d01b6064820152608490fd5b60405162461bcd60e51b815260206004820152602360248201527f45524332303a207472616e7366657220746f20746865207a65726f206164647260448201526265737360e81b6064820152608490fd5b60405162461bcd60e51b815260206004820152602560248201527f45524332303a207472616e736665722066726f6d20746865207a65726f206164604482015264647265737360d81b6064820152608490fdfea2646970667358221220bb915c1360cd238eb79baf6aaaed7450e924f6aba169882c761509617878062064736f6c63430008180033",
  "linkReferences": {},
  "deployedLinkReferences": {}
}