{
  "_format": "hh-sol-artifact-1",
  "contractName": "TestnetToken",
  "sourceName": "contracts/TestnetToken.sol",
  "abi": [
    {
      "inputs": [],
      "stateMutability": "nonpayable",
      "type": "constructor"
    },
    {
      "anonymous": false,
      "inputs": [
        {
          "indexed": true,
          "internalType": "address",
          "name": "owner",
          "type": "address"
        },
        {
          "indexed": true,
          "internalType": "address",
          "name": "spender",
          "type": "address"
        },
        {
          "indexed": false,
          "internalType": "uint256",
          "name": "value",
          "type": "uint256"
        }
      ],
      "name": "Approval",
      "type": "event"
    },
    {
      "anonymous": false,
      "inputs": [
        {
          "indexed": true,
          "internalType": "address",
          "name": "previousOwner",
          "type": "address"
        },
        {
          "indexed": true,
          "internalType": "address",
          "name": "newOwner",
          "type": "address"
        }
      ],
      "name": "OwnershipTransferred",
      "type": "event"
    },
    {
      "anonymous": false,
      "inputs": [
        {
          "indexed": true,
          "internalType": "address",
          "name": "from",
          "type": "address"
        },
        {
          "indexed": true,
          "internalType": "address",
          "name": "to",
          "type": "address"
        },
        {
          "indexed": false,
          "internalType": "uint256",
          "name": "value",
          "type": "uint256"
        }
      ],
      "name": "Transfer",
      "type": "event"
    },
    {
      "inputs": [],
      "name": "INITIAL_SUPPLY",
      "outputs": [
        {
          "internalType": "uint256",
          "name": "",
          "type": "uint256"
        }
      ],
      "stateMutability": "view",
      "type": "function"
    },
    {
      "inputs": [
        {
          "internalType": "address",
          "name": "owner",
          "type": "address"
        },
        {
          "internalType": "address",
          "name": "spender",
          "type": "address"
        }
      ],
      "name": "allowance",
      "outputs": [
        {
          "internalType": "uint256",
          "name": "",
          "type": "uint256"
        }
      ],
      "stateMutability": "view",
      "type": "function"
    },
    {
      "inputs": [
        {
          "internalType": "address",
          "name": "spender",
          "type": "address"
        },
        {
          "internalType": "uint256",
          "name": "amount",
          "type": "uint256"
        }
      ],
      "name": "approve",
      "outputs": [
        {
          "internalType": "bool",
          "name": "",
          "type": "bool"
        }
      ],
      "stateMutability": "nonpayable",
      "type": "function"
    },
    {
      "inputs": [
        {
          "internalType": "address",
          "name": "account",
          "type": "address"
        }
      ],
      "name": "balanceOf",
      "outputs": [
        {
          "internalType": "uint256",
          "name": "",
          "type": "uint256"
        }
      ],
      "stateMutability": "view",
      "type": "function"
    },
    {
      "inputs": [],
      "name": "decimals",
      "outputs": [
        {
          "internalType": "uint8",
          "name": "",
          "type": "uint8"
        }
      ],
      "stateMutability": "view",
      "type": "function"
    },
    {
      "inputs": [
        {
          "internalType": "address",
          "name": "spender",
          "type": "address"
        },
        {
          "internalType": "uint256",
          "name": "subtractedValue",
          "type": "uint256"
        }
      ],
      "name": "decreaseAllowance",
      "outputs": [
        {
          "internalType": "bool",
          "name": "",
          "type": "bool"
        }
      ],
      "stateMutability": "nonpayable",
      "type": "function"
    },
    {
      "inputs": [],
      "name": "faucet",
      "outputs": [],
      "stateMutability": "nonpayable",
      "type": "function"
    },
    {
      "inputs": [
        {
          "internalType": "address",
          "name": "spender",
          "type": "address"
        },
        {
          "internalType": "uint256",
          "name": "addedValue",
          "type": "uint256"
        }
      ],
      "name": "increaseAllowance",
      "outputs": [
        {
          "internalType": "bool",
          "name": "",
          "type": "bool"
        }
      ],
      "stateMutability": "nonpayable",
      "type": "function"
    },
    {
      "inputs": [
        {
          "internalType": "address",
          "name": "to",
          "type": "address"
        },
        {
          "internalType": "uint256",
          "name": "amount",
          "type": "uint256"
        }
      ],
      "name": "mint",
      "outputs": [],
      "stateMutability": "nonpayable",
      "type": "function"
    },
    {
      "inputs": [],
      "name": "name",
      "outputs": [
        {
          "internalType": "string",
          "name": "",
          "type": "string"
        }
      ],
      "stateMutability": "view",
      "type": "function"
    },
    {
      "inputs": [],
      "name": "owner",
      "outputs": [
        {
          "internalType": "address",
          "name": "",
          "type": "address"
        }
      ],
      "stateMutability": "view",
      "type": "function"
    },
    {
      "inputs": [],
      "name": "renounceOwnership",
      "outputs": [],
      "stateMutability": "nonpayable",
      "type": "function"
    },
    {
      "inputs": [],
      "name": "symbol",
      "outputs": [
        {
          "internalType": "string",
          "name": "",
          "type": "string"
        }
      ],
      "stateMutability": "view",
      "type": "function"
    },
    {
      "inputs": [],
      "name": "totalSupply",
      "outputs": [
        {
          "internalType": "uint256",
          "name": "",
          "type": "uint256"
        }
      ],
      "stateMutability": "view",
      "type": "function"
    },
    {
      "inputs": [
        {
          "internalType": "address",
          "name": "to",
          "type": "address"
        },
        {
          "internalType": "uint256",
          "name": "amount",
          "type": "uint256"
        }
      ],
      "name": "transfer",
      "outputs": [
        {
          "internalType": "bool",
          "name": "",
          "type": "bool"
        }
      ],
      "stateMutability": "nonpayable",
      "type": "function"
    },
    {
      "inputs": [
        {
          "internalType": "address",
          "name": "from",
          "type": "address"
        },
        {
          "internalType": "address",
          "name": "to",
          "type": "address"
        },
        {
          "internalType": "uint256",
          "name": "amount",
          "type": "uint256"
        }
      ],
      "name": "transferFrom",
      "outputs": [
        {
          "internalType": "bool",
          "name": "",
          "type": "bool"
        }
      ],
      "stateMutability": "nonpayable",
      "type": "function"
    },
    {
      "inputs": [
        {
          "internalType": "address",
          "name": "newOwner",
          "type": "address"
        }
      ],
      "name": "transferOwnership",
      "outputs": [],
      "stateMutability": "nonpayable",
      "type": "function"
    }
  ],
  "bytecode": "0x60803462000437576040906001600160401b03908083018281118282101762000421578352600d81526020906c2a32b9ba3732ba102a37b5b2b760991b82820152835190848201828110858211176200042157855260049384835263151154d560e21b848401528151928184116200040c576003908154946001948587811c9716801562000401575b88881014620003ec578190601f9788811162000396575b5088908883116001146200032f5760009262000323575b505060001982851b1c191690851b1782555b80519283116200030e5786548481811c9116801562000303575b87821014620002ee57858111620002a3575b50859085841160011462000238579383949184926000956200022c575b50501b92600019911b1c19161783555b60058054336001600160a01b03198216811790925585519291906001600160a01b03167f8be0079c531659141344cd1fd0a4f28419497f9722a3daafe3b4186f6b6457e0600080a33315620001ef57505060025469d3c21bcecceda100000092838201809211620001da57506000917fddf252ad1be2c89b69c2b068fc378daa952ba7f163c4a11628f55a4df523b3ef9160025533835282815284832084815401905584519384523393a351610c7490816200043d8239f35b601190634e487b7160e01b6000525260246000fd5b6064928462461bcd60e51b845283015260248201527f45524332303a206d696e7420746f20746865207a65726f2061646472657373006044820152fd5b01519350388062000111565b9190601f198416928860005284886000209460005b8a898383106200028b575050501062000270575b50505050811b01835562000121565b01519060f884600019921b161c191690553880808062000261565b8686015189559097019694850194889350016200024d565b87600052866000208680860160051c820192898710620002e4575b0160051c019085905b828110620002d7575050620000f4565b60008155018590620002c7565b92508192620002be565b602288634e487b7160e01b6000525260246000fd5b90607f1690620000e2565b604187634e487b7160e01b6000525260246000fd5b015190503880620000b6565b90879350601f19831691866000528a6000209260005b8c8282106200037f575050841162000366575b505050811b018255620000c8565b015160001983871b60f8161c1916905538808062000358565b8385015186558b9790950194938401930162000345565b90915084600052886000208880850160051c8201928b8610620003e2575b918991869594930160051c01915b828110620003d25750506200009f565b60008155859450899101620003c2565b92508192620003b4565b602289634e487b7160e01b6000525260246000fd5b96607f169662000088565b604186634e487b7160e01b6000525260246000fd5b634e487b7160e01b600052604160045260246000fd5b600080fdfe6080604081815260048036101561001557600080fd5b600092833560e01c90816306fdde03146107e257508063095ea7b3146107b857806318160ddd1461079957806323b872dd146106cf5780632ff2e9dc146106aa578063313ce5671461068e578063395093511461063e57806340c10f191461057857806370a0823114610541578063715018a6146104e45780638da5cb5b146104bb57806395d89b4114610399578063a457c2d7146102f2578063a9059cbb146102c1578063dd62ed3e14610274578063de5f72fd146101ac5763f2fde38b146100de57600080fd5b346101a85760203660031901126101a8576100f7610922565b90610100610be6565b6001600160a01b03918216928315610156575050600554826bffffffffffffffffffffffff60a01b821617600555167f8be0079c531659141344cd1fd0a4f28419497f9722a3daafe3b4186f6b6457e08380a380f35b906020608492519162461bcd60e51b8352820152602660248201527f4f776e61626c653a206e6577206f776e657220697320746865207a65726f206160448201526564647265737360d01b6064820152fd5b8280fd5b5090346101a857826003193601126101a857331561023157600254683635c9adc5dea000009283820180921161021e57506002553383528260205280832082815401905551908152817fddf252ad1be2c89b69c2b068fc378daa952ba7f163c4a11628f55a4df523b3ef60203393a380f35b634e487b7160e01b855260119052602484fd5b906020606492519162461bcd60e51b8352820152601f60248201527f45524332303a206d696e7420746f20746865207a65726f2061646472657373006044820152fd5b5050346102bd57806003193601126102bd5780602092610292610922565b61029a61093d565b6001600160a01b0391821683526001865283832091168252845220549051908152f35b5080fd5b5050346102bd57806003193601126102bd576020906102eb6102e1610922565b6024359033610a78565b5160018152f35b50823461039657826003193601126103965761030c610922565b918360243592338152600160205281812060018060a01b0386168252602052205490828210610345576020856102eb8585038733610976565b608490602086519162461bcd60e51b8352820152602560248201527f45524332303a2064656372656173656420616c6c6f77616e63652062656c6f77604482015264207a65726f60d81b6064820152fd5b80fd5b509190346102bd57816003193601126102bd5780519082845460018160011c90600183169283156104b1575b602093848410811461049e57838852908115610482575060011461042d575b505050829003601f01601f191682019267ffffffffffffffff84118385101761041a57508291826104169252826108d9565b0390f35b634e487b7160e01b815260418552602490fd5b8787529192508591837f8a35acfbc15ff81a39ae7d344fd709f28e8600b4aa8c65c6b64bfe7fe36bd19b5b83851061046e57505050508301013880806103e4565b805488860183015293019284908201610458565b60ff1916878501525050151560051b84010190503880806103e4565b634e487b7160e01b895260228a52602489fd5b91607f16916103c5565b5050346102bd57816003193601126102bd5760055490516001600160a01b039091168152602090f35b83346103965780600319360112610396576104fd610be6565b600580546001600160a01b0319811690915581906001600160a01b03167f8be0079c531659141344cd1fd0a4f28419497f9722a3daafe3b4186f6b6457e08280a380f35b5050346102bd5760203660031901126102bd5760209181906001600160a01b03610569610922565b16815280845220549051908152f35b5090346101a857806003193601126101a857610592610922565b906024359161059f610be6565b6001600160a01b03169283156105fc57506020827fddf252ad1be2c89b69c2b068fc378daa952ba7f163c4a11628f55a4df523b3ef926105e28795600254610953565b60025585855284835280852082815401905551908152a380f35b6020606492519162461bcd60e51b8352820152601f60248201527f45524332303a206d696e7420746f20746865207a65726f2061646472657373006044820152fd5b5050346102bd57806003193601126102bd576102eb602092610687610661610922565b338352600186528483206001600160a01b03821684528652918490205460243590610953565b9033610976565b5050346102bd57816003193601126102bd576020905160128152f35b5050346102bd57816003193601126102bd576020905169d3c21bcecceda10000008152f35b508290346102bd5760603660031901126102bd576106eb610922565b6106f361093d565b91846044359460018060a01b03841681526001602052818120338252602052205490600019820361072d575b6020866102eb878787610a78565b848210610756575091839161074b602096956102eb95033383610976565b91939481935061071f565b606490602087519162461bcd60e51b8352820152601d60248201527f45524332303a20696e73756666696369656e7420616c6c6f77616e63650000006044820152fd5b5050346102bd57816003193601126102bd576020906002549051908152f35b5050346102bd57806003193601126102bd576020906102eb6107d8610922565b6024359033610976565b84915083346101a857826003193601126101a8578260035460018160011c90600183169283156108cf575b602093848410811461049e578388529081156108b3575060011461085d57505050829003601f01601f191682019267ffffffffffffffff84118385101761041a57508291826104169252826108d9565b600387529192508591837fc2575a0e9e593c00f959f8c92f12db2869c3395a3b0502d05e2516446f71f85b5b83851061089f57505050508301018580806103e4565b805488860183015293019284908201610889565b60ff1916878501525050151560051b84010190508580806103e4565b91607f169161080d565b6020808252825181830181905290939260005b82811061090e57505060409293506000838284010152601f8019910116010190565b8181018601518482016040015285016108ec565b600435906001600160a01b038216820361093857565b600080fd5b602435906001600160a01b038216820361093857565b9190820180921161096057565b634e487b7160e01b600052601160045260246000fd5b6001600160a01b03908116918215610a2757169182156109d75760207f8c5be1e5ebec7d5bd14f71427d1e84f3dd0314c0f7b2291e5b200ac8c7c3b925918360005260018252604060002085600052825280604060002055604051908152a3565b60405162461bcd60e51b815260206004820152602260248201527f45524332303a20617070726f766520746f20746865207a65726f206164647265604482015261737360f01b6064820152608490fd5b60405162461bcd60e51b8152602060048201526024808201527f45524332303a20617070726f76652066726f6d20746865207a65726f206164646044820152637265737360e01b6064820152608490fd5b6001600160a01b03908116918215610b935716918215610b4257600082815280602052604081205491808310610aee57604082827fddf252ad1be2c89b69c2b068fc378daa952ba7f163c4a11628f55a4df523b3ef958760209652828652038282205586815220818154019055604051908152a3565b60405162461bcd60e51b815260206004820152602660248201527f45524332303a207472616e7366657220616d6f756e7420657863656564732062604482015265616c616e636560d01b6064820152608490fd5b60405162461bcd60e51b815260206004820152602360248201527f45524332303a207472616e7366657220746f20746865207a65726f206164647260448201526265737360e81b6064820152608490fd5b60405162461bcd60e51b815260206004820152602560248201527f45524332303a207472616e736665722066726f6d20746865207a65726f206164604482015264647265737360d81b6064820152608490fd5b6005546001600160a01b03163303610bfa57565b606460405162461bcd60e51b815260206004820152602060248201527f4f776e61626c653a2063616c6c6572206973206e6f7420746865206f776e65726044820152fdfea26469706673582212202164736368b2f41c3356be9d20964fa5bca87a3920a08dd5553e2d9db8349cbc64736f6c63430008180033",
  "linkReferences": {},
  "deployedLinkReferences": {}
}