{
  "_format": "hh-sol-artifact-1",
  "contractName": "FraudDetection",
  "sourceName": "contracts/FraudDetection.sol",
  "abi": [
    {
      "inputs": [],
      "stateMutability": "nonpayable",
      "type": "constructor"
    },
    {
      "anonymous": false,
      "inputs": [
        {
          "indexed": true,
          "internalType": "address",
          "name": "user",
          "type": "address"
        },
        {
          "indexed": false,
          "internalType": "string",
          "name": "activityType",
          "type": "string"
        },
        {
          "indexed": false,
          "internalType": "uint256",
          "name": "count",
          "type": "uint256"
        }
      ],
      "name": "ActivityDetected",
      "type": "event"
    },
    {
      "anonymous": false,
      "inputs": [
        {
          "indexed": true,
          "internalType": "uint256",
          "name": "reportId",
          "type": "uint256"
        },
        {
          "indexed": false,
          "internalType": "bool",
          "name": "isValid",
          "type": "bool"
        },
        {
          "indexed": false,
          "internalType": "address",
          "name": "resolvedBy",
          "type": "address"
        }
      ],
      "name": "FraudReportResolved",
      "type": "event"
    },
    {
      "anonymous": false,
      "inputs": [
        {
          "indexed": true,
          "internalType": "uint256",
          "name": "reportId",
          "type": "uint256"
        },
        {
          "indexed": true,
          "internalType": "address",
          "name": "reporter",
          "type": "address"
        },
        {
          "indexed": true,
          "internalType": "address",
          "name": "reportedUser",
          "type": "address"
        },
        {
          "indexed": false,
          "internalType": "string",
          "name": "reason",
          "type": "string"
        }
      ],
      "name": "FraudReported",
      "type": "event"
    },
    {
      "anonymous": false,
      "inputs": [
        {
          "indexed": true,
          "internalType": "address",
          "name": "previousOwner",
          "type": "address"
        },
        {
          "indexed": true,
          "internalType": "address",
          "name": "newOwner",
          "type": "address"
        }
      ],
      "name": "OwnershipTransferred",
      "type": "event"
    },
    {
      "anonymous": false,
      "inputs": [
        {
          "indexed": true,
          "internalType": "address",
          "name": "user",
          "type": "address"
        },
        {
          "indexed": false,
          "internalType": "uint256",
          "name": "newScore",
          "type": "uint256"
        },
        {
          "indexed": false,
          "internalType": "uint256",
          "name": "penalty",
          "type": "uint256"
        }
      ],
      "name": "ReputationUpdated",
      "type": "event"
    },
    {
      "anonymous": false,
      "inputs": [
        {
          "indexed": true,
          "internalType": "address",
          "name": "user",
          "type": "address"
        },
        {
          "indexed": false,
          "internalType": "string",
          "name": "reason",
          "type": "string"
        }
      ],
      "name": "UserBlacklisted",
      "type": "event"
    },
    {
      "anonymous": false,
      "inputs": [
        {
          "indexed": true,
          "internalType": "address",
          "name": "user",
          "type": "address"
        }
      ],
      "name": "UserUnblacklisted",
      "type": "event"
    },
    {
      "inputs": [],
      "name": "AVERAGE_REPUTATION",
      "outputs": [
        {
          "internalType": "uint256",
          "name": "",
          "type": "uint256"
        }
      ],
      "stateMutability": "view",
      "type": "function"
    },
    {
      "inputs": [],
      "name": "EXCELLENT_REPUTATION",
      "outputs": [
        {
          "internalType": "uint256",
          "name": "",
          "type": "uint256"
        }
      ],
      "stateMutability": "view",
      "type": "function"
    },
    {
      "inputs": [],
      "name": "FRAUD_PENALTY_PERCENTAGE",
      "outputs": [
        {
          "internalType": "uint256",
          "name": "",
          "type": "uint256"
        }
      ],
      "stateMutability": "view",
      "type": "function"
    },
    {
      "inputs": [],
      "name": "GOOD_REPUTATION",
      "outputs": [
        {
          "internalType": "uint256",
          "name": "",
          "type": "uint256"
        }
      ],
      "stateMutability": "view",
      "type": "function"
    },
    {
      "inputs": [],
      "name": "MAX_APPLICATIONS_PER_DAY",
      "outputs": [
        {
          "internalType": "uint256",
          "name": "",
          "type": "uint256"
        }
      ],
      "stateMutability": "view",
      "type": "function"
    },
    {
      "inputs": [],
      "name": "MAX_JOBS_PER_DAY",
      "outputs": [
        {
          "internalType": "uint256",
          "name": "",
          "type": "uint256"
        }
      ],
      "stateMutability": "view",
      "type": "function"
    },
    {
      "inputs": [],
      "name": "MIN_REPUTATION_FOR_POSTING",
      "outputs": [
        {
          "internalType": "uint256",
          "name": "",
          "type": "uint256"
        }
      ],
      "stateMutability": "view",
      "type": "function"
    },
    {
      "inputs": [],
      "name": "POOR_REPUTATION",
      "outputs": [
        {
          "internalType": "uint256",
          "name": "",
          "type": "uint256"
        }
      ],
      "stateMutability": "view",
      "type": "function"
    },
    {
      "inputs": [
        {
          "internalType": "address",
          "name": "_verifier",
          "type": "address"
        }
      ],
      "name": "addTrustedVerifier",
      "outputs": [],
      "stateMutability": "nonpayable",
      "type": "function"
    },
    {
      "inputs": [
        {
          "internalType": "address",
          "name": "_user",
          "type": "address"
        },
        {
          "internalType": "string",
          "name": "_reason",
          "type": "string"
        }
      ],
      "name": "blacklistUser",
      "outputs": [],
      "stateMutability": "nonpayable",
      "type": "function"
    },
    {
      "inputs": [
        {
          "internalType": "address",
          "name": "",
          "type": "address"
        }
      ],
      "name": "blacklistedUsers",
      "outputs": [
        {
          "internalType": "bool",
          "name": "",
          "type": "bool"
        }
      ],
      "stateMutability": "view",
      "type": "function"
    },
    {
      "inputs": [
        {
          "internalType": "address",
          "name": "_user",
          "type": "address"
        }
      ],
      "name": "calculateReputationScore",
      "outputs": [
        {
          "internalType": "uint256",
          "name": "",
          "type": "uint256"
        }
      ],
      "stateMutability": "view",
      "type": "function"
    },
    {
      "inputs": [
        {
          "internalType": "uint256",
          "name": "",
          "type": "uint256"
        }
      ],
      "name": "fraudReports",
      "outputs": [
        {
          "internalType": "uint256",
          "name": "reportId",
          "type": "uint256"
        },
        {
          "internalType": "address",
          "name": "reporter",
          "type": "address"
        },
        {
          "internalType": "address",
          "name": "reportedUser",
          "type": "address"
        },
        {
          "internalType": "string",
          "name": "reason",
          "type": "string"
        },
        {
          "internalType": "uint256",
          "name": "severity",
          "type": "uint256"
        },
        {
          "internalType": "string",
          "name": "evidence",
          "type": "string"
        },
        {
          "internalType": "bool",
          "name": "isResolved",
          "type": "bool"
        },
        {
          "internalType": "bool",
          "name": "isValid",
          "type": "bool"
        },
        {
          "internalType": "uint256",
          "name": "timestamp",
          "type": "uint256"
        },
        {
          "internalType": "uint256",
          "name": "resolvedAt",
          "type": "uint256"
        },
        {
          "internalType": "address",
          "name": "resolvedBy",
          "type": "address"
        }
      ],
      "stateMutability": "view",
      "type": "function"
    },
    {
      "inputs": [
        {
          "internalType": "uint256",
          "name": "_reportId",
          "type": "uint256"
        }
      ],
      "name": "getFraudReport",
      "outputs": [
        {
          "internalType": "uint256",
          "name": "reportId",
          "type": "uint256"
        },
        {
          "internalType": "address",
          "name": "reporter",
          "type": "address"
        },
        {
          "internalType": "address",
          "name": "reportedUser",
          "type": "address"
        },
        {
          "internalType": "string",
          "name": "reason",
          "type": "string"
        },
        {
          "internalType": "uint256",
          "name": "severity",
          "type": "uint256"
        },
        {
          "internalType": "string",
          "name": "evidence",
          "type": "string"
        },
        {
          "internalType": "bool",
          "name": "isResolved",
          "type": "bool"
        },
        {
          "internalType": "bool",
          "name": "isValid",
          "type": "bool"
        },
        {
          "internalType": "uint256",
          "name": "timestamp",
          "type": "uint256"
        },
        {
          "internalType": "uint256",
          "name": "resolvedAt",
          "type": "uint256"
        },
        {
          "internalType": "address",
          "name": "resolvedBy",
          "type": "address"
        }
      ],
      "stateMutability": "view",
      "type": "function"
    },
    {
      "inputs": [
        {
          "internalType": "address",
          "name": "_user",
          "type": "address"
        }
      ],
      "name": "getReputationScore",
      "outputs": [
        {
          "internalType": "uint256",
          "name": "baseScore",
          "type": "uint256"
        },
        {
          "internalType": "uint256",
          "name": "activityScore",
          "type": "uint256"
        },
        {
          "internalType": "uint256",
          "name": "qualityScore",
          "type": "uint256"
        },
        {
          "internalType": "uint256",
          "name": "fraudPenalty",
          "type": "uint256"
        },
        {
          "internalType": "uint256",
          "name": "totalScore",
          "type": "uint256"
        },
        {
          "internalType": "uint256",
          "name": "lastUpdated",
          "type": "uint256"
        }
      ],
      "stateMutability": "view",
      "type": "function"
    },
    {
      "inputs": [],
      "name": "getTotalFraudReports",
      "outputs": [
        {
          "internalType": "uint256",
          "name": "",
          "type": "uint256"
        },
        {
          "internalType": "uint256",
          "name": "",
          "type": "uint256"
        }
      ],
      "stateMutability": "view",
      "type": "function"
    },
    {
      "inputs": [
        {
          "internalType": "address",
          "name": "_user",
          "type": "address"
        }
      ],
      "name": "getUserActivity",
      "outputs": [
        {
          "internalType": "uint256",
          "name": "dailyApplications",
          "type": "uint256"
        },
        {
          "internalType": "uint256",
          "name": "dailyJobPosts",
          "type": "uint256"
        },
        {
          "internalType": "uint256",
          "name": "totalApplications",
          "type": "uint256"
        },
        {
          "internalType": "uint256",
          "name": "totalJobPosts",
          "type": "uint256"
        },
        {
          "internalType": "uint256",
          "name": "fraudReportCount",
          "type": "uint256"
        },
        {
          "internalType": "uint256",
          "name": "successfulJobs",
          "type": "uint256"
        },
        {
          "internalType": "uint256",
          "name": "failedJobs",
          "type": "uint256"
        }
      ],
      "stateMutability": "view",
      "type": "function"
    },
    {
      "inputs": [
        {
          "internalType": "address",
          "name": "_user",
          "type": "address"
        }
      ],
      "name": "isUserBlacklisted",
      "outputs": [
        {
          "internalType": "bool",
          "name": "",
          "type": "bool"
        }
      ],
      "stateMutability": "view",
      "type": "function"
    },
    {
      "inputs": [],
      "name": "owner",
      "outputs": [
        {
          "internalType": "address",
          "name": "",
          "type": "address"
        }
      ],
      "stateMutability": "view",
      "type": "function"
    },
    {
      "inputs": [
        {
          "internalType": "address",
          "name": "_user",
          "type": "address"
        }
      ],
      "name": "recordFailedJob",
      "outputs": [],
      "stateMutability": "nonpayable",
      "type": "function"
    },
    {
      "inputs": [
        {
          "internalType": "address",
          "name": "_user",
          "type": "address"
        }
      ],
      "name": "recordSuccessfulJob",
      "outputs": [],
      "stateMutability": "nonpayable",
      "type": "function"
    },
    {
      "inputs": [
        {
          "internalType": "address",
          "name": "_verifier",
          "type": "address"
        }
      ],
      "name": "removeTrustedVerifier",
      "outputs": [],
      "stateMutability": "nonpayable",
      "type": "function"
    },
    {
      "inputs": [],
      "name": "renounceOwnership",
      "outputs": [],
      "stateMutability": "nonpayable",
      "type": "function"
    },
    {
      "inputs": [
        {
          "internalType": "address",
          "name": "_reportedUser",
          "type": "address"
        },
        {
          "internalType": "string",
          "name": "_reason",
          "type": "string"
        },
        {
          "internalType": "uint256",
          "name": "_severity",
          "type": "uint256"
        },
        {
          "internalType": "string",
          "name": "_evidence",
          "type": "string"
        },
        {
          "internalType": "bytes",
          "name": "_signature",
          "type": "bytes"
        }
      ],
      "name": "reportFraud",
      "outputs": [],
      "stateMutability": "nonpayable",
      "type": "function"
    },
    {
      "inputs": [
        {
          "internalType": "address",
          "name": "",
          "type": "address"
        }
      ],
      "name": "reputationScores",
      "outputs": [
        {
          "internalType": "uint256",
          "name": "baseScore",
          "type": "uint256"
        },
        {
          "internalType": "uint256",
          "name": "activityScore",
          "type": "uint256"
        },
        {
          "internalType": "uint256",
          "name": "qualityScore",
          "type": "uint256"
        },
        {
          "internalType": "uint256",
          "name": "fraudPenalty",
          "type": "uint256"
        },
        {
          "internalType": "uint256",
          "name": "totalScore",
          "type": "uint256"
        },
        {
          "internalType": "uint256",
          "name": "lastUpdated",
          "type": "uint256"
        }
      ],
      "stateMutability": "view",
      "type": "function"
    },
    {
      "inputs": [
        {
          "internalType": "uint256",
          "name": "_reportId",
          "type": "uint256"
        },
        {
          "internalType": "bool",
          "name": "_isValid",
          "type": "bool"
        }
      ],
      "name": "resolveFraudReport",
      "outputs": [],
      "stateMutability": "nonpayable",
      "type": "function"
    },
    {
      "inputs": [],
      "name": "resolvedFraudReports",
      "outputs": [
        {
          "internalType": "uint256",
          "name": "",
          "type": "uint256"
        }
      ],
      "stateMutability": "view",
      "type": "function"
    },
    {
      "inputs": [],
      "name": "totalFraudReports",
      "outputs": [
        {
          "internalType": "uint256",
          "name": "",
          "type": "uint256"
        }
      ],
      "stateMutability": "view",
      "type": "function"
    },
    {
      "inputs": [
        {
          "internalType": "address",
          "name": "_user",
          "type": "address"
        },
        {
          "internalType": "string",
          "name": "_activityType",
          "type": "string"
        }
      ],
      "name": "trackActivity",
      "outputs": [],
      "stateMutability": "nonpayable",
      "type": "function"
    },
    {
      "inputs": [
        {
          "internalType": "address",
          "name": "newOwner",
          "type": "address"
        }
      ],
      "name": "transferOwnership",
      "outputs": [],
      "stateMutability": "nonpayable",
      "type": "function"
    },
    {
      "inputs": [
        {
          "internalType": "address",
          "name": "",
          "type": "address"
        }
      ],
      "name": "trustedVerifiers",
      "outputs": [
        {
          "internalType": "bool",
          "name": "",
          "type": "bool"
        }
      ],
      "stateMutability": "view",
      "type": "function"
    },
    {
      "inputs": [
        {
          "internalType": "address",
          "name": "_user",
          "type": "address"
        }
      ],
      "name": "unblacklistUser",
      "outputs": [],
      "stateMutability": "nonpayable",
      "type": "function"
    },
    {
      "inputs": [
        {
          "internalType": "address",
          "name": "_user",
          "type": "address"
        }
      ],
      "name": "updateReputationScore",
      "outputs": [],
      "stateMutability": "nonpayable",
      "type": "function"
    },
    {
      "inputs": [
        {
          "internalType": "address",
          "name": "",
          "type": "address"
        }
      ],
      "name": "userActivities",
      "outputs": [
        {
          "internalType": "uint256",
          "name": "lastActivityTimestamp",
          "type": "uint256"
        },
        {
          "internalType": "uint256",
          "name": "dailyApplications",
          "type": "uint256"
        },
        {
          "internalType": "uint256",
          "name": "dailyJobPosts",
          "type": "uint256"
        },
        {
          "internalType": "uint256",
          "name": "totalApplications",
          "type": "uint256"
        },
        {
          "internalType": "uint256",
          "name": "totalJobPosts",
          "type": "uint256"
        },
        {
          "internalType": "uint256",
          "name": "fraudReports",
          "type": "uint256"
        },
        {
          "internalType": "uint256",
          "name": "successfulJobs",
          "type": "uint256"
        },
        {
          "internalType": "uint256",
          "name": "failedJobs",
          "type": "uint256"
        }
      ],
      "stateMutability": "view",
      "type": "function"
    }
  ],
  "bytecode": "0x608080604052346100735760008054336001600160a01b0319821681178355604092916001600160a01b03167f8be0079c531659141344cd1fd0a4f28419497f9722a3daafe3b4186f6b6457e08380a360018055338152600560205220600160ff19825416179055611df990816100798239f35b600080fdfe608080604052600436101561001357600080fd5b60003560e01c9081621590c8146116cb575080630a8fa825146116a0578063218bf91b1461168357806322c0aec71461154c578063263198331461164457806329d34301146116275780632a4fe4cd146116025780634d0970c61461158b578063503b8e811461154c57806350a053cd146115075780635162122c146114eb578063531e00d1146114cf57806358c83c6c146113d55780635bce545b14611393578063715018a61461133a57806375a67d5c146103c45780637ec733841461131e578063801d2cf1146112dc578063897fe5cc146112bf5780638aa96fac146112595780638da5cb5b14611230578063985cc061146111a95780639c51a2cd14610a39578063aaee2e3c14610a1b578063b47548501461098e578063b872706414610901578063b9f974b5146105f0578063c206daca146105d4578063dc564b3b14610589578063e0f3aa111461050b578063f2fde38b14610447578063fe0438b2146103c4578063ff46a234146103a65763ffc117751461019457600080fd5b346103a1576101a23661179e565b9060018060a01b03811691826000526020906002825260406000209182549262015180840180941161038b577f1d41fb4d153ff4122c040264dc66ebbd80e35e272a7fb3a52e5a48c66749ee319461027394421015610375575b83519083850191822061020d6119b8565b805190860120036102c257600a6001840161022881546119a9565b8091556003850161023981546119a9565b905511610285575b505b8351902061024f6119b8565b8051908401200361027c57600101545b6040519384936040855260408501906118e0565b918301520390a2005b6002015461025f565b6040516102bc91610295826116fb565b6016825275457863657373697665206170706c69636174696f6e7360501b86830152611b78565b38610241565b7fbbcd34453363da560051485ca17e5cbf89d760886eaf4ee3b17f898e50e53e2085518320671a9bd897dc1bdcdd60c21b86604051610300816116fb565b60088152015214610312575b50610243565b60056002840161032281546119a9565b8091556004850161033381546119a9565b9055111561030c5760405161036f9161034b826116fb565b6013825272457863657373697665206a6f6220706f73747360681b86830152611b78565b3861030c565b60006001830155600060028301554282556101fc565b634e487b7160e01b600052601160045260246000fd5b600080fd5b346103a15760003660031901126103a1576020600854604051908152f35b346103a15760203660031901126103a1576001600160a01b036103e56116e5565b1660005260046020526040600020805461044360018301549260028101549060038101546005600483015492015492604051968796879260a094919796959260c0850198855260208501526040840152606083015260808201520152565b0390f35b346103a15760203660031901126103a1576104606116e5565b610468611ad3565b6001600160a01b039081169081156104b757600054826001600160601b0360a01b821617600055167f8be0079c531659141344cd1fd0a4f28419497f9722a3daafe3b4186f6b6457e0600080a3005b60405162461bcd60e51b815260206004820152602660248201527f4f776e61626c653a206e6577206f776e657220697320746865207a65726f206160448201526564647265737360d01b6064820152608490fd5b346103a15760203660031901126103a1576001600160a01b0361052c6116e5565b16600052600260205260e06040600020600181015490600281015490600381015460048201546005830154916007600685015494015494604051968752602087015260408601526060850152608084015260a083015260c0820152f35b346103a15760203660031901126103a1576105d26105a56116e5565b6001600160a01b038116600090815260026020526040902060060180546105cb906119a9565b9055611b2b565b005b346103a15760003660031901126103a157602060405160c88152f35b346103a15760403660031901126103a15760043560248035801515918282036103a157336000526020916005835260ff60406000205416156108c457841515806108b8575b15610880578460005260038352604060002091600683019182549260ff841661083c5761ffff1990931681151560081b61ff00161760011790925560ff199142600885015560098401336001600160601b0360a01b82541617905561069b6008546119a9565b6008556106d6575b857ff860c9bd736ed88d6dea7355447d5d5cea3d006699fda5b1db5d1df2c6bf9f276040878782519182523390820152a2005b600460018060a01b03600285015416930154918360005260048552604060002092600484019283546019810290808204601914811517156108275783026019029281159184041417156108135750604095937ff860c9bd736ed88d6dea7355447d5d5cea3d006699fda5b1db5d1df2c6bf9f27979593600080516020611da483398151915293603260648a9504936003810161077386825461197c565b905561077e886119df565b90818555600542910155106107a3575b505490825191825285820152a29181936106a3565b856000526006875260018460002091825416179055847fcc1cf21b75158e751a071cc4770b92cde8bb2bc34f9187eedd0592b874a5566960608551898152601a8a8201527f52657075746174696f6e2062656c6f77207468726573686f6c6400000000000087820152a28a61078e565b634e487b7160e01b60009081526011600452fd5b82634e487b7160e01b60005260116004526000fd5b60405162461bcd60e51b8152600481018790526017818501527f5265706f727420616c7265616479207265736f6c7665640000000000000000006044820152606490fd5b60405162461bcd60e51b81526004810184905260118184015270125b9d985b1a59081c995c1bdc9d081251607a1b6044820152606490fd5b50600754851115610635565b60405162461bcd60e51b815260048101849052601681840152752737ba1030903a393ab9ba32b2103b32b934b334b2b960511b6044820152606490fd5b346103a15760203660031901126103a15760043560005260036020526040600020805461044360018060a01b03918260018501541692806002860154169460048101549260068201549060078301549260088101549460098201541695610976600561096f60038501611818565b9301611818565b916040519a8b9a60ff808860081c169716958c611905565b346103a15760203660031901126103a1576004356000526003602052604060002080549061044360018060a01b0392836001840154169284600282015416946109d960038301611818565b926004830154906109ec60058501611818565b6006850154926007860154946009600888015497015416966040519a8b9a60ff808860081c169716958c611905565b346103a15760003660031901126103a1576020600754604051908152f35b346103a15760a03660031901126103a157610a526116e5565b60243567ffffffffffffffff81116103a157610a72903690600401611780565b604480356064803567ffffffffffffffff81116103a157610a97903690600401611780565b9260843567ffffffffffffffff81116103a157366023820112156103a157610ac9903690602481600401359101611739565b33600052600660205260ff6040600020541661117157600184101580611166575b1561112b576001600160a01b038716156110f1576001600160a01b03871633146110b6578551156110825784511561104c5760405160208101906001600160601b03198960601b168252610b796054828a51610b4e818d60206034860191016118bd565b81018960348201528a5190610b6a828d602087850191016118bd565b01036034810184520182611717565b5190206040519160208301917f19457468657265756d205369676e6564204d6573736167653a0a3332000000008352603c840152603c8352606083019183831067ffffffffffffffff841117610f3157610be493610bdc93604052519020611bc2565b919091611bfa565b336001600160a01b0390911603611017575050610c026007546119a9565b918260075560405191610160830183811067ffffffffffffffff821117610f315760405283835233602084015260018060a01b0386166040840152846060840152608083015260a0820152600060c0820152600060e0820152426101008201526000610120820152600061014082015281600052600360205260406000208151815560018060a01b036020830151166001600160601b0360a01b6001830154161760018201556002810160018060a01b036040840151166001600160601b0360a01b825416179055606082015180519067ffffffffffffffff8211610f31578190610cf060038501546117de565b601f8111610fc4575b50602090601f8311600114610f5257600092610f47575b50508160011b916000199060031b1c19161760038201555b6080820151600482015560a082015180519067ffffffffffffffff8211610f3157610d5660058401546117de565b601f8111610eea575b50602090601f8311600114610e7757600993929160009183610e6c575b50508160011b916000199060031b1c19161760058201555b610dcc6006820160c0850151151560ff8019835416911617815560e0850151151561ff00825491151560081b169061ff001916179055565b6101008301516007820155610120830151600882015561014090920151910180546001600160a01b0319166001600160a01b03928316179055831660009081526002602052604090206005018054610e23906119a9565b90557febcd02f1ed8af4bdea0ef6a2698804d151870a540444b754f3a5f9627ed3f3a4604051936020855260018060a01b03169380610e67339560208301906118e0565b0390a4005b015190508880610d7c565b906005840160005260206000209160005b601f1985168110610ed2575091839160019360099695601f19811610610eb9575b505050811b016005820155610d94565b015160001960f88460031b161c19169055888080610ea9565b91926020600181928685015181550194019201610e88565b600584016000526020600020601f840160051c810160208510610f2a575b601f830160051c82018110610f1e575050610d5f565b60008155600101610f08565b5080610f08565b634e487b7160e01b600052604160045260246000fd5b015190508780610d10565b9250600384016000526020600020906000935b601f1984168510610fa9576001945083601f19811610610f90575b505050811b016003820155610d28565b015160001960f88460031b161c19169055878080610f80565b81810151835560209485019460019093019290910190610f65565b909150600384016000526020600020601f840160051c810160208510611010575b90849392915b601f830160051c82018110611001575050610cf9565b60008155859450600101610feb565b5080610fe5565b70496e76616c6964207369676e617475726560781b6040519162461bcd60e51b83526020600484015260116024840152820152fd5b5070115d9a59195b98d9481c995c5d5a5c9959607a1b6040519162461bcd60e51b83526020600484015260116024840152820152fd5b506e1499585cdbdb881c995c5d5a5c9959608a1b6040519162461bcd60e51b835260206004840152600f6024840152820152fd5b507521b0b73737ba103932b837b93a103cb7bab939b2b63360511b6040519162461bcd60e51b83526020600484015260166024840152820152fd5b507424b73b30b634b2103932b837b93a32b2103ab9b2b960591b6040519162461bcd60e51b83526020600484015260156024840152820152fd5b5075125b9d985b1a59081cd95d995c9a5d1e481b195d995b60521b6040519162461bcd60e51b83526020600484015260166024840152820152fd5b506005841115610aea565b5072155cd95c881a5cc8189b1858dadb1a5cdd1959606a1b6040519162461bcd60e51b83526020600484015260136024840152820152fd5b346103a15760203660031901126103a1576001600160a01b036111ca6116e5565b1660005260026020526101006040600020805490600181015490600281015460038201546004830154906005840154926007600686015495015495604051978852602088015260408701526060860152608085015260a084015260c083015260e0820152f35b346103a15760003660031901126103a1576000546040516001600160a01b039091168152602090f35b346103a15760203660031901126103a1576112726116e5565b61127a611ad3565b6001600160a01b03166000818152600660205260408120805460ff191690557f0e8627d8a3ba37f2a00b3ae4503c200e696f351225f168df1d3e84eed8009ff99080a2005b346103a15760003660031901126103a15760206040516102588152f35b346103a15760203660031901126103a1576112f56116e5565b6112fd611ad3565b6001600160a01b03166000908152600560205260409020805460ff19169055005b346103a15760003660031901126103a157602060405160198152f35b346103a15760003660031901126103a157611353611ad3565b600080546001600160a01b0319811682556001600160a01b03167f8be0079c531659141344cd1fd0a4f28419497f9722a3daafe3b4186f6b6457e08280a3005b346103a15760203660031901126103a1576105d26113af6116e5565b6001600160a01b038116600090815260026020526040902060070180546105cb906119a9565b346103a15760203660031901126103a1576113ee6116e5565b60018060a01b0381169081600052600460205260406000209060026020526040600020606483556006810190815490600a820291808304600a149015171561038b57611446916001860155600783549101549061197c565b6002840191600083558161148d575b85600080516020611da4833981519152604087611471886119df565b90816004820155600542910155815190815260006020820152a2005b939193549260648402938085046064149015171561038b57600080516020611da4833981519152946114c461147193604096611989565b905592829450611455565b346103a15760003660031901126103a1576020604051600a8152f35b346103a15760003660031901126103a157602060405160058152f35b346103a15760203660031901126103a1576115206116e5565b611528611ad3565b6001600160a01b03166000908152600560205260409020805460ff19166001179055005b346103a15760203660031901126103a1576001600160a01b0361156d6116e5565b166000526006602052602060ff604060002054166040519015158152f35b346103a1576115fd7fcc1cf21b75158e751a071cc4770b92cde8bb2bc34f9187eedd0592b874a556696115bd3661179e565b92906115c7611ad3565b60018060a01b0316928360005260066020526040600020600160ff198254161790556040519182916020835260208301906118e0565b0390a2005b346103a15760003660031901126103a157604060075460085482519182526020820152f35b346103a15760003660031901126103a15760206040516101908152f35b346103a15760203660031901126103a1576001600160a01b036116656116e5565b166000526005602052602060ff604060002054166040519015158152f35b346103a15760003660031901126103a15760206040516103208152f35b346103a15760203660031901126103a15760206116c36116be6116e5565b6119df565b604051908152f35b346103a15760003660031901126103a15780603260209252f35b600435906001600160a01b03821682036103a157565b6040810190811067ffffffffffffffff821117610f3157604052565b90601f8019910116810190811067ffffffffffffffff821117610f3157604052565b92919267ffffffffffffffff8211610f315760405191611763601f8201601f191660200184611717565b8294818452818301116103a1578281602093846000960137010152565b9080601f830112156103a15781602061179b93359101611739565b90565b9060406003198301126103a1576004356001600160a01b03811681036103a157916024359067ffffffffffffffff82116103a15761179b91600401611780565b90600182811c9216801561180e575b60208310146117f857565b634e487b7160e01b600052602260045260246000fd5b91607f16916117ed565b9060405191826000825461182b816117de565b9081845260209460019160018116908160001461189b575060011461185c575b50505061185a92500383611717565b565b600090815285812095935091905b81831061188357505061185a935082010138808061184b565b8554888401850152948501948794509183019161186a565b9250505061185a94925060ff191682840152151560051b82010138808061184b565b60005b8381106118d05750506000910152565b81810151838201526020016118c0565b906020916118f9815180928185528580860191016118bd565b601f01601f1916010190565b99959061195b9398946101409a969361194892999e9d9960608e610160938493825260018060a01b039e8f809216602084015216604082015201528c01906118e0565b9160808b015289820360a08b01526118e0565b98151560c0880152151560e087015261010086015261012085015216910152565b9190820180921161038b57565b8115611993570490565b634e487b7160e01b600052601260045260246000fd5b600019811461038b5760010190565b604051906119c5826116fb565b600b82526a30b8383634b1b0ba34b7b760a91b6020830152565b60009060018060a01b0316815260026020526040812090600460205260408120916006810154600a810290801592818304600a14841715611abf576007611a289101548261197c565b90849382611a83575b50505060640180606411611a6f57600391611a4b9161197c565b9201548203918211611a5b575090565b634e487b7160e01b81526011600452602490fd5b634e487b7160e01b83526011600452602483fd5b9091929350606482029182046064141715611aab5790611aa291611989565b90388080611a31565b634e487b7160e01b84526011600452602484fd5b634e487b7160e01b85526011600452602485fd5b6000546001600160a01b03163303611ae757565b606460405162461bcd60e51b815260206004820152602060248201527f4f776e61626c653a2063616c6c6572206973206e6f7420746865206f776e65726044820152fd5b600080516020611da4833981519152604060018060a01b03831692836000526004602052611b5c82600020916119df565b90816004820155600542910155815190815260006020820152a2565b9060007febcd02f1ed8af4bdea0ef6a2698804d151870a540444b754f3a5f9627ed3f3a4604051936020855260018060a01b03169380611bbd309560208301906118e0565b0390a4565b906041815114600014611bf057611bec916020820151906060604084015193015160001a90611d14565b9091565b5050600090600290565b6005811015611cfe5780611c0b5750565b60018103611c585760405162461bcd60e51b815260206004820152601860248201527f45434453413a20696e76616c6964207369676e617475726500000000000000006044820152606490fd5b60028103611ca55760405162461bcd60e51b815260206004820152601f60248201527f45434453413a20696e76616c6964207369676e6174757265206c656e677468006044820152606490fd5b600314611cae57565b60405162461bcd60e51b815260206004820152602260248201527f45434453413a20696e76616c6964207369676e6174757265202773272076616c604482015261756560f01b6064820152608490fd5b634e487b7160e01b600052602160045260246000fd5b9291907f7fffffffffffffffffffffffffffffff5d576e7357a4501ddfe92f46681b20a08311611d975791608094939160ff602094604051948552168484015260408301526060820152600093849182805260015afa15611d8a5781516001600160a01b03811615611d84579190565b50600190565b50604051903d90823e3d90fd5b5050505060009060039056fe5b88a2e3fc1a53234357ab78c104df11c33ccfa79886793654565ad70b8afb6ea26469706673582212200d7ed05087c116dd86ab4f71ebdcc4f133c2bfa4eea21f670c7b2eb7fdeb790164736f6c63430008180033",
  "linkReferences": {},
  "deployedLinkReferences": {}
}