{
  "_format": "hh-sol-artifact-1",
  "contractName": "UserProfile",
  "sourceName": "contracts/UserProfile.sol",
  "abi": [
    {
      "anonymous": false,
      "inputs": [
        {
          "indexed": true,
          "internalType": "address",
          "name": "previousOwner",
          "type": "address"
        },
        {
          "indexed": true,
          "internalType": "address",
          "name": "newOwner",
          "type": "address"
        }
      ],
      "name": "OwnershipTransferred",
      "type": "event"
    },
    {
      "anonymous": false,
      "inputs": [
        {
          "indexed": false,
          "internalType": "address",
          "name": "account",
          "type": "address"
        }
      ],
      "name": "Paused",
      "type": "event"
    },
    {
      "anonymous": false,
      "inputs": [
        {
          "indexed": true,
          "internalType": "address",
          "name": "user",
          "type": "address"
        },
        {
          "indexed": false,
          "internalType": "string",
          "name": "name",
          "type": "string"
        },
        {
          "indexed": false,
          "internalType": "string",
          "name": "avatarHash",
          "type": "string"
        }
      ],
      "name": "ProfileCreated",
      "type": "event"
    },
    {
      "anonymous": false,
      "inputs": [
        {
          "indexed": true,
          "internalType": "address",
          "name": "user",
          "type": "address"
        }
      ],
      "name": "ProfileDeactivated",
      "type": "event"
    },
    {
      "anonymous": false,
      "inputs": [
        {
          "indexed": true,
          "internalType": "address",
          "name": "user",
          "type": "address"
        }
      ],
      "name": "ProfileReactivated",
      "type": "event"
    },
    {
      "anonymous": false,
      "inputs": [
        {
          "indexed": true,
          "internalType": "address",
          "name": "user",
          "type": "address"
        },
        {
          "indexed": false,
          "internalType": "string",
          "name": "name",
          "type": "string"
        },
        {
          "indexed": false,
          "internalType": "string",
          "name": "avatarHash",
          "type": "string"
        }
      ],
      "name": "ProfileUpdated",
      "type": "event"
    },
    {
      "anonymous": false,
      "inputs": [
        {
          "indexed": false,
          "internalType": "address",
          "name": "account",
          "type": "address"
        }
      ],
      "name": "Unpaused",
      "type": "event"
    },
    {
      "inputs": [
        {
          "internalType": "address",
          "name": "user",
          "type": "address"
        }
      ],
      "name": "checkProfileExists",
      "outputs": [
        {
          "internalType": "bool",
          "name": "",
          "type": "bool"
        }
      ],
      "stateMutability": "view",
      "type": "function"
    },
    {
      "inputs": [
        {
          "internalType": "string",
          "name": "_name",
          "type": "string"
        },
        {
          "internalType": "string",
          "name": "_email",
          "type": "string"
        },
        {
          "internalType": "string",
          "name": "_bio",
          "type": "string"
        },
        {
          "internalType": "string",
          "name": "_avatarHash",
          "type": "string"
        },
        {
          "internalType": "string",
          "name": "_coverHash",
          "type": "string"
        },
        {
          "internalType": "string[]",
          "name": "_socialLinks",
          "type": "string[]"
        },
        {
          "internalType": "string[]",
          "name": "_skills",
          "type": "string[]"
        },
        {
          "internalType": "uint256[]",
          "name": "_skillScores",
          "type": "uint256[]"
        },
        {
          "internalType": "string",
          "name": "_location",
          "type": "string"
        },
        {
          "internalType": "string",
          "name": "_website",
          "type": "string"
        },
        {
          "internalType": "string",
          "name": "_github",
          "type": "string"
        },
        {
          "internalType": "string",
          "name": "_linkedin",
          "type": "string"
        },
        {
          "internalType": "string",
          "name": "_twitter",
          "type": "string"
        }
      ],
      "name": "createProfile",
      "outputs": [],
      "stateMutability": "nonpayable",
      "type": "function"
    },
    {
      "inputs": [],
      "name": "deactivateProfile",
      "outputs": [],
      "stateMutability": "nonpayable",
      "type": "function"
    },
    {
      "inputs": [
        {
          "internalType": "address",
          "name": "user",
          "type": "address"
        }
      ],
      "name": "getProfile",
      "outputs": [
        {
          "components": [
            {
              "internalType": "string",
              "name": "name",
              "type": "string"
            },
            {
              "internalType": "string",
              "name": "email",
              "type": "string"
            },
            {
              "internalType": "string",
              "name": "bio",
              "type": "string"
            },
            {
              "internalType": "string",
              "name": "avatarHash",
              "type": "string"
            },
            {
              "internalType": "string",
              "name": "coverHash",
              "type": "string"
            },
            {
              "internalType": "string[]",
              "name": "socialLinks",
              "type": "string[]"
            },
            {
              "internalType": "string[]",
              "name": "skills",
              "type": "string[]"
            },
            {
              "internalType": "uint256[]",
              "name": "skillScores",
              "type": "uint256[]"
            },
            {
              "internalType": "string",
              "name": "location",
              "type": "string"
            },
            {
              "internalType": "string",
              "name": "website",
              "type": "string"
            },
            {
              "internalType": "string",
              "name": "github",
              "type": "string"
            },
            {
              "internalType": "string",
              "name": "linkedin",
              "type": "string"
            },
            {
              "internalType": "string",
              "name": "twitter",
              "type": "string"
            },
            {
              "internalType": "uint256",
              "name": "createdAt",
              "type": "uint256"
            },
            {
              "internalType": "uint256",
              "name": "updatedAt",
              "type": "uint256"
            },
            {
              "internalType": "bool",
              "name": "isActive",
              "type": "bool"
            }
          ],
          "internalType": "struct UserProfile.Profile",
          "name": "",
          "type": "tuple"
        }
      ],
      "stateMutability": "view",
      "type": "function"
    },
    {
      "inputs": [
        {
          "internalType": "uint256",
          "name": "index",
          "type": "uint256"
        }
      ],
      "name": "getProfileAddress",
      "outputs": [
        {
          "internalType": "address",
          "name": "",
          "type": "address"
        }
      ],
      "stateMutability": "view",
      "type": "function"
    },
    {
      "inputs": [
        {
          "internalType": "address",
          "name": "user",
          "type": "address"
        }
      ],
      "name": "getProfileBasicInfo",
      "outputs": [
        {
          "internalType": "string",
          "name": "",
          "type": "string"
        },
        {
          "internalType": "string",
          "name": "",
          "type": "string"
        },
        {
          "internalType": "string",
          "name": "",
          "type": "string"
        },
        {
          "internalType": "string",
          "name": "",
          "type": "string"
        },
        {
          "internalType": "string",
          "name": "",
          "type": "string"
        },
        {
          "internalType": "string",
          "name": "",
          "type": "string"
        },
        {
          "internalType": "string",
          "name": "",
          "type": "string"
        },
        {
          "internalType": "string",
          "name": "",
          "type": "string"
        },
        {
          "internalType": "string",
          "name": "",
          "type": "string"
        },
        {
          "internalType": "string",
          "name": "",
          "type": "string"
        },
        {
          "internalType": "uint256",
          "name": "",
          "type": "uint256"
        },
        {
          "internalType": "uint256",
          "name": "",
          "type": "uint256"
        },
        {
          "internalType": "bool",
          "name": "",
          "type": "bool"
        }
      ],
      "stateMutability": "view",
      "type": "function"
    },
    {
      "inputs": [],
      "name": "getTotalProfiles",
      "outputs": [
        {
          "internalType": "uint256",
          "name": "",
          "type": "uint256"
        }
      ],
      "stateMutability": "view",
      "type": "function"
    },
    {
      "inputs": [
        {
          "internalType": "address",
          "name": "user",
          "type": "address"
        }
      ],
      "name": "getUserSkills",
      "outputs": [
        {
          "internalType": "string[]",
          "name": "",
          "type": "string[]"
        },
        {
          "internalType": "uint256[]",
          "name": "",
          "type": "uint256[]"
        }
      ],
      "stateMutability": "view",
      "type": "function"
    },
    {
      "inputs": [
        {
          "internalType": "address",
          "name": "user",
          "type": "address"
        }
      ],
      "name": "getUserSocialLinks",
      "outputs": [
        {
          "internalType": "string[]",
          "name": "",
          "type": "string[]"
        }
      ],
      "stateMutability": "view",
      "type": "function"
    },
    {
      "inputs": [
        {
          "internalType": "address",
          "name": "",
          "type": "address"
        }
      ],
      "name": "hasProfile",
      "outputs": [
        {
          "internalType": "bool",
          "name": "",
          "type": "bool"
        }
      ],
      "stateMutability": "view",
      "type": "function"
    },
    {
      "inputs": [],
      "name": "owner",
      "outputs": [
        {
          "internalType": "address",
          "name": "",
          "type": "address"
        }
      ],
      "stateMutability": "view",
      "type": "function"
    },
    {
      "inputs": [],
      "name": "pause",
      "outputs": [],
      "stateMutability": "nonpayable",
      "type": "function"
    },
    {
      "inputs": [],
      "name": "paused",
      "outputs": [
        {
          "internalType": "bool",
          "name": "",
          "type": "bool"
        }
      ],
      "stateMutability": "view",
      "type": "function"
    },
    {
      "inputs": [
        {
          "internalType": "uint256",
          "name": "",
          "type": "uint256"
        }
      ],
      "name": "profileAddresses",
      "outputs": [
        {
          "internalType": "address",
          "name": "",
          "type": "address"
        }
      ],
      "stateMutability": "view",
      "type": "function"
    },
    {
      "inputs": [
        {
          "internalType": "address",
          "name": "",
          "type": "address"
        }
      ],
      "name": "profiles",
      "outputs": [
        {
          "internalType": "string",
          "name": "name",
          "type": "string"
        },
        {
          "internalType": "string",
          "name": "email",
          "type": "string"
        },
        {
          "internalType": "string",
          "name": "bio",
          "type": "string"
        },
        {
          "internalType": "string",
          "name": "avatarHash",
          "type": "string"
        },
        {
          "internalType": "string",
          "name": "coverHash",
          "type": "string"
        },
        {
          "internalType": "string",
          "name": "location",
          "type": "string"
        },
        {
          "internalType": "string",
          "name": "website",
          "type": "string"
        },
        {
          "internalType": "string",
          "name": "github",
          "type": "string"
        },
        {
          "internalType": "string",
          "name": "linkedin",
          "type": "string"
        },
        {
          "internalType": "string",
          "name": "twitter",
          "type": "string"
        },
        {
          "internalType": "uint256",
          "name": "createdAt",
          "type": "uint256"
        },
        {
          "internalType": "uint256",
          "name": "updatedAt",
          "type": "uint256"
        },
        {
          "internalType": "bool",
          "name": "isActive",
          "type": "bool"
        }
      ],
      "stateMutability": "view",
      "type": "function"
    },
    {
      "inputs": [],
      "name": "reactivateProfile",
      "outputs": [],
      "stateMutability": "nonpayable",
      "type": "function"
    },
    {
      "inputs": [],
      "name": "renounceOwnership",
      "outputs": [],
      "stateMutability": "nonpayable",
      "type": "function"
    },
    {
      "inputs": [
        {
          "internalType": "address",
          "name": "newOwner",
          "type": "address"
        }
      ],
      "name": "transferOwnership",
      "outputs": [],
      "stateMutability": "nonpayable",
      "type": "function"
    },
    {
      "inputs": [],
      "name": "unpause",
      "outputs": [],
      "stateMutability": "nonpayable",
      "type": "function"
    },
    {
      "inputs": [
        {
          "internalType": "string",
          "name": "_avatarHash",
          "type": "string"
        }
      ],
      "name": "updateAvatar",
      "outputs": [],
      "stateMutability": "nonpayable",
      "type": "function"
    },
    {
      "inputs": [
        {
          "internalType": "string",
          "name": "_coverHash",
          "type": "string"
        }
      ],
      "name": "updateCover",
      "outputs": [],
      "stateMutability": "nonpayable",
      "type": "function"
    },
    {
      "inputs": [
        {
          "internalType": "string",
          "name": "_name",
          "type": "string"
        },
        {
          "internalType": "string",
          "name": "_email",
          "type": "string"
        },
        {
          "internalType": "string",
          "name": "_bio",
          "type": "string"
        },
        {
          "internalType": "string",
          "name": "_avatarHash",
          "type": "string"
        },
        {
          "internalType": "string",
          "name": "_coverHash",
          "type": "string"
        },
        {
          "internalType": "string[]",
          "name": "_socialLinks",
          "type": "string[]"
        },
        {
          "internalType": "string[]",
          "name": "_skills",
          "type": "string[]"
        },
        {
          "internalType": "uint256[]",
          "name": "_skillScores",
          "type": "uint256[]"
        },
        {
          "internalType": "string",
          "name": "_location",
          "type": "string"
        },
        {
          "internalType": "string",
          "name": "_website",
          "type": "string"
        },
        {
          "internalType": "string",
          "name": "_github",
          "type": "string"
        },
        {
          "internalType": "string",
          "name": "_linkedin",
          "type": "string"
        },
        {
          "internalType": "string",
          "name": "_twitter",
          "type": "string"
        }
      ],
      "name": "updateProfile",
      "outputs": [],
      "stateMutability": "nonpayable",
      "type": "function"
    }
  ],
  "bytecode": "0x608080604052346100695760008054336001600160a01b0319821681178355916001600160a01b03909116907f8be0079c531659141344cd1fd0a4f28419497f9722a3daafe3b4186f6b6457e09080a36001805560ff1960025416600255611e56908161006f8239f35b600080fdfe6080604052600436101561001257600080fd5b60003560e01c80630f53a47014610fae57806320a17bca14610f33578063240b6d4914610e685780633f4ba83a14610dd4578063422bf49814610bfa5780635c3752f414610a005780635c975abb146109dd578063715018a61461098457806375db7721146109065780638456cb59146108ac5780638da5cb5b146108835780639fe958b9146107b3578063a12f30b914610770578063a787c80b14610770578063bab17ce914610752578063bbe1562714610616578063bc4cb225146103b2578063d190ce951461033f578063d2886ebc14610284578063db8ce08c14610220578063e58b0aa1146101de5763f2fde38b1461010e57600080fd5b346101d95760203660031901126101d9576004356001600160a01b03818116918290036101d95761013d611d72565b811561018557600054826bffffffffffffffffffffffff60a01b821617600055167f8be0079c531659141344cd1fd0a4f28419497f9722a3daafe3b4186f6b6457e0600080a3005b60405162461bcd60e51b815260206004820152602660248201527f4f776e61626c653a206e6577206f776e657220697320746865207a65726f206160448201526564647265737360d01b6064820152608490fd5b600080fd5b346101d95760203660031901126101d9576004356005548110156101d9576102076020916118e2565b905460405160039290921b1c6001600160a01b03168152f35b346101d95760203660031901126101d957600435600554811015610249576102076020916118e2565b60405162461bcd60e51b8152602060048201526013602482015272496e646578206f7574206f6620626f756e647360681b6044820152606490fd5b346101d9576020806003193601126101d9576004356001600160a01b038116908190036101d957908161030392600052600482526102c960ff60406000205416611947565b600052600381526040600020906102ee60076102e76006850161198c565b93016119f3565b90604051938493604085526040850190611885565b8381038285015281808451928381520193019160005b82811061032857505050500390f35b835185528695509381019392810192600101610319565b346101d95760203660031901126101d9576004356001600160a01b038116908190036101d95780600052600460205261037f60ff60406000205416611947565b60005260036020526103ae61039a600560406000200161198c565b604051918291602083526020830190611885565b0390f35b346101d9576103c036611544565b959a9897909496996103d3949294611d2e565b6103db611dca565b33600052600460205260ff604060002054166105d8578c9b9c51151561040090611b63565b8c5188511461040e90611ba6565b3360005260036020526040600020996104278d8c611a5d565b6104349060018c01611a5d565b6104419060028b01611a5d565b61044e8860038b01611a5d565b61045b9060048a01611a5d565b6104689060088901611a5d565b6104759060098801611a5d565b61048290600a8701611a5d565b61048f90600b8601611a5d565b61049c90600c8501611a5d565b42600d84015542600e840155600f83019260ff199384815416600117905560009660058201975b86518110156104e957806104e36104dc6001938a611c7d565b518b611c91565b016104c3565b50869493946000956007600685019401965b8351811015610535578061051b61051460019387611c7d565b5187611c91565b61052f6105288289611c7d565b518a611cd4565b016104fb565b50853360005260046020526001604060002091825416179055600554600160401b8110156105c2577f6b4494367229a908b0585b361e2871a21f8eb4cd852c02f55c9e06989f4bb2aa916105928260016105b994016005556118e2565b81549060031b9033821b9160018060a01b03901b1916179055604051918291339583611d09565b0390a260018055005b634e487b7160e01b600052604160045260246000fd5b60405162461bcd60e51b815260206004820152601660248201527550726f66696c6520616c72656164792065786973747360501b6044820152606490fd5b346101d95760203660031901126101d9576004356001600160a01b038116908190036101d957600052600360205260406000206040516106618161065a81856117ef565b0382611433565b6103ae604051926106808461067981600185016117ef565b0385611433565b6040519061069c8261069581600285016117ef565b0383611433565b6040516106b08161065a81600386016117ef565b6040516106c48161065a81600487016117ef565b6040516106d88161065a81600888016117ef565b6040516106ec8161065a81600989016117ef565b604051906107018261069581600a8a016117ef565b604051926107168461067981600b8b016117ef565b604051946107328661072b81600c8c016117ef565b0387611433565b600d8801549660ff600f600e8b01549a015416996040519d8e9d8e6116e0565b346101d95760003660031901126101d9576020600554604051908152f35b346101d95760203660031901126101d9576004356001600160a01b038116908190036101d9576000526004602052602060ff604060002054166040519015158152f35b346101d95760203660031901126101d95760043567ffffffffffffffff81116101d9576107e4903690600401611455565b6107ec611d2e565b33600052600460205261080660ff60406000205416611947565b336000526003602052610820816003604060002001611a5d565b3360005260036020527f6eb3a1c6a4675ba92d44e090515b1ceea358f26565d2854df0c99c3f5eaf985061086f604060002042600e82015561087e6040519283926040845260408401906117ef565b82810360208401523395611379565b0390a2005b346101d95760003660031901126101d9576000546040516001600160a01b039091168152602090f35b346101d95760003660031901126101d9576108c5611d72565b6108cd611d2e565b600160ff1960025416176002557f62e78cea01bee320cd4e420270b5ea74000d11b0c9f74754ebdbfc544b05a2586020604051338152a1005b346101d95760003660031901126101d95761091f611d2e565b33600052600460205261093960ff60406000205416611947565b3360005260036020526040600020600f8101600160ff19825416179055600e42910155337f2f8799ef4f000b97cdf991687848135ef7312e252e0ff97e8c595a91771a0523600080a2005b346101d95760003660031901126101d95761099d611d72565b600080546001600160a01b0319811682556001600160a01b03167f8be0079c531659141344cd1fd0a4f28419497f9722a3daafe3b4186f6b6457e08280a3005b346101d95760003660031901126101d957602060ff600254166040519015158152f35b346101d95760203660031901126101d9576004356001600160a01b038116908190036101d957806000526004602052610a4060ff60406000205416611947565b60005260036020526040600020604051610a5981611416565b604051610a6a8161065a81866117ef565b81526103ae60405191610a8b83610a8481600188016117ef565b0384611433565b602081019283526101c06101a061018060405196610ab788610ab081600285016117ef565b0389611433565b6040850197885260405190610ad38261069581600385016117ef565b60608601918252604051610aee8161065a81600486016117ef565b60808701908152610b016005830161198c565b60a0880152610b126006830161198c565b60c0880152610b23600783016119f3565b60e0880152604051610b3c8161065a81600887016117ef565b610100880190815260405190610b598261069581600988016117ef565b610120890191825260405192610b768461067981600a89016117ef565b6101408a0193845260ff600f60405196610b9788610ab081600b85016117ef565b6101608d019788528c6040519a8b91610bb783610a8481600c88016117ef565b01528c600d8201549b8c9101528c600e8201549c8d9101520154161515998a6101e0820152519b519c51955190519151925193519451956040519d8e9d8e6116e0565b346101d957610c0836611544565b959a9b989790949699610c1c949294611d2e565b610c24611dca565b33600052600460205260406000205460ff16610c3f90611947565b89511515610c4c90611b63565b8b51885114610c5a90611ba6565b33600052600360205260406000209c8d610c748c82611a5d565b60010190610c8191611a5d565b610c8e9060028e01611a5d565b610c9b8860038e01611a5d565b610ca89060048d01611a5d565b610cb59060088c01611a5d565b610cc29060098b01611a5d565b610ccf90600a8a01611a5d565b610cdc90600b8901611a5d565b610ce990600c8801611a5d565b42600e8701556005860195610cfd87611bfc565b60005b8551811015610d265780610d20610d1960019389611c7d565b518a611c91565b01610d00565b508560076006830192610d3884611bfc565b019485546000875580610db8575b5060005b8251811015610d845780610d6a610d6360019386611c7d565b5186611c91565b610d7e610d778288611c7d565b5189611cd4565b01610d4a565b507f6eb3a1c6a4675ba92d44e090515b1ceea358f26565d2854df0c99c3f5eaf98506105b986604051918291339583611d09565b610dce9087600052602060002090810190611a46565b86610d46565b346101d95760003660031901126101d957610ded611d72565b60025460ff811615610e2c5760ff19166002557f5db9ee0a495bf2e6ff9c91a7834c1ba4fdd244a5e8aa4e537bd38aeae4b073aa6020604051338152a1005b60405162461bcd60e51b815260206004820152601460248201527314185d5cd8589b194e881b9bdd081c185d5cd95960621b6044820152606490fd5b346101d95760203660031901126101d95760043567ffffffffffffffff81116101d957610e9c610ed4913690600401611455565b610ea4611d2e565b336000526004602052610ebe60ff60406000205416611947565b3360005260036020526004604060002001611a5d565b336000526003602052604060002042600e8201557f6eb3a1c6a4675ba92d44e090515b1ceea358f26565d2854df0c99c3f5eaf9850604051604081528061087e610f2160408301866117ef565b828103602084015260033396016117ef565b346101d95760003660031901126101d957610f4c611d2e565b336000526004602052610f6660ff60406000205416611947565b3360005260036020526040600020600f810160ff198154169055600e42910155337f54a43e4629a715b7e7723ff4f7400f2b5804224e3c8fcf6c96d0bbb46ae02c93600080a2005b346101d95760203660031901126101d9576004356001600160a01b03811681036101d957610fdc6080611416565b6060608081905260a081905260c081905260e08190526101008190526101208190526101408190526101608190526101808190526101a08190526101c08190526101e08190526102005260006102208190526102408190526102608190526001600160a01b03821681526004602052604090205461105c9060ff16611947565b60018060a01b03166000526003602052604060002060ff600f6040519261108284611416565b6040516110938161065a81856117ef565b84526040516110a98161065a81600186016117ef565b60208501526040516110c28161065a81600286016117ef565b60408501526040516110db8161065a81600386016117ef565b60608501526040516110f48161065a81600486016117ef565b60808501526111056005820161198c565b60a08501526111166006820161198c565b60c0850152611127600782016119f3565b60e08501526040516111408161065a81600886016117ef565b61010085015260405161115a8161065a81600986016117ef565b6101208501526040516111748161065a81600a86016117ef565b61014085015260405161118e8161065a81600b86016117ef565b6101608501526040516111a88161065a81600c86016117ef565b610180850152600d8101546101a0850152600e8101546101c085015201541615156101e08201526040516020815261128461126e61125861124261122c611216611200885161020060208a0152610220890190611379565b6020890151888203601f190160408a0152611379565b6040880151878203601f19016060890152611379565b6060870151868203601f19016080880152611379565b6080860151858203601f190160a0870152611379565b60a0850151848203601f190160c08601526113b9565b60c0840151838203601f190160e08501526113b9565b9160e081015192601f19838203016101008401526020808551928381520194019060005b818110611363575050506101e061133e61132661130e6112f66112de8798610100880151601f198a8303016101208b0152611379565b610120870151888203601f19016101408a0152611379565b610140860151878203601f1901610160890152611379565b610160850151868203601f1901610180880152611379565b610180840151858203601f19016101a0870152611379565b916101a08101516101c08501526101c081015182850152015115156102008301520390f35b82518652602095860195909201916001016112a8565b919082519283825260005b8481106113a5575050826000602080949584010152601f8019910116010190565b602081830181015184830182015201611384565b90808251908181526020809101926020808460051b8301019501936000915b8483106113e85750505050505090565b9091929394958480611406600193601f198682030187528a51611379565b98019301930191949392906113d8565b610200810190811067ffffffffffffffff8211176105c257604052565b90601f8019910116810190811067ffffffffffffffff8211176105c257604052565b81601f820112156101d95780359067ffffffffffffffff82116105c2576040519261148a601f8401601f191660200185611433565b828452602083830101116101d957816000926020809301838601378301015290565b67ffffffffffffffff81116105c25760051b60200190565b81601f820112156101d9578035916020916114de846114ac565b936114ec6040519586611433565b808552838086019160051b830101928084116101d957848301915b8483106115175750505050505090565b823567ffffffffffffffff81116101d957869161153984848094890101611455565b815201920191611507565b6101a06003198201126101d95760049067ffffffffffffffff82358181116101d95782611572918501611455565b936024358281116101d95783611589918601611455565b936044358381116101d957846115a0918301611455565b936064358481116101d957816115b7918401611455565b936084358181116101d957826115ce918501611455565b9360a4358281116101d957836115e59186016114c4565b9360c4358381116101d957846115fc9183016114c4565b9360e4358481116101d957816023820112156101d9578083013561161f816114ac565b9161162d6040519384611433565b8183526020916024602085019160051b830101918583116101d957602401905b8282106116d1575050505093610104358181116101d95782611670918501611455565b93610124358281116101d95783611688918601611455565b93610144358381116101d957846116a0918301611455565b93610164358481116101d957816116b8918401611455565b93610184359081116101d9576116ce9201611455565b90565b8135815290830190830161164d565b9b98948c6101809c9f9e9b9892976117596117679361174b6117839961173d6117a19f9a61172f6117929f9b6117216117759d6101a0808d528c0190611379565b908a820360208c0152611379565b9088820360408a0152611379565b908682036060880152611379565b908482036080860152611379565b9160a0818403910152611379565b8c810360c08e015290611379565b908a820360e08c0152611379565b908882036101008a0152611379565b90868203610120880152611379565b956101408501526101608401521515910152565b90600182811c921680156117e5575b60208310146117cf57565b634e487b7160e01b600052602260045260246000fd5b91607f16916117c4565b8054600093926117fe826117b5565b918282526020936001916001811690816000146118665750600114611825575b5050505050565b90939495506000929192528360002092846000945b8386106118525750505050010190388080808061181e565b80548587018301529401938590820161183a565b60ff19168685015250505090151560051b01019150388080808061181e565b90808251908181526020809101926020808460051b8301019501936000915b8483106118b45750505050505090565b90919293949584806118d2600193601f198682030187528a51611379565b98019301930191949392906118a4565b6005548110156119195760056000527f036b6384b5eca791c62761152d0c79bb0604c104a5fb6f4eb0703f3154bb3db00190600090565b634e487b7160e01b600052603260045260246000fd5b80548210156119195760005260206000200190600090565b1561194e57565b60405162461bcd60e51b8152602060048201526016602482015275141c9bd99a5b1948191bd95cc81b9bdd08195e1a5cdd60521b6044820152606490fd5b908154611998816114ac565b926040936119a96040519182611433565b82815280946020809201926000526020600020906000935b8585106119d057505050505050565b600184819284516119e58161065a818a6117ef565b8152019301940193916119c1565b90604051918281549182825260209260208301916000526020600020936000905b828210611a2c57505050611a2a92500383611433565b565b855484526001958601958895509381019390910190611a14565b818110611a51575050565b60008155600101611a46565b919091825167ffffffffffffffff81116105c257611a7b82546117b5565b601f8111611b26575b50602080601f8311600114611ac1575081929394600092611ab6575b50508160011b916000199060031b1c1916179055565b015190503880611aa0565b90601f19831695846000526020600020926000905b888210611b0e57505083600195969710611af5575b505050811b019055565b015160001960f88460031b161c19169055388080611aeb565b80600185968294968601518155019501930190611ad6565b611b5390836000526020600020601f840160051c81019160208510611b59575b601f0160051c0190611a46565b38611a84565b9091508190611b46565b15611b6a57565b60405162461bcd60e51b81526020600482015260146024820152734e616d652063616e6e6f7420626520656d70747960601b6044820152606490fd5b15611bad57565b60405162461bcd60e51b815260206004820152602160248201527f536b696c6c7320616e642073636f726573206c656e677468206d69736d6174636044820152600d60fb1b6064820152608490fd5b80549060009081815582611c0f57505050565b81526020808220928301925b838110611c285750505050565b8083611c36600193546117b5565b80611c44575b505001611c1b565b601f8082118514611c5b57505081555b8338611c3c565b611c7490848452868420920160051c8201858301611a46565b81835555611c54565b80518210156119195760209160051b010190565b8054600160401b8110156105c257611cae9160018201815561192f565b919091611cbe57611a2a91611a5d565b634e487b7160e01b600052600060045260246000fd5b8054600160401b8110156105c257611cf19160018201815561192f565b819291549060031b91821b91600019901b1916179055565b9091611d206116ce93604084526040840190611379565b916020818403910152611379565b60ff60025416611d3a57565b60405162461bcd60e51b815260206004820152601060248201526f14185d5cd8589b194e881c185d5cd95960821b6044820152606490fd5b6000546001600160a01b03163303611d8657565b606460405162461bcd60e51b815260206004820152602060248201527f4f776e61626c653a2063616c6c6572206973206e6f7420746865206f776e65726044820152fd5b600260015414611ddb576002600155565b60405162461bcd60e51b815260206004820152601f60248201527f5265656e7472616e637947756172643a207265656e7472616e742063616c6c006044820152606490fdfea264697066735822122035390b218cd9ab6f32ee755d7ce626e9a22277acae686061b90be62ed1b0421364736f6c63430008180033",
  "linkReferences": {},
  "deployedLinkReferences": {}
}